:1000000000000320D1010000099E0000C19D0000F6
:10001000C19D0000C19D0000C19D0000C19D000068
:10002000C19D0000C19D0000C19D0000099E00000F
:10003000099E0000C19D00005DB5000061B5000093
:10004000099E0000099E0000099E0000099E000014
:10005000099E0000099E0000099E0000099E000004
:10006000099E0000099E0000099E0000099E0000F4
:10007000099E0000099E0000099E0000099E0000E4
:10008000099E0000099E0000099E0000099E0000D4
:10009000099E0000099E0000099E0000099E0000C4
:1000A000E5900000F1900000099E0000099E00000C
:1000B000099E0000099E0000099E0000099E0000A4
:1000C000099E0000099E0000099E0000099E000094
:1000D000099E0000099E0000099E0000099E000084
:1000E000099E0000099E0000099E0000099E000074
:1000F000099E0000099E0000099E0000099E000064
:10010000099E0000099E0000099E0000099E000053
:10011000C598000079A70000099E0000099E000014
:10012000099E0000099E0000099E0000099E000033
:10013000099E0000099E0000099E0000099E000023
:10014000099E0000099E0000099E0000099E000013
:10015000099E0000099E0000099E0000099E000003
:10016000099E0000099E0000FD900000099E00000D
:10017000099E0000099E0000099E0000099E0000E3
:10018000099E0000099E0000099E0000099E0000D3
:10019000099E0000099E0000099E0000099E0000C3
:1001A000099E0000099E0000099E0000099E0000B3
:1001B000099E0000099E0000099E0000099E0000A3
:1001C000099E0000099E0000099E0000099E000093
:1001D0005C4B4CF2205210B51A804DF628121A8052
:1001E00000BF00BF09F014FE574B4FF030621A6099
:1001F000564A9A60564ADA60564B4FF470021A60BB
:10020000554B564A1A60564B1A78110703D51A787F
:1002100042F008021A70534B5349AA221A70534AEB
:10022000534B8B4204D252F8040F43F8040BF8E707
:10023000504B514900228B4202D243F8042BFAE77B
:100240004E494F4A002352F8230041F8230001335E
:10025000742BF8D14B4B4C4A802103F8011B93427D
:10026000FBD14A4B454A1A60494B8A221A70A3F5C2
:10027000805324225A70A0221A709A799207FCD5D2
:100280009A79D406FCD4434A937903F00C03082BE3
:10029000FAD1414B60221A7002331A78802AFCD1BD
:1002A0003C4B01221A715D225A719A799006FCD555
:1002B0009979384A4906FBD5384B394919600021EC
:1002C000596020231370937903F00C030C2BFAD19F
:1002D000344B354A1A60354A354C136813F4807331
:1002E00003D123604FF4A8531360324B324A1A6093
:1002F00000225A60072243F8042C304AC3F80C2D20
:1003000062B60AF0C9F82368DA0705D52C4809F067
:10031000B1FE2C4B2C4A1A602C4B1B785B0609D57E
:10032000284C294B22689A4204D1254809F0A2FEA4
:100330000023236009F072FD0DF082F809F064FCDF
:10034000FEE700BF0E20054030800440823F0400DD
:100350000100002B88ED00E0002008E0030000858C
:1003600002D0074000E00740E817FF1F58220100B5
:100370003007FF1FE817FF1FBC22FF1F0002FF1FEF
:100380000000000000E400E064E400E008ED00E0AC
:10039000005006400040064001E007404480044011
:1003A0000000060204800440C010070010D0034083
:1003B00014D0034014E000E01FBF02000000202022
:1003C000BA732F621CE00340A5C3945A00F00740A3
:1003D000FFFFFFFFFFFFFFFFFFFFFFFFFFFFFFFF2D
:1003E000FFFFFFFFFFFFFFFFFFFFFFFFFFFFFFFF1D
:1003F000FFFFFFFFFFFFFFFFFFFFFFFFFFFFFFFF0D
:10040000FFFFFFFFFFFFFFFFFFFFFFFFDEF9FFFF23
:1004100010B5054C237833B9044B13B10448AFF33E
:1004200000800123237010BDE817FF1F00000000AB
:1004300054220100084B10B51BB108490848AFF31E
:1004400000800848036803B910BD074B002BFBD0A0
:10045000BDE81040184700BF00000000EC17FF1F68
:1004600054220100E817FF1F0000000043680B70D2
:1004700043681B0A4B70C3888B70C379CB70836849
:100480000B7183681B0A4B7143898B71C37ACB71E3
:10049000082070470B7843604A7843EA02234360A0
:1004A0008A7843EA02434360CA7843EA02634360BE
:1004B0000B7983604A7943EA022383608A7943EAAD
:1004C00002438360CA7943EA02638360082070476D
:1004D00000487047781701000048704788170100EE
:1004E000F0B50C460A788280064614F8010F002306
:1004F00042EA0022B2801A4614F8010F98400833ED
:10050000202B42EA0002F7D1971D062F58D901F19E
:10051000050E551D73464C1913F8010F03F8010C15
:10052000A342F9D100234B5518460D44C6F808E004
:1005300015F8014F84400830202843EA0403F7D11E
:10054000381D0344834209D909320A440446013460
:1005500012F8015F02F8015CA342F8D80138CF1805
:100560000024084407F8014C2246F06017F8015BAC
:1005700095400832202A44EA0504F7D1181D0444A6
:10058000A04209D203330B440246013213F8015F43
:1005900003F8015CA242F8D30D1901380844002386
:1005A00005F8013C3061A8786B780A5DED780104AC
:1005B00041EA0323134343EA0563201D7361F0BD41
:1005C000551D01F1050EADE700487047AC1701005D
:1005D00000487047C81701000B78F0B4037100237E
:1005E00006460C461D4614F8012F9A400833202B6E
:1005F00045EA0205F7D1681D052801F1040708D96D
:100600002C1D3B460C4413F8012F03F8012C9C428F
:10061000F9D10D4400232B71B760F0BC704700BFC7
:1006200000487047EC1701000048704700180100AF
:1006300000487047A41A01000048704724180100C0
:1006400043680B701A0C10B41C0A1B0E4C708A7095
:10065000CB7083680B711C0A1A0C1B0E4C718A71CB
:10066000CB71C3680B72180A1A0C1B0E48728A727F
:100670000C20CB725DF8044B704700BF30B44D784E
:100680000A788B78CC7842EA052242EA034343EAAF
:10069000046343604D790A798B79CC7942EA05226B
:1006A00042EA034343EA046383604C7A0A7A8B7A12
:1006B000C97A42EA042242EA034343EA0163C3607F
:1006C00030BC0C20704700BF00487047481801003C
:1006D0000048704760180100004870478418010006
:1006E000004870479C18010000487047C01801007E
:1006F00000487047D418010043680B701A0C10B4FE
:100700001C0A1B0E4C708A70CB7083680B711C0A1C
:100710001A0C1B0E4C718A71CB71C3680B72180ACC
:100720001A0C1B0E48728A720C20CB725DF8044BB7
:10073000704700BF30B44D780A788B78CC7842EAA5
:10074000052242EA034343EA046343604D790A7990
:100750008B79CC7942EA052242EA034343EA0463F7
:1007600083604C7A0A7A8B7AC97A42EA042242EA96
:10077000034343EA0163C36030BC0C20704700BFF1
:1007800000487047F8180100004870470819010038
:10079000004870472C190100004870473C190100BF
:1007A000F0B4094B86681B68C468026A074F084D9D
:1007B00008492E6082B00C6001930198064B3860A6
:1007C0001A6002B0F0BC70474021FF1F8C18FF1F59
:1007D000E01FFF1FE41FFF1FEC1EFF1F90F8F8042F
:1007E000704700BF006A704700487047F818010062
:1007F0000048704708190100406B70470048704777
:10080000C018010000487047D41801000AF0A4BCC9
:1008100043682DE9F0470B7043681B0A4B70C3888F
:100820008B70C379CB704368002B00F085800A463B
:1008300000250426C36853F8253013711C0C1F0AC9
:100840001B0E94715771D37143680135AB42344626
:1008500002F1040206F10406ECD804F1080204F1E6
:10086000050A04F1060904F1070804F1090C04F172
:100870000A0E04F10B0517460C3403698B55036906
:100880001B0A01F80A30438A01F80930C37C01F8D9
:1008900008300369F3B101EB070E75460022836946
:1008A00053F822300EF822301C0C1E0A1B0EAC70BE
:1008B0006E70EB700369013293423C4605F104050A
:1008C00007F10407EBD804F1050C04F1060EE51D51
:1008D0003A460834C3698B54C3691B0A01F80C30CB
:1008E000C38B01F80E30C37F4B55C3690BB30F4662
:1008F00080460026D8F8243053F826000DF020FB5F
:10090000B10005463A19002325FA03F00833202BDD
:1009100002F8010BF8D1D8F82430043438195958AA
:100920002A4609F079F9D8F81C300136B3422C4434
:10093000E0D82046BDE8F087082217460C240B2596
:100940004FF00A0E4FF0090C4FF007084FF0060960
:100950004FF0050A042690E770B503790B70064640
:1009600080680D460DF0ECFA2A460446002324FA6E
:1009700003F10833202B02F8011FF8D1B168681D7C
:10098000224609F049F9601D70BD00BFF8B58388A3
:100990000B7083881B0A4B70064680680D460DF06D
:1009A000CFFA030E010A020C6B71A8702A71E9706C
:1009B00002460446B168A81D09F02EF9F0680DF052
:1009C000BFFA611D024629440634002322FA03F0CF
:1009D0000833202B01F8010FF8D104342819F168ED
:1009E000144409F019F930690DF0AAFA2A190746DA
:1009F000002327FA03F10833202B02F8011BF8D15A
:100A0000043428193A46316909F006F9381973692E
:100A10002B540544190A1A0C1B0E6970AA70EB704E
:100A20000430F8BD08460AF081BC00BF2DE9F04F44
:100A30000A784B788C78054642EA0323C8780E463C
:100A400043EA0443696843EA00648C4283B000F2DD
:100A5000BA806C60002C00F0BF8005F108093446B4
:100A600000274FF00408A1796379227994F807E010
:100A7000E868090441EA0323134343EA0E63AB60C9
:100A800000EB87000422494609F0C6F86B6801377D
:100A9000BB42424604F1040408F10408E3D802F121
:100AA00008074146B94602F1050E901DD31D02F11B
:100AB000090B02F10A0802F10B0A02F10C04305C86
:100AC00016F80E20715C16F803E02B69000440EA6A
:100AD00002220A4342EA0E629A4200F292802A619E
:100AE0004AB305F1140A06EB09074FF00008B9787C
:100AF0007B783A78FC78A869090441EA0323134318
:100B000043EA04636B6100EB88000422514609F05C
:100B100083F82B6908F1010843454C4607F10407A7
:100B200009F10409E3D804F1050B04F1060804F106
:100B3000070A4F46083416F8082016F80B00F35D34
:100B400016F80A70E969120442EA0022134343EAE4
:100B500007678F424FD8EF618FB34FF00009C84647
:100B600005F1200700239E46311911F8012B9A4008
:100B70000833202B4EEA020EF7D1201D8644704523
:100B800009D2E31C33440246013213F8011F03F873
:100B9000011C7245F8D306EB0E02431E02F8018CCD
:100BA000686A33442B6200EB89000422394674469C
:100BB00009F032F8EB6909F101094B45D2D820461A
:100BC00003B0BDE8F08FA100E8680CF073FF6C6023
:100BD000E860002C7FF441AF0827B9460C244FF0A1
:100BE0000B0A4FF00A084FF0090B072306204FF0BD
:100BF000050E042163E7B900686A0CF05BFF6862C8
:100C0000A9E79100A86901920CF054FF019AA8612C
:100C100065E700BF10B590ED021AD0ED030A90ED24
:100C2000010A04460F4808F0E7FF94ED021AD4EDDC
:100C3000030A94ED010A0C4808F0DEFF94ED021A55
:100C4000D4ED030A94ED010A084808F0D5FF94EDAD
:100C5000021AD4ED030A94ED010A0548BDE81040DC
:100C600008F0CABF401FFF1F881FFF1FA818FF1FE3
:100C70004819FF1F70B44E780A788B78CD78C46914
:100C800042EA062242EA034343EA056303614E79DE
:100C90000A798B79CD7942EA062242EA034343EA94
:100CA000056343614D7A0A7A8B7AC97A42EA052252
:100CB00042EA034343EA0163836123460C3070BC7C
:100CC000184700BFD0ED017A17EE903AC3F3C75230
:100CD000F0B4002A71D002F5607215016DB2C2F352
:100CE0000712F5EEC07AC3F3C344F1EE10FA45EAF9
:100CF00004054FEA43174FF000044FEAE30648BFEC
:100D000062F07F02DB124B71CA718D710C704C70F6
:100D10008C70CF700E71D0ED027A17EE903AC3F35B
:100D2000C752002A4DD002F5607215016DB2C2F3B0
:100D30000712F5EEC07AC3F3C344F1EE10FA45EAA8
:100D400004054FEA43174FF000044FEAE30648BF9B
:100D500062F07F02DB124B73CA738D730C724C729C
:100D60008C72CF720E73D0ED037A17EE903AC3F304
:100D7000C75222B302F56072140164B2C2F30712C3
:100D8000F5EEC07AC3F3C340F1EE10FA44EA000472
:100D90004FEA43164FF000004FEAE30548BF62F008
:100DA0007F02DB128C75087448748874CE740D75DC
:100DB00018204B75CA75F0BC7047154691E714466C
:100DC000DEE71546B5E700BFCA78520970B4426144
:100DD0000346087942EAC0025A61487942EAC020D3
:100DE00058618A79D20402F4F00202435A61CD7943
:100DF0008E792C0104F4FE6454EA161403F10C00FD
:100E000005D0A4F5607442EAC4525A61CD7925F048
:100E10007F0542EA05625A61CA7A52099A610C7BDF
:100E200042EAC4029A614C7B42EAC4249C618A7BF8
:100E3000D20402F4F00222439A61CD7B8E7B2C0116
:100E400004F4FE6454EA161405D0A4F5607442EA72
:100E5000C4529A61CD7B25F07F0542EA05629A6112
:100E6000CA7C5209DA610C7D42EAC402DA614C7D27
:100E700042EAC424DC618A7DD20402F4F0022243F7
:100E8000DA61CD7D8E7D2C0104F4FE6454EA1614E3
:100E900005D0A4F5607442EAC452DA61CD7D25F034
:100EA0007F0542EA0562DA61CA7E52095A620C7F06
:100EB00042EAC4025A624C7F42EAC4245C628A7FDE
:100EC000D20402F4F00222435A62CD7F8E7F2C01BD
:100ED00004F4FE6454EA161405D0A4F5607442EAE2
:100EE000C4525A62CD7F25F07F0542EA05625A62FC
:100EF00091F8232052099A6291F8244042EAC402F0
:100F00009A6291F8254042EAC4249C6291F8262016
:100F1000D20402F4F00222439A6291F8275091F829
:100F200026602C0104F4FE6454EA161406D0A4F5DD
:100F3000607442EAC4529A6291F8275025F07F0506
:100F400042EA05629A6291F82B205209DA6291F81E
:100F50002C4042EAC402DA6291F82D4042EAC424ED
:100F6000DC6291F82E20D20402F4F0022243DA620D
:100F700091F82F5091F82E602C0104F4FE6454EA8D
:100F8000161406D0A4F5607442EAC452DA6291F8ED
:100F90002F5025F07F0542EA0562DA6270BC1B6BB8
:100FA000184700BFCB785B0930B483600A7943EA05
:100FB000C20383604A7943EAC22282608B79DB04F0
:100FC00003F4F00313438360CC798D79220102F49A
:100FD000FE6252EA151205D0A2F5607243EAC253CE
:100FE0008360CC7924F07F0443EA04638360CB7A86
:100FF0005B09C3600A7B43EAC203C3604A7B43EADE
:10100000C222C2608B7BDB0403F4F0031343C36092
:10101000CC7B8D7B220102F4FE6252EA151205D0D0
:10102000A2F5607243EAC253C360CC7B24F07F0414
:1010300043EA0463C360CB7C5B0903610A7D43EA36
:10104000C20303614A7D43EAC22202618B7DDB0455
:1010500003F4F00313430361CC7D8D7D220102F480
:10106000FE6252EA151205D0A2F5607243EAC2533D
:101070000361CC7D24F07F0443EA04630361CB7EEB
:101080005B0983610A7F43EAC20383614A7F43EAC3
:10109000C22282618B7FDB0403F4F003134383617C
:1010A000CC7F8D7F220102F4FE6252EA151205D038
:1010B000A2F5607243EAC2538361CC7F24F07F04BF
:1010C00043EA0463836191F823305B09C36191F8BB
:1010D000242043EAC203C36191F8252043EAC222D7
:1010E000C26191F82630DB0403F4F0031343C361BB
:1010F00091F8274091F82650220102F4FE6252EA4C
:10110000151206D0A2F5607243EAC253C36191F88A
:10111000274024F07F0443EA0463C36191F82B3035
:101120005B09036291F82C2043EAC203036291F841
:101130002D2043EAC222026291F82E30DB0403F430
:10114000F0031343036291F82F4091F82E502201CF
:1011500002F4FE6252EA151206D0A2F5607243EA6A
:10116000C253036291F82F4024F07F0443EA0463E2
:10117000036230BC30207047CB785B0930B44360E9
:101180000A7943EAC20343604A7943EAC2224260D1
:101190008B79DB0403F4F00313434360CC798D793E
:1011A000220102F4FE6252EA151205D0A2F5607225
:1011B00043EAC2534360CC7924F07F0443EA0463DA
:1011C0004360CB7A5B0983600A7B43EAC203836096
:1011D0004A7B43EAC22282608B7BDB0403F4F00388
:1011E00013438360CC7B8D7B220102F4FE6252EAC2
:1011F000151205D0A2F5607243EAC2538360CC7B1E
:1012000024F07F0443EA04638360CB7C5B09C36002
:101210000A7D43EAC203C3604A7D43EAC222C26038
:101220008B7DDB0403F4F0031343C360CC7D8D7D21
:10123000220102F4FE6252EA151205D0A2F5607294
:1012400043EAC253C360CC7D24F07F0443EA0463C5
:10125000C36030BC18207047D0ED027A17EE903A88
:10126000C3F3C752F0B4002A00F0FD8002F56072AB
:1012700015016DB2C2F30712F5EEC07AC3F3C34491
:10128000F1EE10FA45EA04054FEA43174FF0000467
:101290004FEAE30648BF62F07F02DB124B71CA716E
:1012A0008D710C704C708C70CF700E71D0ED037A14
:1012B00017EE903AC3F3C752002A00F0DE8002F521
:1012C000607215016DB2C2F30712F5EEC07AC3F376
:1012D000C344F1EE10FA45EA04054FEA43174FF014
:1012E00000044FEAE30648BF62F07F02DB124B7353
:1012F000CA738D730C724C728C72CF720E73D0EDF8
:10130000047A17EE903AC3F3C752002A00F0B38074
:1013100002F5607215016DB2C2F30712F5EEC07AE4
:10132000C3F3C344F1EE10FA45EA04054FEA43174C
:101330004FF000044FEAE30648BF62F07F02DB1281
:101340004B75CA758D750C744C748C74CF740E7596
:10135000D0ED067A17EE903AC3F3C752002A00F098
:10136000888002F5607215016DB2C2F30712F5EEC6
:10137000C07AC3F3C344F1EE10FA45EA04054FEA1C
:1013800043174FF000044FEAE30648BF62F07F02C4
:10139000DB124B77CA778D770C764C768C76CF76CE
:1013A0000E77D0ED077A17EE903AC3F3C752002AB2
:1013B0005DD002F5607215016DB2C2F30712F5EE51
:1013C000C07AC3F3C344F1EE10FA45EA04054FEACC
:1013D00043174FF000044FEAE30648BF62F07F0274
:1013E000DB1281F8253081F8272081F8265081F81A
:1013F000204081F8214081F8224081F8237081F853
:101400002460D0ED087A17EE903AC3F3C75262B366
:1014100002F56072140164B2C2F30712F5EEC07AED
:10142000C3F3C340F1EE10FA44EA00044FEA431656
:101430004FF000004FEAE30548BF62F07F02DB1285
:1014400081F82E4081F8280081F8290081F82A00CF
:1014500081F82B6081F82C50302081F82D3081F8F4
:101460002F20F0BC7047154606E71446D6E7154610
:10147000A5E715467BE7154650E7154625E700BF6B
:10148000D0ED027A17EE903AC3F3C752F0B4002AB7
:1014900000F0908102F5607215016DB2C2F307127F
:1014A000F5EEC07AC3F3C344F1EE10FA45EA040541
:1014B0004FEA43174FF000044FEAE30648BF62F0DB
:1014C0007F02DB124B71CA718D710C704C708C7085
:1014D000CF700E71D0ED037A17EE903AC3F3C75276
:1014E000002A00F0778102F5607215016DB2C2F337
:1014F0000712F5EEC07AC3F3C344F1EE10FA45EAE1
:1015000004054FEA43174FF000044FEAE30648BFD3
:1015100062F07F02DB124B73CA738D730C724C72D4
:101520008C72CF720E73D0ED047A17EE903AC3F33B
:10153000C752002A00F04C8102F5607215016DB2AD
:10154000C2F30712F5EEC07AC3F3C344F1EE10FA0A
:1015500045EA04054FEA43174FF000044FEAE3065B
:1015600048BF62F07F02DB124B75CA758D750C7433
:101570004C748C74CF740E75D0ED067A17EE903AD9
:10158000C3F3C752002A00F0218102F560721501F1
:101590006DB2C2F30712F5EEC07AC3F3C344F1EEA5
:1015A00010FA45EA04054FEA43174FF000044FEAEA
:1015B000E30648BF62F07F02DB124B77CA778D7774
:1015C0000C764C768C76CF760E77D0ED077A17EEC8
:1015D000903AC3F3C752002A00F0F68002F5607219
:1015E00015016DB2C2F30712F5EEC07AC3F3C3441E
:1015F000F1EE10FA45EA04054FEA43174FF00004F4
:101600004FEAE30648BF62F07F02DB1281F8253023
:1016100081F8272081F8265081F8204081F8214068
:1016200081F8224081F8237081F82460D0ED087A97
:1016300017EE903AC3F3C752002A00F0C38002F5B8
:10164000607215016DB2C2F30712F5EEC07AC3F3F2
:10165000C344F1EE10FA45EA04054FEA43174FF090
:1016600000044FEAE30648BF62F07F02DB1281F814
:101670002D3081F82F2081F82E5081F8284081F8F4
:10168000294081F82A4081F82B7081F82C60D0ED38
:101690000A7A17EE903AC3F3C752002A00F09080FE
:1016A00002F5607215016DB2C2F30712F5EEC07A51
:1016B000C3F3C344F1EE10FA45EA04054FEA4317B9
:1016C0004FF000044FEAE30648BF62F07F02DB12EE
:1016D00081F8353081F8372081F8365081F8304074
:1016E00081F8314081F8324081F8337081F83460FC
:1016F000D0ED0B7A17EE903AC3F3C752002A5DD0B3
:1017000002F5607215016DB2C2F30712F5EEC07AF0
:10171000C3F3C344F1EE10FA45EA04054FEA431758
:101720004FF000044FEAE30648BF62F07F02DB128D
:1017300081F83D3081F83F2081F83E5081F83840F3
:1017400081F8394081F83A4081F83B7081F83C607B
:10175000D0ED0C7A17EE903AC3F3C75262B302F59C
:101760006072140164B2C2F30712F5EEC07AC3F3DB
:10177000C340F1EE10FA44EA00044FEA43164FF07A
:1017800000004FEAE30548BF62F07F02DB1281F8F8
:10179000464081F8400081F8410081F8420081F81C
:1017A000436081F84450482081F8453081F8472053
:1017B000F0BC7047154673E61446D6E71546A5E714
:1017C000154673E7154640E715460DE71546E2E670
:1017D0001546B7E615468CE6CB785B0930B48360D6
:1017E0000A7943EAC20383604A7943EAC2228260EB
:1017F0008B79DB0403F4F00313438360CC798D7998
:10180000220102F4FE6252EA151205D0A2F56072BE
:1018100043EAC2538360CC7924F07F0443EA046333
:101820008360CB7A5B09C3600A7B43EAC203C3606F
:101830004A7B43EAC222C2608B7BDB0403F4F003E1
:101840001343C360CC7B8D7B220102F4FE6252EA1B
:10185000151205D0A2F5607243EAC253C360CC7B77
:1018600024F07F0443EA0463C360CB7C5B0903611B
:101870000A7D43EAC20303614A7D43EAC222026150
:101880008B7DDB0403F4F00313430361CC7D8D7D7A
:10189000220102F4FE6252EA151205D0A2F560722E
:1018A00043EAC2530361CC7D24F07F0443EA04631E
:1018B0000361CB7E5B0983610A7F43EAC2038361D4
:1018C0004A7F43EAC22282618B7FDB0403F4F00388
:1018D00013438361CC7F8D7F220102F4FE6252EAC2
:1018E000151205D0A2F5607243EAC2538361CC7F22
:1018F00024F07F0443EA0463836191F823305B0999
:10190000C36191F8242043EAC203C36191F8252002
:1019100043EAC222C26191F82630DB0403F4F003EB
:101920001343C36191F8274091F82650220102F435
:10193000FE6252EA151206D0A2F5607243EAC25363
:10194000C36191F8274024F07F0443EA0463C36134
:1019500091F82B305B09036291F82C2043EAC20313
:10196000036291F82D2043EAC222026291F82E30E0
:10197000DB0403F4F0031343036291F82F4091F862
:101980002E50220102F4FE6252EA151206D0A2F590
:10199000607243EAC253036291F82F4024F07F043F
:1019A00043EA0463036291F833305B09836291F880
:1019B000342043EAC203836291F8352043EAC2220D
:1019C000826291F83630DB0403F4F0031343836240
:1019D00091F8374091F83650220102F4FE6252EA43
:1019E000151206D0A2F5607243EAC253836291F8E1
:1019F000374024F07F0443EA0463836291F83B306C
:101A00005B09C36291F83C2043EAC203C36291F8C8
:101A10003D2043EAC222C26291F83E30DB0403F467
:101A2000F0031343C36291F83F4091F83E50220106
:101A300002F4FE6252EA151206D0A2F5607243EA81
:101A4000C253C36291F83F4024F07F0443EA046329
:101A5000C36291F843305B09036391F8442043EA81
:101A6000C203036391F8452043EAC222026391F85E
:101A70004630DB0403F4F0031343036391F847405B
:101A800091F84650220102F4FE6252EA151206D085
:101A9000A2F5607243EAC253036391F8474024F011
:101AA0007F0443EA0463036330BC4820704700BFEF
:101AB000F0B585B02F4B026801932F4903910323A2
:101AC0008DF8083014682D4A94424BD100243822F6
:101AD000054680F8233280F8242280F8254280F8D9
:101AE000264280F8274200F50A7008F095F8FF2793
:101AF0003D20C223FE26072185F81E0285F82032EC
:101B000085F81F4285F82242224685F81C7285F826
:101B10001D6285F8211205F2212305F25F2001E004
:101B200013F8011F83420A44FAD1D243144E85F8B8
:101B3000602205F21B2405F5187703E009F0F6FB97
:101B4000BC420BD06A6814F8011F13681B68B342CB
:101B50000846F3D010469847BC42F3D14FF0FF300F
:101B600005B0F0BD01AA0721A0474FF0FF3005B036
:101B7000F0BD00BF9416010060190100851B000034
:101B8000250A000063292DE9F04103DD90F8F8747F
:101B9000002F53D0136805460F4610461B6805F208
:101BA00023219847C2B2C0F30721561885F81E2298
:101BB00047F30722F643FF234FF0FE0EFCB285F8F1
:101BC0002222421C85F8206285F81F1285F81C32FB
:101BD00085F81DE285F821420DDB00F2222129441F
:101BE00005F22123002201E013F8014F994222441B
:101BF000FAD1D343DBB22A1800F10807B7F5007F0A
:101C000082F823321DDC002F05F5077616DD07303C
:101C1000DFF83880064405F21B2403E009F086FB58
:101C2000B4420BD06A6814F8011F13681B6843455F
:101C30000846F3D010469847B442F3D13846BDE881
:101C4000F0812846BDE8F041FFF732BF250A0000C9
:101C5000214B10B45A691368506819780478507A87
:101C6000137A044201EA03011BD0937A03F00303C1
:101C700009B143F0040343F008039910013B91724A
:101C80000D2B0BD8DFE803F021071B070A152121D4
:101C9000150A071B0721D368013BD3605DF8044B8D
:101CA0007047937A03F003030029E6D043F004035E
:101CB000E3E7D3685DF8044B023BD3607047D36819
:101CC0005DF8044B0233D3607047D3685DF8044B72
:101CD0000133D360704700BF0C20FF1F214B10B4AD
:101CE0009A691368506819780478507A137A044214
:101CF00001EA03011BD0937A03F0030309B143F017
:101D0000040343F008039910013B91720D2B0BD88B
:101D1000DFE803F021071B070A152121150A071B1D
:101D20000721D368013BD3605DF8044B7047937A79
:101D300003F003030029E6D043F00403E3E7D3688C
:101D40005DF8044B023BD3607047D3685DF8044BE9
:101D50000233D3607047D3685DF8044B0133D3601E
:101D6000704700BF0C20FF1F214B10B4DA691368C5
:101D7000506819780478507A137A044201EA030112
:101D80001BD0937A03F0030309B143F0040343F03B
:101D900008039910013B91720D2B0BD8DFE803F07B
:101DA00021071B070A152121150A071B0721D368E4
:101DB000013BD3605DF8044B7047937A03F0030353
:101DC0000029E6D043F00403E3E7D3685DF8044B51
:101DD000023BD3607047D3685DF8044B0233D36095
:101DE0007047D3685DF8044B0133D360704700BF80
:101DF0000C20FF1F214B10B41A6A13685068197821
:101E00000478507A137A044201EA03011BD0937AD2
:101E100003F0030309B143F0040343F008039910EE
:101E2000013B91720D2B0BD8DFE803F021071B0754
:101E30000A152121150A071B0721D368013BD3602E
:101E40005DF8044B7047937A03F003030029E6D052
:101E500043F00403E3E7D3685DF8044B023BD3602F
:101E60007047D3685DF8044B0233D3607047D36882
:101E70005DF8044B0133D360704700BF0C20FF1F97
:101E8000214B10B45A6A1368506819780478507A54
:101E9000137A044201EA03011BD0937A03F003038F
:101EA00009B143F0040343F008039910013B917218
:101EB0000D2B0BD8DFE803F021071B070A152121A2
:101EC000150A071B0721D368013BD3605DF8044B5B
:101ED0007047937A03F003030029E6D043F004032C
:101EE000E3E7D3685DF8044B023BD3607047D368E7
:101EF0005DF8044B0233D3607047D3685DF8044B40
:101F00000133D360704700BF0C20FF1F214B10B47A
:101F10009A6A1368506819780478507A137A0442E0
:101F200001EA03011BD0937A03F0030309B143F0E4
:101F3000040343F008039910013B91720D2B0BD859
:101F4000DFE803F021071B070A152121150A071BEB
:101F50000721D368013BD3605DF8044B7047937A47
:101F600003F003030029E6D043F00403E3E7D3685A
:101F70005DF8044B023BD3607047D3685DF8044BB7
:101F80000233D3607047D3685DF8044B0133D360EC
:101F9000704700BF0C20FF1F214B10B4DA6A136892
:101FA000506819780478507A137A044201EA0301E0
:101FB0001BD0937A03F0030309B143F0040343F009
:101FC00008039910013B91720D2B0BD8DFE803F049
:101FD00021071B070A152121150A071B0721D368B2
:101FE000013BD3605DF8044B7047937A03F0030321
:101FF0000029E6D043F00403E3E7D3685DF8044B1F
:10200000023BD3607047D3685DF8044B0233D36062
:102010007047D3685DF8044B0133D360704700BF4D
:102020000C20FF1F214B10B41A6B136850681978ED
:102030000478507A137A044201EA03011BD0937AA0
:1020400003F0030309B143F0040343F008039910BC
:10205000013B91720D2B0BD8DFE803F021071B0722
:102060000A152121150A071B0721D368013BD360FC
:102070005DF8044B7047937A03F003030029E6D020
:1020800043F00403E3E7D3685DF8044B023BD360FD
:102090007047D3685DF8044B0233D3607047D36850
:1020A0005DF8044B0133D360704700BF0C20FF1F65
:1020B000214B10B45A6B1368506819780478507A21
:1020C000137A044201EA03011BD0937A03F003035D
:1020D00009B143F0040343F008039910013B9172E6
:1020E0000D2B0BD8DFE803F021071B070A15212170
:1020F000150A071B0721D368013BD3605DF8044B29
:102100007047937A03F003030029E6D043F00403F9
:10211000E3E7D3685DF8044B023BD3607047D368B4
:102120005DF8044B0233D3607047D3685DF8044B0D
:102130000133D360704700BF0C20FF1F214B10B448
:102140009A6B1368506819780478507A137A0442AD
:1021500001EA03011BD0937A03F0030309B143F0B2
:10216000040343F008039910013B91720D2B0BD827
:10217000DFE803F021071B070A152121150A071BB9
:102180000721D368013BD3605DF8044B7047937A15
:1021900003F003030029E6D043F00403E3E7D36828
:1021A0005DF8044B023BD3607047D3685DF8044B85
:1021B0000233D3607047D3685DF8044B0133D360BA
:1021C000704700BF0C20FF1F214B10B4DA6B13685F
:1021D000506819780478507A137A044201EA0301AE
:1021E0001BD0937A03F0030309B143F0040343F0D7
:1021F00008039910013B91720D2B0BD8DFE803F017
:1022000021071B070A152121150A071B0721D3687F
:10221000013BD3605DF8044B7047937A03F00303EE
:102220000029E6D043F00403E3E7D3685DF8044BEC
:10223000023BD3607047D3685DF8044B0233D36030
:102240007047D3685DF8044B0133D360704700BF1B
:102250000C20FF1F214B10B41A6C136850681978BA
:102260000478507A137A044201EA03011BD0937A6E
:1022700003F0030309B143F0040343F0080399108A
:10228000013B91720D2B0BD8DFE803F021071B07F0
:102290000A152121150A071B0721D368013BD360CA
:1022A0005DF8044B7047937A03F003030029E6D0EE
:1022B00043F00403E3E7D3685DF8044B023BD360CB
:1022C0007047D3685DF8044B0233D3607047D3681E
:1022D0005DF8044B0133D360704700BF0C20FF1F33
:1022E000214B10B45A6C1368506819780478507AEE
:1022F000137A044201EA03011BD0937A03F003032B
:1023000009B143F0040343F008039910013B9172B3
:102310000D2B0BD8DFE803F021071B070A1521213D
:10232000150A071B0721D368013BD3605DF8044BF6
:102330007047937A03F003030029E6D043F00403C7
:10234000E3E7D3685DF8044B023BD3607047D36882
:102350005DF8044B0233D3607047D3685DF8044BDB
:102360000133D360704700BF0C20FF1F214B10B416
:102370009A6C1368506819780478507A137A04427A
:1023800001EA03011BD0937A03F0030309B143F080
:10239000040343F008039910013B91720D2B0BD8F5
:1023A000DFE803F021071B070A152121150A071B87
:1023B0000721D368013BD3605DF8044B7047937AE3
:1023C00003F003030029E6D043F00403E3E7D368F6
:1023D0005DF8044B023BD3607047D3685DF8044B53
:1023E0000233D3607047D3685DF8044B0133D36088
:1023F000704700BF0C20FF1F214B10B4DA6C13682C
:10240000506819780478507A137A044201EA03017B
:102410001BD0937A03F0030309B143F0040343F0A4
:1024200008039910013B91720D2B0BD8DFE803F0E4
:1024300021071B070A152121150A071B0721D3684D
:10244000013BD3605DF8044B7047937A03F00303BC
:102450000029E6D043F00403E3E7D3685DF8044BBA
:10246000023BD3607047D3685DF8044B0233D360FE
:102470007047D3685DF8044B0133D360704700BFE9
:102480000C20FF1F214B10B41A6D13685068197887
:102490000478507A137A044201EA03011BD0937A3C
:1024A00003F0030309B143F0040343F00803991058
:1024B000013B91720D2B0BD8DFE803F021071B07BE
:1024C0000A152121150A071B0721D368013BD36098
:1024D0005DF8044B7047937A03F003030029E6D0BC
:1024E00043F00403E3E7D3685DF8044B023BD36099
:1024F0007047D3685DF8044B0233D3607047D368EC
:102500005DF8044B0133D360704700BF0C20FF1F00
:10251000214B10B45A6D1368506819780478507ABA
:10252000137A044201EA03011BD0937A03F00303F8
:1025300009B143F0040343F008039910013B917281
:102540000D2B0BD8DFE803F021071B070A1521210B
:10255000150A071B0721D368013BD3605DF8044BC4
:102560007047937A03F003030029E6D043F0040395
:10257000E3E7D3685DF8044B023BD3607047D36850
:102580005DF8044B0233D3607047D3685DF8044BA9
:102590000133D360704700BF0C20FF1F214B10B4E4
:1025A0009A6D1368506819780478507A137A044247
:1025B00001EA03011BD0937A03F0030309B143F04E
:1025C000040343F008039910013B91720D2B0BD8C3
:1025D000DFE803F021071B070A152121150A071B55
:1025E0000721D368013BD3605DF8044B7047937AB1
:1025F00003F003030029E6D043F00403E3E7D368C4
:102600005DF8044B023BD3607047D3685DF8044B20
:102610000233D3607047D3685DF8044B0133D36055
:10262000704700BF0C20FF1F214B10B4DA6D1368F8
:10263000506819780478507A137A044201EA030149
:102640001BD0937A03F0030309B143F0040343F072
:1026500008039910013B91720D2B0BD8DFE803F0B2
:1026600021071B070A152121150A071B0721D3681B
:10267000013BD3605DF8044B7047937A03F003038A
:102680000029E6D043F00403E3E7D3685DF8044B88
:10269000023BD3607047D3685DF8044B0233D360CC
:1026A0007047D3685DF8044B0133D360704700BFB7
:1026B0000C20FF1F214B10B41A6E13685068197854
:1026C0000478507A137A044201EA03011BD0937A0A
:1026D00003F0030309B143F0040343F00803991026
:1026E000013B91720D2B0BD8DFE803F021071B078C
:1026F0000A152121150A071B0721D368013BD36066
:102700005DF8044B7047937A03F003030029E6D089
:1027100043F00403E3E7D3685DF8044B023BD36066
:102720007047D3685DF8044B0233D3607047D368B9
:102730005DF8044B0133D360704700BF0C20FF1FCE
:10274000214B10B45A6E1368506819780478507A87
:10275000137A044201EA03011BD0937A03F00303C6
:1027600009B143F0040343F008039910013B91724F
:102770000D2B0BD8DFE803F021071B070A152121D9
:10278000150A071B0721D368013BD3605DF8044B92
:102790007047937A03F003030029E6D043F0040363
:1027A000E3E7D3685DF8044B023BD3607047D3681E
:1027B0005DF8044B0233D3607047D3685DF8044B77
:1027C0000133D360704700BF0C20FF1F214B10B4B2
:1027D0009A6E1368506819780478507A137A044214
:1027E00001EA03011BD0937A03F0030309B143F01C
:1027F000040343F008039910013B91720D2B0BD891
:10280000DFE803F021071B070A152121150A071B22
:102810000721D368013BD3605DF8044B7047937A7E
:1028200003F003030029E6D043F00403E3E7D36891
:102830005DF8044B023BD3607047D3685DF8044BEE
:102840000233D3607047D3685DF8044B0133D36023
:10285000704700BF0C20FF1F214B10B4DA6E1368C5
:10286000506819780478507A137A044201EA030117
:102870001BD0937A03F0030309B143F0040343F040
:1028800008039910013B91720D2B0BD8DFE803F080
:1028900021071B070A152121150A071B0721D368E9
:1028A000013BD3605DF8044B7047937A03F0030358
:1028B0000029E6D043F00403E3E7D3685DF8044B56
:1028C000023BD3607047D3685DF8044B0233D3609A
:1028D0007047D3685DF8044B0133D360704700BF85
:1028E0000C20FF1F214B10B41A6F13685068197821
:1028F0000478507A137A044201EA03011BD0937AD8
:1029000003F0030309B143F0040343F008039910F3
:10291000013B91720D2B0BD8DFE803F021071B0759
:102920000A152121150A071B0721D368013BD36033
:102930005DF8044B7047937A03F003030029E6D057
:1029400043F00403E3E7D3685DF8044B023BD36034
:102950007047D3685DF8044B0233D3607047D36887
:102960005DF8044B0133D360704700BF0C20FF1F9C
:10297000214B10B45A6F1368506819780478507A54
:10298000137A044201EA03011BD0937A03F0030394
:1029900009B143F0040343F008039910013B91721D
:1029A0000D2B0BD8DFE803F021071B070A152121A7
:1029B000150A071B0721D368013BD3605DF8044B60
:1029C0007047937A03F003030029E6D043F0040331
:1029D000E3E7D3685DF8044B023BD3607047D368EC
:1029E0005DF8044B0233D3607047D3685DF8044B45
:1029F0000133D360704700BF0C20FF1F214B10B480
:102A00009A6F1368506819780478507A137A0442E0
:102A100001EA03011BD0937A03F0030309B143F0E9
:102A2000040343F008039910013B91720D2B0BD85E
:102A3000DFE803F021071B070A152121150A071BF0
:102A40000721D368013BD3605DF8044B7047937A4C
:102A500003F003030029E6D043F00403E3E7D3685F
:102A60005DF8044B023BD3607047D3685DF8044BBC
:102A70000233D3607047D3685DF8044B0133D360F1
:102A8000704700BF0C20FF1F214B10B4DA6F136892
:102A9000506819780478507A137A044201EA0301E5
:102AA0001BD0937A03F0030309B143F0040343F00E
:102AB00008039910013B91720D2B0BD8DFE803F04E
:102AC00021071B070A152121150A071B0721D368B7
:102AD000013BD3605DF8044B7047937A03F0030326
:102AE0000029E6D043F00403E3E7D3685DF8044B24
:102AF000023BD3607047D3685DF8044B0233D36068
:102B00007047D3685DF8044B0133D360704700BF52
:102B10000C20FF1F214B10B4D3F88020136850689D
:102B200019780478507A137A044201EA03011BD021
:102B3000937A03F0030309B143F0040343F008035D
:102B40009910013B91720D2B0BD8DFE803F02107A0
:102B50001B070A152121150A071B0721D368013B12
:102B6000D3605DF8044B7047937A03F003030029A8
:102B7000E6D043F00403E3E7D3685DF8044B023B7F
:102B8000D3607047D3685DF8044B0233D36070475D
:102B9000D3685DF8044B0133D36070470C20FF1FEE
:102BA000214B10B4D3F88420136850681978047846
:102BB000507A137A044201EA03011BD0937A03F09E
:102BC000030309B143F0040343F008039910013BE8
:102BD00091720D2B0BD8DFE803F021071B070A15B4
:102BE0002121150A071B0721D368013BD3605DF83B
:102BF000044B7047937A03F003030029E6D043F0B7
:102C00000403E3E7D3685DF8044B023BD3607047ED
:102C1000D3685DF8044B0233D3607047D3685DF826
:102C2000044B0133D36070470C20FF1F214B10B4BD
:102C3000D3F888201368506819780478507A137A8A
:102C4000044201EA03011BD0937A03F0030309B1A4
:102C500043F0040343F008039910013B91720D2BDC
:102C60000BD8DFE803F021071B070A152121150AFD
:102C7000071B0721D368013BD3605DF8044B704705
:102C8000937A03F003030029E6D043F00403E3E75B
:102C9000D3685DF8044B023BD3607047D3685DF89E
:102CA000044B0233D3607047D3685DF8044B0133A3
:102CB000D36070470C20FF1F214B10B4D3F88C2039
:102CC0001368506819780478507A137A044201EA3C
:102CD00003011BD0937A03F0030309B143F004030B
:102CE00043F008039910013B91720D2B0BD8DFE8DC
:102CF00003F021071B070A152121150A071B0721CD
:102D0000D368013BD3605DF8044B7047937A03F0BE
:102D100003030029E6D043F00403E3E7D3685DF83A
:102D2000044B023BD3607047D3685DF8044B023319
:102D3000D3607047D3685DF8044B0133D3607047AC
:102D40000C20FF1F214B10B4D3F89020136850685B
:102D500019780478507A137A044201EA03011BD0EF
:102D6000937A03F0030309B143F0040343F008032B
:102D70009910013B91720D2B0BD8DFE803F021076E
:102D80001B070A152121150A071B0721D368013BE0
:102D9000D3605DF8044B7047937A03F00303002976
:102DA000E6D043F00403E3E7D3685DF8044B023B4D
:102DB000D3607047D3685DF8044B0233D36070472B
:102DC000D3685DF8044B0133D36070470C20FF1FBC
:102DD000214B10B4D3F89420136850681978047804
:102DE000507A137A044201EA03011BD0937A03F06C
:102DF000030309B143F0040343F008039910013BB6
:102E000091720D2B0BD8DFE803F021071B070A1581
:102E10002121150A071B0721D368013BD3605DF808
:102E2000044B7047937A03F003030029E6D043F084
:102E30000403E3E7D3685DF8044B023BD3607047BB
:102E4000D3685DF8044B0233D3607047D3685DF8F4
:102E5000044B0133D36070470C20FF1F214B10B48B
:102E6000D3F898201368506819780478507A137A48
:102E7000044201EA03011BD0937A03F0030309B172
:102E800043F0040343F008039910013B91720D2BAA
:102E90000BD8DFE803F021071B070A152121150ACB
:102EA000071B0721D368013BD3605DF8044B7047D3
:102EB000937A03F003030029E6D043F00403E3E729
:102EC000D3685DF8044B023BD3607047D3685DF86C
:102ED000044B0233D3607047D3685DF8044B013371
:102EE000D36070470C20FF1F214B10B4D3F89C20F7
:102EF0001368506819780478507A137A044201EA0A
:102F000003011BD0937A03F0030309B143F00403D8
:102F100043F008039910013B91720D2B0BD8DFE8A9
:102F200003F021071B070A152121150A071B07219A
:102F3000D368013BD3605DF8044B7047937A03F08C
:102F400003030029E6D043F00403E3E7D3685DF808
:102F5000044B023BD3607047D3685DF8044B0233E7
:102F6000D3607047D3685DF8044B0133D36070477A
:102F70000C20FF1F214B10B4D3F8A0201368506819
:102F800019780478507A137A044201EA03011BD0BD
:102F9000937A03F0030309B143F0040343F00803F9
:102FA0009910013B91720D2B0BD8DFE803F021073C
:102FB0001B070A152121150A071B0721D368013BAE
:102FC000D3605DF8044B7047937A03F00303002944
:102FD000E6D043F00403E3E7D3685DF8044B023B1B
:102FE000D3607047D3685DF8044B0233D3607047F9
:102FF000D3685DF8044B0133D36070470C20FF1F8A
:10300000214B10B4D3F8A4201368506819780478C1
:10301000507A137A044201EA03011BD0937A03F039
:10302000030309B143F0040343F008039910013B83
:1030300091720D2B0BD8DFE803F021071B070A154F
:103040002121150A071B0721D368013BD3605DF8D6
:10305000044B7047937A03F003030029E6D043F052
:103060000403E3E7D3685DF8044B023BD360704789
:10307000D3685DF8044B0233D3607047D3685DF8C2
:10308000044B0133D36070470C20FF1F214B10B459
:10309000D3F8A8201368506819780478507A137A06
:1030A000044201EA03011BD0937A03F0030309B140
:1030B00043F0040343F008039910013B91720D2B78
:1030C0000BD8DFE803F021071B070A152121150A99
:1030D000071B0721D368013BD3605DF8044B7047A1
:1030E000937A03F003030029E6D043F00403E3E7F7
:1030F000D3685DF8044B023BD3607047D3685DF83A
:10310000044B0233D3607047D3685DF8044B01333E
:10311000D36070470C20FF1F214B10B4D3F8AC20B4
:103120001368506819780478507A137A044201EAD7
:1031300003011BD0937A03F0030309B143F00403A6
:1031400043F008039910013B91720D2B0BD8DFE877
:1031500003F021071B070A152121150A071B072168
:10316000D368013BD3605DF8044B7047937A03F05A
:1031700003030029E6D043F00403E3E7D3685DF8D6
:10318000044B023BD3607047D3685DF8044B0233B5
:10319000D3607047D3685DF8044B0133D360704748
:1031A0000C20FF1F214B10B4D3F8B02013685068D7
:1031B00019780478507A137A044201EA03011BD08B
:1031C000937A03F0030309B143F0040343F00803C7
:1031D0009910013B91720D2B0BD8DFE803F021070A
:1031E0001B070A152121150A071B0721D368013B7C
:1031F000D3605DF8044B7047937A03F00303002912
:10320000E6D043F00403E3E7D3685DF8044B023BE8
:10321000D3607047D3685DF8044B0233D3607047C6
:10322000D3685DF8044B0133D36070470C20FF1F57
:10323000214B10B4D3F8B42013685068197804787F
:10324000507A137A044201EA03011BD0937A03F007
:10325000030309B143F0040343F008039910013B51
:1032600091720D2B0BD8DFE803F021071B070A151D
:103270002121150A071B0721D368013BD3605DF8A4
:10328000044B7047937A03F003030029E6D043F020
:103290000403E3E7D3685DF8044B023BD360704757
:1032A000D3685DF8044B0233D3607047D3685DF890
:1032B000044B0133D36070470C20FF1F214B10B427
:1032C000D3F8B8201368506819780478507A137AC4
:1032D000044201EA03011BD0937A03F0030309B10E
:1032E00043F0040343F008039910013B91720D2B46
:1032F0000BD8DFE803F021071B070A152121150A67
:10330000071B0721D368013BD3605DF8044B70476E
:10331000937A03F003030029E6D043F00403E3E7C4
:10332000D3685DF8044B023BD3607047D3685DF807
:10333000044B0233D3607047D3685DF8044B01330C
:10334000D36070470C20FF1F214B10B4D3F8BC2072
:103350001368506819780478507A137A044201EAA5
:1033600003011BD0937A03F0030309B143F0040374
:1033700043F008039910013B91720D2B0BD8DFE845
:1033800003F021071B070A152121150A071B072136
:10339000D368013BD3605DF8044B7047937A03F028
:1033A00003030029E6D043F00403E3E7D3685DF8A4
:1033B000044B023BD3607047D3685DF8044B023383
:1033C000D3607047D3685DF8044B0133D360704716
:1033D0000C20FF1F214B10B4D3F8C0201368506895
:1033E00019780478507A137A044201EA03011BD059
:1033F000937A03F0030309B143F0040343F0080395
:103400009910013B91720D2B0BD8DFE803F02107D7
:103410001B070A152121150A071B0721D368013B49
:10342000D3605DF8044B7047937A03F003030029DF
:10343000E6D043F00403E3E7D3685DF8044B023BB6
:10344000D3607047D3685DF8044B0233D360704794
:10345000D3685DF8044B0133D36070470C20FF1F25
:10346000214B10B4D3F8C42013685068197804783D
:10347000507A137A044201EA03011BD0937A03F0D5
:10348000030309B143F0040343F008039910013B1F
:1034900091720D2B0BD8DFE803F021071B070A15EB
:1034A0002121150A071B0721D368013BD3605DF872
:1034B000044B7047937A03F003030029E6D043F0EE
:1034C0000403E3E7D3685DF8044B023BD360704725
:1034D000D3685DF8044B0233D3607047D3685DF85E
:1034E000044B0133D36070470C20FF1F214B10B4F5
:1034F000D3F8C8201368506819780478507A137A82
:10350000044201EA03011BD0937A03F0030309B1DB
:1035100043F0040343F008039910013B91720D2B13
:103520000BD8DFE803F021071B070A152121150A34
:10353000071B0721D368013BD3605DF8044B70473C
:10354000937A03F003030029E6D043F00403E3E792
:10355000D3685DF8044B023BD3607047D3685DF8D5
:10356000044B0233D3607047D3685DF8044B0133DA
:10357000D36070470C20FF1F214B10B4D3F8CC2030
:103580001368506819780478507A137A044201EA73
:1035900003011BD0937A03F0030309B143F0040342
:1035A00043F008039910013B91720D2B0BD8DFE813
:1035B00003F021071B070A152121150A071B072104
:1035C000D368013BD3605DF8044B7047937A03F0F6
:1035D00003030029E6D043F00403E3E7D3685DF872
:1035E000044B023BD3607047D3685DF8044B023351
:1035F000D3607047D3685DF8044B0133D3607047E4
:103600000C20FF1F214B10B4D3F8D0201368506852
:1036100019780478507A137A044201EA03011BD026
:10362000937A03F0030309B143F0040343F0080362
:103630009910013B91720D2B0BD8DFE803F02107A5
:103640001B070A152121150A071B0721D368013B17
:10365000D3605DF8044B7047937A03F003030029AD
:10366000E6D043F00403E3E7D3685DF8044B023B84
:10367000D3607047D3685DF8044B0233D360704762
:10368000D3685DF8044B0133D36070470C20FF1FF3
:10369000214B10B4D3F8EC201368506819780478E3
:1036A000507A137A044201EA03011BD0937A03F0A3
:1036B000030309B143F0040343F008039910013BED
:1036C00091720D2B0BD8DFE803F021071B070A15B9
:1036D0002121150A071B0721D368013BD3605DF840
:1036E000044B7047937A03F003030029E6D043F0BC
:1036F0000403E3E7D3685DF8044B023BD3607047F3
:10370000D3685DF8044B0233D3607047D3685DF82B
:10371000044B0133D36070470C20FF1F214B10B4C2
:10372000D3F8E4201368506819780478507A137A33
:10373000044201EA03011BD0937A03F0030309B1A9
:1037400043F0040343F008039910013B91720D2BE1
:103750000BD8DFE803F021071B070A152121150A02
:10376000071B0721D368013BD3605DF8044B70470A
:10377000937A03F003030029E6D043F00403E3E760
:10378000D3685DF8044B023BD3607047D3685DF8A3
:10379000044B0233D3607047D3685DF8044B0133A8
:1037A000D36070470C20FF1F214B10B4D3F8E820E2
:1037B0001368506819780478507A137A044201EA41
:1037C00003011BD0937A03F0030309B143F0040310
:1037D00043F008039910013B91720D2B0BD8DFE8E1
:1037E00003F021071B070A152121150A071B0721D2
:1037F000D368013BD3605DF8044B7047937A03F0C4
:1038000003030029E6D043F00403E3E7D3685DF83F
:10381000044B023BD3607047D3685DF8044B02331E
:10382000D3607047D3685DF8044B0133D3607047B1
:103830000C20FF1F214B10B4D3F8D420136850681C
:1038400019780478507A137A044201EA03011BD0F4
:10385000937A03F0030309B143F0040343F0080330
:103860009910013B91720D2B0BD8DFE803F0210773
:103870001B070A152121150A071B0721D368013BE5
:10388000D3605DF8044B7047937A03F0030300297B
:10389000E6D043F00403E3E7D3685DF8044B023B52
:1038A000D3607047D3685DF8044B0233D360704730
:1038B000D3685DF8044B0133D36070470C20FF1FC1
:1038C000214B10B4D3F8D8201368506819780478C5
:1038D000507A137A044201EA03011BD0937A03F071
:1038E000030309B143F0040343F008039910013BBB
:1038F00091720D2B0BD8DFE803F021071B070A1587
:103900002121150A071B0721D368013BD3605DF80D
:10391000044B7047937A03F003030029E6D043F089
:103920000403E3E7D3685DF8044B023BD3607047C0
:10393000D3685DF8044B0233D3607047D3685DF8F9
:10394000044B0133D36070470C20FF1F214B10B490
:10395000D3F8DC201368506819780478507A137A09
:10396000044201EA03011BD0937A03F0030309B177
:1039700043F0040343F008039910013B91720D2BAF
:103980000BD8DFE803F021071B070A152121150AD0
:10399000071B0721D368013BD3605DF8044B7047D8
:1039A000937A03F003030029E6D043F00403E3E72E
:1039B000D3685DF8044B023BD3607047D3685DF871
:1039C000044B0233D3607047D3685DF8044B013376
:1039D000D36070470C20FF1F214B10B4D3F8E020B8
:1039E0001368506819780478507A137A044201EA0F
:1039F00003011BD0937A03F0030309B143F00403DE
:103A000043F008039910013B91720D2B0BD8DFE8AE
:103A100003F021071B070A152121150A071B07219F
:103A2000D368013BD3605DF8044B7047937A03F091
:103A300003030029E6D043F00403E3E7D3685DF80D
:103A4000044B023BD3607047D3685DF8044B0233EC
:103A5000D3607047D3685DF8044B0133D36070477F
:103A60000C20FF1F214B10B41A6813685068197896
:103A70000478507A137A044201EA03011BD0937A46
:103A800003F0030309B143F0040343F00803991062
:103A9000013B91720D2B0BD8DFE803F021071B07C8
:103AA0000A152121150A071B0721D368013BD360A2
:103AB0005DF8044B7047937A03F003030029E6D0C6
:103AC00043F00403E3E7D3685DF8044B023BD360A3
:103AD0007047D3685DF8044B0233D3607047D368F6
:103AE0005DF8044B0133D360704700BF0C20FF1F0B
:103AF000214B10B45A681368506819780478507ACA
:103B0000137A044201EA03011BD0937A03F0030302
:103B100009B143F0040343F008039910013B91728B
:103B20000D2B0BD8DFE803F021071B070A15212115
:103B3000150A071B0721D368013BD3605DF8044BCE
:103B40007047937A03F003030029E6D043F004039F
:103B5000E3E7D3685DF8044B023BD3607047D3685A
:103B60005DF8044B0233D3607047D3685DF8044BB3
:103B70000133D360704700BF0C20FF1F214B10B4EE
:103B80009A681368506819780478507A137A044256
:103B900001EA03011BD0937A03F0030309B143F058
:103BA000040343F008039910013B91720D2B0BD8CD
:103BB000DFE803F021071B070A152121150A071B5F
:103BC0000721D368013BD3605DF8044B7047937ABB
:103BD00003F003030029E6D043F00403E3E7D368CE
:103BE0005DF8044B023BD3607047D3685DF8044B2B
:103BF0000233D3607047D3685DF8044B0133D36060
:103C0000704700BF0C20FF1F214B10B4DA68136807
:103C1000506819780478507A137A044201EA030153
:103C20001BD0937A03F0030309B143F0040343F07C
:103C300008039910013B91720D2B0BD8DFE803F0BC
:103C400021071B070A152121150A071B0721D36825
:103C5000013BD3605DF8044B7047937A03F0030394
:103C60000029E6D043F00403E3E7D3685DF8044B92
:103C7000023BD3607047D3685DF8044B0233D360D6
:103C80007047D3685DF8044B0133D360704700BFC1
:103C90000C20FF1F214B10B41A6913685068197863
:103CA0000478507A137A044201EA03011BD0937A14
:103CB00003F0030309B143F0040343F00803991030
:103CC000013B91720D2B0BD8DFE803F021071B0796
:103CD0000A152121150A071B0721D368013BD36070
:103CE0005DF8044B7047937A03F003030029E6D094
:103CF00043F00403E3E7D3685DF8044B023BD36071
:103D00007047D3685DF8044B0233D3607047D368C3
:103D10005DF8044B0133D360704700BF0C20FF1FD8
:103D200008B5094804F0E6FE084805F005FA07481A
:103D300005F026FA00B908BD054805F0FDF904486C
:103D4000BDE8084005F01CBA4809FF1F741FFF1F9B
:103D50002C1FFF1FFFFFFFFF10B5002382B0224A78
:103D60000260044601AA43608360C3600DF1020152
:103D70000DF106031D4805F01DFABDF9020008F01B
:103D8000E1FF00221A4B09F043F815A3D3E9002301
:103D900009F03EF809F0FEFA6060BDF9040008F091
:103DA000D1FF0022124B09F033F80DA3D3E9002311
:103DB00009F02EF809F0EEFAA060BDF9060008F04F
:103DC000C1FF00220A4B09F023F805A3D3E9002321
:103DD00009F01EF809F0DEFAE060204602B010BDDE
:103DE00000000060B89E2340DC160100741FFF1F16
:103DF0000000103FFFFFFFFF10B5002382B0264AEE
:103E00000260044601AA43608360C3600DF10201B1
:103E10000DF10603214805F0EFF9BDF9020008F0A5
:103E200091FF19A3D3E9002309F01CF918A3D3E9E2
:103E3000002308F0EDFF09F0ADFA6060BDF9040061
:103E400008F080FF10A3D3E9002309F00BF910A3B9
:103E5000D3E9002308F0DCFF09F09CFAA060BDF96B
:103E6000060008F06FFF08A3D3E9002309F0FAF871
:103E700007A3D3E9002308F0CBFF09F08BFAE06039
:103E8000204602B010BD00BF00000000006060408E
:103E9000000000A046DF913FDC1601002C1FFF1F31
:103EA000F8B5044615460E46084602211F4606F0A0
:103EB0009BFA2846022106F097FA9B499B4A51F843
:103EC00036002760012300F50077E760237551F87D
:103ED0003510637501F500770023A3612761134650
:103EE000013BFDD190F8003291F8002203F001036C
:103EF000D20744BF43F00203DBB2A37504F10C0701
:103F00003B2E00F20486DFE816F0F505EB05E1052F
:103F1000D705CD05C305B905AF05A5059B059105D9
:103F200087057D05730569055F0555054B05410549
:103F300037052D05230519050F050505FB04F104BB
:103F4000E704DD04D304C904BF04B404A9049E0437
:103F5000930488047D0429041F0415040B04010440
:103F6000F703ED03E303D903CF03C503BB03B10399
:103F7000A7039D03930389037F0375036B03610309
:103F80003C006B4B6B49C3F8EC7004223B2005F0FE
:103F9000F5FF012323773B2D00F2B685DFE815F00E
:103FA0000C030203F802EE02E402DA02D002C602B7
:103FB000BC02B202A8029E0294028A02800232026D
:103FC00028021E0214020A020002F601EC01E201BC
:103FD000D801CE01C401BA01B001A6019C01920131
:103FE00087017C01710166015B01500145013A01C5
:103FF0002F01240119010E010301F800ED00E20078
:10400000B800AD00A20097008C00810076006B0024
:10401000600055004A003C00454B4649C3F8EC702F
:1040200004223B2005F0AAFF237F012213442377BB
:104030002046F8BD3E4B4049C3F8E87004223A20C0
:1040400005F09CFF237F0122F0E7394B3B49C3F881
:10405000E4700422392005F091FF237F0122E5E777
:10406000334B3749C3F8E0700422382005F086FF4F
:10407000237F0122DAE72E4B3249C3F8DC70042299
:10408000372005F07BFF237F0122CFE7284B2E4905
:10409000C3F8D8700422362005F070FF237F012278
:1040A000C4E7234B2949C3F8D4700422352005F016
:1040B00065FF237F0122B9E71D4B2549C3F8D07066
:1040C0000422342005F05AFF237F0122AEE7184B6B
:1040D0002049C3F8CC700422332005F04FFF237F22
:1040E0000122A3E7124B1C49C3F8C87004223220F6
:1040F00005F044FF237F012298E70D4B1749C3F8D1
:10410000C4700422312005F039FF237F01228DE79E
:10411000074B1349C3F8C0700422302005F02EFF6E
:10412000237F012282E700BF541B0100C0D401009D
:104130000C20FF1F91360000A93700001D3700003A
:10414000D93900004D390000C13800003538000071
:104150000536000079350000ED34000061340000C0
:10416000D5330000AC4BAD49C3F8BC7004222F20FE
:1041700005F004FF237F012258E7A74BA849C3F8A5
:10418000B87004222E2005F0F9FE237F01224DE7AE
:10419000A14BA449C3F8B47004222D2005F0EEFE13
:1041A000237F012242E79C4B9F49C3F8B070042251
:1041B0002C2005F0E3FE237F012237E7964B9B4935
:1041C000C3F8AC7004222B2005F0D8FE237F012217
:1041D0002CE7914B9649C3F8A87004222A2005F0D9
:1041E000CDFE237F012221E78B4B9249C3F8A470B7
:1041F0000422292005F0C2FE237F012216E7864B08
:104200008D49C3F8A0700422282005F0B7FE237F53
:1042100001220BE7804B8949C3F89C7004222720B8
:1042200005F0ACFE237F012200E77B4B8449C3F8F5
:1042300098700422262005F0A1FE237F0122F5E6D6
:10424000754B8049C3F894700422252005F096FE32
:10425000237F0122EAE6704B7B49C3F89070042269
:10426000242005F08BFE237F0122DFE66A4B77498D
:10427000C3F88C700422232005F080FE237F0122E6
:10428000D4E6654B7249C3F888700422222005F0F9
:1042900075FE237F0122C9E65F4B6E49C3F8847027
:1042A0000422212005F06AFE237F0122BEE65A4B3C
:1042B0006949C3F880700422202005F05FFE237F47
:1042C0000122B3E6544B6549DF6704221F2005F045
:1042D00055FE237F0122A9E64F4B61499F670422C7
:1042E0001E2005F04BFE237F01229FE64A4B5D49CD
:1042F0005F6704221D2005F041FE237F012295E621
:10430000454B59491F6704221C2005F037FE237FC7
:1043100001228BE6404B5549DF6604221B2005F045
:104320002DFE237F012281E63B4B51499F660422EB
:104330001A2005F023FE237F012277E6364B4D49F4
:104340005F660422192005F019FE237F01226DE625
:10435000314B49491F660422182005F00FFE237FC8
:10436000012263E62C4B4549DF650422172005F046
:1043700005FE237F012259E6274B41499F65042210
:10438000162005F0FBFD237F01224FE6224B3D491D
:104390005F650422152005F0F1FD237F012245E62B
:1043A0001D4B39491F650422142005F0E7FD237FCA
:1043B00001223BE6184B3549DF640422132005F047
:1043C000DDFD237F012231E6134B31499F64042236
:1043D000122005F0D3FD237F012227E60E4B2D4945
:1043E0005F640422112005F0C9FD237F01221DE630
:1043F000094B29491F640422102005F0BFFD237FCB
:10440000012213E6044B2549DF6304220F2005F047
:10441000B5FD237F012209E60C20FF1F4933000070
:10442000BD32000031320000A5310000193100001A
:104430008D30000001300000752F0000E92E0000D3
:104440005D2E0000D12D0000452D0000B92C00008C
:104450002D2C0000A12B0000152B0000892A000044
:10446000FD29000071290000E528000059280000FE
:10447000CD27000041270000B526000029260000B6
:104480009D2500001125000085240000F92300006F
:104490006D230000E122000055220000C921000028
:1044A000B34BB4499F6304220E2005F067FD237FC0
:1044B0000122BBE5AE4BB0495F6304220D2005F03D
:1044C0005DFD237F0122B1E5A94BAC491F630422A6
:1044D0000C2005F053FD237F0122A7E5A44BA8493A
:1044E000DF6204220B2005F049FD237F01229DE5B8
:1044F0009F4BA4499F6204220A2005F03FFD237FC1
:10450000012293E59A4BA0495F620422092005F03D
:1045100035FD237F012289E5954B9C491F620422CA
:10452000082005F02BFD237F01227FE5904B984961
:10453000DF610422072005F021FD237F012275E5BC
:104540008B4B94499F610422062005F017FD237FC1
:1045500001226BE5864B90495F610422052005F03E
:104560000DFD237F012261E5814B8C491F610422EF
:10457000104605F003FD237F012257E57C4B884957
:10458000DF600422032005F0F9FC237F01224DE5C2
:10459000774B84499F600422022005F0EFFC237FC3
:1045A000012243E5724B80495F600422012005F03F
:1045B000E5FC237F012239E56D4B7C491F60042215
:1045C000002005F0DBFC237F01222FE5684B7849B2
:1045D000C3F8E87004223A2005F0D0FC0123D9E4A6
:1045E000634B7449C3F8E4700422392005F0C6FC1B
:1045F0000123CFE45E4B7049C3F8E07004223820F9
:1046000005F0BCFC0123C5E4594B6C49C3F8DC70D0
:104610000422372005F0B2FC0123BBE4544B684967
:10462000C3F8D8700422362005F0A8FC0123B1E4B9
:104630004F4B6449C3F8D4700422352005F09EFC2A
:104640000123A7E44A4B6049C3F8D0700422342008
:1046500005F094FC01239DE4454B5C49C3F8CC7004
:104660000422332005F08AFC012393E4404B58498F
:10467000C3F8C8700422322005F080FC012389E4CD
:104680003B4B5449C3F8C4700422312005F076FC3A
:1046900001237FE4364B5049C3F8C0700422302018
:1046A00005F06CFC012375E4314B4C49C3F8BC7038
:1046B00004222F2005F062FC01236BE42C4B4849B7
:1046C000C3F8B87004222E2005F058FC012361E4E1
:1046D000274B4449C3F8B47004222D2005F04EFC4A
:1046E000012357E4224B4049C3F8B07004222C2028
:1046F00005F044FC01234DE41D4B3C49C3F8AC706C
:1047000004222B2005F03AFC012343E4184B3849DE
:10471000C3F8A87004222A2005F030FC012339E4F4
:10472000134B3449C3F8A4700422292005F026FC59
:1047300001232FE40E4B3049C3F8A0700422282037
:1047400005F01CFC012325E4094B2C49C3F89C709F
:104750000422272005F012FC01231BE4044B284906
:10476000C3F898700422262005F008FC012311E408
:104770000C20FF1F3D210000B1200000252000007B
:10478000991F00000D1F0000811E0000F51D000094
:10479000691D0000DD1C0000511C0000953C00005C
:1047A000093C00007D3B0000F13A0000653A000042
:1047B000A93700001D370000D93900004D3900002D
:1047C000C13800003538000005360000793500009A
:1047D000ED34000061340000D5330000493300009F
:1047E000BD32000031320000A53100001931000057
:1047F0008D30000001300000752F0000E92E000010
:104800005D2E0000C34BC449C3F8947004222520D8
:1048100005F0B4FB0123FFF7BDBBBE4BBF49C3F896
:1048200090700422242005F0A9FB0123FFF7B2BBFE
:10483000B84BBB49C3F88C700422232005F09EFBC3
:104840000123FFF7A7BBB34BB649C3F88870042216
:10485000222005F093FB0123FFF79CBBAD4BB2492F
:10486000C3F884700422212005F088FB0123FFF7A0
:1048700091BBA84BAD49C3F880700422202005F0FD
:104880007DFB0123FFF786BBA24BA949DF6704220A
:104890001F2005F073FB0123FFF77CBB9D4BA5494F
:1048A0009F6704221E2005F069FB0123FFF772BBFE
:1048B000984BA1495F6704221D2005F05FFB01238F
:1048C000FFF768BB934B9D491F6704221C2005F02E
:1048D00055FB0123FFF75EBB8E4B9949DF6604222F
:1048E0001B2005F04BFB0123FFF754BB894B954977
:1048F0009F6604221A2005F041FB0123FFF74ABB03
:10490000844B91495F660422192005F037FB01238F
:10491000FFF740BB7F4B8D491F660422182005F02E
:104920002DFB0123FFF736BB7A4B8949DF65042253
:10493000172005F023FB0123FFF72CBB754B85499E
:104940009F650422162005F019FB0123FFF722BB07
:10495000704B81495F650422152005F00FFB012390
:10496000FFF718BB6B4B7D491F650422142005F02F
:1049700005FB0123FFF70EBB664B7949DF64042278
:10498000132005F0FBFA0123FFF704BB614B7549C7
:104990009F640422122005F0F1FA0123FFF7FABA0E
:1049A0005C4B71495F640422112005F0E7FA012392
:1049B000FFF7F0BA574B6D491F640422102005F031
:1049C000DDFA0123FFF7E6BA524B6949DF6304229F
:1049D0000F2005F0D3FA0123FFF7DCBA4D4B6549F0
:1049E0009F6304220E2005F0C9FA0123FFF7D2BA13
:1049F000484B61495F6304220D2005F0BFFA012393
:104A0000FFF7C8BA434B5D491F6304220C2005F031
:104A1000B5FA0123FFF7BEBA3E4B5949DF620422C3
:104A20000B2005F0ABFA0123FFF7B4BA394B554917
:104A30009F6204220A2005F0A1FA0123FFF7AABA17
:104A4000344B51495F620422092005F097FA012393
:104A5000FFF7A0BA2F4B4D491F620422082005F032
:104A60008DFA0123FFF796BA2A4B4949DF610422E8
:104A7000072005F083FA0123FFF78CBA254B45493F
:104A80009F610422062005F079FA0123FFF782BA1C
:104A9000204B41495F610422052005F06FFA012394
:104AA000FFF778BA1B4B3D491F610422104605F001
:104AB00065FA0123FFF76EBA164B3949DF6004220D
:104AC000032005F05BFA0123FFF764BA114B354967
:104AD0009F600422022005F051FA0123FFF75ABA21
:104AE0000C4B31495F600422012005F047FA012395
:104AF000FFF750BA074B2D491F600422002005F034
:104B00003DFA0123FFF746BA0022FFF78FBA0023D0
:104B1000FFF740BA0C20FF1FD12D0000452D0000EB
:104B2000B92C00002D2C0000A12B0000152B00003B
:104B3000892A0000FD29000071290000E5280000F5
:104B400059280000CD27000041270000B5260000AD
:104B5000292600009D250000112500008524000065
:104B6000F92300006D230000E1220000552200001F
:104B7000C92100003D210000B120000025200000D7
:104B8000991F00000D1F0000811E0000F51D000090
:104B9000691D0000DD1C0000511C0000953C000058
:104BA000093C00007D3B0000F13A0000653A00003E
:104BB0002DE9F04F072193B0A548A64EA64CA74F6C
:104BC00004F01EFEA2485A2104F020FE3068A44AD8
:104BD00040F2EE2513783BB12378DB0704D5336828
:104BE00039685B1A0E2B08D8336811781B1A002914
:104BF00000F04B82B3F5FA6FECD99A4C00234FF4D6
:104C00006142A260C4F8E43404F27C42C4F8E8349F
:104C1000C4F8F034C4F8EC3402E00133192B0AD0A4
:104C200052F8041F0029F8D103F590718E4A44F818
:104C30002120643353608D4A002302E00133192B95
:104C40000AD052F8041F0029F8D103F59071884A60
:104C500044F8212064335360864A002302E0013384
:104C6000192B0BD052F8041F0029F8D1824A04EB0B
:104C700083017D33C1F81C249360D4607D4A0023F6
:104C800002E00133192B0BD052F8041F0029F8D190
:104C90007A4A04EB83017D33C1F81C249360D4600D
:104CA000774B94F8F824DFF8E4B1DFF8E49102934D
:104CB0000192A3F50775019B002B40F00881336832
:104CC0000A93DDF828A0D4F8003542F6F822C3EBA9
:104CD0000A03934284BF9DF8043085F8F834D4F871
:104CE000E43433B1D5F804359A4584BF0023C5F8C0
:104CF000E434A2695B493AB133680E930E9BCAEB68
:104D000003039A42C0F0E081606803685B694B4529
:104D100056D106F021FA002855DBD4F8F434D4F843
:104D2000E424504F0344072AC4F8F43400F01D81F2
:104D300072B9FF2800F0818133680D930D9B41F219
:104D40008831CAEB03038B42D3D987F8F824B6E73E
:104D5000012A00F01D81022A00F07781032A00F069
:104D60007F81042A00F08681052A00F09681062AB8
:104D700000F09B81082ABCD1424A1A4000239A4283
:104D8000C4F8E434C0F2A981FF2AB2D1D4F8EC14FB
:104D9000344B002900F00A830A2900F0A781062974
:104DA00000F0E8810B2900F09D81BC3155F821000D
:104DB00000289ED0026803F11C011368984798E709
:104DC00098470028A9DA94F8F8340193002B3FF4AF
:104DD00076AFD5F8FC3440F6C412C3EB0A03934215
:104DE0007FF669AFFF21FE27274B85F81C120821AB
:104DF000002285F81D7285F81E12F7270A2103F19B
:104E0000090085F8232285F8242285F8252285F8D3
:104E1000262285F8272285F8282285F8292285F878
:104E20002A2285F81F2285F8222285F8207285F82B
:104E3000211201E013F8011F98420A44FAD1029BA3
:104E4000D24384F82B22984603F10F07FF2127E075
:104E50008418FF1F4021FF1F3C22FF1FB422FF1FA9
:104E60002422FF1FB819FF1F6018FF1F341EFF1FE9
:104E70000418FF1FD01DFF1FCC1FFF1FE81FFF1FBF
:104E8000D41BFF1FFF000080D91BFF1F250A000055
:104E90000D08000006F04AFAB8450BD018F8011FBB
:104EA000626813681B685B450846F3D01046984754
:104EB000B845F3D133680993099BE36094F8F8345B
:104EC0000193019BC4F8FCA4002B3FF4F8AEA34E61
:104ED000A34D0FCE0FC52B46326823F817290126A4
:104EE000FF210022A8194FF0120EFE2784F823623A
:104EF000E825172684F81C12072184F824E284F898
:104F0000252284F8262284F8272284F81F2284F898
:104F1000222284F81D7284F81E6284F8205284F8DC
:104F2000211201E013F8011F98420A44FAD1029DB0
:104F3000D24384F83A2205F11E06FF2105E006F06F
:104F4000F5F9B5420BD015F8011F626813681B68AC
:104F50005B450846F3D010469847B542F3D101208F
:104F600005F048FA13B0BDE8F08FD5F8F024D5F875
:104F7000E834A918013B01320877C5F8F024C5F8D8
:104F8000E834002B7FF4B5AE0823C4F8E434B0E66F
:104F9000FE287ED095F8F8240023C5F8E434002AD2
:104FA0007FF4A7AEFF23FE21082085F81C3285F888
:104FB0001D12F7230A2185F8203285F8232207F2F3
:104FC000212385F8242285F8252285F8262285F8D4
:104FD000272285F8282285F8292285F82A2285F8B3
:104FE0001F2285F8222285F81E0285F8211207F279
:104FF0002A2701E013F8011F9F420A44FAD1029BBD
:10500000D24384F82B221F4603F10F08FF2105E04D
:1050100006F08CF947450BD017F8011F626813683A
:105020001B685B450846F3D0104698474745F3D1C7
:1050300033680C930C9BE3605BE601220AF11403D6
:10504000C5F8E424C5F8043553E600220323C5F867
:10505000E804C5F8F404C5F8F024C5F8E43448E6DB
:10506000D5F8E83403EB00200423C5F8E804C5F8BC
:10507000E4343EE63B4A1A40002A29DBFF2A0CBFF3
:1050800005230023C4F8E43433E6AB427FF6A2AD37
:10509000B3E50223C5F8E4342BE60623C5F8EC0497
:1050A000C5F8F404C5F8E43423E6D5F8EC34D5F8B3
:1050B000E82403EB00230721C5F8EC34C5F8E41419
:1050C000002A3FF461AF14E691F8F8340193F2E559
:1050D000013A62F0FF020132D0E7013A62F0FF02CA
:1050E000013251E6002385F8F83402E632680F9267
:1050F0000F99EA68306811901B482F6ADFF870C07A
:10510000DDF844808A1AA0FB020E4FEA9E1EBC44C2
:105110004FF47A70154FE96900FB1E2207FB02C2AB
:105120000392114AA2FB082C4FEA9C1C039A0139F6
:1051300000FB1C80714407FB1022CCEB010703F13C
:10514000100003F114016A612F6103F0DDFF336881
:105150001093109BC5F80035CBE500BF9C190100EA
:10516000E01BFF1FFF000080D34D621040420F0084
:1051700000CA9A3BEF69D5F810359F4206D9B900AD
:10518000D5F8180508F096FCC5F81805C4F8107590
:10519000002F00F0FA804FF004080023A74FCDF84D
:1051A0000CA0C246984697F8221097F8210097F86D
:1051B000202097F823E0090441EA00210A43D4F8AB
:1051C00018059F4942EA0E6300EB88000422C4F8E8
:1051D000143504F021FDD4F8102508F101084245EA
:1051E000514607F104070AF1040ADCD8CA1D0692E9
:1051F00001F10902D046DDF80CA0039201F10A0288
:10520000049201F10B0201F10803059201F10C0275
:10521000C646481D98468F1D079227442118069AB6
:10522000387F91F81CC0D4F81C15A6442244000411
:105230009EF81CE0177F40EA0C2040EA0E0040EA8E
:1052400007678F4208D9B900D5F82405069308F0FE
:1052500031FC069BC5F82405C4F81C75002F00F02E
:10526000EB80002305EB0807CDF80CA0C24698465A
:10527000B97F787F3A7F97F81FE0090441EA00215F
:105280000A43D4F824056F4942EA0E6E00EB880009
:105290000422C1F800E004F0BFFCD4F81C2508F19A
:1052A00001084245514607F104070AF1040ADFD814
:1052B0004A1DD046DDF80CA003928A1D0492CA1D37
:1052C0004346059201F10807049A039922442144B8
:1052D0000846117FD4F828250392059A007F2344BD
:1052E000224409041B7F92F81C8041EA00210B43F1
:1052F00043EA0868039B984507D94FEA8801D5F827
:10530000300508F0D7FBC5F83005C4F82885B8F19A
:10531000000F36D04FF0000807F11C010023214494
:105320009E4611F8012B9A400833202B4EEA020EBC
:10533000F7D1381D8644704509D207F11F03234475
:1053400002460132597803F8011B7245F9D304EB88
:105350000E024FF00001D1763B49431EA1F5A26237
:10536000D4F83005134400EB8800C4F82C3504222F
:10537000774604F051FCD4F8283508F1010843457C
:10538000CAD8012384F80835B3E40C2207920B2213
:1053900005920A22049209220823039207229846C2
:1053A0000692062705204FF0040E36E783F81C22EC
:1053B000F7204FF0FE0E08270A2283F8200283F818
:1053C000231283F8241283F8251283F8261283F817
:1053D000271283F8281283F8291283F82A1283F8F7
:1053E0001F1283F8221283F81DE283F81E7283F8DD
:1053F000212203F22A2003F2212301E013F8012FD6
:1054000098421144FAD1114FC943A7F10F0384F810
:105410002B1202939846FF2105E005F087FFB8455F
:1054200016D018F8011F626813681B685B450846B0
:10543000F3D010469847F2E7079F45E7B819FF1FDA
:10544000CC1EFF1FD81EFF1FE41EFF1FE31BFF1F04
:1054500033680B93D14BCDF804A01A460B9BE36045
:1054600092465AF8043F002B00F0BF8058689A68B3
:1054700001680392D3F800908B689847DAF80030FF
:10548000804658680368DB689847DAF80030039A6A
:105490001E69632E074604DD94F8F834002B00F0F3
:1054A000A480C2F3072384F8232284F824324846D8
:1054B00008F046FD03464FEA136E020A000C494607
:1054C00084F8253284F8262284F827021A4684F8C4
:1054D00028E2B348039304F09FFB404608F030FDF8
:1054E000039B024603F2292020440633002122FABE
:1054F00001FE0831202900F801EBF8D1A948043356
:105500004146184402EB030804F086FB384608F0D5
:1055100017FD08F2232281462244002329FA03F1D1
:105520000833202B02F8011BF8D19E4B08F1040828
:10553000394603EB08004A4604F06EFB09EB08000D
:10554000071D5FFA87FCC7F3072E04EB00080CEB7E
:105550000E010022C943022388F8243288F823224E
:1055600088F8252288F8262284F82012F1B246F322
:105570000726FF234FF0FE0884F822627E1C84F881
:105580001EC284F81FE284F81C3284F81D8284F85D
:1055900021120BDB00F22626834B2E4401E013F888
:1055A000011FB3420A44FAD1D343DBB2E2190837F0
:1055B000B7F5007F82F8233200F34B81002F14DD12
:1055C00000F22720794E2F1803E005F0AFFEBE420F
:1055D0000BD0626816F8011F13681B685B4508460C
:1055E000F3D010469847BE42F3D1714B9A457FF4F1
:1055F00038AF9A465AF8040F002800F0BF8090E8B0
:105600000C0003939268D0F8089090478046DAF82F
:1056100000000268D26890470746DAF80000026886
:105620005268904763280646039B04DD94F8F824EB
:10563000002A00F0A380C3F3072284F8233284F801
:105640002422484608F07CFC03464FEA136E020A07
:10565000000C494684F8253284F8262284F8270273
:105660001A4684F828E24E48039304F0D5FA4046DF
:1056700008F066FC039B024603F22920204406330F
:10568000002122FA01FE0831202900F801EBF8D1AF
:10569000444804334146184402EB030804F0BCFAC2
:1056A000384608F04DFC08F22322814622440023AC
:1056B00029FA03F10833202B02F8011BF8D1394BEA
:1056C00008F10408394603EB08004A4604F0A4FA3E
:1056D00009EB0800071D5FFA87FCC7F3072E04EBF0
:1056E00000080CEB0E010022C943022388F8243283
:1056F00088F8232288F8252288F8262284F82012A8
:10570000F1B246F30726FF234FF0FE0884F8226229
:105710007E1C84F81EC284F81FE284F81C3284F8D0
:105720001D8284F821120BDB00F226261E4B2E442C
:1057300001E013F8011FB3420A44FAD1D343DBB2AC
:10574000E2190837B7F5007F82F8233234DC002FE6
:1057500014DD00F22720154E2F1803E005F0E6FDBA
:10576000B7420BD0626816F8011F13681B685B45CF
:105770000846F3D010469847B742F3D10D4B9A45EF
:105780007FF438AFDDF804A0C4F8FCA40123C4F80A
:1057900000A584F8F834FFF79ABB00BFD01DFF1FA7
:1057A000E11BFF1FDB1BFF1FD91BFF1FD31BFF1FAD
:1057B000341EFF1F981EFF1F4D4F4E4E0FCF0FC6BA
:1057C0000FCF0FC60FCF0FC697E8030000234FF08F
:1057D000030E3827FF2285F823E285F824724FF064
:1057E000FE0E3D2785F8253285F8263285F82732CA
:1057F00086E80300C22185F81C220722F01D85F8E7
:105800001F3285F82232373E85F81DE285F81E7278
:1058100085F8201285F8212201E016F8012FB04208
:105820001344FAD1344EDB4384F86032A6F14407C6
:10583000FF2005E005F07AFDBE429FD017F8010F6A
:10584000626813681B685B450146F3D010469847B1
:10585000F2E7274F274E0FCF0FC60FCF0FC60FCF40
:105860000FC697E8030000234FF0030E3827FF22EE
:1058700085F823E285F824724FF0FE0E3D2785F867
:10588000253285F8263285F8273286E80300C221C2
:1058900085F81C220722F01D85F81F3285F8223278
:1058A000373E85F81DE285F81E7285F8201285F8CE
:1058B000212201E016F8012FB0421344FAD10E4E16
:1058C000DB4384F86032A6F14407FF2006E005F0D0
:1058D0002DFDB7423FF489AE17F8010F62681368D7
:1058E0001B685B450146F2D010469847F1E700BFC0
:1058F00060190100E01BFF1F181CFF1FF0B585B0E9
:10590000DA4D6846FEF728FA0199029A039BA960CE
:105910006846EA602B61FEF76FFAD54AD548D4682D
:10592000DDED016A23689DED027A1E68DDED037AE4
:105930009168C5ED066A0023864285ED077AC5EDBC
:10594000087AAB62EB622B6340F08A81632904DD45
:1059500094F8F834002B00F0708195ED026A16EE91
:10596000103AC3F3C752002A40F069811646C3F3C8
:10597000C3400643B5EEC06A95ED036A84F8296218
:105980005F01DE10DB1284F82832F1EE10FA16EE19
:10599000103A48BF62F07F02002084F82A22C3F345
:1059A000C75284F8230284F8240284F8250284F87C
:1059B000267284F82762002A00F0508102F5607296
:1059C000160176B2C2F30712C3F3C3400643B5EE25
:1059D000C06A95ED046A84F831625F01DE10DB1263
:1059E00084F83032F1EE10FA16EE103A48BF62F049
:1059F0007F02002084F83222C3F3C75284F82B02BE
:105A000084F82C0284F82D0284F82E7284F82F6218
:105A1000002A00F0218102F5607215016DB2C2F317
:105A20000712C3F3C3405F01DE10B5EEC06ADB129C
:105A300084F83832F1EE10FA16EE903A48BF62F070
:105A40007F02054384F83A220020C3F3C75284F84A
:105A5000395284F8330284F8340284F8350284F829
:105A6000367284F83762002A00F0F28002F5607224
:105A700015016DB2C2F30712C3F3C3405F01DE101C
:105A8000F5EEC06ADB1284F84032F1EE10FA17EE40
:105A9000103A48BF62F07F02054384F8422200209A
:105AA000C3F3C75284F8415284F83B0284F83C02A5
:105AB00084F83D0284F83E7284F83F62002A00F0C8
:105AC000C58002F5607215016DB2C2F30712C3F30F
:105AD000C3405F01DE10B5EEC07ADB1284F84832B5
