:1000000000000320D10100009193000049930000FB
:100010004993000049930000499300004993000070
:100020004993000049930000499300009193000018
:10003000919300004993000085AD000089AD000058
:100040009193000091930000919300009193000020
:100050009193000091930000919300009193000010
:100060009193000091930000919300009193000000
:1000700091930000919300009193000091930000F0
:1000800091930000919300009193000091930000E0
:1000900091930000919300009193000091930000D0
:1000A000618600006D86000091930000919300002E
:1000B00091930000919300009193000091930000B0
:1000C00091930000919300009193000091930000A0
:1000D0009193000091930000919300009193000090
:1000E0009193000091930000919300009193000080
:1000F0009193000091930000919300009193000070
:10010000919300009193000091930000919300005F
:10011000C18E00003D9D000091930000919300006E
:10012000919300009193000091930000919300003F
:10013000919300009193000091930000919300002F
:10014000919300009193000091930000919300001F
:10015000919300009193000091930000919300000F
:100160009193000091930000798600009193000024
:1001700091930000919300009193000091930000EF
:1001800091930000919300009193000091930000DF
:1001900091930000919300009193000091930000CF
:1001A00091930000919300009193000091930000BF
:1001B00091930000919300009193000091930000AF
:1001C000919300009193000091930000919300009F
:1001D0005C4B4CF2205210B51A804DF628121A8052
:1001E00000BF00BF09F0D8F8574B4FF030621A60DB
:1001F000564A9A60564ADA60564B4FF470021A60BB
:10020000554B564A1A60564B1A78110703D51A787F
:1002100042F008021A70534B5349AA221A70534AEB
:10022000534B8B4204D252F8040F43F8040BF8E707
:10023000504B514900228B4202D243F8042BFAE77B
:100240004E494F4A002352F8230041F8230001335E
:10025000742BF8D14B4B4C4A802103F8011B93427D
:10026000FBD14A4B454A1A60494B8A221A70A3F5C2
:10027000805324225A70A0221A709A799207FCD5D2
:100280009A79D406FCD4434A937903F00C03082BE3
:10029000FAD1414B60221A7002331A78802AFCD1BD
:1002A0003C4B01221A715D225A719A799006FCD555
:1002B0009979384A4906FBD5384B394919600021EC
:1002C000596020231370937903F00C030C2BFAD19F
:1002D000344B354A1A60354A354C136813F4807331
:1002E00003D123604FF4A8531360324B324A1A6093
:1002F00000225A60072243F8042C304AC3F80C2D20
:1003000062B609F08BFB2368DA0705D52C4809F0A3
:1003100075F92C4B2C4A1A602C4B1B785B0609D5BF
:10032000284C294B22689A4204D1254809F066F9E5
:10033000002323600CF098FC09F034F808F062FF09
:10034000FEE700BF0E20054030800440823F0400DD
:100350000100002B88ED00E0002008E0030000858C
:1003600002D0074000E007407815FF1F481A01003F
:100370003007FF1F7815FF1FA820FF1F0002FF1F77
:100380000000000000E400E064E400E008ED00E0AC
:10039000005006400040064001E007404480044011
:1003A0000000060204800440C010070010D0034083
:1003B00014D0034014E000E01FBF02000000202022
:1003C0000F277C621CE00340A5C3945A00F007404D
:1003D000FFFFFFFFFFFFFFFFFFFFFFFFFFFFFFFF2D
:1003E000FFFFFFFFFFFFFFFFFFFFFFFFFFFFFFFF1D
:1003F000FFFFFFFFFFFFFFFFFFFFFFFFFFFFFFFF0D
:10040000FFFFFFFFFFFFFFFFFFFFFFFFDEF9FFFF23
:1004100010B5054C237833B9044B13B10448AFF33E
:1004200000800123237010BD7815FF1F000000001D
:10043000441A0100084B10B51BB108490848AFF336
:1004400000800848036803B910BD074B002BFBD0A0
:10045000BDE81040184700BF000000007C15FF1FDA
:10046000441A01007815FF1F0000000043680B705C
:1004700043681B0A4B70C3888B70C379CB70836849
:100480000B7183681B0A4B7143898B71C37ACB71E3
:10049000082070470B7843604A7843EA02234360A0
:1004A0008A7843EA02434360CA7843EA02634360BE
:1004B0000B7983604A7943EA022383608A7943EAAD
:1004C00002438360CA7943EA02638360082070476D
:1004D00000487047780F010000487047880F0100FE
:1004E000F0B50C460A788280064614F8010F002306
:1004F00042EA0022B2801A4614F8010F98400833ED
:10050000202B42EA0002F7D1971D062F58D901F19E
:10051000050E551D73464C1913F8010F03F8010C15
:10052000A342F9D100234B5518460D44C6F808E004
:1005300015F8014F84400830202843EA0403F7D11E
:10054000381D0344834209D909320A440446013460
:1005500012F8015F02F8015CA342F8D80138CF1805
:100560000024084407F8014C2246F06017F8015BAC
:1005700095400832202A44EA0504F7D1181D0444A6
:10058000A04209D203330B440246013213F8015F43
:1005900003F8015CA242F8D30D1901380844002386
:1005A00005F8013C3061A8786B780A5DED780104AC
:1005B00041EA0323134343EA0563201D7361F0BD41
:1005C000551D01F1050EADE700487047AC0F010065
:1005D00000487047C80F01000B78F0B40371002386
:1005E00006460C461D4614F8012F9A400833202B6E
:1005F00045EA0205F7D1681D052801F1040708D96D
:100600002C1D3B460C4413F8012F03F8012C9C428F
:10061000F9D10D4400232B71B760F0BC704700BFC7
:1006200000487047EC0F01000048704700100100BF
:1006300000487047941201000048704724100100E0
:1006400043680B701A0C10B41C0A1B0E4C708A7095
:10065000CB7083680B711C0A1A0C1B0E4C718A71CB
:10066000CB71C3680B72180A1A0C1B0E48728A727F
:100670000C20CB725DF8044B704700BF0A684260E3
:100680004A68826003468A68DA600C20704700BFBF
:100690000048704748100100004870476010010092
:1006A0008268C3680B71F0B4140A4C70170C160EF4
:1006B0001D0A1C0C1B0E8F70CE704D718C710A7050
:1006C000CB71026943690B73140A4C72170C160E36
:1006D0001D0A1C0C1B0E8F72CE724D738C730A7226
:1006E000CB738269C3690B751C0A180C170A160CA8
:1006F000150E1B0E88750A744F748E74CD744C756C
:10070000CB751820F0BC70470A684B6810B4C0E97C
:1007100002238A68CB68C0E904230A694B6904464E
:10072000C4E9062318205DF8044B70470048704761
:1007300084100100004870479C1001000048704779
:10074000C010010000487047D410010043680B70CE
:100750001A0C10B41C0A1B0E4C708A70CB70836884
:100760000B711C0A1A0C1B0E4C718A71CB71C36879
:100770000B72180A1A0C1B0E48728A720C20CB726C
:100780005DF8044B704700BF0A6842604A688260A7
:1007900003468A68DA600C20704700BF0048704743
:1007A000F810010000487047081101000048704728
:1007B0002C110100004870473C11010030B504467F
:1007C00083B0D0E904010CF0F9F90B4B0B4D186024
:1007D000D4E906010CF0F2F92860D4E910010CF01C
:1007E000EDF9074B07491B680193019A064B086016
:1007F0001A6003B030BD00BFC81DFF1FCC1DFF1F16
:100800002C1FFF1FA41CFF1F6016FF1F90F8F80489
:10081000704700BF006A704700487047F810010039
:100820000048704708110100C06D704700487047CC
:10083000C010010000487047D41001000AF0A0B8B1
:1008400043682DE9F0470B7043681B0A4B70C3885F
:100850008B70C379CB704368002B00F085800A460B
:1008600000250426C36853F8253013711C0C1F0A99
:100870001B0E94715771D37143680135AB423446F6
:1008800002F1040206F10406ECD804F1080204F1B6
:10089000050A04F1060904F1070804F1090C04F142
:1008A0000A0E04F10B0517460C3403698B550369D6
:1008B0001B0A01F80A30438A01F80930C37C01F8A9
:1008C00008300369F3B101EB070E75460022836916
:1008D00053F822300EF822301C0C1E0A1B0EAC708E
:1008E0006E70EB700369013293423C4605F10405DA
:1008F00007F10407EBD804F1050C04F1060EE51D21
:100900003A460834C3698B54C3691B0A01F80C309A
:10091000C38B01F80E30C37F4B55C3690BB30F4631
:1009200080460026D8F8243053F826000CF008FF43
:10093000B10005463A19002325FA03F00833202BAD
:1009400002F8010BF8D1D8F824300434381959587A
:100950002A4608F05FFCD8F81C300136B3422C441C
:10096000E0D82046BDE8F087082217460C240B2566
:100970004FF00A0E4FF0090C4FF007084FF0060930
:100980004FF0050A042690E770B503790B70064610
:1009900080680D460CF0D4FE2A460446002324FA53
:1009A00003F10833202B02F8011FF8D1B168681D4C
:1009B000224608F02FFC601D70BD00BFF8B583888B
:1009C0000B7083881B0A4B70064680680D460CF03E
:1009D000B7FE030E010A020C6B71A8702A71E97050
:1009E00002460446B168A81D08F014FCF0680CF03B
:1009F000A7FE611D024629440634002322FA03F0B3
:100A00000833202B01F8010FF8D104342819F168BC
:100A1000144408F0FFFB30690CF092FE2A190746D7
:100A2000002327FA03F10833202B02F8011BF8D129
:100A3000043428193A46316908F0ECFB3819736917
:100A40002B540544190A1A0C1B0E6970AA70EB701E
:100A50000430F8BD0846114609F0F8BF2DE9F04F03
:100A600043680C689C4283B005460E4600F2B38092
:100A70006C60002C00F0B88005F1080C33460027AC
:100A80004FF0040E9C795A79197993F80780E86839
:100A9000240444EA02220A4342EA0862AA60DCF81B
:100AA000002040F827206A680137BA42714603F1F6
:100AB00004030EF1040EE5D801F1080847464B1D6A
:100AC000881DCA1D01F1090A01F10A0B01F10B0988
:100AD00001F10C04305CF35C16F80E1016F802E01D
:100AE0002A69000440EA03230B4343EA0E6393425E
:100AF00000F290802B613BB305F1140CF3194FF019
:100B0000000E9C785A78197893F80380A869240419
:100B100044EA02220A4342EA08626A61DCF80020E1
:100B200040F82E202A690EF1010E72453C4603F171
:100B3000040307F10407E4D804F1050A04F1060BE5
:100B400004F10709B846083416F80B2016F80A0015
:100B500016F8083016F80970E969120442EA002212
:100B6000134343EA07678F424ED8EF617FB30027F4
:100B7000BC4605F1200E00231946301910F8012B50
:100B80009A400833202B41EA0201F7D104F104080E
:100B90004144884509D2E31C33444246013213F8EC
:100BA000010F03F8010C8A42F8D3721808F1FF38DC
:100BB00002F801CC06EB08032B626A6ADEF800300B
:100BC00042F82730EB690137BB420C46D3D82046A8
:100BD00003B0BDE8F08FA100C0680CF07FFB6C6033
:100BE000E860002C7FF448AF4FF0080847460C241B
:100BF0004FF00B094FF00A0B4FF0090A07220620AD
:100C000005234FF0040E65E7B900686A0CF066FB37
:100C10006862AAE79900A86901930CF05FFB019B49
:100C2000A86167E710B590ED021AD0ED030A90EDC8
:100C3000010A04460F4808F0DDFA94ED021AD4EDDB
:100C4000030A94ED010A0C4808F0D4FA94ED021A54
:100C5000D4ED030A94ED010A084808F0CBFA94EDAC
:100C6000021AD4ED030A94ED010A0548BDE81040CC
:100C700008F0C0BA201DFF1F701DFF1F8816FF1F40
:100C80000017FF1F034608681861486858618968A3
:100C9000DA69996103F10C00104700BF02694369EA
:100CA0000B71F0B4140A4C70170C160E1D0A1C0CB4
:100CB0001B0E8F70CE704D718C710A70CB71826972
:100CC000C3690B73140A4C72170C160E1D0A1C0C08
:100CD0001B0E8F72CE724D738C730A72CB73026AC5
:100CE000436A0B75140A170C160E1D0A4C741C0C63
:100CF0001B0E8F74CE744D758C750A74CB75036B97
:100D0000426B0B761C0A4C761F0C160A150C140E3F
:100D10001B0E8F764E778D77CC770A77CB76826BEA
:100D2000C36B81F82430140A81F82140170C160E89
:100D30001D0A1C0C1B0E81F8227081F8236081F8BB
:100D4000255081F8264081F8202081F82730026C58
:100D5000436C81F82C301C0A180C170A160C150E5F
:100D60001B0E81F82E0081F8282081F8297081F867
:100D70002A6081F82B5081F82D4081F82F303020E7
:100D8000F0BC7047026943690B71F0B4140A4C70EF
:100D9000170C160E1D0A1C0C1B0E8F70CE704D7199
:100DA0008C710A70CB718269C3690B73140A4C721F
:100DB000170C160E1D0A1C0C1B0E8F72CE724D7373
:100DC0008C730A72CB73026A436A0B75140A170C90
:100DD000160E1D0A4C741C0C1B0E8F74CE744D75B0
:100DE0008C750A74CB75036B426B0B761C0A4C76C0
:100DF0001F0C160A150C140E1B0E8F764E778D776E
:100E0000CC770A77CB76826BC36B81F82430140AD7
:100E100081F82140170C160E1D0A1C0C1B0E81F8C0
:100E2000227081F8236081F8255081F8264081F8EE
:100E3000202081F82730026C436C81F82C30140A92
:100E400081F82940170C160E1D0A1C0C1B0E81F888
:100E50002A7081F82B6081F82D5081F82E4081F89E
:100E6000282081F82F30036D426D81F830301C0A44
:100E700081F831401F0C160A150C140E1B0E81F858
:100E8000327081F8356081F8365081F8374081F84A
:100E9000333081F83420826DC36D81F83C30140A00
:100EA000170C160E1D0A81F839401C0C1B0E81F818
:100EB0003A7081F83B6081F83D5081F83E4081F8FE
:100EC000382081F83F30026E436E81F844301C0AAE
:100ED000180C170A160C150E1B0E81F8417081F8BC
:100EE000426081F8435081F8454081F8460081F81E
:100EF0004020482081F84730F0BC7047F0B585B0FD
:100F0000354A01920368354D039503228DF8082078
:100F10001B6833498B424FD100233821044680F8A7
:100F2000232205F1300E80F8241280F8253280F853
:100F3000263280F8273200F50A772E460FCE764506
:100F400038607960BA60FB60354607F11007F4D16C
:100F500003CD00227960C2234FF0FF0EFE263D250F
:100F60000721386084F8203284F81CE284F81D627E
:100F700084F81E5284F81F2284F8222284F8211259
:100F800004F2212304F25F2001E013F8011F8342E1
:100F90000A44FAD1D243656884F860222B68114A6A
:100FA0005B68934204F507700DD1452109F04EFDB1
:100FB0004FF0FF3005B0F0BD01AA072198474FF070
:100FC000FF3005B0F0BD01464522284698474FF056
:100FD000FF3005B0F0BD00BF940E010060110100AC
:100FE00091310000550A00000A684B6830B414467D
:100FF0001D46C0E908458C68CD68826DC0E90A4588
:101000000C694D69C0E90C458C69CD69C0E9104592
:101010000C6A4D6AC0E912458C6ACD6A0346C3E981
:101020001445103030BC10474B680A6830B41D4678
:101030001446C0E904458C68CD68C0E906450C69D2
:101040004D69C0E908458C69CD69C0E90C450C6A59
:101050004D6AC0E90E458C6ACD6A0346C3E9104566
:10106000302030BC704700BF4B680A6830B41D4662
:101070001446C0E904458C68CD68C0E906450C6992
:101080004D69C0E908458C69CD69C0E90C450C6A19
:101090004D6AC0E90E458C6ACD6AC0E910450C6BFB
:1010A0004D6BC0E914458C6BCD6BC0E916450C6CDB
:1010B0004D6C0346C3E91845482030BC704700BF5B
:1010C000214B10B4D3F8D4201368506819780478F1
:1010D000507A137A044201EA03011BD0937A03F099
:1010E000030309B143F0040343F008039910013BE3
:1010F00091720D2B0BD8DFE803F021071B070A15AF
:101100002121150A071B0721D368013BD3605DF835
:10111000044B7047937A03F003030029E6D043F0B1
:101120000403E3E7D3685DF8044B023BD3607047E8
:10113000D3685DF8044B0233D3607047D3685DF821
:10114000044B0133D3607047F81DFF1F214B10B4CF
:10115000D3F8D8201368506819780478507A137A35
:10116000044201EA03011BD0937A03F0030309B19F
:1011700043F0040343F008039910013B91720D2BD7
:101180000BD8DFE803F021071B070A152121150AF8
:10119000071B0721D368013BD3605DF8044B704700
:1011A000937A03F003030029E6D043F00403E3E756
:1011B000D3685DF8044B023BD3607047D3685DF899
:1011C000044B0233D3607047D3685DF8044B01339E
:1011D000D3607047F81DFF1F214B10B4D3F8DC20FB
:1011E0001368506819780478507A137A044201EA37
:1011F00003011BD0937A03F0030309B143F0040306
:1012000043F008039910013B91720D2B0BD8DFE8D6
:1012100003F021071B070A152121150A071B0721C7
:10122000D368013BD3605DF8044B7047937A03F0B9
:1012300003030029E6D043F00403E3E7D3685DF835
:10124000044B023BD3607047D3685DF8044B023314
:10125000D3607047D3685DF8044B0133D3607047A7
:10126000F81DFF1F214B10B4D3F8E020136850681D
:1012700019780478507A137A044201EA03011BD0EA
:10128000937A03F0030309B143F0040343F0080326
:101290009910013B91720D2B0BD8DFE803F0210769
:1012A0001B070A152121150A071B0721D368013BDB
:1012B000D3605DF8044B7047937A03F00303002971
:1012C000E6D043F00403E3E7D3685DF8044B023B48
:1012D000D3607047D3685DF8044B0233D360704726
:1012E000D3685DF8044B0133D3607047F81DFF1FCE
:1012F000214B10B4D3F8E4201368506819780478AF
:10130000507A137A044201EA03011BD0937A03F066
:10131000030309B143F0040343F008039910013BB0
:1013200091720D2B0BD8DFE803F021071B070A157C
:101330002121150A071B0721D368013BD3605DF803
:10134000044B7047937A03F003030029E6D043F07F
:101350000403E3E7D3685DF8044B023BD3607047B6
:10136000D3685DF8044B0233D3607047D3685DF8EF
:10137000044B0133D3607047F81DFF1F214B10B49D
:10138000D3F8E8201368506819780478507A137AF3
:10139000044201EA03011BD0937A03F0030309B16D
:1013A00043F0040343F008039910013B91720D2BA5
:1013B0000BD8DFE803F021071B070A152121150AC6
:1013C000071B0721D368013BD3605DF8044B7047CE
:1013D000937A03F003030029E6D043F00403E3E724
:1013E000D3685DF8044B023BD3607047D3685DF867
:1013F000044B0233D3607047D3685DF8044B01336C
:10140000D3607047F81DFF1F214B10B4D3F8EC20B8
:101410001368506819780478507A137A044201EA04
:1014200003011BD0937A03F0030309B143F00403D3
:1014300043F008039910013B91720D2B0BD8DFE8A4
:1014400003F021071B070A152121150A071B072195
:10145000D368013BD3605DF8044B7047937A03F087
:1014600003030029E6D043F00403E3E7D3685DF803
:10147000044B023BD3607047D3685DF8044B0233E2
:10148000D3607047D3685DF8044B0133D360704775
:10149000F81DFF1F214B10B41A68136850681978A3
:1014A0000478507A137A044201EA03011BD0937A3C
:1014B00003F0030309B143F0040343F00803991058
:1014C000013B91720D2B0BD8DFE803F021071B07BE
:1014D0000A152121150A071B0721D368013BD36098
:1014E0005DF8044B7047937A03F003030029E6D0BC
:1014F00043F00403E3E7D3685DF8044B023BD36099
:101500007047D3685DF8044B0233D3607047D368EB
:101510005DF8044B0133D360704700BFF81DFF1F17
:10152000214B10B45A681368506819780478507ABF
:10153000137A044201EA03011BD0937A03F00303F8
:1015400009B143F0040343F008039910013B917281
:101550000D2B0BD8DFE803F021071B070A1521210B
:10156000150A071B0721D368013BD3605DF8044BC4
:101570007047937A03F003030029E6D043F0040395
:10158000E3E7D3685DF8044B023BD3607047D36850
:101590005DF8044B0233D3607047D3685DF8044BA9
:1015A0000133D360704700BFF81DFF1F214B10B4FB
:1015B0009A681368506819780478507A137A04424C
:1015C00001EA03011BD0937A03F0030309B143F04E
:1015D000040343F008039910013B91720D2B0BD8C3
:1015E000DFE803F021071B070A152121150A071B55
:1015F0000721D368013BD3605DF8044B7047937AB1
:1016000003F003030029E6D043F00403E3E7D368C3
:101610005DF8044B023BD3607047D3685DF8044B20
:101620000233D3607047D3685DF8044B0133D36055
:10163000704700BFF81DFF1F214B10B4DA68136814
:10164000506819780478507A137A044201EA030149
:101650001BD0937A03F0030309B143F0040343F072
:1016600008039910013B91720D2B0BD8DFE803F0B2
:1016700021071B070A152121150A071B0721D3681B
:10168000013BD3605DF8044B7047937A03F003038A
:101690000029E6D043F00403E3E7D3685DF8044B88
:1016A000023BD3607047D3685DF8044B0233D360CC
:1016B0007047D3685DF8044B0133D360704700BFB7
:1016C000F81DFF1F214B10B41A6913685068197870
:1016D0000478507A137A044201EA03011BD0937A0A
:1016E00003F0030309B143F0040343F00803991026
:1016F000013B91720D2B0BD8DFE803F021071B078C
:101700000A152121150A071B0721D368013BD36065
:101710005DF8044B7047937A03F003030029E6D089
:1017200043F00403E3E7D3685DF8044B023BD36066
:101730007047D3685DF8044B0233D3607047D368B9
:101740005DF8044B0133D360704700BFF81DFF1FE5
:10175000214B10B45A691368506819780478507A8C
:10176000137A044201EA03011BD0937A03F00303C6
:1017700009B143F0040343F008039910013B91724F
:101780000D2B0BD8DFE803F021071B070A152121D9
:10179000150A071B0721D368013BD3605DF8044B92
:1017A0007047937A03F003030029E6D043F0040363
:1017B000E3E7D3685DF8044B023BD3607047D3681E
:1017C0005DF8044B0233D3607047D3685DF8044B77
:1017D0000133D360704700BFF81DFF1F214B10B4C9
:1017E0009A691368506819780478507A137A044219
:1017F00001EA03011BD0937A03F0030309B143F01C
:10180000040343F008039910013B91720D2B0BD890
:10181000DFE803F021071B070A152121150A071B22
:101820000721D368013BD3605DF8044B7047937A7E
:1018300003F003030029E6D043F00403E3E7D36891
:101840005DF8044B023BD3607047D3685DF8044BEE
:101850000233D3607047D3685DF8044B0133D36023
:10186000704700BFF81DFF1F214B10B4DA691368E1
:10187000506819780478507A137A044201EA030117
:101880001BD0937A03F0030309B143F0040343F040
:1018900008039910013B91720D2B0BD8DFE803F080
:1018A00021071B070A152121150A071B0721D368E9
:1018B000013BD3605DF8044B7047937A03F0030358
:1018C0000029E6D043F00403E3E7D3685DF8044B56
:1018D000023BD3607047D3685DF8044B0233D3609A
:1018E0007047D3685DF8044B0133D360704700BF85
:1018F000F81DFF1F214B10B41A6A1368506819783D
:101900000478507A137A044201EA03011BD0937AD7
:1019100003F0030309B143F0040343F008039910F3
:10192000013B91720D2B0BD8DFE803F021071B0759
:101930000A152121150A071B0721D368013BD36033
:101940005DF8044B7047937A03F003030029E6D057
:1019500043F00403E3E7D3685DF8044B023BD36034
:101960007047D3685DF8044B0233D3607047D36887
:101970005DF8044B0133D360704700BFF81DFF1FB3
:10198000214B10B45A6A1368506819780478507A59
:10199000137A044201EA03011BD0937A03F0030394
:1019A00009B143F0040343F008039910013B91721D
:1019B0000D2B0BD8DFE803F021071B070A152121A7
:1019C000150A071B0721D368013BD3605DF8044B60
:1019D0007047937A03F003030029E6D043F0040331
:1019E000E3E7D3685DF8044B023BD3607047D368EC
:1019F0005DF8044B0233D3607047D3685DF8044B45
:101A00000133D360704700BFF81DFF1F214B10B496
:101A10009A6A1368506819780478507A137A0442E5
:101A200001EA03011BD0937A03F0030309B143F0E9
:101A3000040343F008039910013B91720D2B0BD85E
:101A4000DFE803F021071B070A152121150A071BF0
:101A50000721D368013BD3605DF8044B7047937A4C
:101A600003F003030029E6D043F00403E3E7D3685F
:101A70005DF8044B023BD3607047D3685DF8044BBC
:101A80000233D3607047D3685DF8044B0133D360F1
:101A9000704700BFF81DFF1F214B10B4DA6A1368AE
:101AA000506819780478507A137A044201EA0301E5
:101AB0001BD0937A03F0030309B143F0040343F00E
:101AC00008039910013B91720D2B0BD8DFE803F04E
:101AD00021071B070A152121150A071B0721D368B7
:101AE000013BD3605DF8044B7047937A03F0030326
:101AF0000029E6D043F00403E3E7D3685DF8044B24
:101B0000023BD3607047D3685DF8044B0233D36067
:101B10007047D3685DF8044B0133D360704700BF52
:101B2000F81DFF1F214B10B41A6B13685068197809
:101B30000478507A137A044201EA03011BD0937AA5
:101B400003F0030309B143F0040343F008039910C1
:101B5000013B91720D2B0BD8DFE803F021071B0727
:101B60000A152121150A071B0721D368013BD36001
:101B70005DF8044B7047937A03F003030029E6D025
:101B800043F00403E3E7D3685DF8044B023BD36002
:101B90007047D3685DF8044B0233D3607047D36855
:101BA0005DF8044B0133D360704700BFF81DFF1F81
:101BB000214B10B45A6B1368506819780478507A26
:101BC000137A044201EA03011BD0937A03F0030362
:101BD00009B143F0040343F008039910013B9172EB
:101BE0000D2B0BD8DFE803F021071B070A15212175
:101BF000150A071B0721D368013BD3605DF8044B2E
:101C00007047937A03F003030029E6D043F00403FE
:101C1000E3E7D3685DF8044B023BD3607047D368B9
:101C20005DF8044B0233D3607047D3685DF8044B12
:101C30000133D360704700BFF81DFF1F214B10B464
:101C40009A6B1368506819780478507A137A0442B2
:101C500001EA03011BD0937A03F0030309B143F0B7
:101C6000040343F008039910013B91720D2B0BD82C
:101C7000DFE803F021071B070A152121150A071BBE
:101C80000721D368013BD3605DF8044B7047937A1A
:101C900003F003030029E6D043F00403E3E7D3682D
:101CA0005DF8044B023BD3607047D3685DF8044B8A
:101CB0000233D3607047D3685DF8044B0133D360BF
:101CC000704700BFF81DFF1F214B10B4DA6B13687B
:101CD000506819780478507A137A044201EA0301B3
:101CE0001BD0937A03F0030309B143F0040343F0DC
:101CF00008039910013B91720D2B0BD8DFE803F01C
:101D000021071B070A152121150A071B0721D36884
:101D1000013BD3605DF8044B7047937A03F00303F3
:101D20000029E6D043F00403E3E7D3685DF8044BF1
:101D3000023BD3607047D3685DF8044B0233D36035
:101D40007047D3685DF8044B0133D360704700BF20
:101D5000F81DFF1F214B10B41A6C136850681978D6
:101D60000478507A137A044201EA03011BD0937A73
:101D700003F0030309B143F0040343F0080399108F
:101D8000013B91720D2B0BD8DFE803F021071B07F5
:101D90000A152121150A071B0721D368013BD360CF
:101DA0005DF8044B7047937A03F003030029E6D0F3
:101DB00043F00403E3E7D3685DF8044B023BD360D0
:101DC0007047D3685DF8044B0233D3607047D36823
:101DD0005DF8044B0133D360704700BFF81DFF1F4F
:101DE000214B10B45A6C1368506819780478507AF3
:101DF000137A044201EA03011BD0937A03F0030330
:101E000009B143F0040343F008039910013B9172B8
:101E10000D2B0BD8DFE803F021071B070A15212142
:101E2000150A071B0721D368013BD3605DF8044BFB
:101E30007047937A03F003030029E6D043F00403CC
:101E4000E3E7D3685DF8044B023BD3607047D36887
:101E50005DF8044B0233D3607047D3685DF8044BE0
:101E60000133D360704700BFF81DFF1F214B10B432
:101E70009A6C1368506819780478507A137A04427F
:101E800001EA03011BD0937A03F0030309B143F085
:101E9000040343F008039910013B91720D2B0BD8FA
:101EA000DFE803F021071B070A152121150A071B8C
:101EB0000721D368013BD3605DF8044B7047937AE8
:101EC00003F003030029E6D043F00403E3E7D368FB
:101ED0005DF8044B023BD3607047D3685DF8044B58
:101EE0000233D3607047D3685DF8044B0133D3608D
:101EF000704700BFF81DFF1F214B10B4DA6C136848
:101F0000506819780478507A137A044201EA030180
:101F10001BD0937A03F0030309B143F0040343F0A9
:101F200008039910013B91720D2B0BD8DFE803F0E9
:101F300021071B070A152121150A071B0721D36852
:101F4000013BD3605DF8044B7047937A03F00303C1
:101F50000029E6D043F00403E3E7D3685DF8044BBF
:101F6000023BD3607047D3685DF8044B0233D36003
:101F70007047D3685DF8044B0133D360704700BFEE
:101F8000F81DFF1F214B10B41A6D136850681978A3
:101F90000478507A137A044201EA03011BD0937A41
:101FA00003F0030309B143F0040343F0080399105D
:101FB000013B91720D2B0BD8DFE803F021071B07C3
:101FC0000A152121150A071B0721D368013BD3609D
:101FD0005DF8044B7047937A03F003030029E6D0C1
:101FE00043F00403E3E7D3685DF8044B023BD3609E
:101FF0007047D3685DF8044B0233D3607047D368F1
:102000005DF8044B0133D360704700BFF81DFF1F1C
:10201000214B10B45A6D1368506819780478507ABF
:10202000137A044201EA03011BD0937A03F00303FD
:1020300009B143F0040343F008039910013B917286
:102040000D2B0BD8DFE803F021071B070A15212110
:10205000150A071B0721D368013BD3605DF8044BC9
:102060007047937A03F003030029E6D043F004039A
:10207000E3E7D3685DF8044B023BD3607047D36855
:102080005DF8044B0233D3607047D3685DF8044BAE
:102090000133D360704700BFF81DFF1F214B10B400
:1020A0009A6D1368506819780478507A137A04424C
:1020B00001EA03011BD0937A03F0030309B143F053
:1020C000040343F008039910013B91720D2B0BD8C8
:1020D000DFE803F021071B070A152121150A071B5A
:1020E0000721D368013BD3605DF8044B7047937AB6
:1020F00003F003030029E6D043F00403E3E7D368C9
:102100005DF8044B023BD3607047D3685DF8044B25
:102110000233D3607047D3685DF8044B0133D3605A
:10212000704700BFF81DFF1F214B10B4DA6D136814
:10213000506819780478507A137A044201EA03014E
:102140001BD0937A03F0030309B143F0040343F077
:1021500008039910013B91720D2B0BD8DFE803F0B7
:1021600021071B070A152121150A071B0721D36820
:10217000013BD3605DF8044B7047937A03F003038F
:102180000029E6D043F00403E3E7D3685DF8044B8D
:10219000023BD3607047D3685DF8044B0233D360D1
:1021A0007047D3685DF8044B0133D360704700BFBC
:1021B000F81DFF1F214B10B41A6E13685068197870
:1021C0000478507A137A044201EA03011BD0937A0F
:1021D00003F0030309B143F0040343F0080399102B
:1021E000013B91720D2B0BD8DFE803F021071B0791
:1021F0000A152121150A071B0721D368013BD3606B
:102200005DF8044B7047937A03F003030029E6D08E
:1022100043F00403E3E7D3685DF8044B023BD3606B
:102220007047D3685DF8044B0233D3607047D368BE
:102230005DF8044B0133D360704700BFF81DFF1FEA
:10224000214B10B45A6E1368506819780478507A8C
:10225000137A044201EA03011BD0937A03F00303CB
:1022600009B143F0040343F008039910013B917254
:102270000D2B0BD8DFE803F021071B070A152121DE
:10228000150A071B0721D368013BD3605DF8044B97
:102290007047937A03F003030029E6D043F0040368
:1022A000E3E7D3685DF8044B023BD3607047D36823
:1022B0005DF8044B0233D3607047D3685DF8044B7C
:1022C0000133D360704700BFF81DFF1F214B10B4CE
:1022D0009A6E1368506819780478507A137A044219
:1022E00001EA03011BD0937A03F0030309B143F021
:1022F000040343F008039910013B91720D2B0BD896
:10230000DFE803F021071B070A152121150A071B27
:102310000721D368013BD3605DF8044B7047937A83
:1023200003F003030029E6D043F00403E3E7D36896
:102330005DF8044B023BD3607047D3685DF8044BF3
:102340000233D3607047D3685DF8044B0133D36028
:10235000704700BFF81DFF1F214B10B4DA6E1368E1
:10236000506819780478507A137A044201EA03011C
:102370001BD0937A03F0030309B143F0040343F045
:1023800008039910013B91720D2B0BD8DFE803F085
:1023900021071B070A152121150A071B0721D368EE
:1023A000013BD3605DF8044B7047937A03F003035D
:1023B0000029E6D043F00403E3E7D3685DF8044B5B
:1023C000023BD3607047D3685DF8044B0233D3609F
:1023D0007047D3685DF8044B0133D360704700BF8A
:1023E000F81DFF1F214B10B41A6F1368506819783D
:1023F0000478507A137A044201EA03011BD0937ADD
:1024000003F0030309B143F0040343F008039910F8
:10241000013B91720D2B0BD8DFE803F021071B075E
:102420000A152121150A071B0721D368013BD36038
:102430005DF8044B7047937A03F003030029E6D05C
:1024400043F00403E3E7D3685DF8044B023BD36039
:102450007047D3685DF8044B0233D3607047D3688C
:102460005DF8044B0133D360704700BFF81DFF1FB8
:10247000214B10B45A6F1368506819780478507A59
:10248000137A044201EA03011BD0937A03F0030399
:1024900009B143F0040343F008039910013B917222
:1024A0000D2B0BD8DFE803F021071B070A152121AC
:1024B000150A071B0721D368013BD3605DF8044B65
:1024C0007047937A03F003030029E6D043F0040336
:1024D000E3E7D3685DF8044B023BD3607047D368F1
:1024E0005DF8044B0233D3607047D3685DF8044B4A
:1024F0000133D360704700BFF81DFF1F214B10B49C
:102500009A6F1368506819780478507A137A0442E5
:1025100001EA03011BD0937A03F0030309B143F0EE
:10252000040343F008039910013B91720D2B0BD863
:10253000DFE803F021071B070A152121150A071BF5
:102540000721D368013BD3605DF8044B7047937A51
:1025500003F003030029E6D043F00403E3E7D36864
:102560005DF8044B023BD3607047D3685DF8044BC1
:102570000233D3607047D3685DF8044B0133D360F6
:10258000704700BFF81DFF1F214B10B4DA6F1368AE
:10259000506819780478507A137A044201EA0301EA
:1025A0001BD0937A03F0030309B143F0040343F013
:1025B00008039910013B91720D2B0BD8DFE803F053
:1025C00021071B070A152121150A071B0721D368BC
:1025D000013BD3605DF8044B7047937A03F003032B
:1025E0000029E6D043F00403E3E7D3685DF8044B29
:1025F000023BD3607047D3685DF8044B0233D3606D
:102600007047D3685DF8044B0133D360704700BF57
:10261000F81DFF1F214B10B4D3F8802013685068B9
:1026200019780478507A137A044201EA03011BD026
:10263000937A03F0030309B143F0040343F0080362
:102640009910013B91720D2B0BD8DFE803F02107A5
:102650001B070A152121150A071B0721D368013B17
:10266000D3605DF8044B7047937A03F003030029AD
:10267000E6D043F00403E3E7D3685DF8044B023B84
:10268000D3607047D3685DF8044B0233D360704762
:10269000D3685DF8044B0133D3607047F81DFF1F0A
:1026A000214B10B4D3F8842013685068197804784B
:1026B000507A137A044201EA03011BD0937A03F0A3
:1026C000030309B143F0040343F008039910013BED
:1026D00091720D2B0BD8DFE803F021071B070A15B9
:1026E0002121150A071B0721D368013BD3605DF840
:1026F000044B7047937A03F003030029E6D043F0BC
:102700000403E3E7D3685DF8044B023BD3607047F2
:10271000D3685DF8044B0233D3607047D3685DF82B
:10272000044B0133D3607047F81DFF1F214B10B4D9
:10273000D3F888201368506819780478507A137A8F
:10274000044201EA03011BD0937A03F0030309B1A9
:1027500043F0040343F008039910013B91720D2BE1
:102760000BD8DFE803F021071B070A152121150A02
:10277000071B0721D368013BD3605DF8044B70470A
:10278000937A03F003030029E6D043F00403E3E760
:10279000D3685DF8044B023BD3607047D3685DF8A3
:1027A000044B0233D3607047D3685DF8044B0133A8
:1027B000D3607047F81DFF1F214B10B4D3F88C2055
:1027C0001368506819780478507A137A044201EA41
:1027D00003011BD0937A03F0030309B143F0040310
:1027E00043F008039910013B91720D2B0BD8DFE8E1
:1027F00003F021071B070A152121150A071B0721D2
:10280000D368013BD3605DF8044B7047937A03F0C3
:1028100003030029E6D043F00403E3E7D3685DF83F
:10282000044B023BD3607047D3685DF8044B02331E
:10283000D3607047D3685DF8044B0133D3607047B1
:10284000F81DFF1F214B10B4D3F890201368506877
:1028500019780478507A137A044201EA03011BD0F4
:10286000937A03F0030309B143F0040343F0080330
:102870009910013B91720D2B0BD8DFE803F0210773
:102880001B070A152121150A071B0721D368013BE5
:10289000D3605DF8044B7047937A03F0030300297B
:1028A000E6D043F00403E3E7D3685DF8044B023B52
:1028B000D3607047D3685DF8044B0233D360704730
:1028C000D3685DF8044B0133D3607047F81DFF1FD8
:1028D000214B10B4D3F89420136850681978047809
:1028E000507A137A044201EA03011BD0937A03F071
:1028F000030309B143F0040343F008039910013BBB
:1029000091720D2B0BD8DFE803F021071B070A1586
:102910002121150A071B0721D368013BD3605DF80D
:10292000044B7047937A03F003030029E6D043F089
:102930000403E3E7D3685DF8044B023BD3607047C0
:10294000D3685DF8044B0233D3607047D3685DF8F9
:10295000044B0133D3607047F81DFF1F214B10B4A7
:10296000D3F898201368506819780478507A137A4D
:10297000044201EA03011BD0937A03F0030309B177
:1029800043F0040343F008039910013B91720D2BAF
:102990000BD8DFE803F021071B070A152121150AD0
:1029A000071B0721D368013BD3605DF8044B7047D8
:1029B000937A03F003030029E6D043F00403E3E72E
:1029C000D3685DF8044B023BD3607047D3685DF871
:1029D000044B0233D3607047D3685DF8044B013376
:1029E000D3607047F81DFF1F214B10B4D3F89C2013
:1029F0001368506819780478507A137A044201EA0F
:102A000003011BD0937A03F0030309B143F00403DD
:102A100043F008039910013B91720D2B0BD8DFE8AE
:102A200003F021071B070A152121150A071B07219F
:102A3000D368013BD3605DF8044B7047937A03F091
:102A400003030029E6D043F00403E3E7D3685DF80D
:102A5000044B023BD3607047D3685DF8044B0233EC
:102A6000D3607047D3685DF8044B0133D36070477F
:102A7000F81DFF1F214B10B4D3F8A0201368506835
:102A800019780478507A137A044201EA03011BD0C2
:102A9000937A03F0030309B143F0040343F00803FE
:102AA0009910013B91720D2B0BD8DFE803F0210741
:102AB0001B070A152121150A071B0721D368013BB3
:102AC000D3605DF8044B7047937A03F00303002949
:102AD000E6D043F00403E3E7D3685DF8044B023B20
:102AE000D3607047D3685DF8044B0233D3607047FE
:102AF000D3685DF8044B0133D3607047F81DFF1FA6
:102B0000214B10B4D3F8A4201368506819780478C6
:102B1000507A137A044201EA03011BD0937A03F03E
:102B2000030309B143F0040343F008039910013B88
:102B300091720D2B0BD8DFE803F021071B070A1554
:102B40002121150A071B0721D368013BD3605DF8DB
:102B5000044B7047937A03F003030029E6D043F057
:102B60000403E3E7D3685DF8044B023BD36070478E
:102B7000D3685DF8044B0233D3607047D3685DF8C7
:102B8000044B0133D3607047F81DFF1F214B10B475
:102B9000D3F8A8201368506819780478507A137A0B
:102BA000044201EA03011BD0937A03F0030309B145
:102BB00043F0040343F008039910013B91720D2B7D
:102BC0000BD8DFE803F021071B070A152121150A9E
:102BD000071B0721D368013BD3605DF8044B7047A6
:102BE000937A03F003030029E6D043F00403E3E7FC
:102BF000D3685DF8044B023BD3607047D3685DF83F
:102C0000044B0233D3607047D3685DF8044B013343
:102C1000D3607047F81DFF1F214B10B4D3F8AC20D0
:102C20001368506819780478507A137A044201EADC
:102C300003011BD0937A03F0030309B143F00403AB
:102C400043F008039910013B91720D2B0BD8DFE87C
:102C500003F021071B070A152121150A071B07216D
:102C6000D368013BD3605DF8044B7047937A03F05F
:102C700003030029E6D043F00403E3E7D3685DF8DB
:102C8000044B023BD3607047D3685DF8044B0233BA
:102C9000D3607047D3685DF8044B0133D36070474D
:102CA000F81DFF1F214B10B4D3F8B02013685068F3
:102CB00019780478507A137A044201EA03011BD090
:102CC000937A03F0030309B143F0040343F00803CC
:102CD0009910013B91720D2B0BD8DFE803F021070F
:102CE0001B070A152121150A071B0721D368013B81
:102CF000D3605DF8044B7047937A03F00303002917
:102D0000E6D043F00403E3E7D3685DF8044B023BED
:102D1000D3607047D3685DF8044B0233D3607047CB
:102D2000D3685DF8044B0133D3607047F81DFF1F73
:102D3000214B10B4D3F8B420136850681978047884
:102D4000507A137A044201EA03011BD0937A03F00C
:102D5000030309B143F0040343F008039910013B56
:102D600091720D2B0BD8DFE803F021071B070A1522
:102D70002121150A071B0721D368013BD3605DF8A9
:102D8000044B7047937A03F003030029E6D043F025
:102D90000403E3E7D3685DF8044B023BD36070475C
:102DA000D3685DF8044B0233D3607047D3685DF895
:102DB000044B0133D3607047F81DFF1F214B10B443
:102DC000D3F8B8201368506819780478507A137AC9
:102DD000044201EA03011BD0937A03F0030309B113
:102DE00043F0040343F008039910013B91720D2B4B
:102DF0000BD8DFE803F021071B070A152121150A6C
:102E0000071B0721D368013BD3605DF8044B704773
:102E1000937A03F003030029E6D043F00403E3E7C9
:102E2000D3685DF8044B023BD3607047D3685DF80C
:102E3000044B0233D3607047D3685DF8044B013311
:102E4000D3607047F81DFF1F214B10B4D3F8BC208E
:102E50001368506819780478507A137A044201EAAA
:102E600003011BD0937A03F0030309B143F0040379
:102E700043F008039910013B91720D2B0BD8DFE84A
:102E800003F021071B070A152121150A071B07213B
:102E9000D368013BD3605DF8044B7047937A03F02D
:102EA00003030029E6D043F00403E3E7D3685DF8A9
:102EB000044B023BD3607047D3685DF8044B023388
:102EC000D3607047D3685DF8044B0133D36070471B
:102ED000F81DFF1F214B10B4D3F8C02013685068B1
:102EE00019780478507A137A044201EA03011BD05E
:102EF000937A03F0030309B143F0040343F008039A
:102F00009910013B91720D2B0BD8DFE803F02107DC
:102F10001B070A152121150A071B0721D368013B4E
:102F2000D3605DF8044B7047937A03F003030029E4
:102F3000E6D043F00403E3E7D3685DF8044B023BBB
:102F4000D3607047D3685DF8044B0233D360704799
:102F5000D3685DF8044B0133D3607047F81DFF1F41
:102F6000214B10B4D3F8C420136850681978047842
:102F7000507A137A044201EA03011BD0937A03F0DA
:102F8000030309B143F0040343F008039910013B24
:102F900091720D2B0BD8DFE803F021071B070A15F0
:102FA0002121150A071B0721D368013BD3605DF877
:102FB000044B7047937A03F003030029E6D043F0F3
:102FC0000403E3E7D3685DF8044B023BD36070472A
:102FD000D3685DF8044B0233D3607047D3685DF863
:102FE000044B0133D3607047F81DFF1F214B10B411
:102FF000D3F8C8201368506819780478507A137A87
:10300000044201EA03011BD0937A03F0030309B1E0
:1030100043F0040343F008039910013B91720D2B18
:103020000BD8DFE803F021071B070A152121150A39
:10303000071B0721D368013BD3605DF8044B704741
:10304000937A03F003030029E6D043F00403E3E797
:10305000D3685DF8044B023BD3607047D3685DF8DA
:10306000044B0233D3607047D3685DF8044B0133DF
:10307000D3607047F81DFF1F214B10B4D3F8CC204C
:103080001368506819780478507A137A044201EA78
:1030900003011BD0937A03F0030309B143F0040347
:1030A00043F008039910013B91720D2B0BD8DFE818
:1030B00003F021071B070A152121150A071B072109
:1030C000D368013BD3605DF8044B7047937A03F0FB
:1030D00003030029E6D043F00403E3E7D3685DF877
:1030E000044B023BD3607047D3685DF8044B023356
:1030F000D3607047D3685DF8044B0133D3607047E9
:10310000F81DFF1F214B10B4D3F8D020136850686E
:1031100019780478507A137A044201EA03011BD02B
:10312000937A03F0030309B143F0040343F0080367
:103130009910013B91720D2B0BD8DFE803F02107AA
:103140001B070A152121150A071B0721D368013B1C
:10315000D3605DF8044B7047937A03F003030029B2
:10316000E6D043F00403E3E7D3685DF8044B023B89
:10317000D3607047D3685DF8044B0233D360704767
:10318000D3685DF8044B0133D3607047F81DFF1F0F
:10319000F0B5632985B003DD90F8F844002C46D0E3
:1031A000136805460F4610461B6805F22321984711
:1031B000C2B2C0F30721561885F81E2247F3072232
:1031C000F643FF234FF0FE0EFCB285F82222421C8C
:1031D00085F8206285F81F1285F81C3285F81DE2FB
:1031E00085F821420DDB00F22221294405F221233A
:1031F000002201E013F8014F8B422244FAD1D3435D
:10320000DBB22A1800F10804B4F5007F82F82332FB
:1032100017DC6A683C4E13685B68B34205F50770BB
:1032200008D1214607F012FC204605B0F0BD20462B
:1032300005B0F0BD0146104622469847204605B02D
:10324000F0BD324A0192324C2B68039403228DF870
:1032500008201B682F498B424ED10023382185F866
:10326000232204F1300E85F8241285F8253285F8E2
:10327000263285F8273205F50A7627460FCF77459F
:1032800030607160B260F3603C4606F11006F4D124
:1032900003CC00227160C2234FF0FF0EFE273D24B5
:1032A0000721306085F8203285F81CE285F81D7210
:1032B00085F81E4285F81F2285F8222285F8211202
:1032C00005F2212305F25F2001E013F8011F984267
:1032D0000A44FAD1D243686885F8602203680A4A32
:1032E0005B68934205F507710BD10846452107F04D
:1032F000ADFB4FF0FF3098E7284601AA0721984719
:10330000F7E745229847F4E7550A0000940E0100BC
:10331000601101009131000008B50E4804F0ACFEC8
:103320000D4805F0C7F90C4805F0E8F908B9002088
:1033300008BD0A4805F0BEF9084805F0DFF9002885
:10334000F5D0074805F0B6F90548BDE8084005F096
:10335000D5B900BF7808FF1F541DFF1F101DFF1FA8
:10336000B816FF1FFFFFFFFF10B5002282B0002339
:10337000234901600446C0E90223C0E90423C0E9EF
:1033800006230DF102010DF1060301AA1D4805F007
:10339000D1F9BDF9020009F0E9F800221A4B09F051
:1033A0004BF915A3D3E9002309F046F9C4E902015A
:1033B000BDF9040009F0DAF80022134B09F03CF9DA
:1033C0000DA3D3E9002309F037F9C4E90401BDF9DD
:1033D000060009F0CBF800220B4B09F02DF906A3EB
:1033E000D3E9002309F028F9C4E90601204602B018
:1033F00010BD00BFAFF3008000000060B89E234006
:10340000DC0E0100541DFF1F0000103FFFFFFFFFF7
:1034100010B5002282B00023254901600446C0E9AE
:103420000223C0E90423C0E906230DF102010DF1D6
:10343000060301AA1F4805F0D7F9BDF9020009F0FB
:1034400095F817A3D3E9002309F020FA16A3D3E9CE
:10345000002309F0F1F8C4E90201BDF9040009F004
:1034600085F80FA3D3E9002309F010FA0EA3D3E9DE
:10347000002309F0E1F8C4E90401BDF9060009F0F0
:1034800075F807A3D3E9002309F000FA06A3D3E9EE
:10349000002309F0D1F8C4E90601204602B010BDAE
:1034A0000000000000606040000000A046DF913F87
:1034B000DC0E0100101DFF1F10B5002282B000239A
:1034C000254901600446C0E90223C0E90423C0E99C
:1034D00006230DF102010DF1060301AA1F4805F0B4
:1034E0004BF9BDF9020009F041F817A3D3E9002315
:1034F00009F0A2F816A3D3E9002309F09DF8C4E966
:103500000201BDF9040009F031F80FA3D3E900234B
:1035100009F092F80EA3D3E9002309F08DF8C4E96D
:103520000401BDF9060009F021F807A3D3E900233F
:1035300009F082F806A3D3E9002309F07DF8C4E975
:103540000601204602B010BD000000403333E33FC7
:10355000000000A0F7C6B03EDC0E0100B816FF1F49
:10356000F8B5044615460E46084602211F4606F0E9
:10357000FDF92846022106F0F9F99B499B4A51F8CA
:1035800036002760012300F50077E760237551F8C6
:103590003510637501F500770023A3612761134699
:1035A000013BFDD190F8003291F8002203F00103B5
:1035B000D20744BF43F00203DBB2A37504F10C074A
:1035C0003B2E00F20486DFE816F0F505EB05E10579
:1035D000D705CD05C305B905AF05A5059B05910523
:1035E00087057D05730569055F0555054B05410593
:1035F00037052D05230519050F050505FB04F10405
:10360000E704DD04D304C904BF04B404A9049E0480
:10361000930488047D0429041F0415040B04010489
:10362000F703ED03E303D903CF03C503BB03B103E2
:10363000A7039D03930389037F0375036B03610352
:103640003C006B4B6B49C3F8EC7004223B2005F047
:1036500059FF012323773B2D00F2B685DFE815F0F3
:103660000C030203F802EE02E402DA02D002C60200
:10367000BC02B202A8029E0294028A0280023202B6
:1036800028021E0214020A020002F601EC01E20105
:10369000D801CE01C401BA01B001A6019C0192017A
:1036A00087017C01710166015B01500145013A010E
:1036B0002F01240119010E010301F800ED00E200C1
:1036C000B800AD00A20097008C00810076006B006E
:1036D000600055004A003C00454B4649C3F8EC7079
:1036E00004223B2005F00EFF237F012213442377A1
:1036F0002046F8BD3E4B4049C3F8E87004223A200A
:1037000005F000FF237F0122F0E7394B3B49C3F866
:10371000E4700422392005F0F5FE237F0122E5E75D
:10372000334B3749C3F8E0700422382005F0EAFE35
:10373000237F0122DAE72E4B3249C3F8DC700422E2
:10374000372005F0DFFE237F0122CFE7284B2E49EB
:10375000C3F8D8700422362005F0D4FE237F01225E
:10376000C4E7234B2949C3F8D4700422352005F05F
:10377000C9FE237F0122B9E71D4B2549C3F8D0704C
:103780000422342005F0BEFE237F0122AEE7184B51
:103790002049C3F8CC700422332005F0B3FE237F08
:1037A0000122A3E7124B1C49C3F8C870042232203F
:1037B00005F0A8FE237F012298E70D4B1749C3F8B7
:1037C000C4700422312005F09DFE237F01228DE785
:1037D000074B1349C3F8C0700422302005F092FE55
:1037E000237F012282E700BF44130100C0D40100FF
:1037F000F81DFF1F091400007D130000F1120000E6
:1038000065120000D91100004D110000C110000028
:103810000531000079300000ED2F0000612F00001D
:10382000D52E0000AC4BAD49C3F8BC7004222F204C
:1038300005F068FE237F012258E7A74BA849C3F88B
:10384000B87004222E2005F05DFE237F01224DE793
:10385000A14BA449C3F8B47004222D2005F052FEF8
:10386000237F012242E79C4B9F49C3F8B07004229A
:103870002C2005F047FE237F012237E7964B9B491A
:10388000C3F8AC7004222B2005F03CFE237F0122FC
:103890002CE7914B9649C3F8A87004222A2005F022
:1038A00031FE237F012221E78B4B9249C3F8A4709C
:1038B0000422292005F026FE237F012216E7864BED
:1038C0008D49C3F8A0700422282005F01BFE237F39
:1038D00001220BE7804B8949C3F89C700422272002
:1038E00005F010FE237F012200E77B4B8449C3F8DB
:1038F00098700422262005F005FE237F0122F5E6BC
:10390000754B8049C3F894700422252005F0FAFD18
:10391000237F0122EAE6704B7B49C3F890700422B2
:10392000242005F0EFFD237F0122DFE66A4B774973
:10393000C3F88C700422232005F0E4FD237F0122CC
:10394000D4E6654B7249C3F888700422222005F042
:10395000D9FD237F0122C9E65F4B6E49C3F884700D
:103960000422212005F0CEFD237F0122BEE65A4B22
:103970006949C3F880700422202005F0C3FD237F2D
:103980000122B3E6544B6549DF6704221F2005F08E
:10399000B9FD237F0122A9E64F4B61499F670422AD
:1039A0001E2005F0AFFD237F01229FE64A4B5D49B3
:1039B0005F6704221D2005F0A5FD237F012295E607
:1039C000454B59491F6704221C2005F09BFD237FAE
:1039D00001228BE6404B5549DF6604221B2005F08F
:1039E00091FD237F012281E63B4B51499F660422D2
:1039F0001A2005F087FD237F012277E6364B4D49DB
:103A00005F660422192005F07DFD237F01226DE60B
:103A1000314B49491F660422182005F073FD237FAE
:103A2000012263E62C4B4549DF650422172005F08F
:103A300069FD237F012259E6274B41499F650422F6
:103A4000162005F05FFD237F01224FE6224B3D4902
:103A50005F650422152005F055FD237F012245E610
:103A60001D4B39491F650422142005F04BFD237FAF
:103A700001223BE6184B3549DF640422132005F090
:103A800041FD237F012231E6134B31499F6404221B
:103A9000122005F037FD237F012227E60E4B2D492A
:103AA0005F640422112005F02DFD237F01221DE615
:103AB000094B29491F640422102005F023FD237FB0
:103AC000012213E6044B2549DF6304220F2005F091
:103AD00019FD237F012209E6F81DFF1F492E000072
:103AE000BD2D0000312D0000A52C0000192C000078
:103AF0008D2B0000012B0000752A0000E929000031
:103B00005D290000D128000045280000B9270000E9
:103B10002D270000A12600001526000089250000A1
:103B2000FD24000071240000E5230000592300005B
:103B3000CD22000041220000B52100002921000013
:103B40009D20000011200000851F0000F91E0000CC
:103B50006D1E0000E11D0000551D0000C91C000085
:103B6000B34BB4499F6304220E2005F0CBFC237FA6
:103B70000122BBE5AE4BB0495F6304220D2005F086
:103B8000C1FC237F0122B1E5A94BAC491F6304228C
:103B90000C2005F0B7FC237F0122A7E5A44BA84920
:103BA000DF6204220B2005F0ADFC237F01229DE59E
:103BB0009F4BA4499F6204220A2005F0A3FC237FA7
:103BC000012293E59A4BA0495F620422092005F087
:103BD00099FC237F012289E5954B9C491F620422B1
:103BE000082005F08FFC237F01227FE5904B984948
:103BF000DF610422072005F085FC237F012275E5A3
:103C00008B4B94499F610422062005F07BFC237FA7
:103C100001226BE5864B90495F610422052005F087
:103C200071FC237F012261E5814B8C491F610422D5
:103C3000104605F067FC237F012257E57C4B88493D
:103C4000DF600422032005F05DFC237F01224DE5A7
:103C5000774B84499F600422022005F053FC237FA8
:103C6000012243E5724B80495F600422012005F088
:103C700049FC237F012239E56D4B7C491F600422FA
:103C8000002005F03FFC237F01222FE5684B784997
:103C9000C3F8E87004223A2005F034FC0123D9E48B
:103CA000634B7449C3F8E4700422392005F02AFC00
:103CB0000123CFE45E4B7049C3F8E0700422382042
:103CC00005F020FC0123C5E4594B6C49C3F8DC70B6
:103CD0000422372005F016FC0123BBE4544B68494D
:103CE000C3F8D8700422362005F00CFC0123B1E49F
:103CF0004F4B6449C3F8D4700422352005F002FC10
:103D00000123A7E44A4B6049C3F8D0700422342051
:103D100005F0F8FB01239DE4454B5C49C3F8CC70EA
:103D20000422332005F0EEFB012393E4404B584975
:103D3000C3F8C8700422322005F0E4FB012389E4B3
:103D40003B4B5449C3F8C4700422312005F0DAFB20
:103D500001237FE4364B5049C3F8C0700422302061
:103D600005F0D0FB012375E4314B4C49C3F8BC701E
:103D700004222F2005F0C6FB01236BE42C4B48499D
:103D8000C3F8B87004222E2005F0BCFB012361E4C7
:103D9000274B4449C3F8B47004222D2005F0B2FB30
:103DA000012357E4224B4049C3F8B07004222C2071
:103DB00005F0A8FB01234DE41D4B3C49C3F8AC7052
:103DC00004222B2005F09EFB012343E4184B3849C5
:103DD000C3F8A87004222A2005F094FB012339E4DB
:103DE000134B3449C3F8A4700422292005F08AFB40
:103DF00001232FE40E4B3049C3F8A0700422282081
:103E000005F080FB012325E4094B2C49C3F89C7085
:103E10000422272005F076FB01231BE4044B2849EC
:103E2000C3F898700422262005F06CFB012311E4EE
:103E3000F81DFF1F3D1C0000B11B0000251B0000EA
:103E4000991A00000D1A000081190000F5180000F1
:103E500069180000DD17000051170000C5160000AA
:103E600039160000AD150000211500009514000062
:103E70007D130000F112000065120000D91100004E
:103E80004D110000C1100000053100007930000024
:103E9000ED2F0000612F0000D52E0000492E0000FC
:103EA000BD2D0000312D0000A52C0000192C0000B4
:103EB0008D2B0000012B0000752A0000E92900006D
:103EC0005D290000C34BC449C3F894700422252027
:103ED00005F018FB0123FFF7BDBBBE4BBF49C3F87C
:103EE00090700422242005F00DFB0123FFF7B2BBE4
:103EF000B84BBB49C3F88C700422232005F002FBA9
:103F00000123FFF7A7BBB34BB649C3F8887004225F
:103F1000222005F0F7FA0123FFF79CBBAD4BB24915
:103F2000C3F884700422212005F0ECFA0123FFF786
:103F300091BBA84BAD49C3F880700422202005F046
:103F4000E1FA0123FFF786BBA24BA949DF670422F0
:103F50001F2005F0D7FA0123FFF77CBB9D4BA54935
:103F60009F6704221E2005F0CDFA0123FFF772BBE4
:103F7000984BA1495F6704221D2005F0C3FA012375
:103F8000FFF768BB934B9D491F6704221C2005F077
:103F9000B9FA0123FFF75EBB8E4B9949DF66042215
:103FA0001B2005F0AFFA0123FFF754BB894B95495D
:103FB0009F6604221A2005F0A5FA0123FFF74ABBE9
:103FC000844B91495F660422192005F09BFA012376
:103FD000FFF740BB7F4B8D491F660422182005F078
:103FE00091FA0123FFF736BB7A4B8949DF6504223A
:103FF000172005F087FA0123FFF72CBB754B854985
:104000009F650422162005F07DFA0123FFF722BBED
:10401000704B81495F650422152005F073FA012376
:10402000FFF718BB6B4B7D491F650422142005F078
:1040300069FA0123FFF70EBB664B7949DF6404225E
:10404000132005F05FFA0123FFF704BB614B7549AC
:104050009F640422122005F055FA0123FFF7FABAF3
:104060005C4B71495F640422112005F04BFA012377
:10407000FFF7F0BA574B6D491F640422102005F07A
:1040800041FA0123FFF7E6BA524B6949DF63042284
:104090000F2005F037FA0123FFF7DCBA4D4B6549D5
:1040A0009F6304220E2005F02DFA0123FFF7D2BAF8
:1040B000484B61495F6304220D2005F023FA012378
:1040C000FFF7C8BA434B5D491F6304220C2005F07B
:1040D00019FA0123FFF7BEBA3E4B5949DF620422A9
:1040E0000B2005F00FFA0123FFF7B4BA394B5549FD
:1040F0009F6204220A2005F005FA0123FFF7AABAFD
:10410000344B51495F620422092005F0FBF9012379
:10411000FFF7A0BA2F4B4D491F620422082005F07B
:10412000F1F90123FFF796BA2A4B4949DF610422CE
:10413000072005F0E7F90123FFF78CBA254B454925
:104140009F610422062005F0DDF90123FFF782BA02
:10415000204B41495F610422052005F0D3F901237A
:10416000FFF778BA1B4B3D491F610422104605F04A
:10417000C9F90123FFF76EBA164B3949DF600422F3
:10418000032005F0BFF90123FFF764BA114B35494D
:104190009F600422022005F0B5F90123FFF75ABA07
:1041A0000C4B31495F600422012005F0ABF901237B
:1041B000FFF750BA074B2D491F600422002005F07D
:1041C000A1F90123FFF746BA0022FFF78FBA0023B7
:1041D000FFF740BAF81DFF1FD12800004528000056
:1041E000B92700002D270000A12600001526000099
:1041F00089250000FD24000071240000E523000053
:1042000059230000CD22000041220000B52100000A
:10421000292100009D20000011200000851F0000C2
:10422000F91E00006D1E0000E11D0000551D00007C
:10423000C91C00003D1C0000B11B0000251B000034
:10424000991A00000D1A000081190000F5180000ED
:1042500069180000DD17000051170000C5160000A6
:1042600039160000AD15000021150000951400005E
:104270002DE9F04F0721A1B0B248B34C04F0C4FDC2
:104280005A21B04804F0C6FD00234FF46142A260F9
:10429000C4F8E43404F27C42C4F8E834C4F8F034DE
:1042A000C4F8EC3402E00133192B0AD052F8041F91
:1042B0000029F8D103F59071A44A44F82120643311
:1042C0005360A34A002302E00133192B0AD052F8AD
:1042D000041F0029F8D103F590719E4A44F821206B
:1042E000643353609C4A002302E00133192B0BD046
:1042F00052F8041F0029F8D1984A04EB83017D335A
:10430000C1F81C249360D460934A002302E0013377
:10431000192B0BD052F8041F0029F8D1904A04EB56
:1043200083017D33C1F81C249360D46094F8F8A411
:10433000854D8C4EDFF84C82D346BBF1000F40F028
:10434000D58033680B93DDF82C90D4F8003542F615
:10435000F822C3EB09039342D4F8E43488BF85F80C
:10436000F8B433B1D5F80435994584BF0023C5F8B6
:10437000E434A2693AB133680F930F9BC9EB03038E
:104380009A42C0F02782606803685B69434554D154
:1043900006F0F6FA002853DBD4F8F434D4F8E42419
:1043A0000344072AC4F8F43400F076817AB9FF2870
:1043B00000F0858133680E930E9B41F28831C9EB82
:1043C00003038B42D5D9604B83F8F824B9E7012A5F
:1043D00000F07D81022A00F0C281032A00F0CA8128
:1043E000042A00F0D181052A00F0DD81062A00F0C0
:1043F000E281082ABDD15C4A1A4000239A42C4F8DF
:10440000E434C0F2F481FF2AB3D1D4F8EC34002BA9
:1044100000F0AC830A2B00F00582062B00F05882D6
:104420000B2B00F0ED81BC3355F823000028A0D001
:1044300003684E491B6898479BE798470028ABDA0A
:1044400094F8F8B4BBF1000F3FF47BAFD5F8FC341F
:1044500040F6C412C3EB090393427FF66EAFFF210F
:10446000FE27434B85F81C120821002285F81D7297
:1044700085F81E12F7270A2103F1090085F8232287
:1044800085F8242285F8252285F8262285F827221A
:1044900085F8282285F8292285F82A2285F81F2206
:1044A00085F8222285F8207285F8211201E013F8A0
:1044B000011F83420A44FAD1D243606884F82B2258
:1044C00003682C4A5B68934240F0968110212A4889
:1044D00006F0BCFA33680A9394F8F8B40A9BC4F85F
:1044E000FC94E360BBF1000F3FF42BAF234F244E4D
:1044F0000FCF0FC635463B6825F817390121122723
:10450000701884F82312FE2100224FF0FF0E84F869
:104510002472E826172784F81D1207212B4684F8F9
:10452000252284F8262284F8272284F81F2284F882
:10453000222284F81CE284F81E7284F8206284F837
:10454000211223E05816FF1F7017FF1F3416FF1F9C
:10455000EC1BFF1F9815FF1F881BFF1FB41DFF1FBB
:10456000D01DFF1F2C1FFF1FFF0000808C17FF1F97
:104570009119FF1F550A00008C19FF1F9C110100A3
:104580009819FF1F3D08000013F8011F83420A44D9
:10459000FAD1D243606884F83A220368C24A5B6861
:1045A000934240F031811F21C04806F04FFAB8A174
:1045B000D1E90001B8A3D3E90023CDE90201CDE997
:1045C0000023BB49BB4EB6A3D3E9002313A809F0CF
:1045D0008FF8012313A884F8233209F0B1F80746B5
:1045E000000A4FEA174E3B0E13A93A4684F82502FB
:1045F00006F50A7084F826E284F8273284F82472DB
:1046000004F008FE07F1050E5FFA8EF1CEF30720E5
:104610000A18D243FF2384F81E124FF0FE0C84F8D0
:10462000202207210022BEF1FF3F84F81F0284F8F8
:104630001C3284F81DC284F8211284F82222C0F2B0
:104640006D8407F22720304406F2212301E013F89D
:10465000011F98420A44FAD1D243D2B204EB0E03AE
:104660000EF10801B1F5007F83F82322DFF844E260
:1046700000F32582DEF804008B4A03685B689342EE
:1046800040F0C6800EF5077006F0E0F9012005F055
:1046900073F921B0BDE8F08FD5F8F024D5F8E834EF
:1046A000A918013B01320877C5F8F024C5F8E834B1
:1046B000002B7FF45EAE0823C4F8E43459E60122EF
:1046C00009F11403C5F8E424C5F8043551E6FE28C1
:1046D00065D095F8F8240023C5F8E434002A7FF467
:1046E00048AEFF21FE27744B85F81C12082185F87F
:1046F0001D7285F81E12F7270A2185F8232285F8F6
:10470000242285F8252285F8262285F8272285F897
:10471000282285F8292285F82A2285F81F2285F883
:10472000222203F1090085F8207285F8211201E0A8
:1047300013F8011F83420A44FAD1D243606884F817
:104740002B220368584A5B6893424CD1102157488A
:1047500006F07CF933680D930D9BE36009E60022B7
:104760000323C5F8E804C5F8F404C5F8F024C5F837
:10477000E434FEE5D5F8E834042203EB0020C5F864
:10478000E804C5F8E424F4E54C4A1A40002A25DB85
:10479000FF2A0CBF05230023C4F8E434E9E5022313
:1047A000C5F8E434E5E50623C5F8EC04C5F8F404DF
:1047B000C5F8E434DDE5D5F8EC34D5F8E82403EBAE
:1047C00000230721C5F8EC34C5F8E414002A3FF4AF
:1047D00072AFCEE5374B93F8F8B4AEE5013A62F02C
:1047E000FF020132D4E7102230499847B2E7013A7C
:1047F00062F0FF02013206E610222C49984769E672
:10480000002385F8F834B4E51F2228499847CEE6FE
:104810000A460EF507719847012005F0ADF821B062
:10482000BDE8F08F33681093109BEA682448316824
:1048300012919B1A296ADFF890E0DFF890A0DDF86A
:1048400048C0EA69A0FB0307BF094FF47A708E44A1
:1048500000FB17330AFB03E30593194B1949A3FB2C
:104860000C3E4FEA9E1E059B013A00FB1EC03A44D7
:104870000AFB1033CEEB0202081F6B612A6103F0C2
:1048800001FF33681193119BC5F8003571E500BF36
:10489000000000403333D33F000000A09999C93F86
:1048A000000000403333E33F550A00008C19FF1F1E
:1048B000B01101007017FF1F9119FF1FFF0000804A
:1048C000D34D62108417FF1F00CA9A3B40420F006D
:1048D000EF69D5F810359F4206D9B900D5F818050B
:1048E00008F0FCFCC5F81805C4F81075002F00F09E
:1048F0002B81B44A042302F2145E002792F822109E
:1049000092F821C092F82000090441EA0C2192F8A3
:1049100023C0014341EA0C61C4F81415D4F81815FA
:10492000DEF8000041F82700D4F810050137B8423E
:10493000194602F1040203F10403DFD8079301F1E1
:104940000B0301F1090201F1080A069301F10C03BE
:1049500005925746481D01F1060E01F1070C01F1C1
:104960000A020893A644079B211823449EF81C00C2
:1049700091F81CE01B7FD4F81C15A44400049CF89B
:104980001CC040EA0E20034343EA0C638B420AD961
:104990009900D5F824050992079308F09FFC099A1D
:1049A000079BC5F82405C4F81C35002B00F02583AF
:1049B000DFF824E2EA190021937F92F81DC0107FEE
:1049C0001B0443EA0C2392F81FC0034343EA0C6321
:1049D000CEF80030D4F82435DEF8000043F821008A
:1049E000D4F81C3501318B42384602F1040207F13C
:1049F0000407E1D8431D0593C31DBA46821D0693E3
:104A000000F10807059B23442244187F069B117F71
:104A1000D4F82825A24423449E4609049AF81C3061
:104A20009EF81CA041EA00210B4343EA0A6A924522
:104A300007D94FEA8A01D5F8300508F04FFCC5F8D0
:104A40003005C4F828A5BAF1000F34D0DFF88CE1A6
:104A500000210EF5A26C07F11C0A0023A2441A469D
:104A60001AF8010B98400833202B42EA0002F7D1D4
:104A7000381D024490420AD207F11F03234407461F
:104A8000013793F801A003F801AB9742F8D3A318BC
:104A90004FF000070138DF767044D4F83035C4F8A1
:104AA0002C05DCF8000043F82100D4F8283501314A
:104AB0008B421746CFD8012384F8083559E4424F7A
:104AC0000FCF0EF50A760FC60FCF0FC60FCF0FC64A
:104AD00097E803000023032738228EF823728EF80C
:104AE00024224FF0FF0807224FF0FE0C3D278EF8DE
:104AF00025328EF826328EF8273286E80300C2214E
:104B000016448EF81F328EF822328EF81C828EF8F0
:104B10001DC28EF81E728EF820128EF8212201E03E
:104B200015F8012FB5421344FAD1DB43606884F8CD
:104B300060320368254A5B68934240F05982452100
:104B4000234805F083FFA1E50C2308930B2306936C
:104B500009234FF0080A0593042357460A224FF011
:104B6000070C4FF0060E05200793FBE61948A0F24C
:104B70002A2100F8073CFE2781F81C224FF0080C80
:104B80000A4681F8243281F8253281F8263281F8EC
:104B9000273281F8283281F8293281F82A3281F8C7
:104BA0001D7281F81F3281F82232A0F1090EF72719
:104BB00081F81EC20A2182F8207282F82112CB46A7
:104BC00072460FE07017FF1F60110100550A0000C8
:104BD0008C19FF1F9A19FF1F901CFF1F8C17FF1FB6
:104BE00012F8011F82420B44FAD1DB43606884F85B
:104BF0002B320368CF4A5B68934240F0F581102165
:104C0000CD4805F023FF33680C930C9BCB4EE3603B
:104C100056F8043F002B00F0B58058689A68016888
:104C20000592D3F800A08B6898473368814658688E
:104C30000368DB6898473368059A1F69632F8046CD
:104C400004DD94F8F834002B00F09C80C2F30723B5
:104C5000504684F8232284F8243208F071FD03467C
:104C6000020A000C4FEA136E514684F8262284F89B
:104C700027021A46B24884F82532059384F828E2C0
:104C800004F0C8FA484608F05BFD059B024603F2B3
:104C9000292020440633002122FA01FE0831202970
:104CA00000F801EBF8D1A74804334946184402EB59
:104CB000030904F0AFFA404608F042FD09F223224E
:104CC0008246224400232AFA03F10833202B02F8FB
:104CD000011BF8D19B4B09F10409414603EB090084
:104CE000524604F097FA0AEB090000F1040E21186D
:104CF0005FFA8EF8CEF3072C0022022308EB0C0A91
:104D000081F8243281F8232281F8252281F8262295
:104D10006FEA0A0AF9B2FF234FF0FE0947F30727AB
:104D2000BEF1FF3F84F820A284F81E8284F81FC2DF
:104D300084F81C3284F81D9284F8211284F82272BF
:104D40000BDB00F22620804B284401E013F8011F02
:104D500083420A44FAD1D343DBB204EB0E010EF1D5
:104D60000802B2F5007F81F8233200F3F38068680F
:104D7000704903685B688B4240F0D88011466E48EA
:104D800005F064FE714B9E427FF442AF1E4656F81A
:104D9000040F002800F0B58090E80C00059392689D
:104DA000D0F808A09047814630680268D2689047E2
:104DB0008046306802685268904763280746059B22
:104DC00004DD94F8F824002A00F09B80C3F3072246
:104DD000504684F8233284F8242208F0B1FC0346BC
:104DE000020A000C4FEA136E514684F8262284F81A
:104DF00027021A46524884F82532059384F828E29F
:104E000004F008FA484608F09BFC059B024603F2B2
:104E1000292020440633002122FA01FE08312029EE
:104E200000F801EBF8D1474804334946184402EB37
:104E3000030904F0EFF9404608F082FC09F223224E
:104E40008246224400232AFA03F10833202B02F879
:104E5000011BF8D13B4B09F10409414603EB090062
:104E6000524604F0D7F90AEB090000F1040E2118AC
:104E70005FFA8EF8CEF3072C0022022308EB0C0A0F
:104E800081F8243281F8232281F8252281F8262214
:104E90006FEA0A0AF9B2FF234FF0FE0947F307272A
:104EA000BEF1FF3F84F820A284F81E8284F81FC25E
:104EB00084F81C3284F81D9284F8211284F822723E
:104EC0000BDB00F22620204B284401E013F8011FE1
:104ED00083420A44FAD1D343DBB204EB0E010EF154
:104EE0000802B2F5007F81F8233200F388806868F9
:104EF000104903685B688B4214D111460E4805F0D7
:104F0000A5FD134B9E427FF442AF0123C4F8FCB4CD
:104F1000C4F800B584F8F834FFF7E8BA1A46FFF78A
:104F20009DBB452204499847EBE745220249984733
:104F300028E700BF550A00008C19FF1F881BFF1FC0
:104F40009919FF1F9319FF1F9119FF1FEC1BFF1FDA
:104F5000501CFF1FDFF848E14E4FBEE80F000FC79F
:104F6000BEE80F000FC7BEE80F000FC79EE80300A2
:104F700000234FF0030C4FF0380EFF2285F823C2B8
:104F800085F824E24FF0FE0C4FF03D0E85F82532F7
:104F900085F8263285F8273287E80300C22085F895
:104FA0001C220722F91D85F81F3285F82232373F6F
:104FB00085F81DC285F81EE285F8200285F82122B9
:104FC00001E017F8012FB9421344FAD1DB436068BE
:104FD00084F860320368304A5B689342A5D145216A
:104FE0002E4805F033FDCDE610222C4998470AE6FD
:104FF00045222A499847FFF749BB089F02E5DFF899
:10500000A0E0244FBEE80F000FC7BEE80F000FC797
:10501000BEE80F000FC79EE8030000234FF0030C0B
:105020004FF0380EFF2285F823C285F824E24FF0B6
:10503000FE0C4FF03D0E85F8253285F8263285F8B6
:10504000273287E80300C22085F81C220722F91DB9
:1050500085F81F3285F82232373F85F81DC285F862
:105060001EE285F8200285F8212201E017F8012FC1
:10507000B9421344FAD1DB43606884F860320368B4
:10508000054A5B6893427FF44CAF4521034805F025
:10509000DDFC36E79819FF1F550A00008C19FF1F29
:1050A000601101002DE9F04F8BB002A8FEF75CF90A
:1050B000DDE90489DDE90667DDE90823BD4C02A8C6
:1050C000C4E90489C4E90667C4E90823FEF7A0F926
:1050D000DDE90823DDE90489DDE90667C4E9102379
:1050E00002A8C4E90C89C4E90E67FEF7E5F9B24BE2
:1050F000B24AD868996803689DED087B1B68DDE9B2
:105100000489DDE9066793428DED007BC4E91489CB
:10511000C4E9166784ED187B40F04081632904DD03
:1051200090F8F834002B00F03681D4F810C0D4F891
:1051300014E080F823C24FEA1C2A80F824A24FEA28
:105140001C4A4FEA1C6CA56980F826C24FEA1E2C47
:1051500080F827E280F828C24FEA1E4C4FEA1E6E04
:10516000E26980F82AE24FEA152E80F82B5280F887
:105170002CE24FEA154E2D0E236A80F82E52150AA6
:1051800080F829C280F83052D4F824C080F82DE28B
:10519000150C4FEA132E80F82F2280F83152120E90
:1051A0001D0C80F833321B0E80F8322280F8355205
:1051B0004FEA1C224FEA1C4580F8363280F837C28D
:1051C0004FEA1C63D4F830C080F825A280F834E29E
:1051D00080F83822D4F834E080F8395280F83A3236
:1051E00080F83BC2D4F840A0A56BE26B636C80F8FA
:1051F00043524FEA1C2480F83C424FEA1C4480F89A
:105200003D424FEA1E2480F840424FEA1E444FEAD6
:105210001C6C80F841422C0A80F83EC280F844425F
:10522000CC462C0C4FEA12292D0E80F83FE280F874
:1052300046524FEA1E6E150C80F848924FEA1A2922
:105240004FEA1A4B80F842E280F84722C646120E17
:10525000B04680F84952009E80F84BA24FEA1A658A
:1052600080F84C924FEA132A4FEA134980F84542DE
:1052700080F84A22019C80F84F324FEA1E221B0E12
:1052800080F84DB280F84E524FEA1C4B4FEA1E4553
:1052900080F850A280F851924FEA1E6A4FEA1C290A
:1052A00080F8523280F853E24FEA18234FEA1C6E1E
:1052B00080F857C280F854224FEA184C80F85552B3
:1052C000320A4FEA186580F856A280F858924FEAE1
:1052D000172A4FEA174980F859B24FEA176B80F83E
:1052E0005AE280F85B824FEA164E4FEA142880F8A3
:1052F0005F7280F85C32370E002380F85DC280F860
:105300005E524FEA144C250E80F860A280F861923C
:105310004FF0FF0A4FF0FE0980F862B280F8674252
:105320004FF0480BB72480F86422CAB241F307213A
:1053300080F86A5280F81F321D4680F8221280F8E9
:10534000636280F865E280F8667280F8688280F8AF
:1053500069C280F81CA280F81D9280F81EB280F805
:10536000204280F8212200F2212300F26A2101E08C
:1053700013F8012F99421544FAD1EB43426880F8A3
:105380006B3213680E4C5B68A34200F507700AD1BC
:10539000502105F05BFB0BB0BDE8F08F224698472B
:1053A0000BB0BDE8F08F01461046502298470BB075
:1053B000BDE8F08FA81CFF1FD01DFF1F913100001A
:1053C000550A000008B5DFED1C7AB4EEE70AF1EEED
:1053D00010FA2DED028B2AD4DFED187AB4EEE70A2D
:1053E000F1EE10FAB0EE408A1DDC30EE277ADFEDE8
:1053F000146ADFED145ADFED147A9FED146A67EE3C
:10540000266A86EEA57A77EE277A67EE867AFDEE33
:10541000E77A17EE901A0E4803F0FCFCB0EE480A4B
:10542000BDEC028B08BDB0EE678A0021F3E7B0EE59
:10543000678AB421EFE700BFE17AD4BEE17AD43EB7
:10544000DB0F49C0E17A543FDB0F4940E02E654253
:105450005816FF1FFFFFFFFF2DE9F04FC64BC74A4D
:10546000C749C84D91ED001A93ED000AD2ED000A2C
:10547000C54995B010A803F091FB2B7F012B40F29A
:105480000F8272B6AF6962B6C04E686833680C931B
:10549000DDF830A0BE4CC0EB0A0007F057F8B4A30B
:1054A000D3E9002307F0F2F9CDE90201A868381A20
:1054B00007F05CF8C5F804A08046AF60286889460C
:1054C00007F054F802460B464046494607F0DEF91D
:1054D000DDE9022307F0DAF907F048FB237F0590A6
:1054E000012B40F2A48172B6A76962B633680B93B0
:1054F000DDF82CA06068A74DC0EB0A0007F026F885
:105500009BA3D3E9002307F0C1F9CDE90201A0680C
:10551000381A07F02BF8C4F804A08046A76020686A
:10552000894607F023F802460B464046494607F0F5
:10553000ADF9DDE9022307F0A9F907F017FB2B7F8E
:105540000290012B40F2E68172B6AF6962B6336811
:105550000A93DDF828A068688F4CC0EB0A0006F0BB
:10556000F5FF83A3D3E9002307F090F9CDE9060105
:10557000A868381A06F0FAFFC5F804A08046AF60A4
:105580002868894606F0F2FF02460B464046494627
:1055900007F07CF9DDE9062307F078F907F0E6FA71
:1055A000237F0690012B40F2ED8172B6A56962B6A9
:1055B000336809936068DDF824B0DFF8CCA1C0EB54
:1055C0000B0006F0C3FF6AA3D3E9002307F05EF9DE
:1055D0000646A068281A0F4606F0C8FFC4F804B0B3
:1055E0008046A5602068894606F0C0FF02460B464B
:1055F0004046494607F04AF93B46324607F046F92D
:1056000007F0B4FADDED107AB8EEE70ADDED057AC1
:105610000446F8EEE70A614803F064FD51EC100B14
:1056200007F0A4FA01465E4803F002FDDDED117AB1
:105630005C48B8EEE70ADDED027AF8EEE70A03F01F
:1056400051FD51EC100B07F091FA0146564803F05A
:10565000EFFCDDED127A5548B8EEE70ADDED067A8B
:10566000F8EEE70A03F03EFD51EC100B07F07EFA6E
:1056700001464F4803F0DCFCDDED137A4D48B8EEEF
:10568000E70A07EE904AF8EEE70A03F02BFD51EC2B
:10569000100B07F06BFA0146474803F0C9FC9AF873
:1056A0000030023B012B40F2B18000945046069B33
:1056B000029A059903F0DAFA8DED0D0ACDED0E0A86
:1056C0008DED0F1A3D493E4FC8683E4D03680D9C55
:1056D0001E680E9A0F9B89686C60BE42AA60EB60E0
:1056E00040F08880632903DD90F8F854002D7ED0C7
:1056F000260A250C4FEA146E170A80F8234280F818
:1057000027221C0C80F8246280F82552160C1D0AF2
:10571000120E80F82B3280F826E21B0E80F82872D9
:105720004FF0FF0E80F82962FE2780F82A220C260F
:1057300080F82C52002280F82D42F325CCB241F3A0
:10574000072180F82E3280F8221280F81CE280F8BF
:105750001D7280F81E6280F81F2280F8205280F8A7
:10576000214200F2212300F22E212FE0AFF300802E
:1057700000000000004CED40C81DFF1FCC1DFF1FA6
:10578000A41CFF1FE016FF1FF815FF1F2C1FFF1F93
:105790005017FF1F1416FF1F3017FF1F201DFF1F7C
:1057A0007416FF1F701DFF1FCC16FF1F8816FF1FEA
:1057B000E41DFF1F0017FF1FA01DFF1FB41DFF1FCB
:1057C000913100006416FF1F13F8014F99422244E3
:1057D000FAD1D243446880F82F222368B84A5B6824
:1057E000934200F507700AD1142105F02FF915B086
:1057F000BDE8F08F2A46B04715B0BDE8F08F0146EE
:1058000014222046984715B0BDE8F08FAD4B93EDBC
:10581000000AFFF7D7FD029A0599504603F0DEF91A
:10582000CDED0E0A8DED0D0A8DED0F1A4AE772B619
:10583000E36821691A780878617D237D084202EACD
:10584000030200F0F080A37D03F003030AB143F0EC
:10585000040343F008039A10013BA2750D2B3FF699
:1058600043AE01A252F823F0B15A0000A95A000039
:10587000A15A0000A95A0000E9540000995A0000FA
:10588000B15A0000B15A0000995A0000E9540000D2
:10589000A95A0000A15A0000A95A0000B15A0000FC
:1058A00072B6EB6829691A780878697D2B7D084201
:1058B00002EA030200F0AE80AB7D03F003030AB1FD
:1058C00043F0040343F008039A10013BAA750D2B23
:1058D0003FF6D8AD01A252F823F000BF915A000064
:1058E000895A0000815A0000895A0000855400003E
:1058F000795A0000915A0000915A0000795A00002C
:1059000085540000895A0000815A0000895A00001D
:10591000915A000072B6EB6829691A780878697D97
:105920002B7D084202EA030264D0AB7D03F003033F
:105930000AB143F0040343F008039A10013BAA752F
:105940000D2B3FF602AE01A252F823F0715A00006F
:10595000695A0000615A0000695A00004B55000066
:10596000595A0000715A0000715A0000595A00003B
:105970004B550000695A0000615A0000695A000046
:10598000715A000072B6E36821691A780878617D5F
:10599000237D084202EA030234D0A37D03F003030F
:1059A000002A40F0898043F008039A10013BA27559
:1059B0000D2B3FF6FBAD01A252F823F0515A000027
:1059C000495A0000415A0000495A0000AD550000F4
:1059D000395A0000515A0000515A0000395A00004B
:1059E000AD550000495A0000415A0000495A0000D4
:1059F000515A0000AB7D03F00303002A9DD043F011
:105A000004039AE7A37D03F00303002ACDD043F0FB
:105A10000403CAE7AB7D03F00303002A3FF454AF4D
:105A200043F0040350E7A37D03F00303002A3FF48F
:105A300012AF43F004030EE7A569023DA561B6E588
:105A4000A5690235A561B2E5A569013DA561AEE58F
:105A5000A5690135A561AAE5AF69023FAF6175E5AA
:105A6000AF690237AF6171E5AF69013FAF616DE5C5
:105A7000AF690137AF6169E5AF69023FAF6102E528
:105A8000AF690237AF61FEE4AF69013FAF61FAE48D
:105A9000AF690137AF61F6E4A769023FA76124E56A
:105AA000A7690237A76120E5A769013FA7611CE547
:105AB000A7690137A76118E543F0040373E700BF46
:105AC000550A0000A41CFF1F2DE9F047CD4B1A7F9B
:105AD000012A8EB040F2388272B69A6962B6CA4D17
