:1000000000800020BD010000C18800007988000048
:1000100079880000798800007988000079880000DC
:10002000798800007988000079880000C188000084
:10003000C188000079880000E1A00000E5A0000070
:10004000C1880000C1880000C1880000C18800008C
:10005000C1880000C1880000C1880000C18800007C
:10006000C1880000C1880000C1880000C18800006C
:10007000C1880000C1880000C1880000C18800005C
:10008000C1880000C1880000C1880000C18800004C
:10009000C1880000C1880000C1880000C18800003C
:1000A000457B0000517B0000C1880000C188000032
:1000B000C1880000C1880000C1880000C18800001C
:1000C000C1880000C1880000C1880000C18800000C
:1000D000C1880000C1880000C1880000C1880000FC
:1000E000C1880000C1880000C1880000C1880000EC
:1000F000C1880000C1880000C1880000C1880000DC
:10010000C1880000C1880000C1880000C1880000CB
:10011000C1880000C1880000C1880000C1880000BB
:10012000C1880000C1880000C1880000C1880000AB
:10013000C1880000C1880000C1880000C18800009B
:10014000C1880000C1880000C1880000C18800008B
:10015000C1880000C1880000C1880000C18800007B
:1001600005840000B1900000C1880000C188000033
:10017000C1880000C1880000C1880000C18800005B
:10018000C1880000C1880000C1880000C18800004B
:10019000C1880000C1880000C1880000C18800003B
:1001A000C1880000C1880000C1880000C18800002B
:1001B000C1880000C1880000C1880000564B4CF285
:1001C000205210B51A804DF628121A8000BF00BFC9
:1001D00008F07AFB514B4FF010621A60504A9A6057
:1001E000504ADA60504A136813F4807304D14F49BF
:1001F0000B604FF4A85313604D4B1A78110703D5C9
:100200001A7842F008021A704A4B4B492A221A7097
:100210004A4A4B4B8B4204D252F8040F43F8040B6A
:10022000F8E7484B484900228B4202D243F8042B9E
:10023000FAE74649464A002352F8230041F82300D2
:1002400001336F2BF8D1434B434A802103F8011B44
:100250009342FBD1414B3D4A1A60414B8A221A70AE
:10026000A3F5805324225A70A0221A709A7992071B
:10027000FCD59A79D406FCD43A4A937903F00C035E
:10028000082B384BF9D105221A7143225A719A79F9
:100290009006FCD5334A9179324B4906FBD5324A58
:1002A0004FF0817111600521516020221A709A79F6
:1002B00002F00C020C2AFAD12C4B2D4A1A602D4B5D
:1002C0002D4A1A6000225A60072243F8042C2B4A58
:1002D000C3F80C2D62B608F0A1FD144B1B68DA07B9
:1002E00005D5274808F02EFC264B274A1A60274BD5
:1002F0001B785B0609D5234C234B22689A4204D114
:100300001F4808F01FFC002323600CF0D9F808F008
:10031000E1FA08F00FFAFEE70E20054030800440B5
:10032000823F04000100002B10D0034014D0034092
:1003300002D0074000E007402894FF1F98110100F9
:100340002087FF1F2894FF1F889EFF1F0082FF1F2A
:100350000000000000E400E05FE400E008ED00E0E1
:1003600000500640004006404480044004800440A1
:10037000C010050014E000E03F190100000020203B
:10038000530A74631CE00340A5C3945A00F007406D
:10039000FFFFFFFFFFFFFFFFFFFFFFFFFFFFFFFF6D
:1003A000FFFFFFFFFFFFFFFFFFFFFFFFFFFFFFFF5D
:1003B000FFFFFFFFFFFFFFFFFFFFFFFFFFFFFFFF4D
:1003C000FFFFFFFFFFFFFFFFFFFFFFFFFFFFFFFF3D
:1003D000FFFFFFFFFFFFFFFFFFFFFFFFFFFFFFFF2D
:1003E000FFFFFFFFFFFFFFFFFFFFFFFFFFFFFFFF1D
:1003F000FFFFFFFFFFFFFFFFFFFFFFFFFFFFFFFF0D
:10040000FFFFFFFFFFFFFFFFFFFFFFFFDEF9FFFF23
:1004100010B5054C237833B9044B13B10448AFF33E
:1004200000800123237010BD2894FF1F00000000EE
:1004300094110100084B10B51BB108490848AFF3EF
:1004400000800848036803B910BD074B002BFBD0A0
:10045000BDE81040184700BF000000002C94FF1FAB
:10046000941101002894FF1F0000000043680B70E6
:1004700043681B0A4B70C3888B70C379CB70836849
:100480000B7183681B0A4B7143898B71C37ACB71E3
:10049000082070470B7843604A7843EA02234360A0
:1004A0008A7843EA02434360CA7843EA02634360BE
:1004B0000B7983604A7943EA022383608A7943EAAD
:1004C00002438360CA7943EA02638360082070476D
:1004D00000487047D007010000487047E00701005E
:1004E000F0B50C460A788280064614F8010F002306
:1004F00042EA0022B2801A4614F8010F98400833ED
:10050000202B42EA0002F7D1971D062F58D901F19E
:10051000050E551D73464C1913F8010F03F8010C15
:10052000A342F9D100234B5518460D44C6F808E004
:1005300015F8014F84400830202843EA0403F7D11E
:10054000381D0344834209D909320A440446013460
:1005500012F8015F02F8015CA342F8D80138CF1805
:100560000024084407F8014C2246F06017F8015BAC
:1005700095400832202A44EA0504F7D1181D0444A6
:10058000A04209D203330B440246013213F8015F43
:1005900003F8015CA242F8D30D1901380844002386
:1005A00005F8013C3061A8786B780A5DED780104AC
:1005B00041EA0323134343EA0563201D7361F0BD41
:1005C000551D01F1050EADE7004870470408010014
:1005D00000487047200801000B78F0B40371002335
:1005E00006460C461D4614F8012F9A400833202B6E
:1005F00045EA0205F7D1681D052801F1040708D96D
:100600002C1D3B460C4413F8012F03F8012C9C428F
:10061000F9D10D4400232B71B760F0BC704700BFC7
:10062000004870474408010000487047580801001E
:1006300000487047E80A0100004870477C08010044
:1006400043680B701A0C10B41C0A1B0E4C708A7095
:10065000CB7083680B711C0A1A0C1B0E4C718A71CB
:10066000CB71C3680B72180A1A0C1B0E48728A727F
:100670000C20CB7210BC70470B6843604B688360E2
:100680008B68C3600C20704700487047A0080100C9
:1006900000487047B808010000487047DC080100B6
:1006A00000487047F408010000487047180901002D
:1006B000004870472C09010043680B701A0C10B4F5
:1006C0001C0A1B0E4C708A70CB7083680B711C0A5D
:1006D0001A0C1B0E4C718A71CB71C3680B72180A0D
:1006E0001A0C1B0E48728A720C20CB7210BC704719
:1006F0000B6843604B6883608B68C3600C20704755
:100700000048704750090100004870476009010027
:1007100000487047840901000048704794090100AF
:10072000F0B50A4B0A4F1B680A4D0B498668C4682E
:10073000026A2E6083B00C600193DDF804E0074B81
:10074000C7F800E01A6003B0F0BD00BF189DFF1F9E
:10075000E494FF1F309CFF1F349CFF1F349BFF1F3E
:1007600090F8F804704700BF006A7047004870476F
:10077000500901000048704760090100406B704754
:100780000048704718090100004870472C09010013
:1007900009F0A4BA43682DE9F0470B7043681B0ABF
:1007A0004B70C3888B70C379CB704368002B00F00B
:1007B00085800A4600250426C36853F82530137146
:1007C0001C0C1F0A1B0E94715771D37143680135BD
:1007D000AB42344602F1040206F10406ECD804F1FF
:1007E000080204F1050A04F1060904F1070804F1FE
:1007F000090C04F10A0E04F10B0517460C340369C9
:100800008B5503691B0A01F80A30438A01F8093045
:10081000C37C01F808300369F3B101EB070E75469C
:100820000022836953F822300EF822301C0C1E0A75
:100830001B0EAC706E70EB700369013293423C4644
:1008400005F1040507F10407EBD804F1050C04F1E8
:10085000060EE51D3A460834C3698B54C3691B0A6A
:1008600001F80C30C38B01F80E30C37F4B55C369C0
:100870000BB30F4680460026D8F8243053F82600E4
:100880000CF09EFBB10005463A19002325FA03F04F
:100890000833202B02F8010BF8D1D8F824300434A7
:1008A000381959582A4607F04DFFD8F81C30013640
:1008B000B3422C44E0D82046BDE8F0870822174612
:1008C0000C240B254FF00A0E4FF0090C4FF00708CF
:1008D0004FF006094FF0050A042690E770B503793A
:1008E0000B70064680680D460CF06AFB2A460446EB
:1008F000002324FA03F10833202B02F8011FF8D15A
:10090000B168681D224607F01DFF601D70BD00BF65
:10091000F8B583880B7083881B0A4B700646806885
:100920000D460CF04DFB030E010A020C6B71A87012
:100930002A71E97002460446B168A81D07F002FF5B
:10094000F0680CF03DFB611D02462944063400238B
:1009500022FA03F00833202B01F8010FF8D10434F8
:100960002819F168144407F0EDFE30690CF028FBFB
:100970002A190746002327FA03F10833202B02F82F
:10098000011BF8D1043428193A46316907F0DAFE20
:10099000381973692B540544190A1A0C1B0E697017
:1009A000AA70EB700430F8BD0846114609F0FCB996
:1009B0002DE9F04F43680C689C4283B005460E4613
:1009C00000F2B3806C60002C00F0B88005F1080CD8
:1009D000334600274FF0040E9C795A79197993F821
:1009E0000780E868240444EA02220A4342EA0862D3
:1009F000AA60DCF8002040F827206A680137BA4274
:100A0000714603F104030EF1040EE5D801F1080864
:100A100047464B1D881DCA1D01F1090A01F10A0B49
:100A200001F10B0901F10C04305CF35C16F80E10B7
:100A300016F802E02A69000440EA03230B4343EA64
:100A40000E63934200F290802B613BB305F1140CCE
:100A5000F3194FF0000E9C785A78197893F80380B8
:100A6000A869240444EA02220A4342EA08626A614D
:100A7000DCF8002040F82E202A690EF1010E7245A4
:100A80003C4603F1040307F10407E4D804F1050A26
:100A900004F1060B04F10709B846083416F80B20D8
:100AA00016F80A0016F8083016F80970E9691204F9
:100AB00042EA0022134343EA07678F424ED8EF61B0
:100AC0007FB30027BC4605F1200E002319463019DC
:100AD00010F8012B9A400833202B41EA0201F7D18C
:100AE00004F104084144884509D2E31C33444246DA
:100AF000013213F8010F03F8010C8A42F8D372187F
:100B000008F1FF3802F801CC06EB08032B626A6A91
:100B1000DEF8003042F82730EB690137BB420C4663
:100B2000D3D8204603B0BDE8F08FA100C0680CF018
:100B300001F86C60E860002C7FF448AF4FF00808C3
:100B400047460C244FF00B094FF00A0B4FF0090AEF
:100B50000722062005234FF0040E65E7B900686AF6
:100B60000BF0E8FF6862AAE79900A86901930BF00F
:100B7000E1FF019BA86167E710B504460C48A36834
:100B8000E268616807F0D2FDA368E268616809481D
:100B900007F0CCFDA368E2686168074807F0C6FD6E
:100BA000A368E26861680548BDE8104007F0BEBD73
:100BB000889BFF1FD89BFF1F0095FF1F9095FF1F6D
:100BC0000B6803614B6843618B688361C3690C30B8
:100BD000184700BFF8B506464068C0F3C7520C4638
:100BE0000346002A58D002F56072110149B2C2F3DF
:100BF0000715C3F3C34211435F010022A171D9104D
:100C0000DB12217122706270A270E77063710021A3
:100C10000BF002FC002848D1E571B068C0F3C75260
:100C20000346002A3ED002F56072110149B2C2F3B8
:100C30000715C3F3C34211435F010022A173D9100A
:100C4000DB12217322726272A272E7726373002157
:100C50000BF0E2FB90BBE573F068C0F3C7520346AC
:100C6000EAB102F56072110149B2C2F30715C3F38C
:100C7000C34211435F010022DE10DB12A175227412
:100C80006274A274E7742675637500210BF0C4FBCF
:100C900078B9E5751820F8BD15461146A9E715463F
:100CA0001146E4E715461146C3E765F07F02E2719D
:100CB000B3E765F07F02E2751820F8BD65F07F02AA
:100CC000E273C9E7CA78520970B4426103460879F1
:100CD00042EAC0025A61487942EAC02058618A79E2
:100CE000D20402F4F00202435A61CD798E792C01CC
:100CF00004F4FE6454EA161403F10C0005D0A4F5C4
:100D0000607442EAC4525A61CD7925F07F0542EA07
:100D100005625A61CA7A52099A610C7B42EAC4029E
:100D20009A614C7B42EAC4249C618A7BD20402F41F
:100D3000F00222439A61CD7B8E7B2C0104F4FE6489
:100D400054EA161405D0A4F5607442EAC4529A61BC
:100D5000CD7B25F07F0542EA05629A61CA7C520983
:100D6000DA610C7D42EAC402DA614C7D42EAC424B5
:100D7000DC618A7DD20402F4F0022243DA61CD7D87
:100D80008E7D2C0104F4FE6454EA161405D0A4F5FB
:100D9000607442EAC452DA61CD7D25F07F0542EAF3
:100DA0000562DA61CA7E52095A620C7F42EAC402C5
:100DB0005A624C7F42EAC4245C628A7FD20402F405
:100DC000F00222435A62CD7F8E7F2C0104F4FE6430
:100DD00054EA161405D0A4F5607442EAC4525A626B
:100DE000CD7F25F07F0542EA05625A6291F8232003
:100DF00052099A6291F8244042EAC4029A6291F838
:100E0000254042EAC4249C6291F82620D20402F4D0
:100E1000F00222439A6291F8275091F826602C0143
:100E200004F4FE6454EA161406D0A4F5607442EA91
:100E3000C4529A6291F8275025F07F0542EA056274
:100E40009A6291F82B205209DA6291F82C4042EA1A
:100E5000C402DA6291F82D4042EAC424DC6291F8BF
:100E60002E20D20402F4F0022243DA6291F82F50CD
:100E700091F82E602C0104F4FE6454EA161406D096
:100E8000A4F5607442EAC452DA6291F82F5025F05A
:100E90007F0542EA0562DA6270BC1B6B184700BF2F
:100EA000CB785B0930B483600A7943EAC20383607C
:100EB0004A7943EAC22282608B79DB0403F4F003AF
:100EC00013438360CC798D79220102F4FE6252EAE9
:100ED000151205D0A2F5607243EAC2538360CC7943
:100EE00024F07F0443EA04638360CB7A5B09C36028
:100EF0000A7B43EAC203C3604A7B43EAC222C26060
:100F00008B7BDB0403F4F0031343C360CC7B8D7B4A
:100F1000220102F4FE6252EA151205D0A2F56072B7
:100F200043EAC253C360CC7B24F07F0443EA0463EA
:100F3000C360CB7C5B0903610A7D43EAC2030361A2
:100F40004A7D43EAC22202618B7DDB0403F4F00395
:100F500013430361CC7D8D7D220102F4FE6252EACF
:100F6000151205D0A2F5607243EAC2530361CC7D2D
:100F700024F07F0443EA04630361CB7E5B09836151
:100F80000A7F43EAC20383614A7F43EAC222826145
:100F90008B7FDB0403F4F00313438361CC7F8D7FED
:100FA000220102F4FE6252EA151205D0A2F5607227
:100FB00043EAC2538361CC7F24F07F0443EA046395
:100FC000836191F823305B09C36191F8242043EADF
:100FD000C203C36191F8252043EAC222C26191F89D
:100FE0002630DB0403F4F0031343C36191F8274078
:100FF00091F82650220102F4FE6252EA151206D040
:10100000A2F5607243EAC253C36191F8274024F00D
:101010007F0443EA0463C36191F82B305B090362E8
:1010200091F82C2043EAC203036291F82D2043EA91
:10103000C222026291F82E30DB0403F4F003134362
:10104000036291F82F4091F82E50220102F4FE62C3
:1010500052EA151206D0A2F5607243EAC253036247
:1010600091F82F4024F07F0443EA0463036230BC0C
:1010700030207047CB785B0930B443600A7943EA8B
:10108000C20343604A7943EAC22242608B79DB049F
:1010900003F4F00313434360CC798D79220102F409
:1010A000FE6252EA151205D0A2F5607243EAC253FD
:1010B0004360CC7924F07F0443EA04634360CB7A35
:1010C0005B0983600A7B43EAC20383604A7B43EA8D
:1010D000C22282608B7BDB0403F4F0031343836042
:1010E000CC7B8D7B220102F4FE6252EA151205D000
:1010F000A2F5607243EAC2538360CC7B24F07F0484
:1011000043EA04638360CB7C5B09C3600A7D43EAE6
:10111000C203C3604A7D43EAC222C2608B7DDB0406
:1011200003F4F0031343C360CC7D8D7D220102F4F0
:10113000FE6252EA151205D0A2F5607243EAC2536C
:10114000C360CC7D24F07F0443EA0463C36030BCF9
:1011500018207047F8B505468068C0F3C7520C46A2
:101160000346002A00F0CF8002F56072110149B2F7
:10117000C2F30716C3F3C34211435F010022A171FA
:10118000D910DB12217122706270A270E770637156
:1011900000210BF041F9002840F0C780E671E868B3
:1011A000C0F3C7520346002A00F0BC8002F560720B
:1011B000110149B2C2F30716C3F3C34211435F01E1
:1011C0000022A173D910DB12217322726272A27203
:1011D000E772637300210BF01FF9002840F0BC8018
:1011E000E6732869C0F3C7520346002A00F09780CF
:1011F00002F56072110149B2C2F30716C3F3C3428C
:1012000011435F010022A175D910DB1221752274F0
:101210006274A274E774637500210BF0FDF8002876
:1012200040F09680E675A869C0F3C7520346002ACD
:1012300072D002F56072110149B2C2F30716C3F30E
:10124000C34211435F010022A177D910DB1221773D
:1012500022766276A276E776637700210BF0DCF8DF
:10126000002871D1E677E869C0F3C7520346002A27
:101270004FD002F56072110149B2C2F30716C3F3F1
:10128000C34211435F01002284F82610D910DB12FB
:1012900084F8241084F8202084F8212084F8222067
:1012A00084F8237084F8253000210BF0B5F800286D
:1012B00045D184F82760286AC0F3C75203462AB391
:1012C00002F56072110149B2C2F30715C3F3C342BC
:1012D00011435F010022DE10DB1284F82E1084F827
:1012E000282084F8292084F82A2084F82B7084F898
:1012F0002C6084F82D3000210BF08EF8C8B984F8EA
:101300002F503020F8BD1646114633E715461146DA
:10131000DCE716461146B2E7164611468FE7164639
:1013200011466BE71646114646E766F07F02E2710A
:1013300035E765F07F0284F82F203020F8BD66F095
:101340007F0284F82720B6E766F07F02E2778AE71B
:1013500066F07F02E27566E766F07F02E27340E7BF
:10136000F8B505468068C0F3C7520C460346002A0C
:1013700000F04D8102F56072110149B2C2F3071607
:10138000C3F3C34211435F010022A171D910DB12E4
:10139000217122706270A270E770637100210BF0FE
:1013A0003BF8002840F04E81E671E868C0F3C75270
:1013B0000346002A00F0438102F56072110149B230
:1013C000C2F30716C3F3C34211435F010022A173A6
:1013D000D910DB12217322726272A272E7726373F8
:1013E00000210BF019F8002840F05281E6732869BB
:1013F000C0F3C7520346002A00F01E8102F5607256
:10140000110149B2C2F30716C3F3C34211435F018E
:101410000022A175D910DB12217522746274A274A6
:10142000E774637500210AF0F7FF002840F02C8173
:10143000E675A869C0F3C7520346002A00F0F98098
:1014400002F56072110149B2C2F30716C3F3C34239
:1014500011435F010022A177D910DB122177227698
:101460006276A276E776637700210AF0D5FF00283E
:1014700040F00681E677E869C0F3C7520346002AC8
:1014800000F0D48002F56072110149B2C2F3071670
:10149000C3F3C34211435F01002284F82610D91020
:1014A000DB1284F8241084F8202084F8212084F8AA
:1014B000222084F8237084F8253000210AF0ACFF44
:1014C000002840F0D88084F82760286AC0F3C7520B
:1014D0000346002A00F0A78002F56072110149B2AC
:1014E000C2F30716C3F3C34211435F01002284F81D
:1014F0002E10D910DB1284F82C1084F8282084F8E0
:10150000292084F82A2084F82B7084F82D300021BB
:101510000AF082FF002840F0A98084F82F60A86AB2
:10152000C0F3C7520346002A7AD002F56072110157
:1015300049B2C2F30716C3F3C34211435F0100224D
:1015400084F83610D910DB1284F8341084F8302077
:1015500084F8312084F8322084F8337084F83530F0
:1015600000210AF059FF00287BD184F83760E86A2F
:10157000C0F3C7520346002A4FD002F56072110132
:1015800049B2C2F30716C3F3C34211435F010022FD
:1015900084F83E10D910DB1284F83C1084F838200F
:1015A00084F8392084F83A2084F83B7084F83D3080
:1015B00000210AF031FF00284ED184F83F60286BEB
:1015C000C0F3C75203462AB302F56072110149B253
:1015D000C2F30715C3F3C34211435F010022DE10BB
:1015E000DB1284F8461084F8402084F8412084F807
:1015F000422084F8437084F8446084F84530002128
:101600000AF00AFF10BB84F847504820F8BD164680
:101610001146B5E615461146DCE716461146B2E717
:101620001646114687E7164611465BE716461146F1
:101630002EE71646114609E716461146E4E6164619
:101640001146BFE666F07F02E271AEE665F07F020A
:1016500084F847204820F8BD66F07F0284F83F20D8
:10166000ADE766F07F0284F8372080E766F07F02FE
:1016700084F82F2053E766F07F0284F8272024E7C0
:1016800066F07F02E277F6E666F07F02E275D0E66A
:1016900066F07F02E273AAE6CB785B0930B4836020
:1016A0000A7943EAC20383604A7943EAC22282602C
:1016B0008B79DB0403F4F00313438360CC798D79D9
:1016C000220102F4FE6252EA151205D0A2F5607200
:1016D00043EAC2538360CC7924F07F0443EA046375
:1016E0008360CB7A5B09C3600A7B43EAC203C360B1
:1016F0004A7B43EAC222C2608B7BDB0403F4F00323
:101700001343C360CC7B8D7B220102F4FE6252EA5C
:10171000151205D0A2F5607243EAC253C360CC7BB8
:1017200024F07F0443EA0463C360CB7C5B0903615C
:101730000A7D43EAC20303614A7D43EAC222026191
:101740008B7DDB0403F4F00313430361CC7D8D7DBB
:10175000220102F4FE6252EA151205D0A2F560726F
:1017600043EAC2530361CC7D24F07F0443EA04635F
:101770000361CB7E5B0983610A7F43EAC203836115
:101780004A7F43EAC22282618B7FDB0403F4F003C9
:1017900013438361CC7F8D7F220102F4FE6252EA03
:1017A000151205D0A2F5607243EAC2538361CC7F63
:1017B00024F07F0443EA0463836191F823305B09DA
:1017C000C36191F8242043EAC203C36191F8252044
:1017D00043EAC222C26191F82630DB0403F4F0032D
:1017E0001343C36191F8274091F82650220102F477
:1017F000FE6252EA151206D0A2F5607243EAC253A5
:10180000C36191F8274024F07F0443EA0463C36175
:1018100091F82B305B09036291F82C2043EAC20354
:10182000036291F82D2043EAC222026291F82E3021
:10183000DB0403F4F0031343036291F82F4091F8A3
:101840002E50220102F4FE6252EA151206D0A2F5D1
:10185000607243EAC253036291F82F4024F07F0480
:1018600043EA0463036291F833305B09836291F8C1
:10187000342043EAC203836291F8352043EAC2224E
:10188000826291F83630DB0403F4F0031343836281
:1018900091F8374091F83650220102F4FE6252EA84
:1018A000151206D0A2F5607243EAC253836291F822
:1018B000374024F07F0443EA0463836291F83B30AD
:1018C0005B09C36291F83C2043EAC203C36291F80A
:1018D0003D2043EAC222C26291F83E30DB0403F4A9
:1018E000F0031343C36291F83F4091F83E50220148
:1018F00002F4FE6252EA151206D0A2F5607243EAC3
:10190000C253C36291F83F4024F07F0443EA04636A
:10191000C36291F843305B09036391F8442043EAC2
:10192000C203036391F8452043EAC222026391F89F
:101930004630DB0403F4F0031343036391F847409C
:1019400091F84650220102F4FE6252EA151206D0C6
:10195000A2F5607243EAC253036391F8474024F052
:101960007F0443EA0463036330BC4820704700BF30
:101970001F4B10B49A6E1368506819780478507A27
:10198000137A044201EA03011AD0937A03F00303A5
:1019900009B143F0040343F008039910013B91722D
:1019A0000D2B0BD8DFE803F01E0719070A141E1EC3
:1019B000140A0719071ED368013BD36010BC704797
:1019C000937A03F003030029E7D043F00403E4E72C
:1019D000D36810BC023BD3607047D36810BC02339D
:1019E000D3607047D36810BC0133D360704700BF29
:1019F0005C9CFF1F1F4B10B41A681368506819785D
:101A00000478507A137A044201EA03011AD0937AD7
:101A100003F0030309B143F0040343F008039910F2
:101A2000013B91720D2B0BD8DFE803F01E0719075D
:101A30000A141E1E140A0719071ED368013BD3603F
:101A400010BC7047937A03F003030029E7D043F0FA
:101A50000403E4E7D36810BC023BD3607047D3684B
:101A600010BC0233D3607047D36810BC0133D3601D
:101A7000704700BF5C9CFF1F1F4B10B45A6813686F
:101A8000506819780478507A137A044201EA030105
:101A90001AD0937A03F0030309B143F0040343F02F
:101AA00008039910013B91720D2B0BD8DFE803F06E
:101AB0001E0719070A141E1E140A0719071ED368E9
:101AC000013BD36010BC7047937A03F003030029F5
:101AD000E7D043F00403E4E7D36810BC023BD360D3
:101AE0007047D36810BC0233D3607047D36810BC12
:101AF0000133D360704700BF5C9CFF1F1F4B10B4C5
:101B00009A681368506819780478507A137A0442F6
:101B100001EA03011AD0937A03F0030309B143F0F9
:101B2000040343F008039910013B91720D2B0BD86D
:101B3000DFE803F01E0719070A141E1E140A07190E
:101B4000071ED368013BD36010BC7047937A03F043
:101B500003030029E7D043F00403E4E7D36810BC93
:101B6000023BD3607047D36810BC0233D360704728
:101B7000D36810BC0133D360704700BF5C9CFF1F6B
:101B80001F4B10B4DA681368506819780478507ADB
:101B9000137A044201EA03011AD0937A03F0030393
:101BA00009B143F0040343F008039910013B91721B
:101BB0000D2B0BD8DFE803F01E0719070A141E1EB1
:101BC000140A0719071ED368013BD36010BC704785
:101BD000937A03F003030029E7D043F00403E4E71A
:101BE000D36810BC023BD3607047D36810BC02338B
:101BF000D3607047D36810BC0133D360704700BF17
:101C00005C9CFF1F1F4B10B41A6913685068197849
:101C10000478507A137A044201EA03011AD0937AC5
:101C200003F0030309B143F0040343F008039910E0
:101C3000013B91720D2B0BD8DFE803F01E0719074B
:101C40000A141E1E140A0719071ED368013BD3602D
:101C500010BC7047937A03F003030029E7D043F0E8
:101C60000403E4E7D36810BC023BD3607047D36839
:101C700010BC0233D3607047D36810BC0133D3600B
:101C8000704700BF5C9CFF1F1F4B10B45A6913685C
:101C9000506819780478507A137A044201EA0301F3
:101CA0001AD0937A03F0030309B143F0040343F01D
:101CB00008039910013B91720D2B0BD8DFE803F05C
:101CC0001E0719070A141E1E140A0719071ED368D7
:101CD000013BD36010BC7047937A03F003030029E3
:101CE000E7D043F00403E4E7D36810BC023BD360C1
:101CF0007047D36810BC0233D3607047D36810BC00
:101D00000133D360704700BF5C9CFF1F1F4B10B4B2
:101D10009A691368506819780478507A137A0442E3
:101D200001EA03011AD0937A03F0030309B143F0E7
:101D3000040343F008039910013B91720D2B0BD85B
:101D4000DFE803F01E0719070A141E1E140A0719FC
:101D5000071ED368013BD36010BC7047937A03F031
:101D600003030029E7D043F00403E4E7D36810BC81
:101D7000023BD3607047D36810BC0233D360704716
:101D8000D36810BC0133D360704700BF5C9CFF1F59
:101D90001F4B10B4DA691368506819780478507AC8
:101DA000137A044201EA03011AD0937A03F0030381
:101DB00009B143F0040343F008039910013B917209
:101DC0000D2B0BD8DFE803F01E0719070A141E1E9F
:101DD000140A0719071ED368013BD36010BC704773
:101DE000937A03F003030029E7D043F00403E4E708
:101DF000D36810BC023BD3607047D36810BC023379
:101E0000D3607047D36810BC0133D360704700BF04
:101E10005C9CFF1F1F4B10B41A6A13685068197836
:101E20000478507A137A044201EA03011AD0937AB3
:101E300003F0030309B143F0040343F008039910CE
:101E4000013B91720D2B0BD8DFE803F01E07190739
:101E50000A141E1E140A0719071ED368013BD3601B
:101E600010BC7047937A03F003030029E7D043F0D6
:101E70000403E4E7D36810BC023BD3607047D36827
:101E800010BC0233D3607047D36810BC0133D360F9
:101E9000704700BF5C9CFF1F1F4B10B45A6A136849
:101EA000506819780478507A137A044201EA0301E1
:101EB0001AD0937A03F0030309B143F0040343F00B
:101EC00008039910013B91720D2B0BD8DFE803F04A
:101ED0001E0719070A141E1E140A0719071ED368C5
:101EE000013BD36010BC7047937A03F003030029D1
:101EF000E7D043F00403E4E7D36810BC023BD360AF
:101F00007047D36810BC0233D3607047D36810BCED
:101F10000133D360704700BF5C9CFF1F1F4B10B4A0
:101F20009A6A1368506819780478507A137A0442D0
:101F300001EA03011AD0937A03F0030309B143F0D5
:101F4000040343F008039910013B91720D2B0BD849
:101F5000DFE803F01E0719070A141E1E140A0719EA
:101F6000071ED368013BD36010BC7047937A03F01F
:101F700003030029E7D043F00403E4E7D36810BC6F
:101F8000023BD3607047D36810BC0233D360704704
:101F9000D36810BC0133D360704700BF5C9CFF1F47
:101FA0001F4B10B4DA6A1368506819780478507AB5
:101FB000137A044201EA03011AD0937A03F003036F
:101FC00009B143F0040343F008039910013B9172F7
:101FD0000D2B0BD8DFE803F01E0719070A141E1E8D
:101FE000140A0719071ED368013BD36010BC704761
:101FF000937A03F003030029E7D043F00403E4E7F6
:10200000D36810BC023BD3607047D36810BC023366
:10201000D3607047D36810BC0133D360704700BFF2
:102020005C9CFF1F1F4B10B41A6B13685068197823
:102030000478507A137A044201EA03011AD0937AA1
:1020400003F0030309B143F0040343F008039910BC
:10205000013B91720D2B0BD8DFE803F01E07190727
:102060000A141E1E140A0719071ED368013BD36009
:1020700010BC7047937A03F003030029E7D043F0C4
:102080000403E4E7D36810BC023BD3607047D36815
:1020900010BC0233D3607047D36810BC0133D360E7
:1020A000704700BF5C9CFF1F1F4B10B45A6B136836
:1020B000506819780478507A137A044201EA0301CF
:1020C0001AD0937A03F0030309B143F0040343F0F9
:1020D00008039910013B91720D2B0BD8DFE803F038
:1020E0001E0719070A141E1E140A0719071ED368B3
:1020F000013BD36010BC7047937A03F003030029BF
:10210000E7D043F00403E4E7D36810BC023BD3609C
:102110007047D36810BC0233D3607047D36810BCDB
:102120000133D360704700BF5C9CFF1F1F4B10B48E
:102130009A6B1368506819780478507A137A0442BD
:1021400001EA03011AD0937A03F0030309B143F0C3
:10215000040343F008039910013B91720D2B0BD837
:10216000DFE803F01E0719070A141E1E140A0719D8
:10217000071ED368013BD36010BC7047937A03F00D
:1021800003030029E7D043F00403E4E7D36810BC5D
:10219000023BD3607047D36810BC0233D3607047F2
:1021A000D36810BC0133D360704700BF5C9CFF1F35
:1021B0001F4B10B4DA6B1368506819780478507AA2
:1021C000137A044201EA03011AD0937A03F003035D
:1021D00009B143F0040343F008039910013B9172E5
:1021E0000D2B0BD8DFE803F01E0719070A141E1E7B
:1021F000140A0719071ED368013BD36010BC70474F
:10220000937A03F003030029E7D043F00403E4E7E3
:10221000D36810BC023BD3607047D36810BC023354
:10222000D3607047D36810BC0133D360704700BFE0
:102230005C9CFF1F1F4B10B41A6C13685068197810
:102240000478507A137A044201EA03011AD0937A8F
:1022500003F0030309B143F0040343F008039910AA
:10226000013B91720D2B0BD8DFE803F01E07190715
:102270000A141E1E140A0719071ED368013BD360F7
:1022800010BC7047937A03F003030029E7D043F0B2
:102290000403E4E7D36810BC023BD3607047D36803
:1022A00010BC0233D3607047D36810BC0133D360D5
:1022B000704700BF5C9CFF1F1F4B10B45A6C136823
:1022C000506819780478507A137A044201EA0301BD
:1022D0001AD0937A03F0030309B143F0040343F0E7
:1022E00008039910013B91720D2B0BD8DFE803F026
:1022F0001E0719070A141E1E140A0719071ED368A1
:10230000013BD36010BC7047937A03F003030029AC
:10231000E7D043F00403E4E7D36810BC023BD3608A
:102320007047D36810BC0233D3607047D36810BCC9
:102330000133D360704700BF5C9CFF1F1F4B10B47C
:102340009A6C1368506819780478507A137A0442AA
:1023500001EA03011AD0937A03F0030309B143F0B1
:10236000040343F008039910013B91720D2B0BD825
:10237000DFE803F01E0719070A141E1E140A0719C6
:10238000071ED368013BD36010BC7047937A03F0FB
:1023900003030029E7D043F00403E4E7D36810BC4B
:1023A000023BD3607047D36810BC0233D3607047E0
:1023B000D36810BC0133D360704700BF5C9CFF1F23
:1023C0001F4B10B4DA6C1368506819780478507A8F
:1023D000137A044201EA03011AD0937A03F003034B
:1023E00009B143F0040343F008039910013B9172D3
:1023F0000D2B0BD8DFE803F01E0719070A141E1E69
:10240000140A0719071ED368013BD36010BC70473C
:10241000937A03F003030029E7D043F00403E4E7D1
:10242000D36810BC023BD3607047D36810BC023342
:10243000D3607047D36810BC0133D360704700BFCE
:102440005C9CFF1F1F4B10B41A6D136850681978FD
:102450000478507A137A044201EA03011AD0937A7D
:1024600003F0030309B143F0040343F00803991098
:10247000013B91720D2B0BD8DFE803F01E07190703
:102480000A141E1E140A0719071ED368013BD360E5
:1024900010BC7047937A03F003030029E7D043F0A0
:1024A0000403E4E7D36810BC023BD3607047D368F1
:1024B00010BC0233D3607047D36810BC0133D360C3
:1024C000704700BF5C9CFF1F1F4B10B45A6D136810
:1024D000506819780478507A137A044201EA0301AB
:1024E0001AD0937A03F0030309B143F0040343F0D5
:1024F00008039910013B91720D2B0BD8DFE803F014
:102500001E0719070A141E1E140A0719071ED3688E
:10251000013BD36010BC7047937A03F0030300299A
:10252000E7D043F00403E4E7D36810BC023BD36078
:102530007047D36810BC0233D3607047D36810BCB7
:102540000133D360704700BF5C9CFF1F1F4B10B46A
:102550009A6D1368506819780478507A137A044297
:1025600001EA03011AD0937A03F0030309B143F09F
:10257000040343F008039910013B91720D2B0BD813
:10258000DFE803F01E0719070A141E1E140A0719B4
:10259000071ED368013BD36010BC7047937A03F0E9
:1025A00003030029E7D043F00403E4E7D36810BC39
:1025B000023BD3607047D36810BC0233D3607047CE
:1025C000D36810BC0133D360704700BF5C9CFF1F11
:1025D0001F4B10B4DA6D1368506819780478507A7C
:1025E000137A044201EA03011AD0937A03F0030339
:1025F00009B143F0040343F008039910013B9172C1
:102600000D2B0BD8DFE803F01E0719070A141E1E56
:10261000140A0719071ED368013BD36010BC70472A
:10262000937A03F003030029E7D043F00403E4E7BF
:10263000D36810BC023BD3607047D36810BC023330
:10264000D3607047D36810BC0133D360704700BFBC
:102650005C9CFF1F1F4B10B41A6E136850681978EA
:102660000478507A137A044201EA03011AD0937A6B
:1026700003F0030309B143F0040343F00803991086
:10268000013B91720D2B0BD8DFE803F01E071907F1
:102690000A141E1E140A0719071ED368013BD360D3
:1026A00010BC7047937A03F003030029E7D043F08E
:1026B0000403E4E7D36810BC023BD3607047D368DF
:1026C00010BC0233D3607047D36810BC0133D360B1
:1026D000704700BF5C9CFF1F1F4B10B45A6E1368FD
:1026E000506819780478507A137A044201EA030199
:1026F0001AD0937A03F0030309B143F0040343F0C3
:1027000008039910013B91720D2B0BD8DFE803F001
:102710001E0719070A141E1E140A0719071ED3687C
:10272000013BD36010BC7047937A03F00303002988
:10273000E7D043F00403E4E7D36810BC023BD36066
:102740007047D36810BC0233D3607047D36810BCA5
:102750000133D360704700BF5C9CFF1F1F4B10B458
:102760009A6F1368506819780478507A137A044283
:1027700001EA03011AD0937A03F0030309B143F08D
:10278000040343F008039910013B91720D2B0BD801
:10279000DFE803F01E0719070A141E1E140A0719A2
:1027A000071ED368013BD36010BC7047937A03F0D7
:1027B00003030029E7D043F00403E4E7D36810BC27
:1027C000023BD3607047D36810BC0233D3607047BC
:1027D000D36810BC0133D360704700BF5C9CFF1FFF
:1027E0001F4B10B4DA6F1368506819780478507A68
:1027F000137A044201EA03011AD0937A03F0030327
:1028000009B143F0040343F008039910013B9172AE
:102810000D2B0BD8DFE803F01E0719070A141E1E44
:10282000140A0719071ED368013BD36010BC704718
:10283000937A03F003030029E7D043F00403E4E7AD
:10284000D36810BC023BD3607047D36810BC02331E
:10285000D3607047D36810BC0133D360704700BFAA
:102860005C9CFF1F1F4B10B4D3F880201368506886
:1028700019780478507A137A044201EA03011AD0D5
:10288000937A03F0030309B143F0040343F0080310
:102890009910013B91720D2B0BD8DFE803F01E0756
:1028A00019070A141E1E140A0719071ED368013BD4
:1028B000D36010BC7047937A03F003030029E7D07C
:1028C00043F00403E4E7D36810BC023BD3607047D5
:1028D000D36810BC0233D3607047D36810BC013397
:1028E000D36070475C9CFF1F1F4B10B4D3F884204B
:1028F0001368506819780478507A137A044201EA10
:1029000003011AD0937A03F0030309B143F00403DF
:1029100043F008039910013B91720D2B0BD8DFE8AF
:1029200003F01E0719070A141E1E140A0719071EB2
:10293000D368013BD36010BC7047937A03F0030364
:102940000029E7D043F00403E4E7D36810BC023B5E
:10295000D3607047D36810BC0233D3607047D3682C
:1029600010BC0133D36070475C9CFF1F1F4B10B439
:102970001A6F1368506819780478507A137A0442F1
:1029800001EA03011AD0937A03F0030309B143F07B
:10299000040343F008039910013B91720D2B0BD8EF
:1029A000DFE803F01E0719070A141E1E140A071990
:1029B000071ED368013BD36010BC7047937A03F0C5
:1029C00003030029E7D043F00403E4E7D36810BC15
:1029D000023BD3607047D36810BC0233D3607047AA
:1029E000D36810BC0133D360704700BF5C9CFF1FED
:1029F0001F4B10B45A6F1368506819780478507AD6
:102A0000137A044201EA03011AD0937A03F0030314
:102A100009B143F0040343F008039910013B91729C
:102A20000D2B0BD8DFE803F01E0719070A141E1E32
:102A3000140A0719071ED368013BD36010BC704706
:102A4000937A03F003030029E7D043F00403E4E79B
:102A5000D36810BC023BD3607047D36810BC02330C
:102A6000D3607047D36810BC0133D360704700BF98
:102A70005C9CFF1F1F4B10B4DA6E13685068197806
:102A80000478507A137A044201EA03011AD0937A47
:102A900003F0030309B143F0040343F00803991062
:102AA000013B91720D2B0BD8DFE803F01E071907CD
:102AB0000A141E1E140A0719071ED368013BD360AF
:102AC00010BC7047937A03F003030029E7D043F06A
:102AD0000403E4E7D36810BC023BD3607047D368BB
:102AE00010BC0233D3607047D36810BC0133D3608D
:102AF000704700BF5C9CFF1FF0B5632985B003DD04
:102B000090F8F844002C46D0136805460F4610464E
:102B10001B6805F223219847C2B2C0F3072156185B
:102B200085F81E2247F30722F643FF234FF0FE0EDF
:102B3000FCB285F82222421C85F8206285F81F121B
:102B400085F81C3285F81DE285F821420DDB00F284
:102B50002221294405F22123002201E013F8014F2C
:102B60008B422244FAD1D343DBB22A1800F1080485
:102B7000B4F5007F82F8233217DC6A683C4E136894
:102B80005B68B34205F5077008D1214607F00CF9E0
:102B9000204605B0F0BD204605B0F0BD0146104608
:102BA00022469847204605B0F0BD324A0192324C89
:102BB0002B68039403228DF808201B682F498B4251
:102BC0004ED10023382185F8232204F1300E85F8F8
:102BD000241285F8253285F8263285F8273205F546
:102BE0000A7627460FCF774530607160B260F36098
:102BF0003C4606F11006F4D103CC00227160C223DA
:102C00004FF0FF0EFE273D240721306085F820326B
:102C100085F81CE285F81D7285F81E4285F81F2292
:102C200085F8222285F8211205F2212305F25F2082
:102C300001E013F8011F98420A44FAD1D2436868B0
:102C400085F8602203680A4A5B68934205F50771BC
:102C50000BD10846452107F0A7F84FF0FF3098E761
:102C6000284601AA07219847F7E745229847F4E745
:102C7000A9090000EC060100B8090100F92A0000CA
:102C800008B50E4804F038FC0D4804F073FF0C48FA
:102C900004F094FF08B9002008BD0A4804F06AFF58
:102CA000084804F08BFF0028F5D0074804F062FFC5
:102CB0000548BDE8084004F081BF00BFFC87FF1F46
:102CC000BC9BFF1F749BFF1F3495FF1F70B5134DF6
:102CD0001348144C144E04F00FFC284604F04AFF2D
:102CE000284605F009F80546204604F043FF204633
:102CF00005F002F80446304604F03CFF304604F08C
:102D0000FBFF23B203EB830303EB83034FF47A72DD
:102D10009B0002FB0533184470BD00BFBC9BFF1F26
:102D2000FC87FF1F749BFF1F3495FF1FFFFFFFFFF2
:102D300010B5002382B0224A0260044601AA436013
:102D40008360C3600DF102010DF106031D4804F01C
:102D500057FFBDF9020008F03BFD00221A4B08F0B6
:102D60009DFD15A3D3E9002308F098FD09F058F85C
:102D70006060BDF9040008F02BFD0022124B08F042
:102D80008DFD0DA3D3E9002308F088FD09F048F874
:102D9000A060BDF9060008F01BFD00220A4B08F0F8
:102DA0007DFD05A3D3E9002308F078FD09F038F88C
:102DB000E060204602B010BD00000060B89E2340D5
:102DC00034070100BC9BFF1F0000103FFFFFFFFF07
:102DD00010B5002382B0264A0260044601AA43606F
:102DE0008360C3600DF102010DF10603214804F078
:102DF00061FFBDF9020008F0EBFC19A3D3E9002341
:102E000008F076FE18A3D3E9002308F047FD09F087
:102E100007F86060BDF9040008F0DAFC10A3D3E9FC
:102E2000002308F065FE10A3D3E9002308F036FD67
:102E300008F0F6FFA060BDF9060008F0C9FC08A381
:102E4000D3E9002308F054FE07A3D3E9002308F0D8
:102E500025FD08F0E5FFE060204602B010BD00BF90
:102E60000000000000606040000000A046DF913FCD
:102E700034070100749BFF1F10B5002382B0264A5F
:102E80000260044601AA43608360C3600DF1020141
:102E90000DF10603214804F0D5FEBDF9020008F04B
:102EA00097FC19A3D3E9002308F0F8FC18A3D3E991
:102EB000002308F0F3FC08F0B3FF6060BDF90400E4
:102EC00008F086FC10A3D3E9002308F0E7FC10A368
:102ED000D3E9002308F0E2FC08F0A2FFA060BDF9EE
:102EE000060008F075FC08A3D3E9002308F0D6FC1F
:102EF00007A3D3E9002308F0D1FC08F091FFE060BC
:102F0000204602B010BD00BF000000403333E33F55
:102F1000000000A0F7C6B03E340701003495FF1F43
:102F2000F8B59DF818E004460E4615461F46BEF15A
:102F3000000F01D016460D463046022105F018FF5D
:102F40002846022105F014FF9E4A276052F83610E9
:102F5000012301F50070E060237552F83520637598
:102F600002F5007700204BF680332761A061013B1A
:102F7000FDD191F8003292F8002203F00103D2074C
:102F800044BF43F00203DBB2A37504F10C07212E0A
:102F900000F24883DFE816F03B03320329032003E5
:102FA00017030E030503FC02F302EA02E102D80252
:102FB0008B0282027902700267025E0255024C02A5
:102FC00043023A02310228021F0216020D020402D5
:102FD000FB01F201E901E001D60122007A4B7B49B5
:102FE000C3F884700422212005F0ECFC0123237730
:102FF000212D00F21583DFE815F09B019101870177
:103000007D01730169015F0155014B0141013701E8
:103010002D01230119010F01DB00D100C700BD0004
:10302000B300A9009F0095008B00810077006D0020
:10303000630059004F0045003B0030002200624B06
:103040006249C3F884700422212005F0BBFC237F71
:103050000122134423772046F8BD5B4B5C49C3F83B
:1030600080700422202005F0ADFC237F0122F0E7D0
:10307000554B5849DF6704221F2005F0A3FC237F2E
:103080000122E6E7504B54499F6704221E2005F0B9
:1030900099FC237F0122DCE74B4B50495F670422F8
:1030A0001D2005F08FFC237F0122D2E7464B4C49BF
:1030B0001F6704221C2005F085FC237F0122C8E73E
:1030C000414B4849DF6604221B2005F07BFC237F2F
:1030D0000122BEE73C4B44499F6604221A2005F0BA
:1030E00071FC237F0122B4E7374B40495F6604221D
:1030F000192005F067FC237F0122AAE7324B3C49E7
:103100001F660422182005F05DFC237F0122A0E742
:103110002D4B3849DF650422172005F053FC237F2F
:10312000012296E7284B34499F650422162005F0BA
:1031300049FC237F01228CE7234B30495F65042241
:10314000152005F03FFC237F012282E71E4B2C490E
:103150001F650422142005F035FC237F012278E747
:10316000194B2849DF640422132005F02BFC237F30
:1031700001226EE7144B24499F640422122005F0BB
:1031800021FC237F012264E70F4B20495F64042266
:10319000112005F017FC237F01225AE70A4B1C4936
:1031A0001F640422102005F00DFC237F012250E74C
:1031B000054B1849DF6304220F2005F003FC237F31
:1031C000012246E7840B01005C9CFF1FE9280000F8
:1031D00065280000E12700005D270000F1290000BC
:1031E0006D290000752A000071190000D926000021
:1031F00055260000D12500004D250000C9240000FF
:1032000045240000C12300003D230000B922000036
:1032100035220000B1210000A94BAA499F63042276
:103220000E2005F0CFFB237F012212E7A44BA64915
:103230005F6304220D2005F0C5FB237F012208E710
:103240009F4BA2491F6304220C2005F0BBFB237F88
:103250000122FEE69A4B9E49DF6204220B2005F014
:10326000B1FB237F0122F4E6954B9A499F62042229
:103270000A2005F0A7FB237F0122EAE6904B96493E
:103280005F620422092005F09DFB237F0122E0E616
:103290008B4B92491F620422082005F093FB237F89
:1032A0000122D6E6864B8E49DF610422072005F015
:1032B00089FB237F0122CCE6814B8A499F6104224E
:1032C000062005F07FFB237F0122C2E67C4B864966
:1032D0005F610422052005F075FB237F0122B8E61B
:1032E000774B82491F610422104605F06BFB237F58
:1032F0000122AEE6724B7E49DF600422032005F016
:1033000061FB237F0122A4E66D4B7A499F60042272
:10331000022005F057FB237F01229AE6684B76498D
:103320005F600422012005F04DFB237F012290E61F
:10333000634B72491F600422002005F043FB237F8A
:10334000012286E65E4B6E49C3F88070042220207D
:1033500005F038FB01234AE6594B6A49DF6704222E
:103360001F2005F02FFB012341E6554B66499F675F
:1033700004221E2005F026FB012338E6504B63494A
:103380005F6704221D2005F01DFB01232FE64C4B37
:103390005F491F6704221C2005F014FB012326E669
:1033A000474B5C49DF6604221B2005F00BFB012321
:1033B0001DE6434B58499F6604221A2005F002FB84
:1033C000012314E63E4B55495F660422192005F09F
:1033D000F9FA01230BE63A4B51491F6604221820E3
:1033E00005F0F0FA012302E6354B4E49DF65042271
:1033F000172005F0E7FA0123F9E5314B4A499F65AB
:103400000422162005F0DEFA0123F0E52C4B474993
:103410005F650422152005F0D5FA0123E7E5284B66
:1034200043491F650422142005F0CCFA0123DEE590
:10343000234B4049DF640422132005F0C3FA012323
:10344000D5E51F4B3C499F640422122005F0BAFACF
:103450000123CCE51A4B39495F640422112005F0A1
:10346000B1FA0123C3E5164B35491F64042210202D
:1034700005F0A8FA0123BAE5114B3249DF630422B3
:103480000F2005F09FFA0123B1E50D4B0D499F6315
:1034900004220E2005F096FA0123A8E5084B0A49FC
:1034A0005F6304220D2005F08DFA01239FE5044B94
:1034B00006491F6304220C2005F084FA012396E5D7
:1034C0005C9CFF1F2D210000A9200000252000008A
:1034D000A11F00001D1F0000991E0000151E000006
:1034E000911D00000D1D0000891C0000051C00003E
:1034F000811B0000FD1A0000791A0000F519000078
:1035000065280000E12700005D270000F129000088
:103510006D290000752A000071190000D9260000ED
:1035200055260000D12500004D250000C9240000CB
:1035300045240000C12300003D230000B922000003
:1035400035220000B1210000374B3849DF620422E8
:103550000B2005F037FA012349E5334B34499F62CC
:1035600004220A2005F02EFA012340E52E4B3149B2
:103570005F620422092005F025FA012337E52A4B72
:103580002D491F620422082005F01CFA01232EE5B4
:10359000254B2A49DF610422072005F013FA012395
:1035A00025E5214B26499F610422062005F00AFAF1
:1035B00001231CE51C4B23495F610422052005F013
:1035C00001FA012313E5184B1F491F61042210461D
:1035D00005F0F8F901230AE5134B1C49DF600422CA
:1035E000032005F0EFF9012301E50F4B18499F6017
:1035F0000422022005F0E6F90123F8E40A4B1549FC
:103600005F600422012005F0DDF90123EFE4064BA1
:1036100011491F600422002005F0D4F90123E6E4DB
:10362000002216E50023E2E45C9CFF1FA11F0000BE
:103630001D1F0000991E0000151E0000911D0000B6
:103640000D1D0000891C0000051C0000811B0000EE
:10365000FD1A0000791A0000F5190000FFFFFFFFB6
:103660002DE9F04FAF4C00234FF46142A260A1B0AE
:1036700004F27C42C4F8E434C4F8E834C4F8F0340A
:10368000C4F8EC3402E00133192B0AD052F8041FBD
:103690000029F8D103F59071A34A44F8212064333E
:1036A0005360A24A002302E00133192B0AD052F8DA
:1036B000041F0029F8D103F590719D4A44F8212098
:1036C000643353609B4A002302E00133192B0BD073
:1036D00052F8041F0029F8D1974A04EB83017D3387
:1036E000C1F81C249360D460924A002302E00133A5
:1036F000192B0BD052F8041F0029F8D18F4A04EB84
:1037000083017D33C1F81C249360D46094F8F8A43D
:10371000844D8B4EDFF84882D346BBF1000F40F05A
:10372000D58033680B93DDF82C90D4F8003542F641
:10373000F822C3EB09039342D4F8E43488BF85F838
:10374000F8B433B1D5F80435994584BF0023C5F8E2
:10375000E434A2693AB133680F930F9BC9EB0303BA
:103760009A42C0F02582606803685B69434554D182
:1037700006F0B4FA002853DBD4F8F434D4F8E42487
:103780000344072AC4F8F43400F074817AB9FF289E
:1037900000F0838133680E930E9B41F28831C9EBB0
:1037A00003038B42D5D95F4B83F8F824B9E7012A8C
:1037B00000F07B81022A00F0C081032A00F0C8815A
:1037C000042A00F0CF81052A00F0DB81062A00F0F0
:1037D000E081082ABDD15B4A1A4000239A42C4F80E
:1037E000E434C0F2F281FF2AB3D1D4F8EC34002BD8
:1037F00000F0AC830A2B00F00382062B00F0588205
:103800000B2B00F0EB81BC3355F823000028A0D02F
:1038100003684D491B6898479BE798470028ABDA37
:1038200094F8F8B4BBF1000F3FF47BAFD5F8FC344B
:1038300040F6C412C3EB090393427FF66EAFFF213B
:10384000FE27424B85F81C120821002285F81D72C4
:1038500085F81E12F7270A2103F1090085F82322B3
:1038600085F8242285F8252285F8262285F8272246
:1038700085F8282285F8292285F82A2285F81F2232
:1038800085F8222285F8207285F8211201E013F8CC
:10389000011F83420A44FAD1D243606884F82B2284
:1038A00003682B4A5B68934240F0948110212948B9
:1038B00006F07AFA33680A9394F8F8B40A9BC4F8CD
:1038C000FC94E360BBF1000F3FF42BAF224F234E7B
:1038D0000FCF0FC635463B6825F81739012112274F
:1038E000701884F82312FE2100224FF0FF0E84F896
:1038F0002472E826172784F81D1207212B4684F826
:10390000252284F8262284F8272284F81F2284F8AE
:10391000222284F81CE284F81E7284F8206284F863
:10392000211221E00096FF1FB894FF1F7C9AFF1F11
:103930004494FF1F189AFF1F1C9CFF1F389CFF1FF9
:10394000189DFF1FFF0000801C96FF1F2198FF1F7E
:10395000A90900001C98FF1FF40901002898FF1F07
:103960009107000013F8011F83420A44FAD1D243A1
:10397000606884F83A220368C34A5B68934240F067
:1039800031811F21C14806F00FFAB9A1D1E9000128
:10399000B9A3D3E90023CDE90201CDE90023BC4955
:1039A000BC4EB7A3D3E9002313A809F0CDFA012335
:1039B00013A884F8233209F003FB0746000A4FEAF4
:1039C000174E3B0E13A93A4684F8250206F50A70F5
:1039D00084F826E284F8273284F8247204F0B2FED8
:1039E00007F1050E5FFA8EF1CEF307200A18D243D5
:1039F000FF2384F81E124FF0FE0C84F820220721CA
:103A00000022BEF1FF3F84F81F0284F81C3284F8C4
:103A10001DC284F8211284F82222C0F26F8407F2BA
:103A20002720304406F2212301E013F8011F9842B9
:103A30000A44FAD1D243D2B204EB0E030EF10801CC
:103A4000B1F5007F83F82322DFF848E200F32782F4
:103A5000DEF804008C4A03685B68934240F0C6803D
:103A60000EF5077006F0A0F9012005F087F921B0E6
:103A7000BDE8F08FD5F8F024D5F8E834A918013B5B
:103A800001320877C5F8F024C5F8E834002B7FF43C
:103A900060AE0823C4F8E4345BE6012209F11403A4
:103AA000C5F8E424C5F8043553E6FE2865D095F83A
:103AB000F8240023C5F8E434002A7FF44AAEFF213D
:103AC000FE27754B85F81C12082185F81D7285F8B4
:103AD0001E12F7270A2185F8232285F8242285F86B
:103AE000252285F8262285F8272285F8282285F8C0
:103AF000292285F82A2285F81F2285F8222203F13F
:103B0000090085F8207285F8211201E013F8011FE1
:103B100083420A44FAD1D243606884F82B220368B6
:103B2000594A5B6893424CD11021584806F03CF941
:103B300033680D930D9BE3600BE600220323C5F869
:103B4000E804C5F8F404C5F8F024C5F8E43400E648
:103B5000D5F8E834042203EB0020C5F8E804C5F8E2
:103B6000E424F6E54D4A1A40002A25DBFF2A0CBF63
:103B700005230023C4F8E434EBE50223C5F8E4345C
:103B8000E7E50623C5F8EC04C5F8F404C5F8E43409
:103B9000DFE5D5F8EC34D5F8E82403EB0023072162
:103BA000C5F8EC34C5F8E414002A3FF472AFD0E550
:103BB000384B93F8F8B4B0E5013A62F0FF020132F5
:103BC000D4E7102231499847B2E7013A62F0FF0288
:103BD000013208E610222D4998476BE6002385F84C
:103BE000F834B6E51F2229499847CEE60A460EF575
:103BF00007719847012005F0C1F821B0BDE8F08FAA
:103C000033681093109BEA682548316812919B1A1B
:103C1000296ADFF894E0DFF894A0DDF848C0EA698B
:103C2000A0FB0307BF094FF47A708E4400FB1733E3
:103C30000AFB03E305931A4B1A49A3FB0C3E4FEA18
:103C40009E1E059B013A00FB1EC03A440AFB10333E
:103C5000CEEB0202081F6B612A6103F0E1FB3368BF
:103C60001193119BC5F8003573E500BFAFF30080D9
:103C7000000000403333D33F000000A09999C93FB2
:103C8000000000403333E33FA90900001C98FF1FE8
:103C9000080A01000096FF1F2198FF1FFF00008007
:103CA000D34D62101496FF1F00CA9A3B40420F008A
:103CB000EF69D5F810359F4206D9B900D5F8180537
:103CC00008F038FFC5F81805C4F81075002F00F08B
:103CD0002B81B44A042302F2145E002792F82210CA
:103CE00092F821C092F82000090441EA0C2192F8D0
:103CF00023C0014341EA0C61C4F81415D4F8181527
:103D0000DEF8000041F82700D4F810050137B8426A
:103D1000194602F1040203F10403DFD8079301F10D
:103D20000B0301F1090201F1080A069301F10C03EA
:103D300005925746481D01F1060E01F1070C01F1ED
:103D40000A020893A644079B211823449EF81C00EE
:103D500091F81CE01B7FD4F81C15A44400049CF8C7
:103D60001CC040EA0E20034343EA0C638B420AD98D
:103D70009900D5F824050992079308F0DBFE099A0B
:103D8000079BC5F82405C4F81C35002B00F02583DB
:103D9000DFF824E2EA190021937F92F81DC0107F1A
:103DA0001B0443EA0C2392F81FC0034343EA0C634D
:103DB000C4F82035D4F82435DEF8000043F821009B
:103DC000D4F81C3501318B42384602F1040207F168
:103DD0000407E1D8431D0593C31DBA46821D06930F
:103DE00000F10807059B23442244187F069B117F9E
:103DF000D4F82825A24423449E4609049AF81C308E
:103E00009EF81CA041EA00210B4343EA0A6A92454E
:103E100007D94FEA8A01D5F8300508F08BFEC5F8BE
:103E20003005C4F828A5BAF1000F34D0DFF88CE1D2
:103E300000210EF5A26C07F11C0A0023A2441A46C9
:103E40001AF8010B98400833202B42EA0002F7D100
:103E5000381D024490420AD207F11F03234407464B
:103E6000013793F801A003F801AB9742F8D3A318E8
:103E70004FF000070138DF767044D4F83035C4F8CD
:103E80002C05DCF8000043F82100D4F82835013176
:103E90008B421746CFD8012384F8083559E4424FA6
:103EA0000FCF0EF50A760FC60FCF0FC60FCF0FC676
:103EB00097E803000023032738228EF823728EF838
:103EC00024224FF0FF0807224FF0FE0C3D278EF80A
:103ED00025328EF826328EF8273286E80300C2217A
:103EE00016448EF81F328EF822328EF81C828EF81D
:103EF0001DC28EF81E728EF820128EF8212201E06B
:103F000015F8012FB5421344FAD1DB43606884F8F9
:103F100060320368254A5B68934240F0598245212C
:103F2000234805F041FF9FE50C2308930B230693DC
:103F300009234FF0080A0593042357460A224FF03D
:103F4000070C4FF0060E05200793FBE61948A0F278
:103F50002A2100F8073CFE2781F81C224FF0080CAC
:103F60000A4681F8243281F8253281F8263281F818
:103F7000273281F8283281F8293281F82A3281F8F3
:103F80001D7281F81F3281F82232A0F1090EF72745
:103F900081F81EC20A2182F8207282F82112CB46D3
:103FA00072460FE00096FF1FB8090100A909000042
:103FB0001C98FF1F2A98FF1F209BFF1F1C96FF1FA6
:103FC00012F8011F82420B44FAD1DB43606884F887
:103FD0002B320368CF4A5B68934240F0F581102191
:103FE000CD4805F0E1FE33680C930C9BCB4EE360AB
:103FF00056F8043F002B00F0B58058689A680168B5
:104000000592D3F800A08B689847336881465868BA
:104010000368DB6898473368059A1F69632F8046F9
:1040200004DD94F8F834002B00F09C80C2F30723E1
:10403000504684F8232284F8243208F0C1FF034656
:10404000020A000C4FEA136E514684F8262284F8C7
:1040500027021A46B24884F82532059384F828E2EC
:1040600004F070FB484608F0ABFF059B024603F2E4
:10407000292020440633002122FA01FE083120299C
:1040800000F801EBF8D1A74804334946184402EB85
:10409000030904F057FB404608F092FF09F223227F
:1040A0008246224400232AFA03F10833202B02F827
:1040B000011BF8D19B4B09F10409414603EB0900B0
:1040C000524604F03FFB0AEB090000F1040E2118F0
:1040D0005FFA8EF8CEF3072C0022022308EB0C0ABD
:1040E00081F8243281F8232281F8252281F82622C2
:1040F0006FEA0A0AF9B2FF234FF0FE0947F30727D8
:10410000BEF1FF3F84F820A284F81E8284F81FC20B
:1041100084F81C3284F81D9284F8211284F82272EB
:104120000BDB00F22620804B284401E013F8011F2E
:1041300083420A44FAD1D343DBB204EB0E010EF101
:104140000802B2F5007F81F8233200F3F38068683B
:10415000704903685B688B4240F0D88011466E4816
:1041600005F022FE714B9E427FF442AF1E4656F888
:10417000040F002800F0B58090E80C0005939268C9
:10418000D0F808A09047814630680268D26890470E
:104190008046306802685268904763280746059B4E
:1041A00004DD94F8F824002A00F09B80C3F3072272
:1041B000504684F8233284F8242208F001FF034695
:1041C000020A000C4FEA136E514684F8262284F846
:1041D00027021A46524884F82532059384F828E2CB
:1041E00004F0B0FA484608F0EBFE059B024603F2E5
:1041F000292020440633002122FA01FE083120291B
:1042000000F801EBF8D1474804334946184402EB63
:10421000030904F097FA404608F0D2FE09F223227F
:104220008246224400232AFA03F10833202B02F8A5
:10423000011BF8D13B4B09F10409414603EB09008E
:10424000524604F07FFA0AEB090000F1040E21182F
:104250005FFA8EF8CEF3072C0022022308EB0C0A3B
:1042600081F8243281F8232281F8252281F8262240
:104270006FEA0A0AF9B2FF234FF0FE0947F3072756
:10428000BEF1FF3F84F820A284F81E8284F81FC28A
:1042900084F81C3284F81D9284F8211284F822726A
:1042A0000BDB00F22620204B284401E013F8011F0D
:1042B00083420A44FAD1D343DBB204EB0E010EF180
:1042C0000802B2F5007F81F8233200F38880686825
:1042D000104903685B688B4214D111460E4805F003
:1042E00063FD134B9E427FF442AF0123C4F8FCB43C
:1042F000C4F800B584F8F834FFF7E8BA1A46FFF7B7
:104300009BBB452204499847EBE745220249984761
:1043100028E700BFA90900001C98FF1F189AFF1F7B
:104320002998FF1F2398FF1F2198FF1F7C9AFF1FCA
:10433000E09AFF1FDFF848E14E4FBEE80F000FC7BD
:10434000BEE80F000FC7BEE80F000FC79EE80300CE
:1043500000234FF0030C4FF0380EFF2285F823C2E4
:1043600085F824E24FF0FE0C4FF03D0E85F8253223
:1043700085F8263285F8273287E80300C22085F8C1
:104380001C220722F91D85F81F3285F82232373F9B
:1043900085F81DC285F81EE285F8200285F82122E5
:1043A00001E017F8012FB9421344FAD1DB436068EA
:1043B00084F860320368304A5B689342A5D1452196
:1043C0002E4805F0F1FCCDE610222C4998470AE66C
:1043D00045222A499847FFF747BB089F02E5DFF8C7
:1043E000A0E0244FBEE80F000FC7BEE80F000FC7C4
:1043F000BEE80F000FC79EE8030000234FF0030C38
:104400004FF0380EFF2285F823C285F824E24FF0E2
:10441000FE0C4FF03D0E85F8253285F8263285F8E2
:10442000273287E80300C22085F81C220722F91DE5
:1044300085F81F3285F82232373F85F81DC285F88E
:104440001EE285F8200285F8212201E017F8012FED
:10445000B9421344FAD1DB43606884F860320368E0
:10446000054A5B6893427FF44CAF4521034805F051
:104470009BFC36E72898FF1FA90900001C98FF1F26
:10448000B80901002DE9F04784B0194D6846FEF7E0
:104490004FFC0199029A039BA9606846EA602B6170
:1044A000FEF796FC0199029A039BA961EA612B62CF
:1044B0006846FEF7E1FC0F4B0F4ADC68DDF804901C
:1044C0002168DDF80880D1F800A0039F9E68C5F838
:1044D00028909245C5F82C802F6340F00982632E06
:1044E0000CDD94F8F834002B00F0B38106E000BF37
:1044F000409BFF1F389CFF1FF92A0000A868C0F3EB
:10450000C7520346002A40F0A78192461146C3F3E2
:10451000C34211434FEA431E002284F82912D910E6
:10452000DB1284F8271284F8232284F8242284F8EA
:10453000252284F826E284F82832002107F06CFF57
:10454000002840F0B78184F82AA2E868C0F3C75277
:104550000346002A00F08A8102F56072110149B217
:10456000C2F3071AC3F3C34211434FEA431E0022AA
:1045700084F83112D910DB1284F82F1284F82B2220
:1045800084F82C2284F82D2284F82EE284F830322C
:10459000002107F041FF002840F0A58184F832A2F5
:1045A0002869C0F3C7520346002A00F0658102F56E
:1045B0006072110149B2C2F3071AC3F3C342114337
:1045C0004FEA431E002284F83912D910DB1284F816
:1045D000371284F8332284F8342284F8352284F8A0
:1045E00036E284F83832002107F016FF002840F048
:1045F000758184F83AA2A869C0F3C7520346002A1D
:1046000000F0378102F56072110149B2C2F3071A56
:10461000C3F3C34211434FEA431E002284F8411200
:10462000D910DB1284F83F1284F83B2284F83C2234
:1046300084F83D2284F83EE284F84032002107F0FD
:10464000EBFE002840F02C8184F842A2E869C0F318
:10465000C7520346002A00F01B8102F56072110167
:1046600049B2C2F3071AC3F3C34211434FEA431ED0
:10467000002284F84912D910DB1284F8471284F81A
:10468000432284F8442284F8452284F846E284F8E0
:104690004832002107F0C0FE002840F0FC8084F87A
:1046A0004AA2286AC0F3C7520346002A00F0ED80F0
:1046B00002F56072110149B2C2F30715C3F3C34298
:1046C00011434FEA431E002284F85112D910DB1225
:1046D00084F84F1284F84B2284F84C2284F84D223F
:1046E00084F84EE284F85032002107F095FE00284D
:1046F00040F0EF8084F85252C9F3C7524B46002A6B
:1047000000F0C08002F56072110149B2C2F30715D2
:10471000C3F3C34211434FEA431E002284F85912E7
:10472000D910DB1284F85712484684F8532284F8D3
:10473000542284F8552284F856E284F85832002135
:1047400007F06AFE002840F0BF8084F85A52C8F390
:10475000C7524346002A00F0928002F560721501AC
:104760006DB2C2F30719C3F3C3410D434FEA431EB1
:104770000021DA10DB1284F85B1284F85C1284F8F2
:104780005D12404684F8615284F85EE284F85F224C
:1047900084F86032002107F03FFE002840F0858059
:1047A00084F86292C7F3C7523B46002A5BD002F5F9
:1047B0006072110149B2C2F30715C3F3C34211433A
:1047C0004FEA431E002284F86912D910DB1284F8E4
:1047D0006712384684F8632284F8642284F86522DC
:1047E00084F866E284F86832002107F015FE00289C
:1047F00065D184F86A524820B723F1B2FF27FE251D
:10480000002246F3072684F81E0284F8203284F83A
:104810001C7284F81D5284F81F2284F8211284F837
:10482000226204F2212304F26A2001E013F8011F3E
:1048300098420A44FAD1D243656884F86B222B6807
:10484000324A5B68934204F5077058D1502105F055
:10485000ABFA04B0BDE8F08702F56072110149B20D
:10486000C2F3071A53E615461146A6E792461146CB
:1048700078E692461146CBE6924611469DE6914671
:10488000154670E71546114642E71546114615E7ED
:1048900092461146E7E66AF07F0284F84A2200E772
:1048A0006AF07F0284F84222D0E669F07F0284F841
:1048B000622277E76AF07F0284F82A2245E665F0F3
:1048C0007F0284F86A2296E765F07F0284F85A2214
:1048D0003DE765F07F0284F852220DE76AF07F021F
:1048E00084F83A2287E66AF07F0284F8322257E69B
:1048F0002A4631462046D04704B0BDE8F08701463D
:1049000050222846984704B0BDE8F087A909000066
:1049100038B51849054607F07FFD20BB0446164907
:10492000284607F097FDB8B91349284607F0CEFA94
:10493000124907F0D3FB124907F084FC114907F034
:10494000C5FA114907F0CAFB07F08EFD01460F4872
:1049500003F004FD284638BD074D0C48214603F0FE
:10496000FDFC284638BD034D0848B42103F0F6FC91
:10497000284638BDE17AD4BEE17AD43EDB0F49C087
:10498000E17A543FDB0F4940E02E6542DC94FF1F83
:104990002DE9F04FBE49BF4BBF4A0968BF4D1B68A8
:1049A000126895B010A80091BD4903F091FB2B7FD0
:1049B000109A0392012B119A069240F2F98172B675
:1049C000D5F818A062B6B74B68681B680C93DDF881
:1049D00030B0B54CC0EB0B0006F0EAFEAAA3D3E959
:1049E000002307F085F80646A868C0EB0A000F46CA
:1049F00006F0EEFEC5F804B08046C5F808A02868A9
:104A0000894606F0E5FE02460B464046494607F059
:104A10006FF83B46324607F06BF807F0D9F9237F71
:104A2000012B834640F28B8172B6D4F8188062B6AF
:104A30009C4B60681B680B93DDF82C909B4DC0EB82
:104A4000090006F0B5FE90A3D3E9002307F050F863
:104A5000CDE90401A068C0EB080006F0B9FEC4F877
:104A600008800646C4F8049020680F4606F0B0FEA1
:104A700002460B463046394607F03AF8DDE9042392
:104A800007F036F807F0A4F92B7F012B804640F29F
:104A9000C98172B6D5F8189062B6824B68681B68F7
:104AA0000A93DDF828A0824CC0EB0A0006F080FED5
:104AB00075A3D3E9002307F01BF8CDE90401A8682A
:104AC000C0EB090006F084FEC5F804A00646C5F850
:104AD000089028680F4606F07BFE02460B463046DB
:104AE000394607F005F8DDE9042307F001F807F07F
:104AF0006FF9237F0790012B40F2CC8172B6A56934
:104B000062B6684B60681B680993DDF824A0DFF883
:104B10009091C0EB0A0006F04BFE5BA3D3E90023A3
:104B200006F0E6FFCDE90401A068281A06F050FE61
:104B3000A5600646C4F804A020680F4606F048FEAB
:104B400002460B463046394606F0D2FFDDE9042323
:104B500006F0CEFF07F03CF90446584607F06AFA23
:104B6000039E0546304607F065FA2A46014651483D
:104B700003F056FD07F02CF901464F4803F0F8FC0E
:104B8000404607F057FA069F0546384607F052FAA6
:104B90002A46014649484A4D03F042FD07F018F9FC
:104BA0000146484803F0E4FC99F80030464847497C
:104BB000474AC0F800B0023BCBEB0606C8EB070043
:104BC000012B2E600860C2F8008040F2AB80079B8A
:104BD0000093019443465A4649460DA803F0D8FA7B
:104BE0003C493D4FC8683D4D03680D9C1E680E9AB8
:104BF0000F9B89686C60BE42AA60EB6040F08680C3
:104C0000632903DD90F8F854002D7CD0260A250C8A
:104C10004FEA146E170A80F8234280F827221C0CF2
:104C200080F8246280F82552160C1D0A120E80F8B6
:104C30002B3280F826E21B0E80F828724FF0FF0E10
:104C400080F82962FE2780F82A220C2680F82C5250
:104C5000002280F82D42F325CCB241F3072180F8E1
:104C60002E3280F8221280F81CE280F81D7280F843
:104C70001E6280F81F2280F8205280F8214200F244
:104C8000212300F22E212DE000000000004CED4019
:104C9000349BFF1F349CFF1F309CFF1F5C95FF1F40
:104CA0007C94FF1F189DFF1FE095FF1F9894FF1F26
:104CB000C095FF1F889BFF1FEC94FF1FD89BFF1F11
:104CC0003C9BFF1F4495FF1F5895FF1F3095FF1F0A
:104CD000389BFF1F1C9CFF1FF92A00004C9CFF1FE4
:104CE00013F8014F99422244FAD1D243446880F824
:104CF0002F222368BD4A5B68934200F507700AD1F2
:104D0000142105F051F815B0BDE8F08F2A46B047E0
:104D100015B0BDE8F08F014614222046984715B023
:104D2000BDE8F08FB24B1868FFF7F2FDCDF80080B8
:104D300002465B4649460DA803F0EEF950E772B60D
:104D4000E36821691A780878617D237D084202EAC8
:104D5000030200F0F080A37D03F003030AB143F0E7
:104D6000040343F008039A10013BA2750D2B3FF694
:104D70005CAE01A252F823F0F54F0000E14F0000B5
:104D8000D54F0000E14F00002B4A0000C94F000042
:104D9000F54F0000F54F0000C94F00002B4A0000FE
:104DA000E14F0000D54F0000E14F0000F54F00003B
:104DB00072B6EB6829691A780878697D2B7D0842FC
:104DC00002EA030200F0AE80AB7D03F003030AB1F8
:104DD00043F0040343F008039A10013BAA750D2B1E
:104DE0003FF6EEAD01A252F823F000BFBD4F000028
:104DF000B14F0000A54F0000B14F0000C1490000B5
:104E0000994F0000BD4F0000BD4F0000994F0000BA
:104E1000C1490000B14F0000A54F0000B14F000094
:104E2000BD4F000072B6EB6829691A780878697D71
:104E30002B7D084202EA030264D0AB7D03F003033A
:104E40000AB143F0040343F008039A10013BAA752A
:104E50000D2B3FF61FAE01A252F823F08D4F00003C
:104E6000814F0000754F0000814F0000954A0000FF
:104E7000694F00008D4F00008D4F0000694F00000A
:104E8000954A0000814F0000754F0000814F0000DF
:104E90008D4F000072B6E268236910781978637D3F
:104EA000227D194202EA000234D0A37D03F00303FD
:104EB000002A40F0A58043F008039A10013BA27538
:104EC0000D2B3FF61CAE01A252F823F0614F0000FB
:104ED000594F0000514F0000594F0000FF4A000099
:104EE000494F0000614F0000614F0000494F000032
:104EF000FF4A0000594F0000514F0000594F000079
:104F0000614F0000AB7D03F00303002A9DD043F006
:104F100004039AE7A37D03F00303002ACDD043F0F6
:104F20000403CAE7AB7D03F00303002A3FF454AF48
:104F300043F0040350E7A37D03F00303002A3FF48A
:104F400012AF43F004030EE7A569023DA561D7E562
:104F5000A5690235A561D3E5A569013DA561CFE548
:104F6000A5690135A561CBE5AB69A3F10209C5F8D7
:104F7000189091E5AB6903F10209C5F818908BE52B
:104F8000AB6903F1FF39C5F8189085E5AB6903F10A
:104F90000109C5F818907FE5AB69A3F1020AC5F8CD
:104FA00018A00FE5AB6903F1020AC5F818A009E5DE
:104FB000AB6903F1FF3AC5F818A003E5AB6903F14B
:104FC000010AC5F818A0FDE4A369A3F10208C4F81A
:104FD00018802CE5A36903F10208C4F8188026E5BF
:104FE000A36903F1FF38C4F8188020E5A90900007F
:104FF000349BFF1FA36903F10108C4F8188016E56C
:1050000043F0040357E700BF2DE9F047BB4B1A7F7D
:10501000012A8EB040F23A8172B69A6962B6B849F6
:105020000B7F012B40F2808172B68B6962B6B54D61
:10503000B54901A807F088FF012385F8233201A8AC
:1050400007F0BEFF0446230E000A260C01A92246E3
:1050500085F8250285F8266285F82732661D85F8D1
:10506000244205F50A7003F06DFBF1B2C6F3072088
:105070000A18FE23D24385F81D3285F81E12FF233D
:10508000072185F8202285F81F020022701C85F870
:105090001C3285F8211285F82222C0F29D8204F28A
:1050A0002720284405F2212301E013F8011F98422C
:1050B0000A44FAD1D243D2B2AB1906F10801B1F5D4
:1050C000007F83F823228F4E00F3958170688F4F05
:1050D00003685B68BB4206F5077640F0C98030463E
:1050E00004F062FE8A4B8B4A8B4912681B68854C20
:1050F00001A807F029FF012385F8233201A807F052
:105100005FFF4FEA104E030E8046010A024685F803
:10511000251285F826E201A985F8273204F50A70E0
:1051200085F8248203F00EFB08F1050E5FFA8EF17C
:10513000CEF307200A18D243FF2385F81E124FF042
:10514000FE0C85F8202207210022BEF1FF3F85F8E2
:105150001F0285F81C3285F81DC285F8211285F8DA
:105160002222C0F2378208F22720204404F22123B1
:1051700001E013F8011F98420A44FAD1D243D2B297
:1051800005EB0E030EF10801B1F5007F83F8232231
:105190005C4C00F3C681606803685B68BB4271D1F8
:1051A000304604F001FE5D4B5D4A5E4912681B68A3
:1051B000544C01A807F0C8FE012385F8233201A84A
:1051C00007F0FEFE80464FEA184E4FEA1863000AC9
:1051D00001A9424685F8250285F826E285F827329E
:1051E00085F8248204F50A7003F0ACFA08F1050E84
:1051F0005FFA8EF1CEF307200A18D243FF2385F819
:105200001E124FF0FE0C85F8202207210022BEF16D
:10521000FF3F85F81F0285F81C3285F81DC285F80E
:10522000211285F82222C0F2D98108F227202044D9
:1052300004F2212301E013F8011F83420A44FAD14A
:10524000D243D2B205EB0E030EF10801B1F5007F97
:1052500083F823222B4C00F31481606803685B6899
:10526000BB4209D1304604F09FFD0EB0BDE8F08787
:105270000A463146984735E70A46314698470EB008
:10528000BDE8F0870A46314698478CE772B6DA687F
:10529000186911780478587D1A7D044201EA0201E8
:1052A00078D09A7D02F0030209B142F0040242F084
:1052B00008029110013A99750D2A3FF6AEAE01A190
:1052C00051F822F0CF530000C7530000BF53000035
:1052D000C75300001B500000B7530000CF5300001D
:1052E000CF530000B75300001B500000C75300000D
:1052F000BF530000C7530000CF5300005C95FF1F51
:10530000E095FF1F0096FF1F180A0100A909000081
:105310003095FF1F3C9BFF1F2C0A0100389BFF1F8D
:105320005895FF1F400A010072B6CB680C691878C7
:1053300025784C7D0B7D254200EA030032D18B7D20
:1053400003F00303002840F04B819810013B88755F
:105350000D2B3FF66AAE01A050F823F0EF5300008A
:10536000E7530000DF530000E75300002B5000001C
:10537000D7530000EF530000EF530000D753000055
:105380002B500000E7530000DF530000E7530000FC
:10539000EF5300009A7D02F00302002989D042F009
:1053A000040286E78B7D03F0030308B143F0040396
:1053B00043F00803C9E79A69023A9A612EE69A69AE
:1053C00002329A612AE69A69013A9A6126E69A6956
:1053D00001329A6122E68B69023B8B6126E68B697A
:1053E00002338B6122E68B69013B8B611EE68B6980
:1053F00001338B611AE67C4F0FCF06F50A740FC498
:105400000FCF0FC40FCF0FC497E80300002203276C
:10541000382386F8237286F824324FF0FF084FF0C5
:10542000FE0C4FF03D0E86F8252286F8262286F8DF
:105430002722C22784E80300072186F81F2286F866
:105440002222A4F13703E01D86F81C8286F81DC2D3
:1054500086F81EE286F8207286F8211201E013F821
:10546000011F98420A44FAD1D243686885F8602245
:1054700003685E4F5B685E4EBB4240F09F804521F3
:105480002DE6DFF864C1BCE80F0004F50A7EAEE843
:105490000F00BCE80F00AEE80F00BCE80F00AEE85C
:1054A0000F009CE8030000224FF0030C382384F81F
:1054B00023C284F824324FF0FF094FF0FE084FF06A
:1054C0003D0C84F8252284F8262284F827224FF008
:1054D000C20A8EE80300072184F81F2284F82222E2
:1054E000AEF137030EF1070084F81C9284F81D8298
:1054F00084F81EC284F820A284F8211201E013F877
:10550000011F83420A44FAD1D243686885F86022B9
:1055100003685B68BB4255D13046452104F044FC2A
:10552000A3E6DFF8C4C0BCE80F0004F50A7EAEE8CD
:105530000F00BCE80F00AEE80F00BCE80F00AEE8BB
:105540000F009CE8030000224FF0030C382384F87E
:1055500023C284F824324FF0FF094FF0FE084FF0C9
:105560003D0C84F8252284F8262284F827224FF067
:10557000C20A8EE80300072184F81F2284F8222241
:10558000AEF137030EF1070084F81C9284F81D82F7
:1055900084F81EC284F820A284F8211201E013F8D6
:1055A000011F98420A44FAD1D243686885F8602204
:1055B00003685B68BB4209D14521F1E531464522CC
:1055C00098478FE53146452298474EE645223146B9
:1055D0009847E8E51A46D3E51A466DE51A4631E6DE
:1055E00043F00403B1E600BFB8090100A9090000B7
:1055F0001C98FF1F2DE9F04FC24EC34C3368226840
:10560000A1B00493049B9B1A312B00F2B78233683C
:10561000BE4A0693069B12689B1AB3F5C87F06D351
:10562000BB48BC49BC4A002303600B60136033686D
:10563000BA4F0793079B3A689B1A312B00F2A3815C
:10564000B74C3368B74D0993099B2A68AD4F9B1A35
:10565000B3F57A7F05D3FFF7D7FC3B680A930A9B23
:105660002B6033680B930B9FD4F80035AC49FB1AC1
:1056700042F6F822934284BF002381F8F834D4F82C
:10568000E434A74A33B1D2F804359F4284BF0023E3
:10569000C2F8E434DFF89C82A14DA2692AB13368D4
:1056A0000F930F9BDB1B9A4221D3606803685B69F1
:1056B00043456AD104F012FB002869DBD4F8F434C6
:1056C000D4F8E424DFF858E20344072AC4F8F43499
:1056D00049D07AB9FF2800F0AC8033680E930E9B56
:1056E00041F28831DB1B8B42D7D98EF8F82421B0E8
:1056F000BDE8F08F012A00F0A480022A00F0EC80BF
:10570000032A00F0F480042A00F01681052A00F034
:105710002381062A00F02881082ABED1824A1A4035
:1057200000239A42C4F8E434C0F28B82FF2AB4D139
:10573000D4F8EC34DFF8E8A1002B00F037840A2B12
:1057400000F0A882062B00F028830B2B00F08A8241
:10575000BC3355F8230000289FD003680AF11C01D0
:105760001B68984799E7D5F8F024D5F8E834A918CC
:10577000013B01320877C5F8F024C5F8E834002B66
:105780008BD10823C4F8E43487E79847002895DADA
:1057900094F8F8346248002BA9D0D0F8FC3440F6D5
:1057A000C412FB1A9342A2D9FF23FE21002280F8E3
:1057B0001C3280F81D12F72308250A2180F82032B8
:1057C00080F8232280F8242280F8252280F82622DF
:1057D00080F8272280F8282280F8292280F82A22BF
:1057E00080F81F2280F8222280F81E5280F82112B1
:1057F00000F2212300F22A2001E013F8011F834266
:105800000A44FAD1D243606884F82B220368474ADD
:105810005B68934240F01A821021454804F0C4FAB4
:1058200033681393139BC4F8FC74E36021B0BDE8A4
:10583000F08F012207F11403C5F8E424C5F80435FC
:105840002BE7FE2800F0848095F8F8240023C5F8A3
:10585000E434002A7FF421AFFF23FE21082085F8DD
:105860001C3285F81D12F7230A2185F8203285F8AD
:1058700023220EF2212385F8242285F8252285F89B
:10588000262285F8272285F8282285F8292285F8FE
:105890002A2285F81F2285F8222285F81E0285F823
:1058A00021120EF22A2E01E013F8011F73450A445B
:1058B000FAD1D243606884F82B2203681B4A5B68E4
:1058C000934240F062811021194804F06DFA336868
:1058D0000D930D9BE360E0E600220323C5F8E80486
:1058E000C5F8F404C5F8F024C5F8E434D5E6D5F8D5
:1058F000E83403EB00200423C5F8E804C5F8E434D9
:10590000CBE600BF189DFF1FE894FF1FE494FF1F24
:10591000309CFF1F349CFF1F349BFF1FB89BFF1F51
:105920000096FF1FCC9BFF1FFF000080A90900000D
:105930001C98FF1F91070000CC4A1A40002AC0F2B1
:105940002F81FF2A0CBF05230023C4F8E434A4E60A
:105950000223C5F8E434A0E60623C5F8EC04C5F834
:10596000F404C5F8E43498E6D5F8EC34D5F8E82426
:1059700003EB00230721C5F8EC34C5F8E414002A32
:105980003FF4FFAE89E6BA4BBA4C0FCB04F50A756B
:1059900007C50D22FF212B701220ED234FF0010CC3
:1059A0004FF0FE0E04F2212584F8242284F81C1204
:1059B0000022072184F81E0284F8203284F823C2D2
:1059C00084F81DE22B4684F8252284F8262284F8E8
:1059D000272284F81F2284F8222284F8211204F559
:1059E0000D7001E013F8011F83420A44FAD1D2433B
:1059F000606884F835220368DFF888925B68DFF816
:105A000080824B4540F0E4841A21404604F0CCF9F2
:105A1000FDF75CF99849DFF85CA2024613A807F08D
:105A200093FA012384F8233213A807F0C9FA8346B6
:105A30004FEA1B4E4FEA1B63000A13A95A4684F82B
:105A4000250284F826E284F8273284F824B20AF585
:105A50000A7002F077FE0BF1050E5FFA8EF1CEF3BD
:105A6000072C01EB0C02D243FF2384F81E12FE2008
:105A700084F8202207210022BEF1FF3F84F81FC2D4
:105A800084F81C3284F81D0284F8211284F8222242
:105A9000C0F286820BF2272050440AF2212301E053
:105AA00013F8011F83420A44FAD1D243D2B204EB65
:105AB0000E030EF10801B1F5007F83F82322DFF811
:105AC000B4C100F31C81DCF8040003685B684B453B
:105AD00040F08384404604F067F9DFF8ACB19BF8EE
