:0200000460009A
:100000004643464200000156000000000103030081
:1000100000000000000000000000000000000000E0
:1000200000000000000000000000000000000000D0
:1000300000000000000000000000000000000000C0
:1000400000000000010408000000000000000000A3
:100050000000800000000000000000000000000020
:100060000000000000000000000000000000000090
:100070000000000000000000000000000000000080
:10008000EB04180A063204260000000000000000FD
:10009000050404240000000000000000000000002F
:1000A0000000000000000000000000000000000050
:1000B0000604000000000000000000000000000036
:1000C0000000000000000000000000000000000030
:1000D00020041808000000000000000000000000DC
:1000E0000000000000000000000000000000000010
:1000F0000000000000000000000000000000000000
:10010000D8041808000000000000000000000000F3
:100110000204180804200000000000000000000095
:1001200000000000000000000000000000000000CF
:10013000600400000000000000000000000000005B
:1001400000000000000000000000000000000000AF
:10015000000000000000000000000000000000009F
:10016000000000000000000000000000000000008F
:10017000000000000000000000000000000000007F
:10018000000000000000000000000000000000006F
:10019000000000000000000000000000000000005F
:1001A000000000000000000000000000000000004F
:1001B000000000000000000000000000000000003F
:1001C000000100000010000001000000000000001D
:1001D000000001000000000000000000000000001E
:1001E000000000000000000000000000000000000F
:1001F00000000000000000000000000000000000FF
:10020000FFFFFFFFFFFFFFFFFFFFFFFFFFFFFFFFFE
:10021000FFFFFFFFFFFFFFFFFFFFFFFFFFFFFFFFEE
:10100000D100204325160060000000000000000011
:1010100020100060001000600074016000000000FB
:10102000000000600080010000000000FFFFFFFFE3
:10103000FFFFFFFFFFFFFFFFFFFFFFFFFFFFFFFFC0
:10104000FFFFFFFFFFFFFFFFFFFFFFFFFFFFFFFFB0
:10105000FFFFFFFFFFFFFFFFFFFFFFFFFFFFFFFFA0
:10106000FFFFFFFFFFFFFFFFFFFFFFFFFFFFFFFF90
:10140000884207D0904205D251F8043B40F8043B93
:101410008242F9D8704700BF884204D2002340F8C6
:10142000043B8142FBD870472DE9884800F0D0F991
:101430000824614B614AC3F8544161496148FFF790
:10144000DFFF614A61496248FFF7DAFF614962489C
:10145000FFF7E2FF614C4FF0E0214FF470000023F2
:101460005F4AC1F8880D44F823200133B02BFAD12C
:101470005C4B80215C4A03F8011B9342FBD14FF087
:10148000E0254D4E4FF08039DFF88CB1DFF88CA1AC
:101490004FF0FF31C5F8084D0027C6F80491C6F893
:1014A00000B1C6F8F490C6F8F0A0D5F8243DDFF8F6
:1014B000708143F4E0234D4AC5F8243DD8F81C3030
:1014C00023F07F0343F04003C8F81C30D8F82430E1
:1014D00023F07F0343F04003C8F824309166D166BF
:1014E0001167516700F07CF9414B4249A363424BBD
:1014F000E36363236B610323AF612B613F4BC5F84B
:10150000203DD5F8FC3D43F08073C5F8FC3D3C4BD5
:101510001A6842F001021A605B680B6000F09EFBE3
:10152000C6F804913748C6F800B1C6F8F490C6F87A
:10153000F0A000F045FDD8F86C10334B334A41F46D
:101540004051C8F86C101F60C3F80871C3F81871D7
:10155000C3F82871C3F83871936BDB0708D442F6DF
:1015600015632B4951651365936B43F00103936336
:10157000264A284C936843F00113936000F0ACF9BD
:1015800000F0D0FC00F008FD00F096FB00F022F91E
:101590002368132BFCD900F027FC2368B3F5967F52
:1015A000FBD300F01BF900F017F900F0F1FC00F09C
:1015B00003FD30BFFDE700BF00800D40082901009A
:1015C000D821006000000000C0260020E44A01602D
:1015D00000000020003E0020C02600200024002043
:1015E000C96E000000E400E0A0E400E000C00A4092
:1015F00079830000383D00207D830000000020201A
:10160000001000E00046C3230040084000400D40A9
:101610000000C0563C3D00201B1018200C0D11137B
:1016200000C00F40074B4FF42A01074A07485A648D
:101630001864074A99639546BFF34F8FBFF36F8FC6
:10164000FFF7F2FE00C00A40BFAAAAAA07002000C6
:101650000080062043690A4A03EB011010B4037AA4
:10166000084C02EB0313D3E901321460C2681A601C
:1016700003690BB142691A605DF8044B704700BF03
:10168000E410002061F801004369027E03EB0212BE
:1016900092F808C08C451CD01A7AFF2A19D09142C2
:1016A00010B5044616D01A7EFF2A06D00121D3E9D0
:1016B000002312681A4201D1217610BD064B052283
:1016C000204603EB0C135B681A60FFF7C3FF21761B
:1016D000F3E770470021EAE7E410002043690A4A73
:1016E00003EB011010B490F82830084C02EB031300
:1016F000D3E901321460C26A1A60036B0BB1426B0A
:101700001A605DF8044B7047E410002061F8010096
:101710004369427E03EB021292F828C08C451ED02A
:1017200093F82820FF2A1AD0914210B5044617D00A
:1017300093F83820FF2A06D00121D3E9002312684C
:101740001A4201D1617610BD064B0522204603EBFB
:101750000C135B681A60FFF7C1FF6176F3E770470F
:101760000021EAE7E4100020164942698B6B23F45C
:101770007C0343F4802370B58B630446124DD2E999
:1017800000130A681A4303690A60022200211A61E1
:101790000E4A19619A6401225A629D624FF43035F3
:1017A000DD624FF001159E6C1E6519629D651A6120
:1017B000017EFFF74FFF617E2046BDE87040FFF7D6
:1017C0008DBF00BF00C00F40B80B05053B3728197F
:1017D000704700BF704700BF704700BF00BF704731
:1017E00010B44FF0E023002110242B48C3F8941DBF
:1017F000C3F89C4D1124C3F8A00D2848C3F89C4D94
:101800001224C3F8A00D2648C3F89C4D254AC3F8FE
:10181000A00D254C42F015022448C3F89C4DC3F896
:10182000A00D234C2348C3F89C4DC3F8A00D224CB7
:10183000C3F89C2D2148224AC3F8A04DC3F89C0D43
:10184000C3F8A02D02F5A0221E4C0C321E48C3F88E
:101850009C4DC3F8A02D1D4AC3F89C0D1C4CC3F829
:10186000A02D01221B48C3F89C4DC3F8A00DC3F85E
:10187000942DBFF34F8FBFF36F8FC3F8501FBFF38B
:101880004F8FBFF36F8FD3F8142D5DF8044B42F4E4
:101890004032C3F8142D70473F00001025000803A4
:1018A00009001000003E0020130020002100020764
:1018B0001400002025000813090000101600202045
:1018C00027000B1317000040180000602F000B07C3
:1018D000190000702F000B13F0B5B84B1822B84E4A
:1018E0000120B84F83B0C3F85C62B749C3F8607297
:1018F000B64DC3F86462A6F53046B54CC3F86862CD
:10190000C3F86C52C3F87052C3F87452C3F87852DB
:1019100048F20C75DA661A675A679A67DA67C3F88D
:101920008020C3F88420C3F88820C1F82C03A94A7A
:10193000C1F83003C1F83403C1F83803C1F83C03DF
:10194000C1F85003A169A44B0A40A448A449134319
:10195000A44AA361D4F8843043F00C03C4F8843063
:101960004FF0FF34036843F00203036003682B4029
:101970004FF400551A439C4B026044608A689B4CAC
:1019800013409B4A43F000538360C36823F07803FD
:10199000C360036A134023430362036A1340954AFA
:1019A0002343954C43628262C2620022D1F8B83070
:1019B00023F03F0343F00103C0F8B830D1F8BC3046
:1019C0008E4923F03F0343F00103C0F8BC3040F2DE
:1019D0000563026105660467C0F8803045664467A8
:1019E0000224C0F88430036823F00203036081619D
:1019F000834B8449C46143F8042B8B42FBD1774A63
:101A0000136843F001031360136813F00103FBD163
:101A10007A48022140F2F564906140F29940D16128
:101A200040F26641C2F8004242F20144C2F810128C
:101A30007549C2F82002C2F8301240F235417348AD
:101A4000C2F83442C2F84012714CC2F8500242F25D
:101A500001207049C2F854120121C2F86042C2F854
:101A600064025E48C2F8A030C2F8A430C2F8B010D8
:101A70004369DA07FCD5012300244FF4803257492B
:101A80004361C0F8A040C0F8A420C0F8B0304B6952
:101A9000DB07FCD5012300244FF400304F4A4B6193
:101AA000C1F8A040C1F8A400C1F8B0305369DF0705
:101AB000FCD501230024584848495361C2F8A0408E
:101AC000C2F8A400C2F8B0304B69DE07FCD5D1F8EB
:101AD000003145F60D5221209BB24861934265D1F9
:101AE00000244FF4802201233C48C1F8A040C1F8F3
:101AF000A420C1F8B0304369DD07FCD501234FF4C1
:101B000000040021354A4361C0F8A040C0F8A41089
:101B1000C0F8B0305369DC07FCD501234FF4000452
:101B20004FF480302D495361C2F8A040C2F8A400A0
:101B3000C2F8B0304B69D807FCD501234FF400043C
:101B40004FF40030254A4B61C1F8A040C1F8A40011
:101B5000C1F8B0305369D907FCD501234FF4000414
:101B60002D481E495361C2F8A040C2F8A400C2F833
:101B7000B0304B69DA07FCD5D1F8003145F60D528B
:101B800021209BB24861934250D008254FF40004B5
:101B900022490020224B234A009015705A1A012333
:101BA0002148224400F004FA03B0F0BD1E4B00228D
:101BB000C3E90022C3E9022203B0F0BD00801F4048
:101BC000F9B00100F910010000841F40F970010014
:101BD00000C00F40FFFCFF1F000300A000402A4090
:101BE00000802A401200FFFFFF37F700400000800E
:101BF00000FFF07CFF000F8363000200F05AF05AF0
:101C000000422A4000432A409F041830EB06180A7D
:101C10003806180A0632012604000300000000708E
:101C200000000070CF3D0020B03500204FF40004CC
:101C30004FF4802201230848C1F8A040C1F8A42035
:101C4000C1F8B0304369DB07FCD5012310254FF004
:101C5000807443619CE700BF00402A40F0B4154AFD
:101C600040274FF480314FF480564FF400554FF425
:101C7000404443F24200136913F0020F0ED113F4F3
:101C8000005F0FD013F4805F0ED0002BF3DA13F453
:101C9000803F0BD15B060BD5F0BC7047946151615E
:101CA0009061E8E75561E6E75661E4E79161E2E7B4
:101CB0005761E0E700800D403F4A03203F49F3EEC3
:101CC000095AD2F880304FF0000C9FED3D6A23F0A6
:101CD00001039FED3C5A30B4C2F88030C2F8900046
:101CE000D1F8E010384DCBB2384C39482B6007EEB4
:101CF000903A0B0DC1F30B21F8EEE77A06EE903A1D
:101D000007EE101A334BB8EEC77A2160F8EEE66A98
:101D1000314937EEC66A37EEC55A76EEC76A77EEB6
:101D2000E57A26EE266AC3ED006A25EE265AD2F839
:101D3000803067EEA64AC0ED007AC6EE275A2748E3
:101D400085EE276AC4EEA76A75EE875AFCEEE55A5F
:101D500036EE076A15EE904ABCEEC66A43EA0453B3
:101D600076EE877AC2F8803016EE103AD2F89041BB
:101D7000FCEEE77A01EA0341214317EE903AC2F8FC
:101D80009011C3F30B03D2F890110B431449C2F81E
:101D90009031D2F8803043F00203C2F88030114B0A
:101DA00080F840C0C1F840314FF0E023012230BC40
:101DB000C3F80821704700BF00810D4000441F4058
:101DC0000000AA420000B4420C3D0020083D002063
:101DD000103D0020143D00200000FF0F00E400E053
:101DE00000240020A5700000314B40F6617210B550
:101DF000C3F8202140F2044400F0D2F82D4A2E49C5
:101E0000D2F880302D4843F00303C2F880302C4BC9
:101E1000C1F8604102681A4203D1D1F8A8319A078B
:101E20001BD0254A4FF00041244B5963D2F8403172
:101E300043F00203C2F84031D2F840319B07FBD493
:101E40004FF400304FF0E0211C4B4FF00042C1F83E
:101E50008C0219209A6300F097F8184A4FF08040DE
:101E6000154C002190630A20164B11604FF420722C
:101E7000C4F8A801184600F097F84FF48002034612
:101E80004FF4810040F243111860C4F858311A64CD
:101E90000D4B0E4AC4F84811C3F804224FF0E0225B
:101EA0004FF400310123C2F80C11C4F8403110BDC9
:101EB00000800D4000C00F4000002E4000900D40FB
:101EC000001C1E0000000020002400208D72000075
:101ED00008B50E4B1B6E9B0700D4FBBE72B60C4BB5
:101EE00000200C4AC3F8400103F160430A49A3F5FE
:101EF0005F2311649D46BFF34F8F4FF400130748D3
:101F0000074ADB6902609B68984700BF00441F4096
:101F100000002E4000C00A40030020000080202066
:101F2000000012EB104BA020104AD96E41F4403152
:101F300010B4D96640F23764D96E41F44071D96665
:101F400054649064936C1B06FCD4094A40F23761D8
:101F5000A02351649364936C13F08003FBD1054A72
:101F600013705DF8044B704700C00F4000400C40F8
:101F700000800C40CE3D0020F8B500BFF8BC08BC86
:101F80009E467047000000005FF800F0C96700003F
:101F90005FF800F039B600005FF800F0D56D000082
:101FA0005FF800F0FD7900005FF800F0ADA90000D7
:101FB0005FF800F0118400005FF800F0316A000063
:101FC0005FF800F0D964000045010000B94E000040
:0C1FD0007D57000085860000AD8B0000EE
:101FDC0070C00F40C0000000120000001300000091
:101FEC00D0841F4001000000FF000000FF00000033
:101FFC0000000000000000001300000013000000AF
:10200C00CC841F4001000000FF000000FF00000016
:10201C0000000000000000001C00000059570000E8
:10202C0070C00F40000C00001100000011000000F7
:10203C00E0841F40020000002C0000001200000091
:10204C00E0841F400100000010000000110000009F
:10205C00DC841F40020000002D0000001200000074
:10206C00DC841F40010000001E00000065570000CA
:10207C0080C00F4000000003190000001000000099
:10208C00E8841F4001000000FF000000FF0000007A
:10209C00000000000000000018000000100000000C
:1020AC00E4841F4001000000FF000000FF0000005E
:1020BC0000000000000000001F000000715700002D
:1020CC0016035500530042002000530065007200B7
:1020DC00690061006C000000180354006500650085
:1020EC006E00730079006400750069006E006F006B
:1020FC000403090409026200030100C032080B004A
:10210C000202020100090400000102020100052480
:10211C000010010524010101042402060524060017
:10212C00010705820310001009040100020A0000D7
:10213C000007050302400000070584024000000967
:10214C0004020002FF6AFF0007058102400001073C
:10215C00050102400001000009026200030100C0F9
:10216C0032080B0002020201000904000001020205
:10217C0001000524001001052401010104240206BC
:10218C00052406000107058203100005090401005F
:10219C00020A000000070503020002000705840282
:1021AC000002000904020002FF6AC7000705810251
:1021BC000002010705010200020100000A060002EC
:0C21CC00EF0201400100000000000000D4
:1021D80000000000000000000000000000000000F7
:1021E80000000000000000000000000000000000E7
:1021F800F8B54FF084439D695A6915400DD0244FB6
:1022080001269D6195FAA5F4B4FA84F457F82430B0
:1022180006FA04F49847A543F4D11E4B9D695A6900
:1022280015400DD01C4F01269D6195FAA5F4B4FA0E
:1022380084F457F8243006FA04F49847A543F4D1F7
:10224800164B9D695A6915400DD0154F01269D61A1
:1022580095FAA5F4B4FA84F457F8243006FA04F48D
:102268009847A543F4D10F4B9D695A6915400DD085
:102278000D4F01269D6195FAA5F4B4FA84F457F838
:10228800243006FA04F49847A543F4D1F8BD00BFFA
:10229800681F002000400042E81F00200080004224
:1022A8006820002000C00042E82000200348044BBA
:1022B800834202D0034B03B118477047C026002061
:1022C800C0260020000000000548064B1B1AD90F45
:1022D80001EBA301491002D0034B03B11847704723
:1022E800C0260020C02600200000000010B5064CC3
:1022F800237843B9FFF7DAFF044B13B10448AFF36F
:1023080000800123237010BD682900200000000010
:102318000080016008B5044B1BB104490448AFF3C1
:102328000080BDE80840CFE7000000006C290020CD
:1023380000800160034608205A680A705A68C24043
:102348004A70DA888A70DA79CA709A680A719A6863
:10235800C2404A715A898A71DB7ACB71704700BFD3
:102368000A7803464260487842EA00225A60887830
:1023780042EA00425A60C87842EA00625A600A7922
:102388009A60487942EA00229A60887942EA0042D3
:1023980008209A60C97942EA01629A60704700BFD2
:1023A80000487047980E002000487047740E0020BF
:1023B80000487047600C0020004870473C0C002023
:1023C80000487047280C002000487047040C002083
:1023D800004870477C0C002000487047E00B002044
:1023E80043680B704FEA132C1A0C1B0E81F801C0BE
:1023F8008A70CB7083684FEA132C0B711A0C1B0E72
:1024080081F805C08A71CB71C3680C204FEA132C80
:102418000B721A0C1B0E81F809C08A72CB727047B6
:1024280003460A680C205A604A689A608A68DA602B
:10243800704700BF00487047CC0E00200048704726
:10244800A80E002000487047C80B002000487047BD
:10245800A40B002000487047900B002000487047EC
:102468006C0B002043680B704FEA132C1A0C1B0EE0
:1024780081F801C08A70CB7083684FEA132C0B7106
:102488001A0C1B0E81F805C08A71CB71C3680C2029
:102498004FEA132C0B721A0C1B0E81F809C08A72B2
:1024A800CB72704703460A680C205A604A689A60E3
:1024B8008A68DA60704700BF004870473C0F002008
:1024C80000487047180F002000487047080F002088
:1024D80000487047E40E0020034601201B790B706A
:1024E800704700BF03460A7801201A71704700BF81
:1024F80000487047640E002000487047400E0020D6
:1025080010B4D0F808C0094C094BC4F800C0094AF7
:10251800D0F80CC00849C3F800C01268006A074B1D
:102528005DF8044B08601A60704700BFC83500208A
:10253800CC3500203C3D0020C4350020C0350020AB
:1025480090F8F804704700BF0346097842690C30D8
:10255800197410478069704700487047640E00205E
:1025680000487047400E0020006A704700487047D6
:102578003C0F002000487047180F0020406B704740
:1025880000487047900B0020004870476C0B0020F3
:1025980007F04EBE43682DE9F0470B7004464368C8
:1025A8000E461B0A4B70C3888B70C379CB70436887
:1025B800002B00F086800B46C6F1080E0021E26869
:1025C8000EEB0300043352F8212001314FEA122C9C
:1025D8001A70170C150E83F801C09F70DD706268C1
:1025E8008A42ECD800F1040C00F1010A00F102095A
:1025F80000F1030800F1050E851D6346C11D00F1B9
:102608000807226932542269120A06F80A20628AE7
:1026180006F80920E27C06F80820226902B3334450
:102628000021C6F1040EA2690EEB030C043352F824
:1026380021200131170A03F8042C150C100E03F899
:10264800037C03F8025C03F8010C22698A42EAD889
:102658000CF1010E0CF102050CF103010CF1040759
:10266800E36906F80C30E3691B0A06F80E30E38BC1
:102678007355E37F7354E36903B34FF00008636A4B
:102688004FEA880953F828000BF0E2FAF219002300
:10269800054625FA03F00833202B02F8010BF8D180
:1026A800636A04372A4608F1010853F80910F0193B
:1026B80006F0AEFAE3692F444345E0D83846BDE852
:1026C800F08708230C270B210A254FF0090E4FF03D
:1026D80007089C464FF006094FF0050A042090E7CA
:1026E80070B5037906460D460B7080680BF0B0FA9A
:1026F8000446030C6870020AEB70030EAA700246C7
:102708002B71681DB16806F083FA601D70BD00BFAB
:10271800F8B5838806460C460B7083881B0A4B70F5
:1027280080680BF095FAA070030C0546020A237125
:10273800030EE27002466371A01DB16806F068FAE4
:10274800F0680BF085FA691D02460023214422FA3D
:1027580003F00833202B01F8010FF8D10A35F1688E
:10276800AF18601906F054FA30690BF071FAE219E3
:102778000546002325FA03F10833202B02F8011B34
:10278800F8D104372A463169E01906F041FA73692D
:102798007819190C235422181D0A04301B0E917045
:1027A8005570D370F8BD00BF0846114607F066BDE6
:1027B80010B50446124894ED021AD4ED030A94EDBC
:1027C800010A05F011FD94ED021AD4ED030A94ED07
:1027D800010A0C4805F008FD94ED021AD4ED030A2D
:1027E80094ED010A084805F0FFFC94ED021AD4EDB7
:1027F800030A94ED010A0548BDE8104005F0F4BC51
:10280800A8280020D82800200829002038290020DE
:1028180010B50446583005F0CFFE204610BD00BF65
:102828002DE9F04F436883B00E6804460D46B34265
:10283800C0F0B2806660002E00F0B7802A46002003
:10284800C5F1080C93790CEB020792F80580043265
:102858001B0492F800E0D67843EA0823E16843EACB
:102868000E0343EA0663A36041F820300130636831
:102878008342E7D83E1D781CBB1CF91C07F1050AEA
:1028880007F1060B324607F1070807F10809EB5C68
:1028980015F800C0E85D1F04695C47EA0C27236946
:1028A800074347EA0167BB42C0F09480276127B31A
:1028B8002A440020C5F1040C93780CEB020692F828
:1028C800018004321B0412F804EC12F8017C43EA7C
:1028D8000823A16943EA0E0343EA0763636141F8E9
:1028E8002030013023698342E6D806F1010A06F157
:1028F800020B06F1030806F1040915F80B30A95D6F
:1029080015F80A001E0415F8082046EA0026E369AF
:102918000E4346EA0266B34256D3E661AEB34FF0C1
:1029280000086FF003074646002305EB0901184627
:1029380011F8012B9A400833202B40EA0200F7D106
:1029480009F1040101EB000A514522D2A7EB090263
:1029580009F1050309F103092944524405EB09006B
:10296800534588BF01220AF08DF805EB0A0205EBF2
:102978000903D14602F8016C626A236242F82830E2
:1029880008F10108E3694345CED8484603B0BDE8DD
:10299800F08F09F10309E8E7B100C06809F0A6FB68
:1029A8006660E060002E7FF449AF08224FF00C0902
:1029B8004FF00B084FF00A0B4FF0090A0721164693
:1029C80006230520042762E7B100606A09F08EFB40
:1029D8006062A2E7B900A069019209F087FB019A39
:1029E800A06163E7F8B500230A780D460646027130
:1029F8001C460A4612F801CF0CFA03FC0833202BB8
:102A080044EA0C04F6D1671D2B1D052F05D918467D
:102A18002246691D0AF036F8034625440022384646
:102A28002A71B360F8BD00BFD1F800C00346C2697F
:102A38000C30C3F810C0D1F804C0C3F814C08968BA
:102A480099611047F8B50B780D4607464C1D8380F1
:102A58004A7843EA022383800E79CB78360446EA23
:102A680003264B7946EA03668B781E43B31D062B73
:102A780004D93246063120460AF004F8711D0023B5
:102A88006B542944BC601C4611F8012F9A40083346
:102A9800202B44EA0204F7D106F10A010C44A142B2
:102AA80037D2A21B093629440A3AA81909F0EAFFC5
:102AB800002329192E44184601F8013CFE6011F83C
:102AC800012B9A400833202B40EA0200F7D1211D40
:102AD8000E18B1421FD2321B631D03342944043A35
:102AE80028199E4238BF012209F0CCFFAA192C44AC
:102AF8000023301D02F8013C3C61937854781B0494
:102B0800A95DD27843EA04230B4343EA02637B615D
:102B1800F8BD0936CCE70334E8E700BFD0ED017A09
:102B280017EE903AC3F3C75200B5002A00F0888028
:102B380002F560724FEA021CC2F307124FFA8CFCCE
:102B4800C3F3C34EF5EEC07A4CEA0E0CF1EE10FA60
:102B580081F806C04FF0000C81F800C048BF62F051
:102B68007F0281F801C081F802C04FEA431CCA7194
:102B780081F803C04FEAE30CDB1281F804C04B7103
:102B8800D0ED027A17EE903AC3F3C752002A5BD011
:102B980002F560724FEA021CC2F307124FFA8CFC6E
:102BA800C3F3C34EF5EEC07A4CEA0E0CF1EE10FA00
:102BB80081F80EC04FF0000C81F808C048BF62F0E1
:102BC8007F0281F809C081F80AC04FEA431CCA7322
:102BD80081F80BC04FEAE30CDB1281F80CC04B7391
:102BE800D0ED037A17EE903AC3F3C75252B302F509
:102BF80060721001C2F3071240B24FF0000CF5EEFC
:102C0800C07A81F810C081F811C0F1EE10FA81F88D
:102C180012C04FEA431C81F813C04FEAE30C48BFC7
:102C280062F07F0281F814C04FEAE32CC3F3C34378
:102C3800CA7581F815C0034318208B755DF804FB2D
:102C480094467DE71046D8E79446A9E700B5CA78C8
:102C5800034652094260087942EAC0025A6048793C
:102C680042EAC0225A608879C00400F4F0000243A6
:102C78005A60C87991F806E04FEA001C0CF4FE6C23
:102C88005CEA1E1C05D0ACF5607C42EACC525A6066
:102C9800C879000600F0004010435860CA7A52090B
:102CA8009A60087B42EAC0029A60487B42EAC022E6
:102CB8009A60887BC00400F4F00002439A60C87BE5
:102CC80091F80EE04FEA001C0CF4FE6C5CEA1E1C46
:102CD80005D0ACF5607C42EACC529A60C87B00060D
:102CE80000F0004010439860CA7C5209DA60087D01
:102CF80042EAC002DA60487D42EAC022DA60887D92
:102D0800C00400F4F0000243DA60C87D91F816E0D0
:102D18004FEA001C0CF4FE6C5CEA1E1C05D0ACF5F6
:102D2800607C42EACC52DA60C87D0106182001F0C6
:102D380000410A43DA605DF804FB00BF70B5054640
:102D480004300E46FFF782FF044605F114003119DE
:102D5800FFF77CFF204470BD70B5054604300E4671
:102D6800FFF774FF044605F114003119FFF76EFFF1
:102D7800034605F124001C443119FFF767FF20447E
:102D880070BD00BF70B5044610300D46FFF75EFFFA
:102D9800014604F10C0604F120002944FFF756FF10
:102DA800236B3046BDE87040184700BFD0ED027A6B
:102DB80017EE903AC3F3C75200B5002A00F01F81FE
:102DC80002F560724FEA021CC2F307124FFA8CFC3C
:102DD800C3F3C34EF5EEC07A4CEA0E0CF1EE10FACE
:102DE80081F806C04FF0000C81F800C048BF62F0BF
:102DF8007F0281F801C081F802C04FEA431CCA7102
:102E080081F803C04FEAE30CDB1281F804C04B7170
:102E1800D0ED037A17EE903AC3F3C752002A00F0B8
:102E2800F88002F560724FEA021CC2F307124FFAEB
:102E38008CFCC3F3C34EF5EEC07A4CEA0E0CF1EEEF
:102E480010FA81F80EC04FF0000C81F808C048BF96
:102E580062F07F0281F809C081F80AC04FEA431C7A
:102E6800CA7381F80BC04FEAE30CDB1281F80CC07F
:102E78004B73D0ED047A17EE903AC3F3C752002A89
:102E880000F0C58002F560724FEA021CC2F3071217
:102E98004FFA8CFCC3F3C34EF5EEC07A4CEA0E0C25
:102EA800F1EE10FA81F816C04FF0000C81F810C04E
:102EB80048BF62F07F0281F811C081F812C04FEA62
:102EC800431CCA7581F813C04FEAE30CDB1281F882
:102ED80014C04B75D0ED067A17EE903AC3F3C7527B
:102EE800002A00F0928002F560724FEA021CC2F3D9
:102EF80007124FFA8CFCC3F3C34EF5EEC07A4CEAC6
:102F08000E0CF1EE10FA81F81EC04FF0000C81F89B
:102F180018C048BF62F07F0281F819C081F81AC052
:102F28004FEA431CCA7781F81BC04FEAE30CDB1257
:102F380081F81CC04B77D0ED077A17EE903AC3F3AF
:102F4800C752002A5FD002F560724FEA021CC2F332
:102F580007124FFA8CFCC3F3C34EF5EEC07A4CEA65
:102F68000E0CF1EE10FA81F826C04FF0000C81F833
:102F780020C048BF62F07F0281F821C081F822C0DA
:102F88004FEA431C81F8272081F823C04FEAE30C5D
:102F9800DB1281F824C081F82530D0ED087A17EECD
:102FA800903AC3F3C75262B302F560721001C2F3DC
:102FB800071240B24FF0000CF5EEC07A81F828C035
:102FC80081F829C0F1EE10FA81F82AC04FEA431CB3
:102FD80081F82BC04FEAE30C48BF62F07F0281F80A
:102FE8002CC04FEAE32CC3F3C34381F82F2081F8A8
:102FF8002DC00343302081F82E305DF804FB944641
:10300800E6E61046D6E79446A5E7944673E7944665
:1030180040E794460DE700BFD0ED027A17EE903AEC
:10302800C3F3C75200B5002A00F0B88102F56072F8
:103038004FEA021CC2F307124FFA8CFCC3F3C34ECB
:10304800F5EEC07A4CEA0E0CF1EE10FA81F806C0E3
:103058004FF0000C81F800C048BF62F07F0281F891
:1030680001C081F802C04FEA431CCA7181F803C04D
:103078004FEAE30CDB1281F804C04B71D0ED037A00
:1030880017EE903AC3F3C752002A00F0978102F571
:1030980060724FEA021CC2F307124FFA8CFCC3F3AA
:1030A800C34EF5EEC07A4CEA0E0CF1EE10FA81F838
:1030B8000EC04FF0000C81F808C048BF62F07F02D4
:1030C80081F809C081F80AC04FEA431CCA7381F825
:1030D8000BC04FEAE30CDB1281F80CC04B73D0ED48
:1030E800047A17EE903AC3F3C752002A00F06481BD
:1030F80002F560724FEA021CC2F307124FFA8CFC09
:10310800C3F3C34EF5EEC07A4CEA0E0CF1EE10FA9A
:1031180081F816C04FF0000C81F810C048BF62F06B
:103128007F0281F811C081F812C04FEA431CCA75AA
:1031380081F813C04FEAE30CDB1281F814C04B7519
:10314800D0ED067A17EE903AC3F3C752002A00F082
:10315800318102F560724FEA021CC2F307124FFA7E
:103168008CFCC3F3C34EF5EEC07A4CEA0E0CF1EEBC
:1031780010FA81F81EC04FF0000C81F818C048BF43
:1031880062F07F0281F819C081F81AC04FEA431C27
:10319800CA7781F81BC04FEAE30CDB1281F81CC028
:1031A8004B77D0ED077A17EE903AC3F3C752002A4F
:1031B80000F0FE8002F560724FEA021CC2F30712AB
:1031C8004FFA8CFCC3F3C34EF5EEC07A4CEA0E0CF2
:1031D800F1EE10FA81F826C04FF0000C81F820C0FB
:1031E80048BF62F07F0281F821C081F822C04FEA0F
:1031F800431C81F8272081F823C04FEAE30CDB1237
:1032080081F824C081F82530D0ED087A17EE903A7D
:10321800C3F3C752002A00F0C98002F560724FEA72
:10322800021CC2F307124FFA8CFCC3F3C34EF5EE2F
:10323800C07A4CEA0E0CF1EE10FA81F82EC04FF06D
:10324800000C81F828C048BF62F07F0281F829C0CD
:1032580081F82AC04FEA431C81F82F2081F82BC03F
:103268004FEAE30CDB1281F82CC081F82D30D0ED49
:103278000A7A17EE903AC3F3C752002A00F09480F6
:1032880002F560724FEA021CC2F307124FFA8CFC77
:10329800C3F3C34EF5EEC07A4CEA0E0CF1EE10FA09
:1032A80081F836C04FF0000C81F830C048BF62F09A
:1032B8007F0281F831C081F832C04FEA431C81F89F
:1032C800372081F833C04FEAE30CDB1281F834C0B1
:1032D80081F83530D0ED0B7A17EE903AC3F3C75228
:1032E800002A5FD002F560724FEA021CC2F307128F
:1032F8004FFA8CFCC3F3C34EF5EEC07A4CEA0E0CC1
:10330800F1EE10FA81F83EC04FF0000C81F838C099
:1033180048BF62F07F0281F839C081F83AC04FEAAD
:10332800431C81F83F2081F83BC04FEAE30CDB12D5
:1033380081F83CC081F83D30D0ED0C7A17EE903A18
:10334800C3F3C75262B302F560721001C2F30712E9
:1033580040B24FF0000CF5EEC07A81F840C081F819
:1033680041C0F1EE10FA81F842C04FEA431C81F8DF
:1033780043C04FEAE30C48BF62F07F0281F844C0C3
:103388004FEAE32CC3F3C34381F8472081F845C0D3
:103398000343482081F846305DF804FB94464DE627
:1033A8001046D6E79446A5E7944671E794463CE76D
:1033B800944607E79446D4E69446A1E694466EE61A
:1033C800214B1A68D2E90010D3680968006810B464
:1033D8001842946801EA04012ED0137C03F0030319
:1033E800D9B943F008039908013B11740D2B0BD888
:1033F800DFE803F00D071C070A160D0D160A071C57
:10340800070D5369013B53615DF8044B70475369DD
:103418005DF8044B01335361704743F00403E0E760
:1034280053695DF8044B023B5361704753695DF87B
:10343800044B023353617047137C03F003030029E4
:10344800D1D043F00403CEE768340020224BD3F8F0
:10345800C820D2E90010D3680968006810B418427F
:10346800946801EA04012ED0137C03F00303D9B950
:1034780043F008039908013B11740D2B0BD8DFE8C2
:1034880003F00D071C070A160D0D160A071C070D79
:103498005369013B53615DF8044B704753695DF80C
:1034A800044B01335361704743F00403E0E7536969
:1034B8005DF8044B023B5361704753695DF8044B58
:1034C800023353617047137C03F003030029D1D002
:1034D80043F00403CEE700BF68340020224BD3F842
:1034E800CC20D2E90010D3680968006810B41842EB
:1034F800946801EA04012ED0137C03F00303D9B9C0
:1035080043F008039908013B11740D2B0BD8DFE831
:1035180003F00D071C070A160D0D160A071C070DE8
:103528005369013B53615DF8044B704753695DF87B
:10353800044B01335361704743F00403E0E75369D8
:103548005DF8044B023B5361704753695DF8044BC7
:10355800023353617047137C03F003030029D1D071
:1035680043F00403CEE700BF68340020224BD3F8B1
:10357800D020D2E90010D3680968006810B4184256
:10358800946801EA04012ED0137C03F00303D9B92F
:1035980043F008039908013B11740D2B0BD8DFE8A1
:1035A80003F00D071C070A160D0D160A071C070D58
:1035B8005369013B53615DF8044B704753695DF8EB
:1035C800044B01335361704743F00403E0E7536948
:1035D8005DF8044B023B5361704753695DF8044B37
:1035E800023353617047137C03F003030029D1D0E1
:1035F80043F00403CEE700BF68340020224BD3F821
:10360800D420D2E90010D3680968006810B41842C1
:10361800946801EA04012ED0137C03F00303D9B99E
:1036280043F008039908013B11740D2B0BD8DFE810
:1036380003F00D071C070A160D0D160A071C070DC7
:103648005369013B53615DF8044B704753695DF85A
:10365800044B01335361704743F00403E0E75369B7
:103668005DF8044B023B5361704753695DF8044BA6
:10367800023353617047137C03F003030029D1D050
:1036880043F00403CEE700BF68340020224BD3F890
:10369800D820D2E90010D3680968006810B418422D
:1036A800946801EA04012ED0137C03F00303D9B90E
:1036B80043F008039908013B11740D2B0BD8DFE880
:1036C80003F00D071C070A160D0D160A071C070D37
:1036D8005369013B53615DF8044B704753695DF8CA
:1036E800044B01335361704743F00403E0E7536927
:1036F8005DF8044B023B5361704753695DF8044B16
:10370800023353617047137C03F003030029D1D0BF
:1037180043F00403CEE700BF68340020214B5A6809
:10372800D2E90010D3680968006810B41842946898
:1037380001EA04012ED0137C03F00303D9B943F046
:1037480008039908013B11740D2B0BD8DFE803F02F
:103758000D071C070A160D0D160A071C070D5369DD
:10376800013B53615DF8044B704753695DF8044BA6
:1037780001335361704743F00403E0E753695DF890
:10378800044B023B5361704753695DF8044B0233A5
:1037980053617047137C03F003030029D1D043F031
:1037A8000403CEE768340020214B9A6CD2E900105C
:1037B800D3680968006810B41842946801EA0401E3
:1037C8002ED0137C03F00303D9B943F008039908FA
:1037D800013B11740D2B0BD8DFE803F00D071C0714
:1037E8000A160D0D160A071C070D5369013B536194
:1037F8005DF8044B704753695DF8044B013353611E
:10380800704743F00403E0E753695DF8044B023B5B
:103818005361704753695DF8044B02335361704735
:10382800137C03F003030029D1D043F00403CEE74F
:1038380068340020214BDA6CD2E90010D36809689B
:10384800006810B41842946801EA04012ED0137C71
:1038580003F00303D9B943F008039908013B117435
:103868000D2B0BD8DFE803F00D071C070A160D0D0A
:10387800160A071C070D5369013B53615DF8044B99
:10388800704753695DF8044B01335361704743F047
:103898000403E0E753695DF8044B023B536170474A
:1038A80053695DF8044B023353617047137C03F08E
:1038B80003030029D1D043F00403CEE76834002085
:1038C800214B1A6DD2E90010D3680968006810B45A
:1038D8001842946801EA04012ED0137C03F0030314
:1038E800D9B943F008039908013B11740D2B0BD883
:1038F800DFE803F00D071C070A160D0D160A071C52
:10390800070D5369013B53615DF8044B70475369D8
:103918005DF8044B01335361704743F00403E0E75B
:1039280053695DF8044B023B5361704753695DF876
:10393800044B023353617047137C03F003030029DF
:10394800D1D043F00403CEE768340020214B5A6DF0
:10395800D2E90010D3680968006810B41842946866
:1039680001EA04012ED0137C03F00303D9B943F014
:1039780008039908013B11740D2B0BD8DFE803F0FD
:103988000D071C070A160D0D160A071C070D5369AB
:10399800013B53615DF8044B704753695DF8044B74
:1039A80001335361704743F00403E0E753695DF85E
:1039B800044B023B5361704753695DF8044B023373
:1039C80053617047137C03F003030029D1D043F0FF
:1039D8000403CEE768340020214B9A6DD2E9001029
:1039E800D3680968006810B41842946801EA0401B1
:1039F8002ED0137C03F00303D9B943F008039908C8
:103A0800013B11740D2B0BD8DFE803F00D071C07E1
:103A18000A160D0D160A071C070D5369013B536161
:103A28005DF8044B704753695DF8044B01335361EB
:103A3800704743F00403E0E753695DF8044B023B29
:103A48005361704753695DF8044B02335361704703
:103A5800137C03F003030029D1D043F00403CEE71D
:103A680068340020214BDA6DD2E90010D368096868
:103A7800006810B41842946801EA04012ED0137C3F
:103A880003F00303D9B943F008039908013B117403
:103A98000D2B0BD8DFE803F00D071C070A160D0DD8
:103AA800160A071C070D5369013B53615DF8044B67
:103AB800704753695DF8044B01335361704743F015
:103AC8000403E0E753695DF8044B023B5361704718
:103AD80053695DF8044B023353617047137C03F05C
:103AE80003030029D1D043F00403CEE76834002053
:103AF800214B1A6ED2E90010D3680968006810B427
:103B08001842946801EA04012ED0137C03F00303E1
:103B1800D9B943F008039908013B11740D2B0BD850
:103B2800DFE803F00D071C070A160D0D160A071C1F
:103B3800070D5369013B53615DF8044B70475369A6
:103B48005DF8044B01335361704743F00403E0E729
:103B580053695DF8044B023B5361704753695DF844
:103B6800044B023353617047137C03F003030029AD
:103B7800D1D043F00403CEE768340020214B5A6EBD
:103B8800D2E90010D3680968006810B41842946834
:103B980001EA04012ED0137C03F00303D9B943F0E2
:103BA80008039908013B11740D2B0BD8DFE803F0CB
:103BB8000D071C070A160D0D160A071C070D536979
:103BC800013B53615DF8044B704753695DF8044B42
:103BD80001335361704743F00403E0E753695DF82C
:103BE800044B023B5361704753695DF8044B023341
:103BF80053617047137C03F003030029D1D043F0CD
:103C08000403CEE768340020214B9A6ED2E90010F5
:103C1800D3680968006810B41842946801EA04017E
:103C28002ED0137C03F00303D9B943F00803990895
:103C3800013B11740D2B0BD8DFE803F00D071C07AF
:103C48000A160D0D160A071C070D5369013B53612F
:103C58005DF8044B704753695DF8044B01335361B9
:103C6800704743F00403E0E753695DF8044B023BF7
:103C78005361704753695DF8044B023353617047D1
:103C8800137C03F003030029D1D043F00403CEE7EB
:103C980068340020214BDA6ED2E90010D368096835
:103CA800006810B41842946801EA04012ED0137C0D
:103CB80003F00303D9B943F008039908013B1174D1
:103CC8000D2B0BD8DFE803F00D071C070A160D0DA6
:103CD800160A071C070D5369013B53615DF8044B35
:103CE800704753695DF8044B01335361704743F0E3
:103CF8000403E0E753695DF8044B023B53617047E6
:103D080053695DF8044B023353617047137C03F029
:103D180003030029D1D043F00403CEE76834002020
:103D2800214B1A6FD2E90010D3680968006810B4F3
:103D38001842946801EA04012ED0137C03F00303AF
:103D4800D9B943F008039908013B11740D2B0BD81E
:103D5800DFE803F00D071C070A160D0D160A071CED
:103D6800070D5369013B53615DF8044B7047536974
:103D78005DF8044B01335361704743F00403E0E7F7
:103D880053695DF8044B023B5361704753695DF812
:103D9800044B023353617047137C03F0030300297B
:103DA800D1D043F00403CEE768340020214B5A6F8A
:103DB800D2E90010D3680968006810B41842946802
:103DC80001EA04012ED0137C03F00303D9B943F0B0
:103DD80008039908013B11740D2B0BD8DFE803F099
:103DE8000D071C070A160D0D160A071C070D536947
:103DF800013B53615DF8044B704753695DF8044B10
:103E080001335361704743F00403E0E753695DF8F9
:103E1800044B023B5361704753695DF8044B02330E
:103E280053617047137C03F003030029D1D043F09A
:103E38000403CEE768340020214B9A6FD2E90010C2
:103E4800D3680968006810B41842946801EA04014C
:103E58002ED0137C03F00303D9B943F00803990863
:103E6800013B11740D2B0BD8DFE803F00D071C077D
:103E78000A160D0D160A071C070D5369013B5361FD
:103E88005DF8044B704753695DF8044B0133536187
:103E9800704743F00403E0E753695DF8044B023BC5
:103EA8005361704753695DF8044B0233536170479F
:103EB800137C03F003030029D1D043F00403CEE7B9
:103EC80068340020214BDA6FD2E90010D368096802
:103ED800006810B41842946801EA04012ED0137CDB
:103EE80003F00303D9B943F008039908013B11749F
:103EF8000D2B0BD8DFE803F00D071C070A160D0D74
:103F0800160A071C070D5369013B53615DF8044B02
:103F1800704753695DF8044B01335361704743F0B0
:103F28000403E0E753695DF8044B023B53617047B3
:103F380053695DF8044B023353617047137C03F0F7
:103F480003030029D1D043F00403CEE768340020EE
:103F5800224BD3F88020D2E90010D36809680068A2
:103F680010B41842946801EA04012ED0137C03F0BF
:103F78000303D9B943F008039908013B11740D2BC9
:103F88000BD8DFE803F00D071C070A160D0D160AFB
:103F9800071C070D5369013B53615DF8044B7047DB
:103FA80053695DF8044B01335361704743F00403D0
:103FB800E0E753695DF8044B023B5361704753696E
:103FC8005DF8044B023353617047137C03F003031D
:103FD8000029D1D043F00403CEE700BF68340020A5
:103FE800224BD3F88420D2E90010D368096800680E
:103FF80010B41842946801EA04012ED0137C03F02F
:104008000303D9B943F008039908013B11740D2B38
:104018000BD8DFE803F00D071C070A160D0D160A6A
:10402800071C070D5369013B53615DF8044B70474A
:1040380053695DF8044B01335361704743F004033F
:10404800E0E753695DF8044B023B536170475369DD
:104058005DF8044B023353617047137C03F003038C
:104068000029D1D043F00403CEE700BF6834002014
:10407800224BD3F88820D2E90010D3680968006879
:1040880010B41842946801EA04012ED0137C03F09E
:104098000303D9B943F008039908013B11740D2BA8
:1040A8000BD8DFE803F00D071C070A160D0D160ADA
:1040B800071C070D5369013B53615DF8044B7047BA
:1040C80053695DF8044B01335361704743F00403AF
:1040D800E0E753695DF8044B023B5361704753694D
:1040E8005DF8044B023353617047137C03F00303FC
:1040F8000029D1D043F00403CEE700BF6834002084
:10410800224BD3F88C20D2E90010D36809680068E4
:1041180010B41842946801EA04012ED0137C03F00D
:104128000303D9B943F008039908013B11740D2B17
:104138000BD8DFE803F00D071C070A160D0D160A49
:10414800071C070D5369013B53615DF8044B704729
:1041580053695DF8044B01335361704743F004031E
:10416800E0E753695DF8044B023B536170475369BC
:104178005DF8044B023353617047137C03F003036B
:104188000029D1D043F00403CEE700BF68340020F3
:10419800224BD3F89020D2E90010D3680968006850
:1041A80010B41842946801EA04012ED0137C03F07D
:1041B8000303D9B943F008039908013B11740D2B87
:1041C8000BD8DFE803F00D071C070A160D0D160AB9
:1041D800071C070D5369013B53615DF8044B704799
:1041E80053695DF8044B01335361704743F004038E
:1041F800E0E753695DF8044B023B5361704753692C
:104208005DF8044B023353617047137C03F00303DA
:104218000029D1D043F00403CEE700BF6834002062
:10422800224BD3F89420D2E90010D36809680068BB
:1042380010B41842946801EA04012ED0137C03F0EC
:104248000303D9B943F008039908013B11740D2BF6
:104258000BD8DFE803F00D071C070A160D0D160A28
:10426800071C070D5369013B53615DF8044B704708
:1042780053695DF8044B01335361704743F00403FD
:10428800E0E753695DF8044B023B5361704753699B
:104298005DF8044B023353617047137C03F003034A
:1042A8000029D1D043F00403CEE700BF68340020D2
:1042B800224BD3F89820D2E90010D3680968006827
:1042C80010B41842946801EA04012ED0137C03F05C
:1042D8000303D9B943F008039908013B11740D2B66
:1042E8000BD8DFE803F00D071C070A160D0D160A98
:1042F800071C070D5369013B53615DF8044B704778
:1043080053695DF8044B01335361704743F004036C
:10431800E0E753695DF8044B023B5361704753690A
:104328005DF8044B023353617047137C03F00303B9
:104338000029D1D043F00403CEE700BF6834002041
:10434800224BD3F89C20D2E90010D3680968006892
:1043580010B41842946801EA04012ED0137C03F0CB
:104368000303D9B943F008039908013B11740D2BD5
:104378000BD8DFE803F00D071C070A160D0D160A07
:10438800071C070D5369013B53615DF8044B7047E7
:1043980053695DF8044B01335361704743F00403DC
:1043A800E0E753695DF8044B023B5361704753697A
:1043B8005DF8044B023353617047137C03F0030329
:1043C8000029D1D043F00403CEE700BF68340020B1
:1043D800224BD3F8A020D2E90010D36809680068FE
:1043E80010B41842946801EA04012ED0137C03F03B
:1043F8000303D9B943F008039908013B11740D2B45
:104408000BD8DFE803F00D071C070A160D0D160A76
:10441800071C070D5369013B53615DF8044B704756
:1044280053695DF8044B01335361704743F004034B
:10443800E0E753695DF8044B023B536170475369E9
:104448005DF8044B023353617047137C03F0030398
:104458000029D1D043F00403CEE700BF6834002020
:10446800224BD3F8A420D2E90010D3680968006869
:1044780010B41842946801EA04012ED0137C03F0AA
:104488000303D9B943F008039908013B11740D2BB4
:104498000BD8DFE803F00D071C070A160D0D160AE6
:1044A800071C070D5369013B53615DF8044B7047C6
:1044B80053695DF8044B01335361704743F00403BB
:1044C800E0E753695DF8044B023B53617047536959
:1044D8005DF8044B023353617047137C03F0030308
:1044E8000029D1D043F00403CEE700BF6834002090
:1044F800224BD3F8A820D2E90010D36809680068D5
:1045080010B41842946801EA04012ED0137C03F019
:104518000303D9B943F008039908013B11740D2B23
:104528000BD8DFE803F00D071C070A160D0D160A55
:10453800071C070D5369013B53615DF8044B704735
:1045480053695DF8044B01335361704743F004032A
:10455800E0E753695DF8044B023B536170475369C8
:104568005DF8044B023353617047137C03F0030377
:104578000029D1D043F00403CEE700BF68340020FF
:10458800224BD3F8AC20D2E90010D3680968006840
:1045980010B41842946801EA04012ED0137C03F089
:1045A8000303D9B943F008039908013B11740D2B93
:1045B8000BD8DFE803F00D071C070A160D0D160AC5
:1045C800071C070D5369013B53615DF8044B7047A5
:1045D80053695DF8044B01335361704743F004039A
:1045E800E0E753695DF8044B023B53617047536938
:1045F8005DF8044B023353617047137C03F00303E7
:104608000029D1D043F00403CEE700BF683400206E
:10461800224BD3F8B020D2E90010D36809680068AB
:1046280010B41842946801EA04012ED0137C03F0F8
:104638000303D9B943F008039908013B11740D2B02
:104648000BD8DFE803F00D071C070A160D0D160A34
:10465800071C070D5369013B53615DF8044B704714
:1046680053695DF8044B01335361704743F0040309
:10467800E0E753695DF8044B023B536170475369A7
:104688005DF8044B023353617047137C03F0030356
:104698000029D1D043F00403CEE700BF68340020DE
:1046A800224BD3F8B420D2E90010D3680968006817
:1046B80010B41842946801EA04012ED0137C03F068
:1046C8000303D9B943F008039908013B11740D2B72
:1046D8000BD8DFE803F00D071C070A160D0D160AA4
:1046E800071C070D5369013B53615DF8044B704784
:1046F80053695DF8044B01335361704743F0040379
:10470800E0E753695DF8044B023B53617047536916
:104718005DF8044B023353617047137C03F00303C5
:104728000029D1D043F00403CEE700BF683400204D
:10473800224BD3F8B820D2E90010D3680968006882
:1047480010B41842946801EA04012ED0137C03F0D7
:104758000303D9B943F008039908013B11740D2BE1
:104768000BD8DFE803F00D071C070A160D0D160A13
:10477800071C070D5369013B53615DF8044B7047F3
:1047880053695DF8044B01335361704743F00403E8
:10479800E0E753695DF8044B023B53617047536986
:1047A8005DF8044B023353617047137C03F0030335
:1047B8000029D1D043F00403CEE700BF68340020BD
:1047C800224BD3F8BC20D2E90010D36809680068EE
:1047D80010B41842946801EA04012ED0137C03F047
:1047E8000303D9B943F008039908013B11740D2B51
:1047F8000BD8DFE803F00D071C070A160D0D160A83
:10480800071C070D5369013B53615DF8044B704762
:1048180053695DF8044B01335361704743F0040357
:10482800E0E753695DF8044B023B536170475369F5
:104838005DF8044B023353617047137C03F00303A4
:104848000029D1D043F00403CEE700BF683400202C
:10485800224BD3F8C020D2E90010D3680968006859
:1048680010B41842946801EA04012ED0137C03F0B6
:104878000303D9B943F008039908013B11740D2BC0
:104888000BD8DFE803F00D071C070A160D0D160AF2
:10489800071C070D5369013B53615DF8044B7047D2
:1048A80053695DF8044B01335361704743F00403C7
:1048B800E0E753695DF8044B023B53617047536965
:1048C8005DF8044B023353617047137C03F0030314
:1048D8000029D1D043F00403CEE700BF683400209C
:1048E800224BD3F8C420D2E90010D36809680068C5
:1048F80010B41842946801EA04012ED0137C03F026
:104908000303D9B943F008039908013B11740D2B2F
:104918000BD8DFE803F00D071C070A160D0D160A61
:10492800071C070D5369013B53615DF8044B704741
:1049380053695DF8044B01335361704743F0040336
:10494800E0E753695DF8044B023B536170475369D4
:104958005DF8044B023353617047137C03F0030383
:104968000029D1D043F00403CEE700BF683400200B
:10497800214B9A68D2E90010D3680968006810B41E
:104988001842946801EA04012ED0137C03F0030353
:10499800D9B943F008039908013B11740D2B0BD8C2
:1049A800DFE803F00D071C070A160D0D160A071C91
:1049B800070D5369013B53615DF8044B7047536918
:1049C8005DF8044B01335361704743F00403E0E79B
:1049D80053695DF8044B023B5361704753695DF8B6
:1049E800044B023353617047137C03F0030300291F
:1049F800D1D043F00403CEE768340020214BDA68B5
:104A0800D2E90010D3680968006810B418429468A5
:104A180001EA04012ED0137C03F00303D9B943F053
:104A280008039908013B11740D2B0BD8DFE803F03C
:104A38000D071C070A160D0D160A071C070D5369EA
:104A4800013B53615DF8044B704753695DF8044BB3
:104A580001335361704743F00403E0E753695DF89D
:104A6800044B023B5361704753695DF8044B0233B2
:104A780053617047137C03F003030029D1D043F03E
:104A88000403CEE768340020214B1A69D2E90010EC
:104A9800D3680968006810B41842946801EA0401F0
:104AA8002ED0137C03F00303D9B943F00803990807
:104AB800013B11740D2B0BD8DFE803F00D071C0721
:104AC8000A160D0D160A071C070D5369013B5361A1
:104AD8005DF8044B704753695DF8044B013353612B
:104AE800704743F00403E0E753695DF8044B023B69
:104AF8005361704753695DF8044B02335361704743
:104B0800137C03F003030029D1D043F00403CEE75C
:104B180068340020214B5A69D2E90010D36809682B
:104B2800006810B41842946801EA04012ED0137C7E
:104B380003F00303D9B943F008039908013B117442
:104B48000D2B0BD8DFE803F00D071C070A160D0D17
:104B5800160A071C070D5369013B53615DF8044BA6
:104B6800704753695DF8044B01335361704743F054
:104B78000403E0E753695DF8044B023B5361704757
:104B880053695DF8044B023353617047137C03F09B
:104B980003030029D1D043F00403CEE76834002092
:104BA800214B9A69D2E90010D3680968006810B4EB
:104BB8001842946801EA04012ED0137C03F0030321
:104BC800D9B943F008039908013B11740D2B0BD890
:104BD800DFE803F00D071C070A160D0D160A071C5F
:104BE800070D5369013B53615DF8044B70475369E6
:104BF8005DF8044B01335361704743F00403E0E769
:104C080053695DF8044B023B5361704753695DF883
:104C1800044B023353617047137C03F003030029EC
:104C2800D1D043F00403CEE768340020214BDA6981
:104C3800D2E90010D3680968006810B41842946873
:104C480001EA04012ED0137C03F00303D9B943F021
:104C580008039908013B11740D2B0BD8DFE803F00A
:104C68000D071C070A160D0D160A071C070D5369B8
:104C7800013B53615DF8044B704753695DF8044B81
:104C880001335361704743F00403E0E753695DF86B
:104C9800044B023B5361704753695DF8044B023380
:104CA80053617047137C03F003030029D1D043F00C
:104CB8000403CEE768340020214B1A6AD2E90010B9
:104CC800D3680968006810B41842946801EA0401BE
:104CD8002ED0137C03F00303D9B943F008039908D5
:104CE800013B11740D2B0BD8DFE803F00D071C07EF
:104CF8000A160D0D160A071C070D5369013B53616F
:104D08005DF8044B704753695DF8044B01335361F8
:104D1800704743F00403E0E753695DF8044B023B36
:104D28005361704753695DF8044B02335361704710
:104D3800137C03F003030029D1D043F00403CEE72A
:104D480068340020214B5A6AD2E90010D3680968F8
:104D5800006810B41842946801EA04012ED0137C4C
:104D680003F00303D9B943F008039908013B117410
:104D78000D2B0BD8DFE803F00D071C070A160D0DE5
:104D8800160A071C070D5369013B53615DF8044B74
:104D9800704753695DF8044B01335361704743F022
:104DA8000403E0E753695DF8044B023B5361704725
:104DB80053695DF8044B023353617047137C03F069
:104DC80003030029D1D043F00403CEE76834002060
:104DD800214B9A6AD2E90010D3680968006810B4B8
:104DE8001842946801EA04012ED0137C03F00303EF
:104DF800D9B943F008039908013B11740D2B0BD85E
:104E0800DFE803F00D071C070A160D0D160A071C2C
:104E1800070D5369013B53615DF8044B70475369B3
:104E28005DF8044B01335361704743F00403E0E736
:104E380053695DF8044B023B5361704753695DF851
:104E4800044B023353617047137C03F003030029BA
:104E5800D1D043F00403CEE768340020214BDA6A4E
:104E6800D2E90010D3680968006810B41842946841
:104E780001EA04012ED0137C03F00303D9B943F0EF
:104E880008039908013B11740D2B0BD8DFE803F0D8
:104E98000D071C070A160D0D160A071C070D536986
:104EA800013B53615DF8044B704753695DF8044B4F
:104EB80001335361704743F00403E0E753695DF839
:104EC800044B023B5361704753695DF8044B02334E
:104ED80053617047137C03F003030029D1D043F0DA
:104EE8000403CEE768340020214B1A6BD2E9001086
:104EF800D3680968006810B41842946801EA04018C
:104F08002ED0137C03F00303D9B943F008039908A2
:104F1800013B11740D2B0BD8DFE803F00D071C07BC
:104F28000A160D0D160A071C070D5369013B53613C
:104F38005DF8044B704753695DF8044B01335361C6
:104F4800704743F00403E0E753695DF8044B023B04
:104F58005361704753695DF8044B023353617047DE
:104F6800137C03F003030029D1D043F00403CEE7F8
:104F780068340020214B5A6BD2E90010D3680968C5
:104F8800006810B41842946801EA04012ED0137C1A
:104F980003F00303D9B943F008039908013B1174DE
:104FA8000D2B0BD8DFE803F00D071C070A160D0DB3
:104FB800160A071C070D5369013B53615DF8044B42
:104FC800704753695DF8044B01335361704743F0F0
:104FD8000403E0E753695DF8044B023B53617047F3
:104FE80053695DF8044B023353617047137C03F037
:104FF80003030029D1D043F00403CEE7683400202E
:10500800214B9A6BD2E90010D3680968006810B484
:105018001842946801EA04012ED0137C03F00303BC
:10502800D9B943F008039908013B11740D2B0BD82B
:10503800DFE803F00D071C070A160D0D160A071CFA
:10504800070D5369013B53615DF8044B7047536981
:105058005DF8044B01335361704743F00403E0E704
:1050680053695DF8044B023B5361704753695DF81F
:10507800044B023353617047137C03F00303002988
:10508800D1D043F00403CEE768340020214BDA6B1B
:10509800D2E90010D3680968006810B4184294680F
:1050A80001EA04012ED0137C03F00303D9B943F0BD
:1050B80008039908013B11740D2B0BD8DFE803F0A6
:1050C8000D071C070A160D0D160A071C070D536954
:1050D800013B53615DF8044B704753695DF8044B1D
:1050E80001335361704743F00403E0E753695DF807
:1050F800044B023B5361704753695DF8044B02331C
:1051080053617047137C03F003030029D1D043F0A7
:105118000403CEE768340020214B1A6CD2E9001052
:10512800D3680968006810B41842946801EA040159
:105138002ED0137C03F00303D9B943F00803990870
:10514800013B11740D2B0BD8DFE803F00D071C078A
:105158000A160D0D160A071C070D5369013B53610A
:105168005DF8044B704753695DF8044B0133536194
:10517800704743F00403E0E753695DF8044B023BD2
:105188005361704753695DF8044B023353617047AC
:10519800137C03F003030029D1D043F00403CEE7C6
:1051A80068340020214B5A6CD2E90010D368096892
:1051B800006810B41842946801EA04012ED0137CE8
:1051C80003F00303D9B943F008039908013B1174AC
:1051D8000D2B0BD8DFE803F00D071C070A160D0D81
:1051E800160A071C070D5369013B53615DF8044B10
:1051F800704753695DF8044B01335361704743F0BE
:105208000403E0E753695DF8044B023B53617047C0
:1052180053695DF8044B023353617047137C03F004
:1052280003030029D1D043F00403CEE768340020FB
:105238002DE9F0434A4A07464A4E85B04A4D4FF099
:10524800000E4A4B06F50A7906F2212406F23628A2
:10525800C6E987520F22A4460725C6F824220FCB99
:10526800A9E8070029F8023B1B0C89F8003001E087
:105278001CF8015FC445AE44FAD16FEA0E0E70689F
:105288003B4D86F837E20368DFF814815B68AB4270
:1052980062D11C21404604F0F1FF3B7923B3354B22
:1052A800354A93E803000523C6F81C22C6F82802ED
:1052B8000722324886F82C123149C6E988030023B0
:1052C80001E014F8012F8C421344FAD1DB437068D3
:1052D80086F82D3203685B68AB4235D1122140460F
:1052E80004F0CCFF274922E0274A2849C6F81C12B7
:1052F80092E803000622A6F82C122549C6F82802CF
:10530800C6E988122349072201E014F8012FA142B7
:105318001344FAD1DB43706886F82E3203685B6861
:10532800AB4215D11321404604F0A8FF1A4968463C
:1053380003F07EF96946194803F008F9684603F056
:105348003BF905B0BDE8F083122241469847C9E70A
:10535800132241469847E9E71C22414698479CE7B3
:10536800EB0700010C370020FFFE14003C0B002067
:10537800D90500004C0B0020FFFE0A00F5070001CC
:1053880038390020540B00205C0B0020FFFE0B0076
:10539800F407000139390020640B0020443D002047
:1053A800283900206329F0B5044685B00E4610461A
:1053B80003DD94F8F854002D3FD0036804F223214C
:1053C8001B689847C0F307235FFA86FE4FF6FF6114
:1053D800034446F30726A4F81C12DB4384F8226230
:1053E800A4F81E0284F82032431C84F821E22EDB44
:1053F80004F2222204F221234FF0000C024401E0BF
:1054080013F801EF9342F444FAD16FEA0C0C5FFAF7
:105418008CFC00F1080540F2012322189D4282F815
:1054280023C217D0666804F50770334A33685B688F
:10543800934205D1294604F021FF284605B0F0BD66
:1054480001462A4630469847284605B0F0BD4FF039
:10545800FF0CDEE7294A032123688DF808101B6832
:105468000192274A274D934203953AD104F50A76CB
:1054780005F1300EAC4610361035BCE80F00F44587
:1054880046F8100C46F80C1C46F8082C46F8043C64
:10549800F0D13823DFF874E01B4F04F2212203CD4A
:1054A800306004F25F2071600721C4F824320023C1
:1054B800C4E987E701E012F8011F90420B44FAD1D2
:1054C800DB4365680C4A04F5077084F860322B6882
:1054D8005B6893420AD1452104F0D0FE4FF0FF35B6
:1054E800ABE701AA072120469847F7E7014645227E
:1054F80028469847F2E700BFD9050000E80F0020CA
:10550800D5310000A80C0020C2070003FFFE3D00B3
:1055180008B50E480FF0D4FA0D4802F061FA0C48AD
:1055280002F082FA08B9002008BD0A4802F058FAC9
:10553800084802F079FA0028F5D0074802F050FA36
:105548000548BDE8084002F06FBA00BF4C300020A3
:1055580054350020D03500200C3600200000000013
:1055680030B5002183B0244D04460DF10603416097
:10557800056001AA8160C1600DF102011F4802F0B7
:1055880075FABDF90230204605EE103ABDF904302F
:1055980006EE103ABDF90630B8EEC55B07EE103AD4
:1055A800B8EEC66B9FED103BB8EEC77B25EE035BEC
:1055B80026EE036B27EE037B9FED0D4B25EE045B78
:1055C80026EE046B27EE047BB7EEC55BB7EEC66B21
:1055D800B7EEC77B84ED015A84ED026A84ED037A45
:1055E80003B030BDAFF30080000000000000103FA2
:1055F8001F85EB51B89E2340B80F0020543500207A
:1056080030B5002183B0244D04460DF106034160F6
:10561800056001AA8160C1600DF102011F4802F016
:1056280075FABDF90230204606EE103ABDF904308D
:1056380007EE103ABDF90630B8EEC66B02EE103A26
:10564800B8EEC77B9FED103BB8EEC22B86EE035B2E
:1056580087EE036B82EE037B9FED0D4B25EE045B1B
:1056680026EE046BB7EEC55B27EE047B84ED015A8A
:10567800B7EEC66BB7EEC77B84ED026A84ED037A9A
:1056880003B030BDAFF30080000000000060604050
:10569800399D52A246DF913FB80F0020D035002037
:1056A80030B5002183B0244D04460DF10603416056
:1056B800056001AA8160C1600DF102011F4802F076
:1056C800F5F9BDF90230204605EE103ABDF904306F
:1056D80006EE103ABDF90630B8EEC55B07EE103A93
:1056E800B8EEC66B9FED103BB8EEC77B25EE035BAB
:1056F80026EE036B27EE037B9FED0D4B25EE045B37
:1057080026EE046B27EE047BB7EEC55BB7EEC66BDF
:10571800B7EEC77B84ED015A84ED026A84ED037A03
:1057280003B030BDAFF30080333333333333E33F5B
:105738008DEDB5A0F7C6B03EB80F00200C3600209E
:105748000B4610B5362800F29782DFE810F08C027D
:1057580082027902700267025E0255024C0243021D
:105768003A02310228021F02BF01B601AD01A401AD
:105778009B0192018901800177016E0165015C013D
:1057880053014A01410138012F0126011D0113016E
:105798000901FF00F500EB00E100D700CD00C300D0
:1057A800B900AF00A5009B00910087007D00730041
:1057B80069005F0055004B0041003700C84C0422C7
:1057C800C8493620C4F8D83003F09EF9012010BD2E
:1057D800C34C0422C4493520C4F8D43003F094F9EA
:1057E800012010BDBE4C0422C0493420C4F8D0307A
:1057F80003F08AF9012010BDB94C0422BC493320BA
:10580800C4F8CC3003F080F9012010BDB44C042258
:10581800B8493220C4F8C83003F076F9012010BD29
:10582800AF4C0422B4493120C4F8C43003F06CF9F9
:10583800012010BDAA4C0422B0493020C4F8C03061
:1058480003F062F9012010BDA54C0422AC492F20B9
:10585800C4F8BC3003F058F9012010BDA04C042254
:10586800A8492E20C4F8B83003F04EF9012010BD25
:105878009B4C0422A4492D20C4F8B43003F044F909
:10588800012010BD964C0422A0492C20C4F8B03049
:1058980003F03AF9012010BD914C04229C492B20B9
:1058A800C4F8AC3003F030F9012010BD8C4C042250
:1058B80098492A20C4F8A83003F026F9012010BD21
:1058C800874C042294492920C4F8A43003F01CF919
:1058D800012010BD824C042290492820C4F8A03031
:1058E80003F012F9012010BD7D4C04228C492720B9
:1058F800C4F89C3003F008F9012010BD784C04224C
:1059080088492620C4F8983003F0FEF8012010BD1D
:10591800734C042284492520C4F8943003F0F4F829
:10592800012010BD6E4C042280492420C4F8903018
:1059380003F0EAF8012010BD694C04227C492320B9
:10594800C4F88C3003F0E0F8012010BD644C042248
:1059580078492220C4F8883003F0D6F8012010BD19
:105968005F4C042274492120C4F8843003F0CCF839
:10597800012010BD5A4C042270492020C4F8803000
:1059880003F0C2F8012010BD554C04226C491F20B9
:10599800E36703F0B9F8012010BD514C04226949AE
:1059A8001E20A36703F0B0F8012010BD4C4C042260
:1059B80065491D20636703F0A7F8012010BD484C16
:1059C800042262491C20236703F09EF8012010BDC1
:1059D800434C04225E491B20E36603F095F801203E
:1059E80010BD3F4C04225B491A20A36603F08CF8D3
:1059F800012010BD3A4C042257491920636603F070
:105A080083F8012010BD364C04225449182023661F
:105A180003F07AF8012010BD314C042250491720B8
:105A2800E36503F071F8012010BD2D4C04224D49A7
:105A38001620A36503F068F8012010BD284C042245
:105A480049491520636503F05FF8012010BD244C17
:105A5800042246491420236503F056F8012010BD9E
:105A68001F4C042242491320E36403F04DF801203F
:105A780010BD1B4C04223F491220A36403F044F8D4
:105A8800012010BD164C04223B491120636403F029
:105A98003BF8012010BD124C042238491020236421
:105AA80003F032F8012010BD0D4C042234490F20B8
:105AB800E36303F029F8012010BD094C04223149A1
:105AC8000E20A36303F020F8012010BD044C04222B
:105AD8002D490D20636303F017F8012010BD00BFA6
:105AE80068340020BD1400002D1400009D13000030
:105AF8000D1300007D120000112700008126000010
:105B0800F125000061250000D12400004124000097
:105B1800B12300002123000091220000012200008F
:105B280071210000E120000051200000C11F000089
:105B3800311F0000A11E0000111E0000811D000081
:105B4800F51C0000691C0000DD1B0000511B000053
:105B5800C51A0000391A0000AD190000211900000B
:105B680095180000091800007D170000F1160000C4
:105B780065160000D9150000D52F0000492F000038
:105B8800BD2E0000312E0000A52D00003B4C042244
:105B98003B490C20236302F0B7FF012010BD374CAE
:105BA800042238490B20E36202F0AEFF012010BD49
:105BB800324C042234490A20A36202F0A5FF0120D6
:105BC80010BD2E4C042231490920636202F09CFF6B
:105BD800012010BD294C04222D490820236202F01F
:105BE80093FF012010BD254C04222A490720E361B8
:105BF80002F08AFF012010BD204C0422264906200D
:105C0800A36102F081FF012010BD1C4C042223492E
:105C18000520636102F078FF012010BD0422174CB3
:105C28001F491046236102F06FFF012010BD134C7D
:105C380004221C490320E36002F066FF012010BD26
:105C48000E4C042218490220A36002F05DFF0120D7
:105C580010BD04460948042214494360012002F09B
:105C680053FF204610BD054C042211490020236033
:105C780002F04AFF012010BD002010BD683400204A
:105C8800192D00008D2C0000012C0000752B000040
:105C9800E92A00005D2A0000D129000045290000FA
:105CA800B92800002D280000A12700004D1500008C
:105CB800F11100002DE9F04182B004460F46164666
:105CC8009DF820C01D46BCF1000F01D017460E46B6
:105CD8000221384602F0DEFE0221304602F0DAFEEA
:105CE80025493B012548DFF89CC051F8038001EBAA
:105CF80007132560D3F80CE001EB0613C4F80C80F9
:105D0800C4F814E0DA683301C9580023A261236299
:105D18001B4B45681B682161ACFB033C4FF4FA63DD
:105D28004FEA9C4C03FB0CFC43685B1B9C45FBD86F
:105D3800D8F80030384609681EEA030F14BF01235B
:105D480000230A4204F10C0118BF43F00203019139
:105D58002377FFF7F5FC03460199304684F8243091
:105D6800FFF7EEFC94F8242003462046134484F8F9
:105D7800243002B0BDE8F081E4100020001000E0FB
:105D8800301F002083DE1B432DE9F04FC04AC14B72
:105D9800C148D2ED000A90ED001A93ED000ABF4900
:105DA8002DED048B8DB008A802F09CF8089ABC4B26
:105DB8009646099A09EE902A93F82420012A40F27F
:105DC800D58172B61A6A62B6D3E90114B5489A60E9
:105DD800121B93ED005A07EE902A0268B8EEC55BD5
:105DE800511AB8EEE77B5A6006EE901AAE4BB8EE41
:105DF800666B93F824209FEDA43B012A86EE034BA3
:105E080087EE056B86EE047BFDEEC77B17EE904AA6
:105E180040F2998172B61A6A62B65D680168596083
:105E2800491B07EE101A99689A60B8EE477B521A18
:105E38009FED956B87EE065B07EE902A93ED006A5F
:105E48009A4BB8EEE77B93F82410B8EEC66B01299D
:105E580087EE064B84EE057BFDEEC77B17EE902A96
:105E680040F25D8172B61D6A62B691495F6891F829
:105E780024C00668BCF1010FD3F8088093ED008AAE
:105E880003975E609D6040F2318172B6D1F820B010
:105E9800029262B609EE10EA07EE904A0768F8EE39
:105EA800E70A8448B8EEC90AD1F80490D1F808A0E6
:105EB800D1ED008A4F60C1F808B002F049F9FDEE53
:105EC800C07B7D4817EE901A02F0E8F8029A7B48EA
:105ED800B8EEE90A07EE902AF8EEE70A02F038F978
:105EE800FDEEC07B764817EE901A02F0D7F819EE4F
:105EF800103A029A191B19EE903A6848A3EB020E61
:105F0800704B1960704B0178C3F800E002396F4B91
:105F180001291C606E4B1A6040F2A880ABEB0A0B9B
:105F2800A7EB0903B8EEE85BA5EB080507EE90BA06
:105F380006EE903A039B04EE905AB8EEE77B2146B2
:105F4800F61AB8EE666BB8EEE44B87EE052B07EE53
:105F5800906AB8EEC88BB8EE677B9FED4B3B84EE3A
:105F6800081B86EE030B87EE035B82EE007B81EE57
:105F7800056BBDEEC77B8DED007AFDEEC67B17EE97
:105F8800903A01F0F9FF8DED050ACDED060A8DED89
:105F9800071A5049504E514CDDF814C00698079A1C
:105FA800C4F804C0A060E260D1E902131D682D683E
:105FB800B54240F0EE8063294FDC4FEA1C2483F899
:105FC8002702474D83F824424FEA1C4483F823C232
:105FD8004FEA1C6C83F82542040A83F82B2283F8C5
:105FE8002842040C000E83F826C283F82942140ABA
:105FF80083F82A02100C83F82C42120EF32483F83B
:106008002D02C8B241F3072183F82E2203F2212280
:1060180083F82212002183F8204203F22E24C3F8C9
:106028001C5283F8210201E012F8010FA242014438
:10603800FAD1C9435C6803F507702A4A83F82F121E
:1060480023685B68934240F0A98114210DB0BDEC30
:10605800048BBDE8F04F04F011B993F8F844002C14
:10606800ABD10DB0BDEC048BBDE8F08F9FED1E0ADF
:10607800214601F055FFCDED060A8DED050A8DED9F
:10608800071A86E7AFF3008000000000004CED40DF
:10609800CC350020C8350020C4350020E03500206C
:1060A800303600203C3D00206C360020A836002009
:1060B800E4360020A82800201C360020D82800201C
:1060C800583600200036002008360020FC35002015
:1060D80004360020BC3C0020D5310000AC3C002038
:1060E800FFFE0C00D90500000000000072B6CB6866
:1060F8001F680B69D3F800904B6907EA030C8F6996
:1061080019EA070F00F0D2800B7F03F00303BCF1FC
:10611800000F01D043F0040343F00803CEE072B649
:10612800D9680D6819690E6859690D4099690E4258
:1061380000F09080197F01F003010DB141F00401D6
:1061480041F008018CE072B6DA6811681A691568BE
:106158005A6911409A69154250D01A7F02F0030219
:1061680009B142F0040242F008024DE072B6D96863
:106178005A69096811401A6910689A69104211D061
:106188001A7F02F0030209B142F0040242F0080249
:106198000EE0184622462B460DB0BDEC048BBDE838
:1061A800F04F18471A7F02F0030209B142F00402C7
:1061B8009108013A19770D2A3FF604AE01A151F86A
:1061C80022F000BF6D410000654100008D410000D4
:1061D80065410000F53B0000854100006D4100006D
:1061E8006D41000085410000F53B0000654100005D
:1061F8008D410000654100006D4100001A7F02F0EA
:10620800030209B142F004029108013A19770D2AF4
:106218003FF601AE01A151F822F000BF5D41000038
:1062280055410000C541000055410000473C0000B1
:10623800BD4100005D4100005D410000BD4100001E
:10624800473C000055410000C54100005541000091
:106258005D410000197F01F003010DB141F0040117
:106268008D0801391D770D293FF6FDAD01A555F8BB
:1062780021F000BF7D410000754100009D410000F4
:1062880075410000973C0000954100007D410000E9
:106298007D41000095410000973C000075410000D9
:1062A8009D410000754100007D4100000B7F03F017
:1062B8000303BCF1000F01D043F004034FEA930C31
:1062C800013B81F81CC00D2B3FF6E0AD0FF2040C2A
:1062D8005CF823F0494100003D410000B141000055
:1062E8003D410000BD3C0000A541000049410000BF
:1062F80049410000A5410000BD3C00003D410000AF
:10630800B14100003D410000494100000B6A03F122
:10631800FF3BC1F820B0BBE50B6A03F1010BC1F8E4
:1063280020B0B5E51A6A013A1A6275E51A6A0132AF
:106338001A6271E51A6A013A1A6244E51A6A013268
:106348001A6240E51D6A013D1D628DE51D6A013531
:106358001D6289E51A6A023A1A6234E51A6A02323B
:106368001A6230E51D6A023D1D627DE51D6A02352F
:106378001D6279E50B6AA3F1020BC1F820B087E52D
:106388000B6A03F1020BC1F820B081E51A6A023AE0
:106398001A6241E51A6A02321A623DE50146142280
:1063A80020460DB0BDEC048BBDE8F04F184700BF88
:1063B800F0B585B0654D664E6846FFF7D1F801998E
:1063C800029A6846039BA960EA602B61FFF718F9F7
:1063D8000199029A6846039BA961EA612B62FFF75B
:1063E8005FF95C4B029ADC689F68236801991B6817
:1063F800EA62B342039AA9622A6349D1632F41DC56
:1064080004F223215148FCF707FEC0F307235FFA83
:1064180087FE47F307270344A4F81E0284F8227274
:10642800DB4384F821E284F820324FF6FF63A4F8B6
:106438001C32431C3ADB04F2222204F221234FF0DF
:10644800000C024401E013F801EF9342F444FAD13E
:106458006FEA0C0C5FFA8CFC231800F1080183F832
:1064680023C240F20123994223D0656804F50770DE
:10647800394A2B685B68934211D105B0BDE8F040FA
:1064880003F0FCBE94F8F834002BB9D105B0F0BD88
:106498002A463946204605B0BDE8F04018470A4666
:1064A8000146284605B0BDE8F04018474FF0FF0CFC
:1064B800D2E70323294A2A4D8DF804300092236835
:1064C8001B680295B34237D104F50A7605F1300C02
:1064D8002F46103610350FCF674546F8100C46F892
:1064E8000C1C46F8082C46F8043CF1D13823DFF898
:1064F80078C01C4F04F2212203CD306004F25F20E3
:1065080071600721C4F824320023C4E987C701E079
:1065180012F8011F90420B44FAD1DB4365680E4A1A
:1065280004F5077084F860322B685B68934208D1E1
:10653800452103F0A3FEA9E76A46072120469847AC
:10654800A4E701464522284698479FE7643C002077
:10655800D5310000983C0020D9050000E80F002044
:10656800A80C0020C2070003FFFE3D0030B5002341
:1065780085B01E4904461E4A0393CDE901130168FC
:106588000D68954228D11B4840F6F72104F22122D4
:10659800C4F82432A4F8283284F82A32C4E98701DE
:1065A80004F22A200A2101E012F8011F82420B445A
:1065B800FAD1DB436568104A04F5077084F82B327A
:1065C8002B685B6893420BD1102103F057FE0B4BED
:1065D8001B68E36005B030BD01AA0A21A847F6E7A9
:1065E8000146102228469847F1E700BF8C1000208A
:1065F800D5310000FFFE0800D90500003C3D002011
:106608002DE9F04FAA4B8BB0AA490022044600F5A9
:10661800836600F27C45A84FDFF8A892DFF8A882CD
:10662800069304910793CDE9083256F8043F002BEE
:1066380064D01A68D3E901010368ADF81410069212
:106648009B6898473368079058680368DB689847E1
:1066580023684FF4007132681B68D2F810A0BB425F
:106668000890099140F0C680BAF1630F03DD94F8F1
:10667800F834002B42D004F2232104A8FCF748F890
:106688004FF6FF635FFA8AFC421CA4F81C32C0F381
:1066980007234AF3072A84F821C20344A4F81E02F8
:1066A80084F822A26FEA030384F82032C0F2B38090
:1066B80004F2222104F221230022014401E013F80C
:1066C80001CF8B426244FAD1D243D3B200F1080120
:1066D80040F2012204EB000C91428CF8233200F0C6
:1066E8009C80D4F804C004F50770744ADCF80030C4
:1066F8005B68934240F0838003F0C0FDB54294D1BB
:1067080004F59C666C4FDFF8BC91DFF8BC8155F846
:10671800040F002861D00368D0E901129B68ADF826
:106728001410069298472B6807901A681846D36881
:1067380098472B6808904FF400711A681846236828
:106748000991D3F800B053689847BB4582464CD1AD
:10675800632803DD94F8F834002B3ED004F223219B
:1067680004A8FBF7D5FF4FF6FF635FFA8AFC4AF3EC
:10677800072AA4F81C32C0F30723014684F821C273
:106788000344A4F81E0284F822A2DB4384F82032D2
:10679800431C3EDB04F2222004F221230022084499
:1067A80001E013F801CF98426244FAD1D243D3B240
:1067B800601840F20122083180F82332914200F03B
:1067C8008780D4F804C004F507703C4ADCF8003030
:1067D8005B68934218D103F051FDB54297D101236C
:1067E80084F8F8340BB0BDE8F08F014604AA2046BF
:1067F800D847F2E704AA5146204698477EE70A465A
:1068080001466046984779E70A4601466046984738
:10681800E3E7FF23CCE7FF2358E70323CDF80490F1
:106828008DF808302368D3F800A0254BBA450393A8
:1068380040F097809C4604F50A7E03F1300BE2464F
:106848000EF1100E0CF1100CBAE80F00DA454EF8F4
:10685800100C4EF80C1C4EF8082C4EF8043CEED1E7
:106868003823DFF868A004F22122BCE80300CEF840
:10687800000004F25F20CEF804100721C4F81C823F
:10688800C4E988A3002301E012F8011F82420B44E7
:10689800FAD1DB436268094804F5077184F860326D
:1068A80013685B68834266D10846452124E700BF28
:1068B8003417002000100020D5310000D905000051
:1068C800A80C0020E80F0020FFFE3D00C2070003CF
:1068D8000323CDF804908DF808302368D3F800A07E
:1068E800294BBA45039341D19C4604F50A7E03F12E
:1068F800300BE2460EF1100E0CF1100CBAE80F0046
:10690800DA454EF8100C4EF80C1C4EF8082C4EF8D0
:10691800043CEED13823DFF878A004F22122BCE849
:106928000300CEF8000004F25F20CEF8041007211F
:10693800C4F81C82C4E988A3002301E012F8011FEF
:1069480082420B44FAD1DB436268104804F50771B0
:1069580084F8603213685B68834210D10846452189
:1069680039E701AA07212046D047C7E601AA07212F
:106978002046D04731E7104645229847BEE61046E4
:106988004522984729E700BFA80C0020D905000038
:10699800C20700032DE9F047B94F42F6F822D0F8B4
:1069A800003584B03E680446F31A934202D90023A6
:1069B80080F8F834D4F8E43423B1D4F80435B34279
:1069C800C0F00C81AF4DDFF8D882DFF8D892A36908
:1069D80023B13A68921B9342C0F00481606803684F
:1069E8005B69AB4240F0DB8003F022FC0028C0F278
:1069F800DA80D4F8F434D4F8E4240344072AC4F839
:106A0800F43400F0BC80082AE1D801A151F822F042
:106A18008D49000013490000FD480000E9480000C6
:106A2800D7480000C7480000A5480000FF470000FD
:106A380065480000944A00211A40C4F8E414FF2A6B
:106A4800C5D1D4F8EC34002B00F062810A2B00F099
:106A5800CE80062B00F043810B2B00F0F180BC3375
:106A680054F823000028B2D0036804F11C011B6805
:106A78009847ACE7D4F8EC34072203EB0023C4F8BA
:106A8800E424D4F8E824C4F8EC34002A9FD108237D
:106A9800C4F8E4349BE70623C4F8EC04C4F8F4040F
:106AA800C4F8E43493E7784A1A40FF2A0CBF052358
:106AB8000023C4F8E4348AE7D4F8E834042203EB6A
:106AC8000023C4F8E424C4F8E83480E70022032350
:106AD800C4F8E804C4F8F404C4F8F024C4F8E434AE
:106AE80075E7FE2876D00023C4F8E43494F8F83427
:106AF800002B7FF46CAF2268D2F800A0634A0192A1
:106B0800634A9245CDE9023340F0F380614940F68B
:106B1800F72204F22A20C4F82432A4F8283284F890
:106B28002A32C4E9871204F221220A2101E012F86C
:106B3800011F82420B44FAD1DB436268564904F5CF
:106B4800077084F82B3213685B688B4240F0D6805C
:106B5800102103F093FB3B68E36038E7FF2831D04E
:106B68003B6841F288329B1B93427FF630AF00238B
:106B78006FF0010084F8F83404B0BDE8F087D4F869
:106B8800F0345A1C2344C4F8F0241877D4F8E834B5
:106B9800013BC4F8E834002B7FF419AF77E7984736
:106BA8000028BFF626AF94F8F8040028E4D0D4F8FB
:106BB800FC3440F6C412F31A934244D8002004B0BF
:106BC800BDE8F0870123C4F8E43406F11403C4F8DF
:106BD8000435FCE60223C4F8E434F8E60023C4F8DC
:106BE800E434EFE66FF0010004B0BDE8F087E26836
:106BF8004FF47A7C39683B68891AA8FB0320E2695C
:106C0800A2EB90128009013A0CFB1033A8FB01E0BB
:106C180002EB901280092261204A0CFB1011206AB5
:106C280002FB1393034404F1100002FB01332146D5
:106C380041F8143F00F0B2FE3B68C4F80035C6E6E0
