:0200000460009A
:100000004643464200000156000000000103030081
:1000100000000000000000000000000000000000E0
:1000200000000000000000000000000000000000D0
:1000300000000000000000000000000000000000C0
:1000400000000000010408000000000000000000A3
:100050000000800000000000000000000000000020
:100060000000000000000000000000000000000090
:100070000000000000000000000000000000000080
:10008000EB04180A063204260000000000000000FD
:10009000050404240000000000000000000000002F
:1000A0000000000000000000000000000000000050
:1000B0000604000000000000000000000000000036
:1000C0000000000000000000000000000000000030
:1000D00020041808000000000000000000000000DC
:1000E0000000000000000000000000000000000010
:1000F0000000000000000000000000000000000000
:10010000D8041808000000000000000000000000F3
:100110000204180804200000000000000000000095
:1001200000000000000000000000000000000000CF
:10013000600400000000000000000000000000005B
:1001400000000000000000000000000000000000AF
:10015000000000000000000000000000000000009F
:10016000000000000000000000000000000000008F
:10017000000000000000000000000000000000007F
:10018000000000000000000000000000000000006F
:10019000000000000000000000000000000000005F
:1001A000000000000000000000000000000000004F
:1001B000000000000000000000000000000000003F
:1001C000000100000010000001000000000000001D
:1001D000000001000000000000000000000000001E
:1001E000000000000000000000000000000000000F
:1001F00000000000000000000000000000000000FF
:10020000FFFFFFFFFFFFFFFFFFFFFFFFFFFFFFFFFE
:10021000FFFFFFFFFFFFFFFFFFFFFFFFFFFFFFFFEE
:10100000D100204325160060000000000000000011
:1010100020100060001000600080016000000000EF
:1010200000000060008C010000000000FFFFFFFFD7
:10103000FFFFFFFFFFFFFFFFFFFFFFFFFFFFFFFFC0
:10104000FFFFFFFFFFFFFFFFFFFFFFFFFFFFFFFFB0
:10105000FFFFFFFFFFFFFFFFFFFFFFFFFFFFFFFFA0
:10106000FFFFFFFFFFFFFFFFFFFFFFFFFFFFFFFF90
:10140000884207D0904205D251F8043B40F8043B93
:101410008242F9D8704700BF884204D2002340F8C6
:10142000043B8142FBD870472DE9884800F0D0F991
:101430000824614B614AC3F8544161496148FFF790
:10144000DFFF614A61496248FFF7DAFF614962489C
:10145000FFF7E2FF614C4FF0E0214FF470000023F2
:101460005F4AC1F8880D44F823200133B02BFAD12C
:101470005C4B80215C4A03F8011B9342FBD14FF087
:10148000E0254D4E4FF08039DFF88CB1DFF88CA1AC
:101490004FF0FF31C5F8084D0027C6F80491C6F893
:1014A00000B1C6F8F490C6F8F0A0D5F8243DDFF8F6
:1014B000708143F4E0234D4AC5F8243DD8F81C3030
:1014C00023F07F0343F04003C8F81C30D8F82430E1
:1014D00023F07F0343F04003C8F824309166D166BF
:1014E0001167516700F07CF9414B4249A363424BBD
:1014F000E36363236B610323AF612B613F4BC5F84B
:10150000203DD5F8FC3D43F08073C5F8FC3D3C4BD5
:101510001A6842F001021A605B680B6000F09EFBE3
:10152000C6F804913748C6F800B1C6F8F490C6F87A
:10153000F0A000F03DFDD8F86C10334B334A41F475
:101540004051C8F86C101F60C3F80871C3F81871D7
:10155000C3F82871C3F83871936BDB0708D442F6DF
:1015600015632B4951651365936B43F00103936336
:10157000264A284C936843F00113936000F0ACF9BD
:1015800000F0D0FC00F010FD00F096FB00F022F916
:101590002368132BFCD900F027FC2368B3F5967F52
:1015A000FBD300F01BF900F017F900F005FD00F087
:1015B000F3FC30BFFDE700BF00800D40483901005B
:1015C000D821006000000000C0220020245B0160E0
:1015D00000000020A03A0020C022002000200020AF
:1015E000198E000000E400E0A0E400E000C00A4022
:1015F00035A20000D039002039A2000000002020D0
:10160000001000E00046C3230040084000400D40A9
:101610000000C056D43900201B1018200C0D1113E7
:1016200000C00F40074B4FF42A01074A07485A648D
:101630001864074A99639546BFF34F8FBFF36F8FC6
:10164000FFF7F2FE00C00A40BFAAAAAA07002000C6
:101650000080062043690A4A03EB011010B4037AA4
:10166000084C02EB0313D3E901321460C2681A601C
:1016700003690BB142691A605DF8044B704700BF03
:10168000AC0C002061F801004369027E03EB0212FA
:1016900092F808C08C451CD01A7AFF2A19D09142C2
:1016A00010B5044616D01A7EFF2A06D00121D3E9D0
:1016B000002312681A4201D1217610BD064B052283
:1016C000204603EB0C135B681A60FFF7C3FF21761B
:1016D000F3E770470021EAE7AC0C002043690A4AAF
:1016E00003EB011010B490F82830084C02EB031300
:1016F000D3E901321460C26A1A60036B0BB1426B0A
:101700001A605DF8044B7047AC0C002061F80100D2
:101710004369427E03EB021292F828C08C451ED02A
:1017200093F82820FF2A1AD0914210B5044617D00A
:1017300093F83820FF2A06D00121D3E9002312684C
:101740001A4201D1617610BD064B0522204603EBFB
:101750000C135B681A60FFF7C1FF6176F3E770470F
:101760000021EAE7AC0C0020164942698B6B23F498
:101770007C0343F4802370B58B630446124DD2E999
:1017800000130A681A4303690A60022200211A61E1
:101790000E4A19619A6401225A629D624FF43035F3
:1017A000DD624FF001159E6C1E6519629D651A6120
:1017B000017EFFF74FFF617E2046BDE87040FFF7D6
:1017C0008DBF00BF00C00F40B80B05053B3728197F
:1017D000704700BF704700BF704700BF00BF704731
:1017E00010B44FF0E023002110242B48C3F8941DBF
:1017F000C3F89C4D1124C3F8A00D2848C3F89C4D94
:101800001224C3F8A00D2648C3F89C4D254AC3F8FE
:10181000A00D254C42F015022448C3F89C4DC3F896
:10182000A00D234C2348C3F89C4DC3F8A00D224CB7
:10183000C3F89C2D2148224AC3F8A04DC3F89C0D43
:10184000C3F8A02D02F5A0221E4C0C321E48C3F88E
:101850009C4DC3F8A02D1D4AC3F89C0D1C4CC3F829
:10186000A02D01221B48C3F89C4DC3F8A00DC3F85E
:10187000942DBFF34F8FBFF36F8FC3F8501FBFF38B
:101880004F8FBFF36F8FD3F8142D5DF8044B42F4E4
:101890004032C3F8142D70473F00001025000803A4
:1018A00009001000A03A00201300200021000207C8
:1018B0001400002025000813090000101600202045
:1018C00027000B1317000040180000602F000B07C3
:1018D000190000702F000B13F0B5B84B1822B84E4A
:1018E0000120B84F83B0C3F85C62B749C3F8607297
:1018F000B64DC3F86462A6F53046B54CC3F86862CD
:10190000C3F86C52C3F87052C3F87452C3F87852DB
:1019100048F20C75DA661A675A679A67DA67C3F88D
:101920008020C3F88420C3F88820C1F82C03A94A7A
:10193000C1F83003C1F83403C1F83803C1F83C03DF
:10194000C1F85003A169A44B0A40A448A449134319
:10195000A44AA361D4F8843043F00C03C4F8843063
:101960004FF0FF34036843F00203036003682B4029
:101970004FF400551A439C4B026044608A689B4CAC
:1019800013409B4A43F000538360C36823F07803FD
:10199000C360036A134023430362036A1340954AFA
:1019A0002343954C43628262C2620022D1F8B83070
:1019B00023F03F0343F00103C0F8B830D1F8BC3046
:1019C0008E4923F03F0343F00103C0F8BC3040F2DE
:1019D0000563026105660467C0F8803045664467A8
:1019E0000224C0F88430036823F00203036081619D
:1019F000834B8449C46143F8042B8B42FBD1774A63
:101A0000136843F001031360136813F00103FBD163
:101A10007A48022140F2F564906140F29940D16128
:101A200040F26641C2F8004242F20144C2F810128C
:101A30007549C2F82002C2F8301240F235417348AD
:101A4000C2F83442C2F84012714CC2F8500242F25D
:101A500001207049C2F854120121C2F86042C2F854
:101A600064025E48C2F8A030C2F8A430C2F8B010D8
:101A70004369DA07FCD5012300244FF4803257492B
:101A80004361C0F8A040C0F8A420C0F8B0304B6952
:101A9000DB07FCD5012300244FF400304F4A4B6193
:101AA000C1F8A040C1F8A400C1F8B0305369DF0705
:101AB000FCD501230024584848495361C2F8A0408E
:101AC000C2F8A400C2F8B0304B69DE07FCD5D1F8EB
:101AD000003145F60D5221209BB24861934265D1F9
:101AE00000244FF4802201233C48C1F8A040C1F8F3
:101AF000A420C1F8B0304369DD07FCD501234FF4C1
:101B000000040021354A4361C0F8A040C0F8A41089
:101B1000C0F8B0305369DC07FCD501234FF4000452
:101B20004FF480302D495361C2F8A040C2F8A400A0
:101B3000C2F8B0304B69D807FCD501234FF400043C
:101B40004FF40030254A4B61C1F8A040C1F8A40011
:101B5000C1F8B0305369D907FCD501234FF4000414
:101B60002D481E495361C2F8A040C2F8A400C2F833
:101B7000B0304B69DA07FCD5D1F8003145F60D528B
:101B800021209BB24861934250D008254FF40004B5
:101B900022490020224B234A009015705A1A012333
:101BA0002148224400F0F4F903B0F0BD1E4B00229E
:101BB000C3E90022C3E9022203B0F0BD00801F4048
:101BC000F9B00100F910010000841F40F970010014
:101BD00000C00F40FFFCFF1F000300A000402A4090
:101BE00000802A401200FFFFFF37F700400000800E
:101BF00000FFF07CFF000F8363000200F05AF05AF0
:101C000000422A4000432A409F041830EB06180A7D
:101C10003806180A0632012604000300000000708E
:101C2000000000705B3A0020603200204FF4000496
:101C30004FF4802201230848C1F8A040C1F8A42035
:101C4000C1F8B0304369DB07FCD5012310254FF004
:101C5000807443619CE700BF00402A40F0B4154AFD
:101C600040274FF480314FF480564FF400554FF425
:101C7000404443F24200136913F0020F0ED113F4F3
:101C8000005F0FD013F4805F0ED0002BF3DA13F453
:101C9000803F0BD15B060BD5F0BC7047946151615E
:101CA0009061E8E75561E6E75661E4E79161E2E7B4
:101CB0005761E0E700800D403F4A03203F49F3EEC3
:101CC000095AD2F880304FF0000C9FED3D6A23F0A6
:101CD00001039FED3C5A30B4C2F88030C2F8900046
:101CE000D1F8E010384DCBB2384C39482B6007EEB4
:101CF000903A0B0DC1F30B21F8EEE77A06EE903A1D
:101D000007EE101A334BB8EEC77A2160F8EEE66A98
:101D1000314937EEC66A37EEC55A76EEC76A77EEB6
:101D2000E57A26EE266AC3ED006A25EE265AD2F839
:101D3000803067EEA64AC0ED007AC6EE275A2748E3
:101D400085EE276AC4EEA76A75EE875AFCEEE55A5F
:101D500036EE076A15EE904ABCEEC66A43EA0453B3
:101D600076EE877AC2F8803016EE103AD2F89041BB
:101D7000FCEEE77A01EA0341214317EE903AC2F8FC
:101D80009011C3F30B03D2F890110B431449C2F81E
:101D90009031D2F8803043F00203C2F88030114B0A
:101DA00080F840C0C1F840314FF0E023012230BC40
:101DB000C3F80821704700BF00810D4000441F4058
:101DC0000000AA420000B442BC390020B83900200B
:101DD000C0390020C43900200000FF0F00E400E0FB
:101DE00000200020F58F0000314B40F6617210B5E5
:101DF000C3F8202140F2044400F0D2F82D4A2E49C5
:101E0000D2F880302D4843F00303C2F880302C4BC9
:101E1000C1F8604102681A4203D1D1F8A8319A078B
:101E20001BD0254A4FF00041244B5963D2F8403172
:101E300043F00203C2F84031D2F840319B07FBD493
:101E40004FF400304FF0E0211C4B4FF00042C1F83E
:101E50008C0219209A6300F097F8184A4FF08040DE
:101E6000154C002190630A20164B11604FF420722C
:101E7000C4F8A801184600F0A3F84FF48002034606
:101E80004FF4810040F243111860C4F858311A64CD
:101E90000D4B0E4AC4F84811C3F804224FF0E0225B
:101EA0004FF400310123C2F80C11C4F8403110BDC9
:101EB00000800D4000C00F4000002E4000900D40FB
:101EC000001C1E000000002000200020DD9100000A
:101ED00008B50E4B1B6E9B0700D4FBBE72B60C4BB5
:101EE00000200C4AC3F8400103F160430A49A3F5FE
:101EF0005F2311649D46BFF34F8F4FF400130748D3
:101F0000074ADB6902609B68984700BF00441F4096
:101F100000002E4000C00A40030020000080202066
:101F2000000012EB104BA020104AD96E41F4403152
:101F300010B4D96640F23764D96E41F44071D96665
:101F400054649064936C1B06FCD4094A40F23761D8
:101F5000A02351649364936C13F08003FBD1054A72
:101F600013705DF8044B704700C00F4000400C40F8
:101F700000800C405A3A0020F8B500BFF8BC08BCFD
:101F80009E467047000000005FF800F019870000CF
:101F90005FF800F0E9A200005FF800F0818900001E
:101FA0005FF800F04D9900005FF800F0258D00000B
:101FB0005FF800F0298400005FF800F09DC6000083
:101FC0005FF800F011BA0000450100003D65000017
:0C1FD0002D6E0000B58100005DA800002F
:101FDC0070C00F40C0000000120000001300000091
:101FEC00D0841F4001000000FF000000FF00000033
:101FFC0000000000000000001300000013000000AF
:10200C00CC841F4001000000FF000000FF00000016
:10201C0000000000000000001C000000096E000021
:10202C0070C00F40000C00001100000011000000F7
:10203C00E0841F40020000002C0000001200000091
:10204C00E0841F400100000010000000110000009F
:10205C00DC841F40020000002D0000001200000074
:10206C00DC841F40010000001E000000156E000003
:10207C0080C00F4000000003190000001000000099
:10208C00E8841F4001000000FF000000FF0000007A
:10209C00000000000000000018000000100000000C
:1020AC00E4841F4001000000FF000000FF0000005E
:1020BC0000000000000000001F000000216E000066
:1020CC0016035500530042002000530065007200B7
:1020DC00690061006C000000180354006500650085
:1020EC006E00730079006400750069006E006F006B
:1020FC000403090409026200030100C032080B004A
:10210C000202020100090400000102020100052480
:10211C000010010524010101042402060524060017
:10212C00010705820310001009040100020A0000D7
:10213C000007050302400000070584024000000967
:10214C0004020002FF6AFF0007058102400001073C
:10215C00050102400001000009026200030100C0F9
:10216C0032080B0002020201000904000001020205
:10217C0001000524001001052401010104240206BC
:10218C00052406000107058203100005090401005F
:10219C00020A000000070503020002000705840282
:1021AC000002000904020002FF6AC7000705810251
:1021BC000002010705010200020100000A060002EC
:0C21CC00EF0201400100000000000000D4
:1021D80000000000000000000000000000000000F7
:1021E80000000000000000000000000000000000E7
:1021F800F8B54FF084439D695A6915400DD0244FB6
:1022080001269D6195FAA5F4B4FA84F457F82430B0
:1022180006FA04F49847A543F4D11E4B9D695A6900
:1022280015400DD01C4F01269D6195FAA5F4B4FA0E
:1022380084F457F8243006FA04F49847A543F4D1F7
:10224800164B9D695A6915400DD0154F01269D61A1
:1022580095FAA5F4B4FA84F457F8243006FA04F48D
:102268009847A543F4D10F4B9D695A6915400DD085
:102278000D4F01269D6195FAA5F4B4FA84F457F838
:10228800243006FA04F49847A543F4D1F8BD00BFFA
:10229800301B002000400042B01B0020008000429C
:1022A800301C002000C00042B01C00200348044B32
:1022B800834202D0034B03B118477047C022002065
:1022C800C0220020000000000548064B1B1AD90F49
:1022D80001EBA301491002D0034B03B11847704723
:1022E800C0220020C02200200000000010B5064CCB
:1022F800237843B9FFF7DAFF044B13B10448AFF36F
:1023080000800123237010BDE82600200000000093
:10231800008C016008B5044B1BB104490448AFF3B5
:102328000080BDE80840CFE700000000EC26002050
:10233800008C0160034608205A680A705A68C24037
:102348004A70DA888A70DA79CA709A680A719A6863
:10235800C2404A715A898A71DB7ACB71704700BFD3
:102368000A7803464260487842EA00225A60887830
:1023780042EA00425A60C87842EA00625A600A7922
:102388009A60487942EA00229A60887942EA0042D3
:1023980008209A60C97942EA01629A60704700BFD2
:1023A80000487047280A002000487047040A0020A7
:1023B80000487047840900200048704760090020E1
:1023C800004870474C090020004870472809002041
:1023D80000487047A0090020004870470409002001
:1023E80043680B704FEA132C1A0C1B0E81F801C0BE
:1023F8008A70CB7083684FEA132C0B711A0C1B0E72
:1024080081F805C08A71CB71C3680C204FEA132C80
:102418000B721A0C1B0E81F809C08A72CB727047B6
:1024280003460A680C205A604A689A608A68DA602B
:10243800704700BF004870475C0A0020004870479A
:10244800380A002000487047EC0800200048704710
:10245800C808002000487047B408002000487047AA
:102468009008002043680B704FEA132C1A0C1B0EBF
:1024780081F801C08A70CB7083684FEA132C0B7106
:102488001A0C1B0E81F805C08A71CB71C3680C2029
:102498004FEA132C0B721A0C1B0E81F809C08A72B2
:1024A800CB72704703460A680C205A604A689A60E3
:1024B8008A68DA60704700BF00487047CC0A00207D
:1024C80000487047A80A002000487047980A002072
:1024D80000487047740A002000487047000B00202D
:1024E80000487047DC0A002010B4D0F808C0094C36
:1024F800094BC4F800C0094AD0F80CC00849C3F811
:1025080000C01268006A074B5DF8044B08601A6047
:10251800704700BF783200207C320020D439002078
:10252800743200207032002090F8F804704700BF21
:10253800006A704700487047000B00200048704749
:10254800DC0A0020006A704700487047CC0A002067
:1025580000487047A80A0020406B70470048704741
:10256800B4080020004870479008002009F00CBE0D
:1025780070B5064640680C460CF08AFB030C05460D
:10258800020A2070A370030E62700246E370201DD9
:10259800716808F0E5FAB368611905F10C001A0AC8
:1025A8000B714A711A0C1B0E8A71CB71F3681C0AE5
:1025B8000B721A0C1B0E4C728A72CB7270BD00BF64
:1025C80043682DE9F0470B70044643680E461B0A22
:1025D8004B70C3888B70C379CB704368002B00F0B5
:1025E80086800B46C6F1080E0021E2680EEB030058
:1025F800043352F8212001314FEA122C1A70170CBB
:10260800150E83F801C09F70DD7062688A42ECD8AD
:1026180000F1040C00F1010A00F1020900F10308BD
:1026280000F1050E851D6346C11D00F108072269EA
:1026380032542269120A06F80A20628A06F809202A
:10264800E27C06F80820226902B333440021C6F16F
:10265800040EA2690EEB030C043352F82120013159
:10266800170A03F8042C150C100E03F8037C03F862
:10267800025C03F8010C22698A42EAD80CF1010EC7
:102688000CF102050CF103010CF10407E36906F8EB
:102698000C30E3691B0A06F80E30E38B7355E37FB1
:1026A8007354E36903B34FF00008636A4FEA88097B
:1026B80053F828000CF0ECFAF2190023054625FA25
:1026C80003F00833202B02F8010BF8D1636A0437B2
:1026D8002A4608F1010853F80910F01908F040FAE1
:1026E800E3692F444345E0D83846BDE8F08708231E
:1026F8000C270B210A254FF0090E4FF007089C46BE
:102708004FF006094FF0050A042090E770B50379E9
:1027180006460D460B7080680CF0BAFA0446030CA6
:102728006870020AEB70030EAA7002462B71681DCE
:10273800B16808F015FA601D70BD00BFF8B5838850
:1027480006460C460B7083881B0A4B7080680CF099
:102758009FFAA070030C0546020A2371030EE2706B
:1027680002466371A01DB16808F0FAF9F0680CF030
:102778008FFA691D02460023214422FA03F0083328
:10278800202B01F8010FF8D10A35F168AF1860194C
:1027980008F0E6F930690CF07BFAE21905460023E7
:1027A80025FA03F10833202B02F8011BF8D104376E
:1027B8002A463169E01908F0D3F973697819190CB8
:1027C800235422181D0A04301B0E91705570D370C3
:1027D800F8BD00BF0846114609F0FCBC10B5044618
:1027E800124894ED021AD4ED030A94ED010A07F099
:1027F8001FF894ED021AD4ED030A94ED010A0C486F
:1028080007F016F894ED021AD4ED030A94ED010AC4
:10281800084807F00DF894ED021AD4ED030A94ED78
:10282800010A0548BDE8104007F002B8A8240020B6
:10283800D8240020082500203825002010B504469B
:102848004C3007F061FE204610BD00BF2DE9F04F67
:10285800436883B00E6804460D46B342C0F0B280A8
:102868006660002E00F0B7802A460020C5F1080CEB
:1028780093790CEB020792F8058004321B0492F856
:1028880000E0D67843EA0823E16843EA0E0343EA06
:102898000663A36041F82030013063688342E7D8BB
:1028A8003E1D781CBB1CF91C07F1050A07F1060B35
:1028B800324607F1070807F10809EB5C15F800C074
:1028C800E85D1F04695C47EA0C272369074347EA68
:1028D8000167BB42C0F09480276127B32A440020D7
:1028E800C5F1040C93780CEB020692F801800432CF
:1028F8001B0412F804EC12F8017C43EA0823A169CE
:1029080043EA0E0343EA0763636141F8203001306C
:1029180023698342E6D806F1010A06F1020B06F1A3
:10292800030806F1040915F80B30A95D15F80A002B
:102938001E0415F8082046EA0026E3690E4346EA15
:102948000266B34256D3E661AEB34FF000086FF0AB
:1029580003074646002305EB0901184611F8012B29
:102968009A400833202B40EA0200F7D109F104010C
:1029780001EB000A514522D2A7EB090209F1050330
:1029880009F103092944524405EB0900534588BF5E
:1029980001220BF0A9F805EB0A0205EB0903D14661
:1029A80002F8016C626A236242F8283008F10108D3
:1029B800E3694345CED8484603B0BDE8F08F09F136
:1029C8000309E8E7B100C0680AF0C2FB6660E0608E
:1029D800002E7FF449AF08224FF00C094FF00B0886
:1029E8004FF00A0B4FF0090A072116460623052067
:1029F800042762E7B100606A0AF0AAFB6062A2E7F6
:102A0800B900A06901920AF0A3FB019AA06163E7EB
:102A1800F8B500230A780D46064602711C460A4698
:102A280012F801CF0CFA03FC0833202B44EA0C04FB
:102A3800F6D1671D2B1D052F05D918462246691D9D
:102A48000BF052F803462544002238462A71B36039
:102A5800F8BD00BFD1F800C00346C2690C30C3F806
:102A680010C0D1F804C0C3F814C089689961104730
:102A7800F8B500230E4605464A1E1C4612F801CF3B
:102A88000CFA03FC0833202B44EA0C04F6D1271D6A
:102A9800F31C042F05D918462246311D0BF024F8E3
:102AA80003463219002104F10C00D1706B60937950
:102AB800F45D1B045679D17943EA0623234343EA9C
:102AC8000163AB60937A517A1B0443EA0123117ABC
:102AD800D27A0B4343EA0263EB60F8BDF8B50B7892
:102AE8000D4607464C1D83804A7843EA02238380BB
:102AF8000E79CB78360446EA03264B7946EA036614
:102B08008B781E43B31D062B04D932460631204666
:102B18000AF0EAFF711D00236B542944BC601C466F
:102B280011F8012F9A400833202B44EA0204F7D108
:102B380006F10A010C44A14237D2A21B09362944E6
:102B48000A3AA8190AF0D0FF002329192E4418467A
:102B580001F8013CFE6011F8012B9A400833202B44
:102B680040EA0200F7D1211D0E18B1421FD2321BD4
:102B7800631D03342944043A28199E4238BF0122B0
:102B88000AF0B2FFAA192C440023301D02F8013CB8
:102B98003C61937854781B04A95DD27843EA0423F6
:102BA8000B4343EA02637B61F8BD0936CCE7033483
:102BB800E8E700BFD0ED017A17EE903A30B5C3F3DD
:102BC800C754C3F31603FF2C00F0B280002C77D053
:102BD80004F560744FEAD34C5D014CEA041CC4F35D
:102BE8000712EDB2C3F3C7045FFA8CFCC3F3C72323
:102BF800F5EEC07A4B710023CD700C71F1EE10FA2E
:102C080081F806C00B704B708B707ED4CA71D0ED02
:102C1800027A17EE903AC3F3C754C3F31603FF2C96
:102C280000F09280002C00F0B78004F560744FEA41
:102C3800D34C5D014CEA041CC4F30712EDB2C3F394
:102C4800C7045FFA8CFCC3F3C723F5EEC07A4B7355
:102C58000023CD720C73F1EE10FA81F80EC00B72DE
:102C68004B728B7255D4CA73D0ED037A17EE903A33
:102C7800C3F3C750C3F31603FF284ED000286FD004
:102C880000F5607CD80C5C01C3F3C70540EA0C1062
:102C9800C3F3C722E4B2CCF30713C0B2F5EEC07A8F
:102CA8004A7500228875CC741820F1EE10FA0D755B
:102CB8000A744A7448BF63F07F038A74CB7530BDC9
:102CC800002B00F095804FEA430E9B0D40F0988052
:102CD8004FF460734FEA4E0E013B1EF4000F1FFACB
:102CE80083FC1BB2F6D04FEA0C1CC3F306125FFA42
:102CF8008CFCCEF3160E4FEA4E15CEF3C7044CEA01
:102D0800DE4CCEF3C723EDB272E762F07F03CB71DE
:102D18007DE762F07F03CB73A6E75C01C3F3C705C9
:102D2800C3F3C722DB0CE4B243F0F0007F23B5E71E
:102D38005D01C3F3C7044FEAD34C7F22EDB2C3F35E
:102D4800C7234CF0F00C53E75D01C3F3C7044FEA07
:102D5800D34C7F22EDB2C3F3C7234CF0F00C74E7D9
:102D6800002B40D05A009B0D4DD14FF46073520098
:102D7800013B140298B21BB2F9D50001C3F3061344
:102D8800C0B2C2F316025401C2F3C70540EAD240EA
:102D9800C2F3C722E4B281E703B34FEA430E9B0DA7
:102DA8002BD14FF460734FEA4E0E013B1EF4000F17
:102DB8001FFA83FC1BB2F6D04FEA0C1CC3F30612B1
:102DC8005FFA8CFCCEF3160E4FEA4E15CEF3C7040D
:102DD8004CEADE4CCEF3C723EDB236E71A469C46E2
:102DE8001C461D4631E718461A461D461C4655E73F
:102DF8001A469C461C461D46FAE63822A446E1E7D8
:102E08003822A44675E73823BBE700BF00234A1ED3
:102E18002DE9F04105460E461C4600F10C0712F854
:102E280001CF0CFA03FC0833202B44EA0C04F6D13A
:102E380004F10408F31CB8F1040F05D9184622461A
:102E4800311D0AF051FE0346344400223846E27030
:102E58002B61A37916F808101B046679E27943EA16
:102E680006230B4343EA02636B61A37A627A1B046D
:102E7800E17A43EA0223227A1343EA6943EA0163C7
:102E8800AB61BDE8F041104710B502460879CB7830
:102E980040F2FF74000191F806E091F807C040EA9B
:102EA80013104B7940EA03304FEA0E5303F47003D2
:102EB80003434FEA0C1000F4FE6040EA1E10A042E3
:102EC80050D040F27E440FFA80FEA0423CD94FF029
:102ED800FF4000234FEA0C6C034340F2FF740CF0F0
:102EE800004C4CEA030CC2F804C0087BCB7A000102
:102EF80091F80EE091F80FC040EA13104B7B40EABE
:102F080003304FEA0E5303F4700303434FEA0C10E7
:102F180000F4FE6040EA1E10A0422CD040F27E442D
:102F28000FFA80FEA0427AD8BEF5607F00F3858054
:102F3800BEF55A7F40F38D8040F2813443F08073B0
:102F4800241A0020E34018E0BEF5607F79DCBEF566
:102F58005A7F7ADD40F2813443F08073241A0020CE
:102F6800E34001E04FF0FF406FF07F44A3425AD0A6
:102F780001335B08AEE74FF0FF406FF07F44A34298
:102F880053D001335B084FEA0C6C03430CF0004C40
:102F98004CEA030CC2F808C00B7DC87C1B0191F8F1
:102FA80016C091F815E043EA1013C87D43EA0E31C4
:102FB8004FEA0C5303F470030B43010101F4FE6163
:102FC80041EA1C1140F2FF7C614513D040F27E4477
:102FD8000FFA81FCA1421ED8BCF5607F29DCBCF544
:102FE8005A7F34DD40F2813443F08073641A002143
:102FF800E34001E04FF0FF416FF07F44A34216D059
:1030080001335B084FEA006C0B4318200CF00041B9
:103018000B43D36010BD4FF0FF410023F2E74FF0A0
:10302800FF400023AFE70C4B54E70B4BABE70A4BD1
:10303800E8E7A1F56071C905DEE7A0F56070C00595
:103048009BE7A0F56070C0058EE700208CE70021A3
:10305800D2E7002091E700BFFFFF7F00D0ED027AA2
:1030680038B517EE903AC3F3C754C3F31603FF2CD1
:1030780000F07E81002C00F0188104F560744FEA9E
:10308800D34C5D014CEA041CC4F30712EDB2C3F340
:10309800C7045FFA8CFCC3F3C723F5EEC07A4B7103
:1030A8000023CD700C71F1EE10FA81F806C00B7098
:1030B8004B708B7000F11E81CA71D0ED037A17EE48
:1030C800903AC3F3C754C3F31603FF2C00F03881BA
:1030D800002C00F0968104F560744FEAD34C5D0132
:1030E8004CEA041CC4F30712EDB2C3F3C7045FFA39
:1030F8008CFCC3F3C723F5EEC07A4B730023CD7263
:103108000C73F1EE10FA81F80EC00B724B728B72D1
:1031180000F10681CA73D0ED047A17EE903AC3F332
:10312800C754C3F31603FF2C00F0FE80002C00F0F8
:10313800D48104F560744FEAD34C5D014CEA041C59
:10314800C4F30712EDB2C3F3C7045FFA8CFCC3F3F0
:10315800C723F5EEC07A4B750023CD740C75F1EEDC
:1031680010FA81F816C00B744B748B7400F1D4807C
:10317800CA75D0ED067A17EE903AC3F3C754C3F375
:103188001603FF2C00F00C81002C00F0158104F5CB
:1031980060744FEAD34C5D014CEA041CC4F3071277
:1031A800EDB2C3F3C7045FFA8CFCC3F3C723F5EE93
:1031B800C07A4B770023CD760C77F1EE10FA81F8C0
:1031C8001EC00B764B768B7600F1A280CA77D0EDC5
:1031D800077A17EE903AC3F3C754C3F31603FF2CCC
:1031E80000F0D280002C00F0558104F560744FEA9D
:1031F800D34C5D014CEA041CC4F30712EDB2C3F3CF
:10320800C7045FFA8CFCC3F3C723F5EEC07A81F8D4
:103218002530002381F8235081F82440F1EE10FA7C
:1032280081F826C081F8203081F8213081F82230D9
:1032380069D481F82720D0ED087A17EE903AC3F3C5
:10324800C754C3F31603FF2C00F08680002C00F04F
:10325800FD8004F560744FEAD34C5D014CEA041C10
:10326800C4F30712EDB2C3F3C7045FFA8CFCC3F3CF
:10327800C723F5EEC07A81F82D30002381F82B5052
:1032880081F82C40F1EE10FA81F82EC081F8283030
:1032980081F8293081F82A3030D481F82F20303154
:1032A8002430FFF787FC303038BD002B00F0508108
:1032B8004FEA430E9B0D40F053814FF460734FEA81
:1032C8004E0E013B1EF4000F1FFA83FC1BB2F6D012
:1032D8004FEA0C1CC3F306125FFA8CFCCEF3160EF1
:1032E8004FEA4E15CEF3C7044CEADE4CCEF3C723A3
:1032F800EDB2D2E662F07F03CB71DEE662F07F03C7
:1033080081F82F30CBE762F07F0381F8273092E70E
:1033180062F07F03CB775AE762F07F03CB7528E72B
:1033280062F07F03CB73F6E65D01C3F3C7044FEA8F
:10333800D34C7F22EDB2C3F3C7234CF0F00C08E75F
:103348005D01C3F3C7044FEAD34C7F22EDB2C3F348
:10335800C7234CF0F00CCEE65D01C3F3C7044FEA77
:10336800D34C7F22EDB2C3F3C7234CF0F00C80E7B7
:103378005D01C3F3C7044FEAD34C7F22EDB2C3F318
:10338800C7234CF0F00C88E65D01C3F3C7044FEA8D
:10339800D34C7F22EDB2C3F3C7234CF0F00C34E7D3
:1033A8005D01C3F3C7044FEAD34C7F22EDB2C3F3E8
:1033B800C7234CF0F00CFAE6002B00F0C4804FEA6B
:1033C800430E9B0D40F0CF804FF460734FEA4E0ED2
:1033D800013B1EF4000F1FFA83FC1BB2F6D04FEA24
:1033E8000C1CC3F306125FFA8CFCCEF3160E4FEAE0
:1033F8004E15CEF3C7044CEADE4CCEF3C723EDB22C
:10340800D5E6002B00F09A804FEA430E9B0D40F062
:10341800AD804FF460734FEA4E0E013B1EF4000F6F
:103428001FFA83FC1BB2F6D04FEA0C1CC3F306123A
:103438005FFA8CFCCEF3160E4FEA4E15CEF3C70496
:103448004CEADE4CCEF3C723EDB254E6002B70D025
:103458004FEA430E9B0D40F08C804FF460734FEAA7
:103468004E0E013B1EF4000F1FFA83FC1BB2F6D070
:103478004FEA0C1CC3F306125FFA8CFCCEF3160E4F
:103488004FEA4E15CEF3C7044CEADE4CCEF3C72301
:10349800EDB2EEE6002B47D04FEA430E9B0D6BD101
:1034A8004FF460734FEA4E0E013B1EF4000F1FFAF3
:1034B80083FC1BB2F6D04FEA0C1CC3F306125FFA6A
:1034C8008CFCCEF3160E4FEA4E15CEF3C7044CEA29
:1034D800DE4CCEF3C723EDB297E603B34FEA430EB3
:1034E8009B0D3AD14FF460734FEA4E0E013B1EF428
:1034F800000F1FFA83FC1BB2F6D04FEA0C1CC3F373
:1035080006125FFA8CFCCEF3160E4FEA4E15CEF378
:10351800C7044CEADE4CCEF3C723EDB219E61A46CF
:103528009C461C461D4614E61A469C461C461D46EB
:103538006BE61A469C461C461D469AE61A469C4669
:103548001C461D46D7E51A469C461C461D462EE6D7
:103558001A469C461C461D469FE53822A446D2E7DB
:103568003822A446BAE63822A4463EE73822A446C2
:1035780060E73822A44681E73822A446A1E700BFC5
:10358800D0ED027A17EE903A30B5C3F3C754C3F3BF
:103598001603FF2C00F07381002C00F0138104F552
:1035A80060744FEAD34C5D014CEA041CC4F3071263
:1035B800EDB2C3F3C7045FFA8CFCC3F3C723F5EE7F
:1035C800C07A4B710023CD700C71F1EE10FA81F8BE
:1035D80006C00B704B708B7000F11981CA71D0ED69
:1035E800037A17EE903AC3F3C754C3F31603FF2CBC
:1035F80000F02E81002C00F08B8104F560744FEAF6
:10360800D34C5D014CEA041CC4F30712EDB2C3F3BA
:10361800C7045FFA8CFCC3F3C723F5EEC07A4B737B
:103628000023CD720C73F1EE10FA81F80EC00B7204
:103638004B728B7200F1FC80CA73D0ED047A17EEDE
:10364800903AC3F3C754C3F31603FF2C00F0F48079
:10365800002C00F0C28104F560744FEAD34C5D0180
:103668004CEA041CC4F30712EDB2C3F3C7045FFAB3
:103678008CFCC3F3C723F5EEC07A4B750023CD74D9
:103688000C75F1EE10FA81F816C00B744B748B743C
:1036980000F1CA80CA75D0ED067A17EE903AC3F3E6
:1036A800C754C3F31603FF2C00F00181002C00F06F
:1036B8000A8104F560744FEAD34C5D014CEA041C9E
:1036C800C4F30712EDB2C3F3C7045FFA8CFCC3F36B
:1036D800C723F5EEC07A4B770023CD760C77F1EE51
:1036E80010FA81F81EC00B764B768B7600F1988025
:1036F800CA77D0ED077A17EE903AC3F3C754C3F3ED
:103708001603FF2C00F0C780002C00F0438104F55D
:1037180060744FEAD34C5D014CEA041CC4F30712F1
:10372800EDB2C3F3C7045FFA8CFCC3F3C723F5EE0D
:10373800C07A81F82530002381F8235081F824408D
:10374800F1EE10FA81F826C081F8203081F8213096
:1037580081F822305FD481F82720D0ED087A17EE5F
:10376800903AC3F3C750C3F31603FF287CD0002850
:1037780000F0F38000F5607CD80C5C01C3F3C7054A
:1037880040EA0C10C3F3C722E4B2CCF30713C0B26B
:10379800F5EEC07A81F82D20002281F82E0081F8FC
:1037A8002B403020F1EE10FA81F82C5081F82820B7
:1037B80081F8292048BF63F07F0381F82A2081F827
:1037C8002F3030BD002B00F043814FEA430E9B0D94
:1037D80040F046814FF460734FEA4E0E013B1EF4F1
:1037E800000F1FFA83FC1BB2F6D04FEA0C1CC3F380
:1037F80006125FFA8CFCCEF3160E4FEA4E15CEF386
:10380800C7044CEADE4CCEF3C723EDB2D7E662F02C
:103818007F03CB71E3E662F07F0381F827309CE7F2
:1038280062F07F03CB7764E762F07F03CB7532E702
:1038380062F07F03CB7300E75D01C3F3C7044FEA6F
:10384800D34C7F22EDB2C3F3C7234CF0F00C12E740
:103858005D01C3F3C7044FEAD34C7F22EDB2C3F333
:10386800C7234CF0F00CD8E65C01C3F3C705C3F3DB
:10387800C722DB0CE4B243F0F0007F2388E75D0148
:10388800C3F3C7044FEAD34C7F22EDB2C3F3C72377
:103898004CF0F00C93E65D01C3F3C7044FEAD34C38
:1038A8007F22EDB2C3F3C7234CF0F00C3FE75D0174
:1038B800C3F3C7044FEAD34C7F22EDB2C3F3C72347
:1038C8004CF0F00C05E7002B00F0BD804FEA430EEA
:1038D8009B0D40F0C8804FF460734FEA4E0E013BD9
:1038E8001EF4000F1FFA83FC1BB2F6D04FEA0C1C23
:1038F800C3F306125FFA8CFCCEF3160E4FEA4E1590
:10390800CEF3C7044CEADE4CCEF3C723EDB2E0E6B3
:10391800002B00F093804FEA430E9B0D40F0A680E9
:103928004FF460734FEA4E0E013B1EF4000F1FFA6E
:1039380083FC1BB2F6D04FEA0C1CC3F306125FFAE5
:103948008CFCCEF3160E4FEA4E15CEF3C7044CEAA4
:10395800DE4CCEF3C723EDB25FE6002B69D05A00E8
:103968009B0D40F086804FF460735200013B1402B7
:1039780098B21BB2F9D50001C3F30613C0B2C2F363
:1039880016025401C2F3C70540EAD240C2F3C72267
:10399800E4B2FDE6002B47D04FEA430E9B0D6AD1F7
:1039A8004FF460734FEA4E0E013B1EF4000F1FFAEE
:1039B80083FC1BB2F6D04FEA0C1CC3F306125FFA65
:1039C8008CFCCEF3160E4FEA4E15CEF3C7044CEA24
:1039D800DE4CCEF3C723EDB2A9E603B34FEA430E9C
:1039E8009B0D3AD14FF460734FEA4E0E013B1EF423
:1039F800000F1FFA83FC1BB2F6D04FEA0C1CC3F36E
:103A080006125FFA8CFCCEF3160E4FEA4E15CEF373
:103A1800C7044CEADE4CCEF3C723EDB22BE61A46B8
:103A28009C461C461D4626E61A469C461C461D46D4
:103A38007DE618461A461D461C46A9E61A469C46C7
:103A48001C461D46E9E51A469C461C461D4640E6AE
:103A58001A469C461C461D46B1E53822A446D2E7C4
:103A68003822A446C7E63822A44645E73822A446A9
:103A780067E7382383E73822A446A2E710B5024651
:103A88000879CB7840F2FF74000191F806E091F8CC
:103A980007C040EA13104B7940EA03304FEA0E534F
:103AA80003F4700303434FEA0C1000F4FE6040EA8D
:103AB8001E10A04253D040F27E440FFA80FEA0426E
:103AC8003DD94FF0FF4000234FEA0C6C034340F20E
:103AD800FF740CF0004C4CEA030CC2F808C0087BD9
:103AE800CB7A000191F80EE091F80FC040EA13106C
:103AF8004B7B40EA03304FEA0E5303F47003034351
:103B08004FEA0C1000F4FE6040EA1E10A04230D0CC
:103B180040F27E440FFA80FEA04200F25B81BEF5BF
:103B2800607F00F37781BEF55A7F40F37B8140F2D6
:103B3800813443F08073241A0020E3401BE0BEF573
:103B4800607F00F36B81BEF55A7F40F36D8140F2D0
:103B5800813443F08073241A0020E34001E04FF0E1
:103B6800FF406FF07F44A34200F03A8101335B08C5
:103B7800AAE74FF0FF406FF07F44A34200F02E8188
:103B880001335B084FEA0C6C034340F2FF740CF0FE
:103B9800004C4CEA030CC2F80CC0087DCB7C000139
:103BA80091F816E091F817C040EA13104B7D40EAEF
:103BB80003304FEA0E5303F4700303434FEA0C102B
:103BC80000F4FE6040EA1E10A04216D040F27E4487
:103BD8000FFA80FEA04200F2F980BEF5607F00F384
:103BE8001581BEF55A7F40F3278140F2813443F0B6
:103BF8008073241A0020E34001E04FF0FF406FF08B
:103C08007F44A34200F0F08001335B084FEA0C6C5C
:103C1800034340F2FF740CF0004C4CEA030CC2F86A
:103C280010C0087FCB7E000191F81EE091F81FC0FC
:103C380040EA13104B7F40EA03304FEA0E5303F477
:103C4800700303434FEA0C1000F4FE6040EA1E10B4
:103C5800A04216D040F27E440FFA80FEA04200F245
:103C6800B180BEF5607F00F3CD80BEF55A7F40F38A
:103C7800E18040F2813443F08073241A0020E3404D
:103C880001E04FF0FF406FF07F44A34200F0AA80AC
:103C980001335B084FEA0C6C034340F2FF740CF0ED
:103CA800004C4CEA030CC2F818C091F8240091F8B3
:103CB8002330000191F826E091F827C040EA13105C
:103CC80091F8253040EA03304FEA0E5303F47003AD
:103CD80003434FEA0C1000F4FE6040EA1E10A042B5
:103CE80015D040F27E440FFA80FEA04266D8BEF599
:103CF800607F00F38380BEF55A7F40F3998040F2DD
:103D0800813443F08073241A0020E34001E04FF02F
:103D1800FF406FF07F44A34268D001335B084FEA4D
:103D28000C6C03430CF0004C4CEA030CC2F81CC0AA
:103D380091F82C3091F82B001B0191F82EC091F8C6
:103D48002DE043EA101391F82F0043EA0E314FEAB1
:103D58000C5303F470030B43010101F4FE6141EAC3
:103D68001C1140F2FF7C614513D040F27E440FFAEB
:103D780081FCA1421ED8BCF5607F3BDCBCF55A7FB4
:103D880054DD40F2813443F08073641A0021E3402B
:103D980001E04FF0FF416FF07F44A34228D0013388
:103DA8005B084FEA006C0B4330200CF000410B43DA
:103DB800136210BD4FF0FF410023F2E74FF0FF40C0
:103DC8000023ACE74FF0FF40002363E74FF0FF40CC
:103DD80000231BE74FF0FF400023D3E6174BD1E643
:103DE800164B71E6154B55E7144B0FE7134B96E747
:103DF800124BD6E7A1F56071C905CCE7A0F5607054
:103E0800C00586E7A0F56070C0053CE7A0F56070C6
:103E1800C005F4E6A0F56070C005ACE6A0F56070DA
:103E2800C0059EE60020A6E600209AE60021B2E73B
:103E380000206EE7002026E70020E0E6FFFF7F0075
:103E480030B591F807E002460C790C304FEA0E1CA9
:103E58008B79CD7824010CF4FE6C44EA15144D7965
:103E68004CEA131C1B0544EA053403F4700323438E
:103E780040F2FF74A44559D040F27E440FFA8CF505
:103E8800A44541D94FF0FF4C00234FEA0E6E43EA98
:103E98000C0340F2FF750EF0004E4EEA030EC2F816
:103EA80014E091F80CC0CB7A4FEA0C1C8C7B91F88B
:103EB8000FE04CEA131C4B7B4CEA033C230503F44C
:103EC800700343EA0C034FEA0E1C0CF4FE6C4CEA38
:103ED800141CAC4534D040F27E440FFA8CF5A4454E
:103EE80000F26981B5F5607F00F38881B5F55A7FE6
:103EF80040F38E8140F2813443F08073A4EB0C04CC
:103F08004FF0000CE3401DE0B5F5607F00F37B81C6
:103F1800B5F55A7F40F37F8140F2813443F08073D6
:103F2800A4EB0C044FF0000CE34001E04FF0FF4C11
:103F38006FF07F44A34200F0448101335B08A4E79B
:103F48004FF0FF4C6FF07F44A34200F038815C1CB7
:103F580064084FEA0E6344EA0C0440F2FF7503F06C
:103F680000432343936191F814C0CB7C4FEA0C1CA7
:103F78008C7D91F817E04CEA131C4B7D4CEA033C0E
:103F8800230503F4700343EA0C034FEA0E1C0CF4F8
:103F9800FE6C4CEA141CAC4518D040F27E440FFA73
:103FA8008CF5A44500F20381B5F5607F00F321810B
:103FB800B5F55A7F40F33A8140F2813443F080737B
:103FC800A4EB0C044FF0000CE34001E04FF0FF4C71
:103FD8006FF07F44A34200F0F8805C1C64084FEA4D
:103FE8000E6344EA0C0440F2FF7503F000432343D8
:103FF800D36191F81CC0CB7E4FEA0C1C8C7F91F8E2
:104008001FE04CEA131C4B7F4CEA033C230503F4E6
:10401800700343EA0C034FEA0E1C0CF4FE6C4CEAE6
:10402800141CAC4518D040F27E440FFA8CF5A44518
:1040380000F2B980B5F5607F00F3D680B5F55A7FF8
:1040480040F3F18040F2813443F08073A4EB0C0418
:104058004FF0000CE34001E04FF0FF4C6FF07F445D
:10406800A34200F0B0805C1C64084FEA0E6344EA87
:104078000C0440F2FF7503F000432343536291F8A8
:1040880024C091F823304FEA0C1C91F8264091F88F
:1040980027E04CEA131C91F825304CEA033C230531
:1040A80003F4700343EA0C034FEA0E1C0CF4FE6C95
:1040B8004CEA141CAC4517D040F27E440FFA8CF53C
:1040C800A4456CD8B5F5607F00F38980B5F55A7FB3
:1040D80040F3A68040F2813443F08073A4EB0C04D3
:1040E8004FF0000CE34001E04FF0FF4C6FF07F44CD
:1040F800A3426CD05C1C64084FEA0E6344EA0C04CB
:1041080040F2FF7503F000432343936291F82CE0DB
:1041180091F82B304FEA0E1E91F82FC091F82E40DF
:104128004EEA131E91F82D304FEA0C114EEA033E69
:1041380001F4FE61230541EA141103F47003A94256
:1041480043EA0E0312D040F27E440DB2A14222D8B7
:10415800B5F5607F3FDCB5F55A7F5FDD40F281340D
:1041680043F08073641A0021E34001E04FF0FF41FF
:104178006FF07F44A3422CD001335B084FEA0C6CEC
:104188000B43116B0CF0004C4CEA030CC2F82CC02A
:10419800BDE8304008474FF0FF410023EEE74FF0FD
:1041A800FF4C0024A8E74FF0FF4C00245DE74FF0D8
:1041B800FF4C002413E74FF0FF4C0024C9E61D4CC8
:1041C800C7E61C4B61E61B4C4FE71A4C07E7194C36
:1041D80092E7184BD2E7A1F56071C905C8E7ACF5BD
:1041E800607C4FEACC5C81E7ACF5607C4FEACC5C44
:1041F80034E7ACF5607C4FEACC5CE9E6ACF5607C72
:104208004FEACC5C9EE6ACF5607C4FEACC5C8FE66E
:104218004FF0000C96E64FF0000C89E60021A7E766
:104228004FF0000C62E74FF0000C17E74FF0000C5E
:10423800CEE600BFFFFF7F0010B503460879CA78B5
:1042480040F2FF74000191F806E091F807C040EAD7
:1042580012104A7940EA02304FEA0E5202F4700214
:1042680002434FEA0C1000F4FE6040EA1E10A04220
:1042780053D040F27E440FFA80FEA0423DD94FF061
:10428800FF4000224FEA0C6C024340F2FF740CF02E
:10429800004C4CEA020CC3F808C0087BCA7A00013B
:1042A80091F80EE091F80FC040EA12104A7B40EAFC
:1042B80002304FEA0E5202F4700202434FEA0C1029
:1042C80000F4FE6040EA1E10A04230D040F27E4466
:1042D8000FFA80FEA04200F23082BEF5607F00F344
:1042E8005E82BEF55A7F40F37C8240F2813442F010
:1042F8008072241A0020E2401BE0BEF5607F00F3C4
:104308005282BEF55A7F40F36E8240F2813442F009
:104318008072241A0020E24001E04FF0FF406FF065
:104328007F44A24200F0258201325208AAE74FF0EA
:10433800FF406FF07F44A24200F019820132520818
:104348004FEA0C6C024340F2FF740CF0004C4CEA4C
:10435800020CC3F80CC0087DCA7C000191F816E075
:1043680091F817C040EA12104A7D40EA02304FEA3D
:104378000E5202F4700202434FEA0C1000F4FE6081
:1043880040EA1E10A04216D040F27E440FFA80FE8A
:10439800A04200F2CE81BEF5607F00F3FC81BEF53D
:1043A8005A7F40F31C8240F2813442F08072241A12
:1043B8000020E24001E04FF0FF406FF07F44A2424E
:1043C80000F0DB81013252084FEA0C6C024340F2E4
:1043D800FF740CF0004C4CEA020CC3F810C0087FC4
:1043E800CA7E000191F81EE091F81FC040EA121041
:1043F8004A7F40EA02304FEA0E5202F4700202434A
:104408004FEA0C1000F4FE6040EA1E10A04216D0DD
:1044180040F27E440FFA80FEA04200F28681BEF58B
:10442800607F00F3B481BEF55A7F40F3D68140F235
:10443800813442F08072241A0020E24001E04FF0FB
:10444800FF406FF07F44A24200F09581013252088C
:104458004FEA0C6C024340F2FF740CF0004C4CEA3B
:10446800020CC3F818C091F8240091F82320000129
:1044780091F826E091F827C040EA121091F825201B
:1044880040EA02304FEA0E5202F4700202434FEA49
:104498000C1000F4FE6040EA1E10A04216D040F254
:1044A8007E440FFA80FEA04200F23B81BEF5607F99
:1044B80000F38181BEF55A7F40F3898140F281344F
:1044C80042F08072241A0020E24001E04FF0FF40E1
:1044D8006FF07F44A24200F04481013252084FEA53
:1044E8000C6C024340F2FF740CF0004C4CEA020CD6
:1044F800C3F81CC091F82C0091F82B20000191F80A
:104508002EE091F82FC040EA121091F82D2040EAD1
:1045180002304FEA0E5202F4700202434FEA0C10C6
:1045280000F4FE6040EA1E10A04216D040F27E441D
:104538000FFA80FEA04200F20881BEF5607F00F30A
:104548003681BEF55A7F40F3408140F2813442F013
:104558008072241A0020E24001E04FF0FF406FF023
:104568007F44A24200F0FB80013252084FEA0C6CF3
:10457800024340F2FF740CF0004C4CEA020CC3F802
:1045880020C091F8340091F83320000191F836E00A
:1045980091F837C040EA121091F8352040EA02300D
:1045A8004FEA0E5202F4700202434FEA0C1000F474
:1045B800FE6040EA1E10A04216D040F27E440FFA78
:1045C80080FEA04200F2BD80BEF5607F00F3F78058
:1045D800BEF55A7F40F3F78040F2813442F0807292
:1045E800241A0020E24001E04FF0FF406FF07F44C2
:1045F800A24200F0B280013252084FEA0C6C02432A
:1046080040F2FF740CF0004C4CEA020CC3F828C0CE
:1046180091F83C0091F83B20000191F83EE091F8B8
:104628003FC040EA121091F83D2040EA02304FEABC
:104638000E5202F4700202434FEA0C1000F4FE60BE
:1046480040EA1E10A04215D040F27E440FFA80FEC8
:10465800A0427ED8BEF5607F00F39580BEF55A7FF4
:1046680040F3B98040F2813442F08072241A00206D
:10467800E24001E04FF0FF406FF07F44A24272D069
:10468800013252084FEA0C6C02430CF0004C4CEA21
:10469800020CC3F82CC091F8442091F84300120191
:1046A80091F846C091F845E042EA101291F84700A7
:1046B80042EA0E314FEA0C5202F470020A43010139
:1046C80001F4FE6141EA1C1140F2FF7C614513D000
:1046D80040F27E440FFA81FCA1421ED8BCF5607FEF
:1046E8004DDCBCF55A7F74DD40F2813442F08072B3
:1046F800641A0021E24001E04FF0FF416FF07F446F
:10470800A24232D0013252084FEA006C0A434820D4
:104718000CF000410A431A6310BD4FF0FF4100221C
:10472800F2E74FF0FF400022D9E64FF0FF400022A9
:104738008EE64FF0FF40002246E64FF0FF40002291
:10474800FEE54FF0FF40002257E74FF0FF40002200
:104758000CE74FF0FF40002294E7244A4DE7234A34
:1047680004E7224ABBE6214A8CE7204ACCE71F4AE5
:10477800E6E51E4A86E51D4A6AE61C4A24E6A1F5D6
:104788006071C905BAE7A0F56070C00574E7A0F5C7
:104798006070C00555E6A0F56070C0050DE6A0F58F
:1047A8006070C005C5E5A0F56070C005B7E5A0F567
:1047B8006070C005D3E6A0F56070C00588E6A0F576
:1047C8006070C00512E7002010E70020C7E600204F
:1047D8007EE6002192E700204EE7002031E6002027
:1047E800EBE50020A5E5002099E500BFFFFF7F006D
:1047F800214B1A68D2E90010D3680968006810B420
:104808001842946801EA04012ED0137C03F00303D4
:10481800D9B943F008039908013B11740D2B0BD843
:10482800DFE803F00D071C070A160D0D160A071C12
:10483800070D5369013B53615DF8044B7047536999
:104848005DF8044B01335361704743F00403E0E71C
:1048580053695DF8044B023B5361704753695DF837
:10486800044B023353617047137C03F003030029A0
:10487800D1D043F00403CEE7F8300020224BD3F820
:10488800C420D2E90010D3680968006810B418423F
:10489800946801EA04012ED0137C03F00303D9B90C
:1048A80043F008039908013B11740D2B0BD8DFE87E
:1048B80003F00D071C070A160D0D160A071C070D35
:1048C8005369013B53615DF8044B704753695DF8C8
:1048D800044B01335361704743F00403E0E7536925
:1048E8005DF8044B023B5361704753695DF8044B14
:1048F800023353617047137C03F003030029D1D0BE
:1049080043F00403CEE700BFF8300020224BD3F871
:10491800C820D2E90010D3680968006810B41842AA
:10492800946801EA04012ED0137C03F00303D9B97B
:1049380043F008039908013B11740D2B0BD8DFE8ED
:1049480003F00D071C070A160D0D160A071C070DA4
:104958005369013B53615DF8044B704753695DF837
:10496800044B01335361704743F00403E0E7536994
:104978005DF8044B023B5361704753695DF8044B83
:10498800023353617047137C03F003030029D1D02D
:1049980043F00403CEE700BFF8300020224BD3F8E1
:1049A800CC20D2E90010D3680968006810B4184216
:1049B800946801EA04012ED0137C03F00303D9B9EB
:1049C80043F008039908013B11740D2B0BD8DFE85D
:1049D80003F00D071C070A160D0D160A071C070D14
:1049E8005369013B53615DF8044B704753695DF8A7
:1049F800044B01335361704743F00403E0E7536904
:104A08005DF8044B023B5361704753695DF8044BF2
:104A1800023353617047137C03F003030029D1D09C
:104A280043F00403CEE700BFF8300020224BD3F850
:104A3800D020D2E90010D3680968006810B4184281
:104A4800946801EA04012ED0137C03F00303D9B95A
:104A580043F008039908013B11740D2B0BD8DFE8CC
:104A680003F00D071C070A160D0D160A071C070D83
:104A78005369013B53615DF8044B704753695DF816
:104A8800044B01335361704743F00403E0E7536973
:104A98005DF8044B023B5361704753695DF8044B62
:104AA800023353617047137C03F003030029D1D00C
:104AB80043F00403CEE700BFF8300020224BD3F8C0
:104AC800D420D2E90010D3680968006810B41842ED
:104AD800946801EA04012ED0137C03F00303D9B9CA
:104AE80043F008039908013B11740D2B0BD8DFE83C
:104AF80003F00D071C070A160D0D160A071C070DF3
:104B08005369013B53615DF8044B704753695DF885
:104B1800044B01335361704743F00403E0E75369E2
:104B28005DF8044B023B5361704753695DF8044BD1
:104B3800023353617047137C03F003030029D1D07B
:104B480043F00403CEE700BFF8300020224BD3F82F
:104B5800D820D2E90010D3680968006810B4184258
:104B6800946801EA04012ED0137C03F00303D9B939
:104B780043F008039908013B11740D2B0BD8DFE8AB
:104B880003F00D071C070A160D0D160A071C070D62
:104B98005369013B53615DF8044B704753695DF8F5
:104BA800044B01335361704743F00403E0E7536952
:104BB8005DF8044B023B5361704753695DF8044B41
:104BC800023353617047137C03F003030029D1D0EB
:104BD80043F00403CEE700BFF8300020214B5A68A9
:104BE800D2E90010D3680968006810B418429468C4
:104BF80001EA04012ED0137C03F00303D9B943F072
:104C080008039908013B11740D2B0BD8DFE803F05A
:104C18000D071C070A160D0D160A071C070D536908
:104C2800013B53615DF8044B704753695DF8044BD1
:104C380001335361704743F00403E0E753695DF8BB
:104C4800044B023B5361704753695DF8044B0233D0
:104C580053617047137C03F003030029D1D043F05C
:104C68000403CEE7F8300020214B9A68D2E90010FF
:104C7800D3680968006810B41842946801EA04010E
:104C88002ED0137C03F00303D9B943F00803990825
:104C9800013B11740D2B0BD8DFE803F00D071C073F
:104CA8000A160D0D160A071C070D5369013B5361BF
:104CB8005DF8044B704753695DF8044B0133536149
:104CC800704743F00403E0E753695DF8044B023B87
:104CD8005361704753695DF8044B02335361704761
:104CE800137C03F003030029D1D043F00403CEE77B
:104CF800F8300020214BDA68D2E90010D36809683F
:104D0800006810B41842946801EA04012ED0137C9C
:104D180003F00303D9B943F008039908013B117460
:104D28000D2B0BD8DFE803F00D071C070A160D0D35
:104D3800160A071C070D5369013B53615DF8044BC4
:104D4800704753695DF8044B01335361704743F072
:104D58000403E0E753695DF8044B023B5361704775
:104D680053695DF8044B023353617047137C03F0B9
:104D780003030029D1D043F00403CEE7F830002024
:104D8800214B1A69D2E90010D3680968006810B489
:104D98001842946801EA04012ED0137C03F003033F
:104DA800D9B943F008039908013B11740D2B0BD8AE
:104DB800DFE803F00D071C070A160D0D160A071C7D
:104DC800070D5369013B53615DF8044B7047536904
:104DD8005DF8044B01335361704743F00403E0E787
:104DE80053695DF8044B023B5361704753695DF8A2
:104DF800044B023353617047137C03F0030300290B
:104E0800D1D043F00403CEE7F8300020214B5A6993
:104E1800D2E90010D3680968006810B41842946891
:104E280001EA04012ED0137C03F00303D9B943F03F
:104E380008039908013B11740D2B0BD8DFE803F028
:104E48000D071C070A160D0D160A071C070D5369D6
:104E5800013B53615DF8044B704753695DF8044B9F
:104E680001335361704743F00403E0E753695DF889
:104E7800044B023B5361704753695DF8044B02339E
:104E880053617047137C03F003030029D1D043F02A
:104E98000403CEE7F8300020214B9A69D2E90010CC
:104EA800D3680968006810B41842946801EA0401DC
:104EB8002ED0137C03F00303D9B943F008039908F3
:104EC800013B11740D2B0BD8DFE803F00D071C070D
:104ED8000A160D0D160A071C070D5369013B53618D
:104EE8005DF8044B704753695DF8044B0133536117
:104EF800704743F00403E0E753695DF8044B023B55
:104F08005361704753695DF8044B0233536170472E
:104F1800137C03F003030029D1D043F00403CEE748
:104F2800F8300020214BDA69D2E90010D36809680B
:104F3800006810B41842946801EA04012ED0137C6A
:104F480003F00303D9B943F008039908013B11742E
:104F58000D2B0BD8DFE803F00D071C070A160D0D03
:104F6800160A071C070D5369013B53615DF8044B92
:104F7800704753695DF8044B01335361704743F040
:104F88000403E0E753695DF8044B023B5361704743
:104F980053695DF8044B023353617047137C03F087
:104FA80003030029D1D043F00403CEE7F8300020F2
:104FB800214B1A6AD2E90010D3680968006810B456
:104FC8001842946801EA04012ED0137C03F003030D
:104FD800D9B943F008039908013B11740D2B0BD87C
:104FE800DFE803F00D071C070A160D0D160A071C4B
:104FF800070D5369013B53615DF8044B70475369D2
:105008005DF8044B01335361704743F00403E0E754
:1050180053695DF8044B023B5361704753695DF86F
:10502800044B023353617047137C03F003030029D8
:10503800D1D043F00403CEE7F8300020214B5A6A60
:10504800D2E90010D3680968006810B4184294685F
:1050580001EA04012ED0137C03F00303D9B943F00D
:1050680008039908013B11740D2B0BD8DFE803F0F6
:105078000D071C070A160D0D160A071C070D5369A4
:10508800013B53615DF8044B704753695DF8044B6D
:1050980001335361704743F00403E0E753695DF857
:1050A800044B023B5361704753695DF8044B02336C
:1050B80053617047137C03F003030029D1D043F0F8
:1050C8000403CEE7F8300020214B9A6AD2E9001099
:1050D800D3680968006810B41842946801EA0401AA
:1050E8002ED0137C03F00303D9B943F008039908C1
:1050F800013B11740D2B0BD8DFE803F00D071C07DB
:105108000A160D0D160A071C070D5369013B53615A
:105118005DF8044B704753695DF8044B01335361E4
:10512800704743F00403E0E753695DF8044B023B22
:105138005361704753695DF8044B023353617047FC
:10514800137C03F003030029D1D043F00403CEE716
:10515800F8300020214BDA6AD2E90010D3680968D8
:10516800006810B41842946801EA04012ED0137C38
:1051780003F00303D9B943F008039908013B1174FC
:105188000D2B0BD8DFE803F00D071C070A160D0DD1
:10519800160A071C070D5369013B53615DF8044B60
:1051A800704753695DF8044B01335361704743F00E
:1051B8000403E0E753695DF8044B023B5361704711
:1051C80053695DF8044B023353617047137C03F055
:1051D80003030029D1D043F00403CEE7F8300020C0
:1051E800214B1A6BD2E90010D3680968006810B423
:1051F8001842946801EA04012ED0137C03F00303DB
:10520800D9B943F008039908013B11740D2B0BD849
:10521800DFE803F00D071C070A160D0D160A071C18
:10522800070D5369013B53615DF8044B704753699F
:105238005DF8044B01335361704743F00403E0E722
:1052480053695DF8044B023B5361704753695DF83D
:10525800044B023353617047137C03F003030029A6
:10526800D1D043F00403CEE7F8300020214B5A6B2D
:10527800D2E90010D3680968006810B4184294682D
:1052880001EA04012ED0137C03F00303D9B943F0DB
:1052980008039908013B11740D2B0BD8DFE803F0C4
:1052A8000D071C070A160D0D160A071C070D536972
:1052B800013B53615DF8044B704753695DF8044B3B
:1052C80001335361704743F00403E0E753695DF825
:1052D800044B023B5361704753695DF8044B02333A
:1052E80053617047137C03F003030029D1D043F0C6
:1052F8000403CEE7F8300020214B9A6BD2E9001066
:10530800D3680968006810B41842946801EA040177
:105318002ED0137C03F00303D9B943F0080399088E
:10532800013B11740D2B0BD8DFE803F00D071C07A8
:105338000A160D0D160A071C070D5369013B536128
:105348005DF8044B704753695DF8044B01335361B2
:10535800704743F00403E0E753695DF8044B023BF0
:105368005361704753695DF8044B023353617047CA
:10537800137C03F003030029D1D043F00403CEE7E4
:10538800F8300020214BDA6BD2E90010D3680968A5
:10539800006810B41842946801EA04012ED0137C06
:1053A80003F00303D9B943F008039908013B1174CA
:1053B8000D2B0BD8DFE803F00D071C070A160D0D9F
:1053C800160A071C070D5369013B53615DF8044B2E
:1053D800704753695DF8044B01335361704743F0DC
:1053E8000403E0E753695DF8044B023B53617047DF
:1053F80053695DF8044B023353617047137C03F023
:1054080003030029D1D043F00403CEE7F83000208D
:10541800214B1A6CD2E90010D3680968006810B4EF
:105428001842946801EA04012ED0137C03F00303A8
:10543800D9B943F008039908013B11740D2B0BD817
:10544800DFE803F00D071C070A160D0D160A071CE6
:10545800070D5369013B53615DF8044B704753696D
:105468005DF8044B01335361704743F00403E0E7F0
:1054780053695DF8044B023B5361704753695DF80B
:10548800044B023353617047137C03F00303002974
:10549800D1D043F00403CEE7F8300020214B5A6CFA
:1054A800D2E90010D3680968006810B418429468FB
:1054B80001EA04012ED0137C03F00303D9B943F0A9
:1054C80008039908013B11740D2B0BD8DFE803F092
:1054D8000D071C070A160D0D160A071C070D536940
:1054E800013B53615DF8044B704753695DF8044B09
:1054F80001335361704743F00403E0E753695DF8F3
:10550800044B023B5361704753695DF8044B023307
:1055180053617047137C03F003030029D1D043F093
:105528000403CEE7F8300020214B9A6CD2E9001032
:10553800D3680968006810B41842946801EA040145
:105548002ED0137C03F00303D9B943F0080399085C
:10555800013B11740D2B0BD8DFE803F00D071C0776
:105568000A160D0D160A071C070D5369013B5361F6
:105578005DF8044B704753695DF8044B0133536180
:10558800704743F00403E0E753695DF8044B023BBE
:105598005361704753695DF8044B02335361704798
:1055A800137C03F003030029D1D043F00403CEE7B2
:1055B800F8300020214BDA6CD2E90010D368096872
:1055C800006810B41842946801EA04012ED0137CD4
:1055D80003F00303D9B943F008039908013B117498
:1055E8000D2B0BD8DFE803F00D071C070A160D0D6D
:1055F800160A071C070D5369013B53615DF8044BFC
:10560800704753695DF8044B01335361704743F0A9
:105618000403E0E753695DF8044B023B53617047AC
:1056280053695DF8044B023353617047137C03F0F0
:1056380003030029D1D043F00403CEE7F83000205B
:10564800214B1A6DD2E90010D3680968006810B4BC
:105658001842946801EA04012ED0137C03F0030376
:10566800D9B943F008039908013B11740D2B0BD8E5
:10567800DFE803F00D071C070A160D0D160A071CB4
:10568800070D5369013B53615DF8044B704753693B
:105698005DF8044B01335361704743F00403E0E7BE
:1056A80053695DF8044B023B5361704753695DF8D9
:1056B800044B023353617047137C03F00303002942
:1056C800D1D043F00403CEE7F8300020214B5A6DC7
:1056D800D2E90010D3680968006810B418429468C9
:1056E80001EA04012ED0137C03F00303D9B943F077
:1056F80008039908013B11740D2B0BD8DFE803F060
:105708000D071C070A160D0D160A071C070D53690D
:10571800013B53615DF8044B704753695DF8044BD6
:1057280001335361704743F00403E0E753695DF8C0
:10573800044B023B5361704753695DF8044B0233D5
:1057480053617047137C03F003030029D1D043F061
:105758000403CEE7F8300020214B9A6DD2E90010FF
:10576800D3680968006810B41842946801EA040113
:105778002ED0137C03F00303D9B943F0080399082A
:10578800013B11740D2B0BD8DFE803F00D071C0744
:105798000A160D0D160A071C070D5369013B5361C4
:1057A8005DF8044B704753695DF8044B013353614E
:1057B800704743F00403E0E753695DF8044B023B8C
:1057C8005361704753695DF8044B02335361704766
:1057D800137C03F003030029D1D043F00403CEE780
:1057E800F8300020214BDA6DD2E90010D36809683F
:1057F800006810B41842946801EA04012ED0137CA2
:1058080003F00303D9B943F008039908013B117465
:105818000D2B0BD8DFE803F00D071C070A160D0D3A
:10582800160A071C070D5369013B53615DF8044BC9
:10583800704753695DF8044B01335361704743F077
:105848000403E0E753695DF8044B023B536170477A
:1058580053695DF8044B023353617047137C03F0BE
:1058680003030029D1D043F00403CEE7F830002029
:10587800214B1A6ED2E90010D3680968006810B489
:105888001842946801EA04012ED0137C03F0030344
:10589800D9B943F008039908013B11740D2B0BD8B3
:1058A800DFE803F00D071C070A160D0D160A071C82
:1058B800070D5369013B53615DF8044B7047536909
:1058C8005DF8044B01335361704743F00403E0E78C
:1058D80053695DF8044B023B5361704753695DF8A7
:1058E800044B023353617047137C03F00303002910
:1058F800D1D043F00403CEE7F8300020214B5A6E94
:10590800D2E90010D3680968006810B41842946896
:1059180001EA04012ED0137C03F00303D9B943F044
:1059280008039908013B11740D2B0BD8DFE803F02D
:105938000D071C070A160D0D160A071C070D5369DB
:10594800013B53615DF8044B704753695DF8044BA4
:1059580001335361704743F00403E0E753695DF88E
:10596800044B023B5361704753695DF8044B0233A3
:1059780053617047137C03F003030029D1D043F02F
:105988000403CEE7F8300020214B9A6ED2E90010CC
:10599800D3680968006810B41842946801EA0401E1
:1059A8002ED0137C03F00303D9B943F008039908F8
:1059B800013B11740D2B0BD8DFE803F00D071C0712
:1059C8000A160D0D160A071C070D5369013B536192
:1059D8005DF8044B704753695DF8044B013353611C
:1059E800704743F00403E0E753695DF8044B023B5A
:1059F8005361704753695DF8044B02335361704734
:105A0800137C03F003030029D1D043F00403CEE74D
:105A1800F8300020214BDA6ED2E90010D36809680B
:105A2800006810B41842946801EA04012ED0137C6F
:105A380003F00303D9B943F008039908013B117433
:105A48000D2B0BD8DFE803F00D071C070A160D0D08
:105A5800160A071C070D5369013B53615DF8044B97
:105A6800704753695DF8044B01335361704743F045
:105A78000403E0E753695DF8044B023B5361704748
:105A880053695DF8044B023353617047137C03F08C
:105A980003030029D1D043F00403CEE7F8300020F7
:105AA800214B1A6FD2E90010D3680968006810B456
:105AB8001842946801EA04012ED0137C03F0030312
:105AC800D9B943F008039908013B11740D2B0BD881
:105AD800DFE803F00D071C070A160D0D160A071C50
:105AE800070D5369013B53615DF8044B70475369D7
:105AF8005DF8044B01335361704743F00403E0E75A
:105B080053695DF8044B023B5361704753695DF874
:105B1800044B023353617047137C03F003030029DD
:105B2800D1D043F00403CEE7F8300020214B5A6F60
:105B3800D2E90010D3680968006810B41842946864
:105B480001EA04012ED0137C03F00303D9B943F012
:105B580008039908013B11740D2B0BD8DFE803F0FB
:105B68000D071C070A160D0D160A071C070D5369A9
:105B7800013B53615DF8044B704753695DF8044B72
:105B880001335361704743F00403E0E753695DF85C
:105B9800044B023B5361704753695DF8044B023371
:105BA80053617047137C03F003030029D1D043F0FD
:105BB8000403CEE7F8300020214B9A6FD2E9001099
:105BC800D3680968006810B41842946801EA0401AF
:105BD8002ED0137C03F00303D9B943F008039908C6
:105BE800013B11740D2B0BD8DFE803F00D071C07E0
:105BF8000A160D0D160A071C070D5369013B536160
:105C08005DF8044B704753695DF8044B01335361E9
:105C1800704743F00403E0E753695DF8044B023B27
:105C28005361704753695DF8044B02335361704701
:105C3800137C03F003030029D1D043F00403CEE71B
:105C4800F8300020214BDA6FD2E90010D3680968D8
:105C5800006810B41842946801EA04012ED0137C3D
:105C680003F00303D9B943F008039908013B117401
:105C78000D2B0BD8DFE803F00D071C070A160D0DD6
:105C8800160A071C070D5369013B53615DF8044B65
:105C9800704753695DF8044B01335361704743F013
:105CA8000403E0E753695DF8044B023B5361704716
:105CB80053695DF8044B023353617047137C03F05A
:105CC80003030029D1D043F00403CEE7F8300020C5
:105CD800224BD3F88020D2E90010D3680968006805
:105CE80010B41842946801EA04012ED0137C03F022
:105CF8000303D9B943F008039908013B11740D2B2C
:105D08000BD8DFE803F00D071C070A160D0D160A5D
:105D1800071C070D5369013B53615DF8044B70473D
:105D280053695DF8044B01335361704743F0040332
:105D3800E0E753695DF8044B023B536170475369D0
:105D48005DF8044B023353617047137C03F003037F
:105D58000029D1D043F00403CEE700BFF83000207B
:105D6800224BD3F88420D2E90010D3680968006870
:105D780010B41842946801EA04012ED0137C03F091
:105D88000303D9B943F008039908013B11740D2B9B
:105D98000BD8DFE803F00D071C070A160D0D160ACD
:105DA800071C070D5369013B53615DF8044B7047AD
:105DB80053695DF8044B01335361704743F00403A2
:105DC800E0E753695DF8044B023B53617047536940
:105DD8005DF8044B023353617047137C03F00303EF
:105DE8000029D1D043F00403CEE700BFF8300020EB
:105DF800224BD3F88820D2E90010D36809680068DC
:105E080010B41842946801EA04012ED0137C03F000
:105E18000303D9B943F008039908013B11740D2B0A
:105E28000BD8DFE803F00D071C070A160D0D160A3C
:105E3800071C070D5369013B53615DF8044B70471C
:105E480053695DF8044B01335361704743F0040311
:105E5800E0E753695DF8044B023B536170475369AF
:105E68005DF8044B023353617047137C03F003035E
:105E78000029D1D043F00403CEE700BFF83000205A
:105E8800224BD3F88C20D2E90010D3680968006847
:105E980010B41842946801EA04012ED0137C03F070
:105EA8000303D9B943F008039908013B11740D2B7A
:105EB8000BD8DFE803F00D071C070A160D0D160AAC
:105EC800071C070D5369013B53615DF8044B70478C
:105ED80053695DF8044B01335361704743F0040381
:105EE800E0E753695DF8044B023B5361704753691F
:105EF8005DF8044B023353617047137C03F00303CE
:105F08000029D1D043F00403CEE700BFF8300020C9
:105F1800224BD3F89020D2E90010D36809680068B2
:105F280010B41842946801EA04012ED0137C03F0DF
:105F38000303D9B943F008039908013B11740D2BE9
:105F48000BD8DFE803F00D071C070A160D0D160A1B
:105F5800071C070D5369013B53615DF8044B7047FB
:105F680053695DF8044B01335361704743F00403F0
:105F7800E0E753695DF8044B023B5361704753698E
:105F88005DF8044B023353617047137C03F003033D
:105F98000029D1D043F00403CEE700BFF830002039
:105FA800224BD3F89420D2E90010D368096800681E
:105FB80010B41842946801EA04012ED0137C03F04F
:105FC8000303D9B943F008039908013B11740D2B59
:105FD8000BD8DFE803F00D071C070A160D0D160A8B
:105FE800071C070D5369013B53615DF8044B70476B
:105FF80053695DF8044B01335361704743F0040360
:10600800E0E753695DF8044B023B536170475369FD
:106018005DF8044B023353617047137C03F00303AC
:106028000029D1D043F00403CEE700BFF8300020A8
:10603800224BD3F89820D2E90010D3680968006889
:1060480010B41842946801EA04012ED0137C03F0BE
:106058000303D9B943F008039908013B11740D2BC8
:106068000BD8DFE803F00D071C070A160D0D160AFA
:10607800071C070D5369013B53615DF8044B7047DA
:1060880053695DF8044B01335361704743F00403CF
:10609800E0E753695DF8044B023B5361704753696D
:1060A8005DF8044B023353617047137C03F003031C
:1060B8000029D1D043F00403CEE700BFF830002018
:1060C800224BD3F89C20D2E90010D36809680068F5
:1060D80010B41842946801EA04012ED0137C03F02E
:1060E8000303D9B943F008039908013B11740D2B38
:1060F8000BD8DFE803F00D071C070A160D0D160A6A
:10610800071C070D5369013B53615DF8044B704749
:1061180053695DF8044B01335361704743F004033E
:10612800E0E753695DF8044B023B536170475369DC
:106138005DF8044B023353617047137C03F003038B
:106148000029D1D043F00403CEE700BFF830002087
:10615800224BD3F8A020D2E90010D3680968006860
:1061680010B41842946801EA04012ED0137C03F09D
:106178000303D9B943F008039908013B11740D2BA7
:106188000BD8DFE803F00D071C070A160D0D160AD9
:10619800071C070D5369013B53615DF8044B7047B9
:1061A80053695DF8044B01335361704743F00403AE
:1061B800E0E753695DF8044B023B5361704753694C
:1061C8005DF8044B023353617047137C03F00303FB
:1061D8000029D1D043F00403CEE700BFF8300020F7
:1061E800224BD3F8A420D2E90010D36809680068CC
:1061F80010B41842946801EA04012ED0137C03F00D
:106208000303D9B943F008039908013B11740D2B16
:106218000BD8DFE803F00D071C070A160D0D160A48
:10622800071C070D5369013B53615DF8044B704728
:1062380053695DF8044B01335361704743F004031D
:10624800E0E753695DF8044B023B536170475369BB
:106258005DF8044B023353617047137C03F003036A
:106268000029D1D043F00403CEE700BFF830002066
:10627800224BD3F8A820D2E90010D3680968006837
:1062880010B41842946801EA04012ED0137C03F07C
:106298000303D9B943F008039908013B11740D2B86
:1062A8000BD8DFE803F00D071C070A160D0D160AB8
:1062B800071C070D5369013B53615DF8044B704798
:1062C80053695DF8044B01335361704743F004038D
:1062D800E0E753695DF8044B023B5361704753692B
:1062E8005DF8044B023353617047137C03F00303DA
:1062F8000029D1D043F00403CEE700BFF8300020D6
:10630800224BD3F8AC20D2E90010D36809680068A2
:1063180010B41842946801EA04012ED0137C03F0EB
:106328000303D9B943F008039908013B11740D2BF5
:106338000BD8DFE803F00D071C070A160D0D160A27
:10634800071C070D5369013B53615DF8044B704707
:1063580053695DF8044B01335361704743F00403FC
:10636800E0E753695DF8044B023B5361704753699A
:106378005DF8044B023353617047137C03F0030349
:106388000029D1D043F00403CEE700BFF830002045
:10639800224BD3F8B020D2E90010D368096800680E
:1063A80010B41842946801EA04012ED0137C03F05B
:1063B8000303D9B943F008039908013B11740D2B65
:1063C8000BD8DFE803F00D071C070A160D0D160A97
:1063D800071C070D5369013B53615DF8044B704777
:1063E80053695DF8044B01335361704743F004036C
:1063F800E0E753695DF8044B023B5361704753690A
:106408005DF8044B023353617047137C03F00303B8
:106418000029D1D043F00403CEE700BFF8300020B4
:10642800224BD3F8B420D2E90010D3680968006879
:1064380010B41842946801EA04012ED0137C03F0CA
:106448000303D9B943F008039908013B11740D2BD4
:106458000BD8DFE803F00D071C070A160D0D160A06
:10646800071C070D5369013B53615DF8044B7047E6
:1064780053695DF8044B01335361704743F00403DB
:10648800E0E753695DF8044B023B53617047536979
:106498005DF8044B023353617047137C03F0030328
:1064A8000029D1D043F00403CEE700BFF830002024
:1064B800224BD3F8B820D2E90010D36809680068E5
:1064C80010B41842946801EA04012ED0137C03F03A
:1064D8000303D9B943F008039908013B11740D2B44
:1064E8000BD8DFE803F00D071C070A160D0D160A76
:1064F800071C070D5369013B53615DF8044B704756
:1065080053695DF8044B01335361704743F004034A
:10651800E0E753695DF8044B023B536170475369E8
:106528005DF8044B023353617047137C03F0030397
:106538000029D1D043F00403CEE700BFF830002093
:10654800224BD3F8BC20D2E90010D3680968006850
:1065580010B41842946801EA04012ED0137C03F0A9
:106568000303D9B943F008039908013B11740D2BB3
:106578000BD8DFE803F00D071C070A160D0D160AE5
:10658800071C070D5369013B53615DF8044B7047C5
:1065980053695DF8044B01335361704743F00403BA
:1065A800E0E753695DF8044B023B53617047536958
:1065B8005DF8044B023353617047137C03F0030307
:1065C8000029D1D043F00403CEE700BFF830002003
:1065D800224BD3F8C020D2E90010D36809680068BC
:1065E80010B41842946801EA04012ED0137C03F019
:1065F8000303D9B943F008039908013B11740D2B23
:106608000BD8DFE803F00D071C070A160D0D160A54
:10661800071C070D5369013B53615DF8044B704734
:1066280053695DF8044B01335361704743F0040329
:10663800E0E753695DF8044B023B536170475369C7
:106648005DF8044B023353617047137C03F0030376
:106658000029D1D043F00403CEE700BFF830002072
:106668006329F0B5044685B00E46104603DD94F85C
:10667800F854002D3FD0036804F223211B68984783
:10668800C0F307235FFA86FE4FF6FF61034446F323
:106698000726A4F81C12DB4384F82262A4F81E0221
:1066A80084F82032431C84F821E22EDB04F22222F3
:1066B80004F221234FF0000C024401E013F801EF2B
:1066C8009342F444FAD16FEA0C0C5FFA8CFC00F1A7
:1066D800080540F2012322189D4282F823C217D0F0
:1066E800666804F50770334A33685B68934205D1DE
:1066F800294605F06FFD284605B0F0BD01462A463B
:1067080030469847284605B0F0BD4FF0FF0CDEE74D
:10671800294A032123688DF808101B680192274A2B
:10672800274D934203953AD104F50A7605F1300EC8
:10673800AC4610361035BCE80F00F44546F8100C8E
:1067480046F80C1C46F8082C46F8043CF0D13823CF
:10675800DFF874E01B4F04F2212203CD306004F20D
:106768005F2071600721C4F824320023C4E987E759
:1067780001E012F8011F90420B44FAD1DB4365682F
:106788000C4A04F5077084F860322B685B68934202
:106798000AD1452105F01EFD4FF0FF35ABE701AAF0
:1067A800072120469847F7E701464522284698479B
:1067B800F2E700BF05060000B00B0020914400007E
:1067C800BC090020C2070003FFFE3D0008B50E48C3
:1067D8000FF092F90D4802F055FC0C4802F076FCD7
:1067E80008B9002008BD0A4802F04CFC084802F02D
:1067F8006DFC0028F5D0074802F044FC0548BDE8C8
:10680800084002F063BC00BFDC2C0020E43100200B
:1068180080320020BC32002030B5002183B0244DE6
:1068280004460DF106034160056001AA8160C1605C
:106838000DF102011F4802F06BFCBDF90230204641
:1068480005EE103ABDF9043006EE103ABDF90630EF
:10685800B8EEC55B07EE103AB8EEC66B9FED103B7D
:10686800B8EEC77B25EE035B26EE036B27EE037BB2
:106878009FED0D4B25EE045B26EE046B27EE047BA3
:10688800B7EEC55BB7EEC66BB7EEC77B84ED015AB2
:1068980084ED026A84ED037A03B030BDAFF3008063
:1068A800000000000000103F1F85EB51B89E2340F8
:1068B800800B0020E431002030B5002183B0244D46
:1068C80004460DF106034160056001AA8160C160BC
:1068D8000DF102011F4802F06BFCBDF902302046A1
:1068E80006EE103ABDF9043007EE103ABDF906304D
:1068F800B8EEC66B02EE103AB8EEC77B9FED103BC0
:10690800B8EEC22B86EE035B87EE036B82EE037B49
:106918009FED0D4B25EE045B26EE046BB7EEC55BD1
:1069280027EE047B84ED015AB7EEC66BB7EEC77B42
:1069380084ED026A84ED037A03B030BDAFF30080C2
:106948000000000000606040399D52A246DF913F80
:10695800800B00208032002030B5002183B0244D08
:1069680004460DF106034160056001AA8160C1601B
:106978000DF102011F4802F0EBFBBDF90230204681
:1069880005EE103ABDF9043006EE103ABDF90630AE
:10699800B8EEC55B07EE103AB8EEC66B9FED103B3C
:1069A800B8EEC77B25EE035B26EE036B27EE037B71
:1069B8009FED0D4B25EE045B26EE046B27EE047B62
:1069C800B7EEC55BB7EEC66BB7EEC77B84ED015A71
:1069D80084ED026A84ED037A03B030BDAFF3008022
:1069E800333333333333E33F8DEDB5A0F7C6B03ED1
:1069F800800B0020BC3200200B4610B5362800F270
:106A08009782DFE810F08C02820279027002670236
:106A18005E0255024C0243023A02310228021F026A
:106A2800BF01B601AD01A4019B019201890180015A
:106A380077016E0165015C0153014A01410138018A
:106A48002F0126011D0113010901FF00F500EB00CC
:106A5800E100D700CD00C300B900AF00A5009B003E
:106A6800910087007D00730069005F0055004B00AE
:106A780041003700C84C0422C8493620C4F8D83031
:106A880003F0EAFF012010BDC34C0422C44935209D
:106A9800C4F8D43003F0E0FF012010BDBE4C04223E
:106AA800C0493420C4F8D03003F0D6FF012010BD0F
:106AB800B94C0422BC493320C4F8CC3003F0CCFFD5
:106AC800012010BDB44C0422B8493220C4F8C830A3
:106AD80003F0C2FF012010BDAF4C0422B44931209D
:106AE800C4F8C43003F0B8FF012010BDAA4C04223A
:106AF800B0493020C4F8C03003F0AEFF012010BD0B
:106B0800A54C0422AC492F20C4F8BC3003F0A4FFE4
:106B1800012010BDA04C0422A8492E20C4F8B8308A
:106B280003F09AFF012010BD9B4C0422A4492D209C
:106B3800C4F8B43003F090FF012010BD964C042235
:106B4800A0492C20C4F8B03003F086FF012010BD06
:106B5800914C04229C492B20C4F8AC3003F07CFFF4
:106B6800012010BD8C4C042298492A20C4F8A83072
:106B780003F072FF012010BD874C0422944929209C
:106B8800C4F8A43003F068FF012010BD824C042231
:106B980090492820C4F8A03003F05EFF012010BD02
:106BA8007D4C04228C492720C4F89C3003F054FF04
:106BB800012010BD784C042288492620C4F898305A
:106BC80003F04AFF012010BD734C0422844925209C
:106BD800C4F8943003F040FF012010BD6E4C04222D
:106BE80080492420C4F8903003F036FF012010BDFE
:106BF800694C04227C492320C4F88C3003F02CFF14
:106C0800012010BD644C042278492220C4F8883041
:106C180003F022FF012010BD5F4C0422744921209B
:106C2800C4F8843003F018FF012010BD5A4C042228
:106C380070492020C4F8803003F00EFF012010BDF9
