:0200000460009A
:100000004643464200000156000000000103030081
:1000100000000000000000000000000000000000E0
:1000200000000000000000000000000000000000D0
:1000300000000000000000000000000000000000C0
:1000400000000000010408000000000000000000A3
:100050000000800000000000000000000000000020
:100060000000000000000000000000000000000090
:100070000000000000000000000000000000000080
:10008000EB04180A063204260000000000000000FD
:10009000050404240000000000000000000000002F
:1000A0000000000000000000000000000000000050
:1000B0000604000000000000000000000000000036
:1000C0000000000000000000000000000000000030
:1000D00020041808000000000000000000000000DC
:1000E0000000000000000000000000000000000010
:1000F0000000000000000000000000000000000000
:10010000D8041808000000000000000000000000F3
:100110000204180804200000000000000000000095
:1001200000000000000000000000000000000000CF
:10013000600400000000000000000000000000005B
:1001400000000000000000000000000000000000AF
:10015000000000000000000000000000000000009F
:10016000000000000000000000000000000000008F
:10017000000000000000000000000000000000007F
:10018000000000000000000000000000000000006F
:10019000000000000000000000000000000000005F
:1001A000000000000000000000000000000000004F
:1001B000000000000000000000000000000000003F
:1001C000000100000010000001000000000000001D
:1001D000000001000000000000000000000000001E
:1001E000000000000000000000000000000000000F
:1001F00000000000000000000000000000000000FF
:10020000FFFFFFFFFFFFFFFFFFFFFFFFFFFFFFFFFE
:10021000FFFFFFFFFFFFFFFFFFFFFFFFFFFFFFFFEE
:10100000D100204325160060000000000000000011
:10101000201000600010006000D800600000000098
:101020000000006000E4000000000000FFFFFFFF80
:10103000FFFFFFFFFFFFFFFFFFFFFFFFFFFFFFFFC0
:10104000FFFFFFFFFFFFFFFFFFFFFFFFFFFFFFFFB0
:10105000FFFFFFFFFFFFFFFFFFFFFFFFFFFFFFFFA0
:10106000FFFFFFFFFFFFFFFFFFFFFFFFFFFFFFFF90
:10140000884207D0904205D251F8043B40F8043B93
:101410008242F9D8704700BF884204D2002340F8C6
:10142000043B8142FBD870472DE9884800F0D0F991
:101430000824614B614AC3F8544161496148FFF790
:10144000DFFF614A61496248FFF7DAFF614962489C
:10145000FFF7E2FF614C4FF0E0214FF470000023F2
:101460005F4AC1F8880D44F823200133B02BFAD12C
:101470005C4B80215C4A03F8011B9342FBD14FF087
:10148000E0254D4E4FF08039DFF88CB1DFF88CA1AC
:101490004FF0FF31C5F8084D0027C6F80491C6F893
:1014A00000B1C6F8F490C6F8F0A0D5F8243DDFF8F6
:1014B000708143F4E0234D4AC5F8243DD8F81C3030
:1014C00023F07F0343F04003C8F81C30D8F82430E1
:1014D00023F07F0343F04003C8F824309166D166BF
:1014E0001167516700F07CF9414B4249A363424BBD
:1014F000E36363236B610323AF612B613F4BC5F84B
:10150000203DD5F8FC3D43F08073C5F8FC3D3C4BD5
:101510001A6842F001021A605B680B6000F09EFBE3
:10152000C6F804913748C6F800B1C6F8F490C6F87A
:10153000F0A000F02DFDD8F86C10334B334A41F485
:101540004051C8F86C101F60C3F80871C3F81871D7
:10155000C3F82871C3F83871936BDB0708D442F6DF
:1015600015632B4951651365936B43F00103936336
:10157000264A284C936843F00113936000F0ACF9BD
:1015800000F0D0FC00F008FD00F096FB00F022F91E
:101590002368132BFCD900F027FC2368B3F5967F52
:1015A000FBD300F01BF900F017F900F0FDFC00F090
:1015B00007FD30BFFDE700BF00800D40F899000037
:1015C000D421006000000000C01A0020D0BB0060E1
:1015D00000000020402E0020C01A0020001800202B
:1015E0004568000000E400E0A0E400E000C00A401C
:1015F000397C0000CC2D00203D7C00000000202024
:10160000001000E00046C3230040084000400D40A9
:101610000000C056D02D00201B1018200C0D1113F7
:1016200000C00F40074B4FF42A01074A07485A648D
:101630001864074A99639546BFF34F8FBFF36F8FC6
:10164000FFF7F2FE00C00A40AFAAAAAA07002000D6
:101650000000072043690A4A03EB011010B4037A23
:10166000084C02EB0313D3E901321460C2681A601C
:1016700003690BB142691A605DF8044B704700BF03
:10168000380A002061F801004369027E03EB021270
:1016900092F808C08C451CD01A7AFF2A19D09142C2
:1016A00010B5044616D01A7EFF2A06D00121D3E9D0
:1016B000002312681A4201D1217610BD064B052283
:1016C000204603EB0C135B681A60FFF7C3FF21761B
:1016D000F3E770470021EAE7380A002043690A4A25
:1016E00003EB011010B490F82830084C02EB031300
:1016F000D3E901321460C26A1A60036B0BB1426B0A
:101700001A605DF8044B7047380A002061F8010048
:101710004369427E03EB021292F828C08C451ED02A
:1017200093F82820FF2A1AD0914210B5044617D00A
:1017300093F83820FF2A06D00121D3E9002312684C
:101740001A4201D1617610BD064B0522204603EBFB
:101750000C135B681A60FFF7C1FF6176F3E770470F
:101760000021EAE7380A0020164942698B6B23F40E
:101770007C0343F4802370B58B630446124DD2E999
:1017800000130A681A4303690A60022200211A61E1
:101790000E4A19619A6401225A629D624FF43035F3
:1017A000DD624FF001159E6C1E6519629D651A6120
:1017B000017EFFF74FFF617E2046BDE87040FFF7D6
:1017C0008DBF00BF00C00F40B80B05053B3728197F
:1017D000704700BF704700BF704700BF00BF704731
:1017E00010B44FF0E023002110242B48C3F8941DBF
:1017F000C3F89C4D1124C3F8A00D2848C3F89C4D94
:101800001224C3F8A00D2648C3F89C4D254AC3F8FE
:10181000A00D254C42F015022448C3F89C4DC3F896
:10182000A00D234C2348C3F89C4DC3F8A00D224CB7
:10183000C3F89C2D2148224AC3F8A04DC3F89C0D43
:10184000C3F8A02D02F5A0221E4C0C321E48C3F88E
:101850009C4DC3F8A02D1D4AC3F89C0D1C4CC3F829
:10186000A02D01221B48C3F89C4DC3F8A00DC3F85E
:10187000942DBFF34F8FBFF36F8FC3F8501FBFF38B
:101880004F8FBFF36F8FD3F8142D5DF8044B42F4E4
:101890004032C3F8142D70473F00001025000803A4
:1018A00009001000402E0020130020002100020734
:1018B0001400002025000813090000101600202045
:1018C00027000B1317000040180000602F000B07C3
:1018D000190000702F000B13F0B5B84B1822B84E4A
:1018E0000120B84F83B0C3F85C62B749C3F8607297
:1018F000B64DC3F86462A6F53046B54CC3F86862CD
:10190000C3F86C52C3F87052C3F87452C3F87852DB
:1019100048F20C75DA661A675A679A67DA67C3F88D
:101920008020C3F88420C3F88820C1F82C03A94A7A
:10193000C1F83003C1F83403C1F83803C1F83C03DF
:10194000C1F85003A169A44B0A40A448A449134319
:10195000A44AA361D4F8843043F00C03C4F8843063
:101960004FF0FF34036843F00203036003682B4029
:101970004FF400551A439C4B026044608A689B4CAC
:1019800013409B4A43F000538360C36823F07803FD
:10199000C360036A134023430362036A1340954AFA
:1019A0002343954C43628262C2620022D1F8B83070
:1019B00023F03F0343F00103C0F8B830D1F8BC3046
:1019C0008E4923F03F0343F00103C0F8BC3040F2DE
:1019D0000563026105660467C0F8803045664467A8
:1019E0000224C0F88430036823F00203036081619D
:1019F000834B8449C46143F8042B8B42FBD1774A63
:101A0000136843F001031360136813F00103FBD163
:101A10007A48022140F2F564906140F29940D16128
:101A200040F26641C2F8004242F20144C2F810128C
:101A30007549C2F82002C2F8301240F235417348AD
:101A4000C2F83442C2F84012714CC2F8500242F25D
:101A500001207049C2F854120121C2F86042C2F854
:101A600064025E48C2F8A030C2F8A430C2F8B010D8
:101A70004369DA07FCD5012300244FF4803257492B
:101A80004361C0F8A040C0F8A420C0F8B0304B6952
:101A9000DB07FCD5012300244FF400304F4A4B6193
:101AA000C1F8A040C1F8A400C1F8B0305369DF0705
:101AB000FCD501230024584848495361C2F8A0408E
:101AC000C2F8A400C2F8B0304B69DE07FCD5D1F8EB
:101AD000003145F60D5221209BB24861934265D1F9
:101AE00000244FF4802201233C48C1F8A040C1F8F3
:101AF000A420C1F8B0304369DD07FCD501234FF4C1
:101B000000040021354A4361C0F8A040C0F8A41089
:101B1000C0F8B0305369DC07FCD501234FF4000452
:101B20004FF480302D495361C2F8A040C2F8A400A0
:101B3000C2F8B0304B69D807FCD501234FF400043C
:101B40004FF40030254A4B61C1F8A040C1F8A40011
:101B5000C1F8B0305369D907FCD501234FF4000414
:101B60002D481E495361C2F8A040C2F8A400C2F833
:101B7000B0304B69DA07FCD5D1F8003145F60D528B
:101B800021209BB24861934250D008254FF40004B5
:101B900022490020224B234A009015705A1A012333
:101BA0002148224400F0FCF903B0F0BD1E4B002296
:101BB000C3E90022C3E9022203B0F0BD00801F4048
:101BC000F9B00100F910010000841F40F970010014
:101BD00000C00F40FFFCFF1F000300A000402A4090
:101BE00000802A401200FFFFFF37F700400000800E
:101BF00000FFF07CFF000F8363000200F05AF05AF0
:101C000000422A4000432A409F041830EB06180A7D
:101C10003806180A0632012604000300000000708E
:101C200000000070F72D00209C2600204FF40004D7
:101C30004FF4802201230848C1F8A040C1F8A42035
:101C4000C1F8B0304369DB07FCD5012310254FF004
:101C5000807443619CE700BF00402A40F0B4154AFD
:101C600040274FF480314FF480564FF400554FF425
:101C7000404443F24200136913F0020F0ED113F4F3
:101C8000005F0FD013F4805F0ED0002BF3DA13F453
:101C9000803F0BD15B060BD5F0BC7047946151615E
:101CA0009061E8E75561E6E75661E4E79161E2E7B4
:101CB0005761E0E700800D403F4A03203F49F3EEC3
:101CC000095AD2F880304FF0000C9FED3D6A23F0A6
:101CD00001039FED3C5A30B4C2F88030C2F8900046
:101CE000D1F8E010384DCBB2384C39482B6007EEB4
:101CF000903A0B0DC1F30B21F8EEE77A06EE903A1D
:101D000007EE101A334BB8EEC77A2160F8EEE66A98
:101D1000314937EEC66A37EEC55A76EEC76A77EEB6
:101D2000E57A26EE266AC3ED006A25EE265AD2F839
:101D3000803067EEA64AC0ED007AC6EE275A2748E3
:101D400085EE276AC4EEA76A75EE875AFCEEE55A5F
:101D500036EE076A15EE904ABCEEC66A43EA0453B3
:101D600076EE877AC2F8803016EE103AD2F89041BB
:101D7000FCEEE77A01EA0341214317EE903AC2F8FC
:101D80009011C3F30B03D2F890110B431449C2F81E
:101D90009031D2F8803043F00203C2F88030114B0A
:101DA00080F840C0C1F840314FF0E023012230BC40
:101DB000C3F80821704700BF00810D4000441F4058
:101DC0000000AA420000B442B42D0020B02D002033
:101DD000B82D0020BC2D00200000FF0F00E400E023
:101DE00000180020F9690000314B40F6617210B50F
:101DF000C3F8202140F2044400F0DAF82D4A2E49BD
:101E0000D2F880302D4843F00303C2F880302C4BC9
:101E1000C1F8604102681A4203D1D1F8A8319A078B
:101E20001BD0254A4FF00041244B5963D2F8403172
:101E300043F00203C2F84031D2F840319B07FBD493
:101E40004FF400304FF0E0211C4B4FF00042C1F83E
:101E50008C0219209A6300F0AFF8184A4FF08040C6
:101E6000154C002190630A20164B11604FF420722C
:101E7000C4F8A801184600F087F84FF48002034622
:101E80004FF4810040F243111860C4F858311A64CD
:101E90000D4B0E4AC4F84811C3F804224FF0E0225B
:101EA0004FF400310123C2F80C11C4F8403110BDC9
:101EB00000800D4000C00F4000002E4000900D40FB
:101EC000001C1E000000002000180020E16B000034
:101ED00008B50E4B1B6E9B0700D4FBBE72B60C4BB5
:101EE00000200C4AC3F8400103F160430A49A3F5FE
:101EF0005F2311649D46BFF34F8F4FF400130748D3
:101F0000074ADB6902609B68984700BF00441F4096
:101F100000002E4000C00A40030020000080202066
:101F2000000012EB104BA020104AD96E41F4403152
:101F300010B4D96640F23764D96E41F44071D96665
:101F400054649064936C1B06FCD4094A40F23761D8
:101F5000A02351649364936C13F08003FBD1054A72
:101F600013705DF8044B704700C00F4000400C40F8
:101F700000800C40F62D0020F8B500BFF8BC08BC6E
:101F80009E467047000000005FF800F0719400006A
:101F90005FF800F0B95E00005FF800F051670000E4
:101FA0005FF800F0357D00005FF800F04595000017
:101FB0005FF800F0517300005FF800F0A9610000C5
:101FC0005FF800F01164000045010000E1480000E6
:081FD000CD510000415B00004F
:101FD80070C00F40C0000000120000001300000095
:101FE800D0841F4001000000FF000000FF00000037
:101FF80000000000000000001300000013000000B3
:10200800CC841F4001000000FF000000FF0000001A
:1020180000000000000000001C000000A9510000A2
:1020280070C00F40000C00001100000011000000FB
:10203800E0841F40020000002C0000001200000095
:10204800E0841F40010000001000000011000000A3
:10205800DC841F40020000002D0000001200000078
:10206800DC841F40010000001E000000B551000084
:1020780080C00F400000000319000000100000009D
:10208800E8841F4001000000FF000000FF0000007E
:102098000000000000000000180000001000000010
:1020A800E4841F4001000000FF000000FF00000062
:1020B80000000000000000001F000000C1510000E7
:1020C80016035500530042002000530065007200BB
:1020D800690061006C000000180354006500650089
:1020E8006E00730079006400750069006E006F006F
:1020F8000403090409026200030100C032080B004E
:102108000202020100090400000102020100052484
:10211800001001052401010104240206052406001B
:10212800010705820310001009040100020A0000DB
:10213800000705030240000007058402400000096B
:1021480004020002FF6AFF00070581024000010740
:10215800050102400001000009026200030100C0FD
:1021680032080B0002020201000904000001020209
:1021780001000524001001052401010104240206C0
:102188000524060001070582031000050904010063
:10219800020A000000070503020002000705840286
:1021A8000002000904020002FF6AC7000705810255
:1021B8000002010705010200020100000A060002F0
:0C21C800EF0201400100000000000000D8
:1021D40000000000000000000000000000000000FB
:1021E40000000000000000000000000000000000EB
:1021F400F8B54FF084439D695A6915400DD0244FBA
:1022040001269D6195FAA5F4B4FA84F457F82430B4
:1022140006FA04F49847A543F4D11E4B9D695A6904
:1022240015400DD01C4F01269D6195FAA5F4B4FA12
:1022340084F457F8243006FA04F49847A543F4D1FB
:10224400164B9D695A6915400DD0154F01269D61A5
:1022540095FAA5F4B4FA84F457F8243006FA04F491
:102264009847A543F4D10F4B9D695A6915400DD089
:102274000D4F01269D6195FAA5F4B4FA84F457F83C
:10228400243006FA04F49847A543F4D1F8BD00BFFE
:10229400EC140020004000426C1500200080004235
:1022A400EC15002000C000426C1600200348044BCB
:1022B400834202D0034B03B118477047C01A002071
:1022C400C01A0020000000000548064B1B1AD90F55
:1022D40001EBA301491002D0034B03B11847704727
:1022E400C01A0020C01A00200000000010B5064CDF
:1022F400237843B9FFF7DAFF044B13B10448AFF373
:1023040000800123237010BD301E00200000000057
:1023140000E4006008B5044B1BB104490448AFF362
:102324000080BDE80840CFE700000000341E002014
:1023340000E40060034608205A680A705A68C240E4
:102344004A70DA888A70DA79CA709A680A719A6867
:10235400C2404A715A898A71DB7ACB71704700BFD7
:102364000A7803464260487842EA00225A60887834
:1023740042EA00425A60C87842EA00625A600A7926
:102384009A60487942EA00229A60887942EA0042D7
:1023940008209A60C97942EA01629A60704700BFD6
:1023A400004870471C08002000487047F8070020C8
:1023B40000487047840700200048704760070020E9
:1023C400004870474C070020004870472807002049
:1023D40000487047A0070020004870470407002009
:1023E40043680B704FEA132C1A0C1B0E81F801C0C2
:1023F4008A70CB7083684FEA132C0B711A0C1B0E76
:1024040081F805C08A71CB71C3680C204FEA132C84
:102414000B721A0C1B0E81F809C08A72CB727047BA
:1024240003460A680C205A604A689A608A68DA602F
:10243400704700BF004870475008002000487047AC
:102444002C080020D0E902234FEA122C0A700B71E9
:1024540081F801C04FEA124C120E81F802C04FEA13
:10246400132CCA701A0C1B0E81F805C08A71CB712B
:10247400D0E904234FEA122C0A720B7381F809C0C5
:102484004FEA124C120E81F80AC04FEA132CCA729A
:102494001A0C1B0E81F80DC08A73CB73D0E9062386
:1024A4004FEA122C0A74100C0B75120E81F811C02D
:1024B40088744FEA132C180CCA741B0E81F815C0CB
:1024C40088751820CB75704730B403460C684D6886
:1024D4001820C3E902458C68CD68C3E904450C693A
:1024E4004D69C3E9064530BC704700BF00487047DA
:1024F400EC06002000487047C806002000487047DA
:10250400B4060020004870479006002043680B7012
:102514004FEA132C1A0C1B0E81F801C08A70CB7081
:1025240083684FEA132C0B711A0C1B0E81F805C03B
:102534008A71CB71C3680C204FEA132C0B721A0CEE
:102544001B0E81F809C08A72CB72704703460A6871
:102554000C205A604A689A608A68DA60704700BF43
:1025640000487047C0080020004870479C080020BD
:10257400004870478C080020004870476808002015
:1025840090ED045B90ED066B90ED107B10B40B4C5A
:10259400B7EEC55BB7EEC66B0949B7EEC77B2468D7
:1025A400084A094B094881ED005A046082ED006A2B
:1025B4005DF8044B83ED007A704700BFD02D0020F6
:1025C400B4260020B8260020B0260020AC26002027
:1025D40090F8F804704700BF006A704700487047DD
:1025E400C0080020004870479C080020C06D704758
:1025F40000487047B4060020004870479006002049
:1026040007F0C4BA43682DE9F0470B7004464368E9
:102614000E461B0A4B70C3888B70C379CB7043681A
:10262400002B00F086800B46C6F1080E0021E268FC
:102634000EEB0300043352F8212001314FEA122C2F
:102644001A70170C150E83F801C09F70DD70626854
:102654008A42ECD800F1040C00F1010A00F10209ED
:1026640000F1030800F1050E851D6346C11D00F14C
:102674000807226932542269120A06F80A20628A7B
:1026840006F80920E27C06F80820226902B33344E4
:102694000021C6F1040EA2690EEB030C043352F8B8
:1026A40021200131170A03F8042C150C100E03F82D
:1026B400037C03F8025C03F8010C22698A42EAD81D
:1026C4000CF1010E0CF102050CF103010CF10407ED
:1026D400E36906F80C30E3691B0A06F80E30E38B55
:1026E4007355E37F7354E36903B34FF00008636ADF
:1026F4004FEA880953F8280009F04AF8F219002330
:10270400054625FA03F00833202B02F8010BF8D113
:10271400636A04372A4608F1010853F80910F019CE
:1027240005F066FFE3692F444345E0D83846BDE829
:10273400F08708230C270B210A254FF0090E4FF0D0
:1027440007089C464FF006094FF0050A042090E75D
:1027540070B5037906460D460B70806809F018F8C9
:102764000446030C6870020AEB70030EAA7002465A
:102774002B71681DB16805F03BFF601D70BD00BF83
:10278400F8B5838806460C460B7083881B0A4B7089
:10279400806808F0FDFFA070030C0546020A23714F
:1027A400030EE27002466371A01DB16805F020FFBC
:1027B400F06808F0EDFF691D02460023214422FA67
:1027C40003F00833202B01F8010FF8D10A35F16822
:1027D400AF18601905F00CFF306908F0D9FFE21951
:1027E4000546002325FA03F10833202B02F8011BC8
:1027F400F8D104372A463169E01905F0F9FE736906
:102804007819190C235422181D0A04301B0E9170D8
:102814005570D370F8BD00BF0846114607F0DCB907
:1028240010B50446124894ED021AD4ED030A94ED4F
:10283400010A05F061FB94ED021AD4ED030A94ED4C
:10284400010A0C4805F058FB94ED021AD4ED030A72
:1028540094ED010A084805F04FFB94ED021AD4EDFB
:10286400030A94ED010A0548BDE8104005F044BB95
:10287400081D0020381D0020681D0020981D002020
:102884002DE9F04F436883B00E6804460D46B34209
:10289400C0F0B2806660002E00F0B7802A460020A7
:1028A400C5F1080C93790CEB020792F80580043209
:1028B4001B0492F800E0D67843EA0823E16843EA6F
:1028C4000E0343EA0663A36041F8203001306368D5
:1028D4008342E7D83E1D781CBB1CF91C07F1050A8E
:1028E40007F1060B324607F1070807F10809EB5C0C
:1028F40015F800C0E85D1F04695C47EA0C272369EA
:10290400074347EA0167BB42C0F09480276127B3BD
:102914002A440020C5F1040C93780CEB020692F8CB
:10292400018004321B0412F804EC12F8017C43EA1F
:102934000823A16943EA0E0343EA0763636141F88C
:102944002030013023698342E6D806F1010A06F1FA
:10295400020B06F1030806F1040915F80B30A95D12
:1029640015F80A001E0415F8082046EA0026E36953
:102974000E4346EA0266B34256D3E661AEB34FF065
:1029840000086FF003074646002305EB09011846CB
:1029940011F8012B9A400833202B40EA0200F7D1AA
:1029A40009F1040101EB000A514522D2A7EB090207
:1029B40009F1050309F103092944524405EB09000F
:1029C400534588BF012208F0BFFD05EB0A0205EB61
:1029D4000903D14602F8016C626A236242F8283086
:1029E40008F10108E3694345CED8484603B0BDE881
:1029F400F08F09F10309E8E7B100C06808F0A6FB0D
:102A04006660E060002E7FF449AF08224FF00C09A5
:102A14004FF00B084FF00A0B4FF0090A0721164636
:102A240006230520042762E7B100606A08F08EFBE4
:102A34006062A2E7B900A069019208F087FB019ADD
:102A4400A06163E7F8B500230A780D4606460271D3
:102A54001C460A4612F801CF0CFA03FC0833202B5B
:102A640044EA0C04F6D1671D2B1D052F05D9184621
:102A74002246691D08F068FD0346254400223846B5
:102A84002A71B360F8BD00BFD1F800C00346C26923
:102A94000C30C3F810C0D1F804C0C3F814C089685E
:102AA40099611047F8B50B780D4607464C1D838095
:102AB4004A7843EA022383800E79CB78360446EAC7
:102AC40003264B7946EA03668B781E43B31D062B17
:102AD40004D932460631204608F036FD711D002324
:102AE4006B542944BC601C4611F8012F9A400833EA
:102AF400202B44EA0204F7D106F10A010C44A14256
:102B040037D2A21B093629440A3AA81908F01CFD39
:102B1400002329192E44184601F8013CFE6011F8DF
:102B2400012B9A400833202B40EA0200F7D1211DE3
:102B34000E18B1421FD2321B631D03342944043AD8
:102B440028199E4238BF012208F0FEFCAA192C4421
:102B54000023301D02F8013C3C61937854781B0437
:102B6400A95DD27843EA04230B4343EA02637B6101
:102B7400F8BD0936CCE70334E8E700BFD0E9042305
:102B84004FEA122C0A700B7181F801C04FEA124C03
:102B9400120E81F802C04FEA132CCA701A0C1B0ED5
:102BA40081F805C08A71CB71D0E906234FEA122C53
:102BB4000A720B7381F809C04FEA124C120E81F8A5
:102BC4000AC04FEA132CCA721A0C1B0E81F80DC0EE
:102BD4008A73CB73D0E908234FEA122C0A740B755D
:102BE40081F811C04FEA124C120E81F812C04FEA5C
:102BF400132CCA741A0C1B0E81F815C08A75CB7578
:102C0400D0E90C234FEA122C0A760B7781F819C00D
:102C14004FEA124C120E81F81AC04FEA132CCA76EE
:102C24001A0C1B0E81F81DC08A77CB77D0E90E23CE
:102C34004FEA122C81F8202081F8243081F821C039
:102C44004FEA124C120E81F822C04FEA132C81F87D
:102C540023201A0C1B0E81F825C081F8262081F848
:102C64002730D0E910234FEA122C81F82820100CC9
:102C740081F82C30120E81F829C081F82A004FEA1D
:102C8400132C180C81F82B201B0E81F82DC081F811
:102C94002E00302081F82F30704700BFD0E9042384
:102CA4004FEA122C0A700B7181F801C04FEA124CE2
:102CB400120E81F802C04FEA132CCA701A0C1B0EB4
:102CC40081F805C08A71CB71D0E906234FEA122C32
:102CD4000A720B7381F809C04FEA124C120E81F884
:102CE4000AC04FEA132CCA721A0C1B0E81F80DC0CD
:102CF4008A73CB73D0E908234FEA122C0A740B753C
:102D040081F811C04FEA124C120E81F812C04FEA3A
:102D1400132CCA741A0C1B0E81F815C08A75CB7556
:102D2400D0E90C234FEA122C0A760B7781F819C0EC
:102D34004FEA124C120E81F81AC04FEA132CCA76CD
:102D44001A0C1B0E81F81DC08A77CB77D0E90E23AD
:102D54004FEA122C81F8202081F8243081F821C018
:102D64004FEA124C120E81F822C04FEA132C81F85C
:102D740023201A0C1B0E81F825C081F8262081F827
:102D84002730D0E910234FEA122C81F8282081F84B
:102D94002C3081F829C04FEA124C120E81F82AC057
:102DA4004FEA132C81F82B201A0C1B0E81F82DC02E
:102DB40081F82E2081F82F30D0E914234FEA122C09
:102DC40081F8302081F831C04FEA124C120E81F89C
:102DD40032C04FEA132C81F833201A0C81F83430B6
:102DE4001B0E81F835C081F8362081F83730D0E9E0
:102DF40016234FEA122C81F8382081F83C3081F8F0
:102E040039C04FEA124C120E81F83AC04FEA132C23
:102E140081F83B201A0C1B0E81F83DC081F83E203E
:102E240081F83F30D0E918234FEA122C81F8402072
:102E3400100C81F84430120E81F841C081F8420030
:102E44004FEA132C180C81F843201B0E81F845C05F
:102E540081F84600482081F847307047214B1A6BAF
:102E6400D2E90010D3680968006810B41842946865
:102E740001EA04012ED0137C03F00303D9B943F013
:102E840008039908013B11740D2B0BD8DFE803F0FC
:102E94000D071C070A160D0D160A071C070D5369AA
:102EA400013B53615DF8044B704753695DF8044B73
:102EB40001335361704743F00403E0E753695DF85D
:102EC400044B023B5361704753695DF8044B023372
:102ED40053617047137C03F003030029D1D043F0FE
:102EE4000403CEE790250020214B5A6BD2E9001051
:102EF400D3680968006810B41842946801EA0401B0
:102F04002ED0137C03F00303D9B943F008039908C6
:102F1400013B11740D2B0BD8DFE803F00D071C07E0
:102F24000A160D0D160A071C070D5369013B536160
:102F34005DF8044B704753695DF8044B01335361EA
:102F4400704743F00403E0E753695DF8044B023B28
:102F54005361704753695DF8044B02335361704702
:102F6400137C03F003030029D1D043F00403CEE71C
:102F740090250020214B9A6BD2E90010D368096890
:102F8400006810B41842946801EA04012ED0137C3E
:102F940003F00303D9B943F008039908013B117402
:102FA4000D2B0BD8DFE803F00D071C070A160D0DD7
:102FB400160A071C070D5369013B53615DF8044B66
:102FC400704753695DF8044B01335361704743F014
:102FD4000403E0E753695DF8044B023B5361704717
:102FE40053695DF8044B023353617047137C03F05B
:102FF40003030029D1D043F00403CEE79025002039
:10300400214BDA6BD2E90010D3680968006810B468
:103014001842946801EA04012ED0137C03F00303E0
:10302400D9B943F008039908013B11740D2B0BD84F
:10303400DFE803F00D071C070A160D0D160A071C1E
:10304400070D5369013B53615DF8044B70475369A5
:103054005DF8044B01335361704743F00403E0E728
:1030640053695DF8044B023B5361704753695DF843
:10307400044B023353617047137C03F003030029AC
:10308400D1D043F00403CEE790250020214B1A6CE5
:10309400D2E90010D3680968006810B41842946833
:1030A40001EA04012ED0137C03F00303D9B943F0E1
:1030B40008039908013B11740D2B0BD8DFE803F0CA
:1030C4000D071C070A160D0D160A071C070D536978
:1030D400013B53615DF8044B704753695DF8044B41
:1030E40001335361704743F00403E0E753695DF82B
:1030F400044B023B5361704753695DF8044B023340
:1031040053617047137C03F003030029D1D043F0CB
:103114000403CEE790250020214B5A6CD2E900101D
:10312400D3680968006810B41842946801EA04017D
:103134002ED0137C03F00303D9B943F00803990894
:10314400013B11740D2B0BD8DFE803F00D071C07AE
:103154000A160D0D160A071C070D5369013B53612E
:103164005DF8044B704753695DF8044B01335361B8
:10317400704743F00403E0E753695DF8044B023BF6
:103184005361704753695DF8044B023353617047D0
:10319400137C03F003030029D1D043F00403CEE7EA
:1031A40090250020214B9A6CD2E90010D36809685D
:1031B400006810B41842946801EA04012ED0137C0C
:1031C40003F00303D9B943F008039908013B1174D0
:1031D4000D2B0BD8DFE803F00D071C070A160D0DA5
:1031E400160A071C070D5369013B53615DF8044B34
:1031F400704753695DF8044B01335361704743F0E2
:103204000403E0E753695DF8044B023B53617047E4
:1032140053695DF8044B023353617047137C03F028
:1032240003030029D1D043F00403CEE79025002006
:10323400214BDA6CD2E90010D3680968006810B435
:103244001842946801EA04012ED0137C03F00303AE
:10325400D9B943F008039908013B11740D2B0BD81D
:10326400DFE803F00D071C070A160D0D160A071CEC
:10327400070D5369013B53615DF8044B7047536973
:103284005DF8044B01335361704743F00403E0E7F6
:1032940053695DF8044B023B5361704753695DF811
:1032A400044B023353617047137C03F0030300297A
:1032B400D1D043F00403CEE790250020214B1A6DB2
:1032C400D2E90010D3680968006810B41842946801
:1032D40001EA04012ED0137C03F00303D9B943F0AF
:1032E40008039908013B11740D2B0BD8DFE803F098
:1032F4000D071C070A160D0D160A071C070D536946
:10330400013B53615DF8044B704753695DF8044B0E
:1033140001335361704743F00403E0E753695DF8F8
:10332400044B023B5361704753695DF8044B02330D
:1033340053617047137C03F003030029D1D043F099
:103344000403CEE790250020214B5A6DD2E90010EA
:10335400D3680968006810B41842946801EA04014B
:103364002ED0137C03F00303D9B943F00803990862
:10337400013B11740D2B0BD8DFE803F00D071C077C
:103384000A160D0D160A071C070D5369013B5361FC
:103394005DF8044B704753695DF8044B0133536186
:1033A400704743F00403E0E753695DF8044B023BC4
:1033B4005361704753695DF8044B0233536170479E
:1033C400137C03F003030029D1D043F00403CEE7B8
:1033D40090250020214B9A6DD2E90010D36809682A
:1033E400006810B41842946801EA04012ED0137CDA
:1033F40003F00303D9B943F008039908013B11749E
:103404000D2B0BD8DFE803F00D071C070A160D0D72
:10341400160A071C070D5369013B53615DF8044B01
:10342400704753695DF8044B01335361704743F0AF
:103434000403E0E753695DF8044B023B53617047B2
:1034440053695DF8044B023353617047137C03F0F6
:1034540003030029D1D043F00403CEE790250020D4
:10346400214BDA6DD2E90010D3680968006810B402
:103474001842946801EA04012ED0137C03F003037C
:10348400D9B943F008039908013B11740D2B0BD8EB
:10349400DFE803F00D071C070A160D0D160A071CBA
:1034A400070D5369013B53615DF8044B7047536941
:1034B4005DF8044B01335361704743F00403E0E7C4
:1034C40053695DF8044B023B5361704753695DF8DF
:1034D400044B023353617047137C03F00303002948
:1034E400D1D043F00403CEE790250020214B1A6E7F
:1034F400D2E90010D3680968006810B418429468CF
:1035040001EA04012ED0137C03F00303D9B943F07C
:1035140008039908013B11740D2B0BD8DFE803F065
:103524000D071C070A160D0D160A071C070D536913
:10353400013B53615DF8044B704753695DF8044BDC
:1035440001335361704743F00403E0E753695DF8C6
:10355400044B023B5361704753695DF8044B0233DB
:1035640053617047137C03F003030029D1D043F067
:103574000403CEE790250020214B5A6ED2E90010B7
:10358400D3680968006810B41842946801EA040119
:103594002ED0137C03F00303D9B943F00803990830
:1035A400013B11740D2B0BD8DFE803F00D071C074A
:1035B4000A160D0D160A071C070D5369013B5361CA
:1035C4005DF8044B704753695DF8044B0133536154
:1035D400704743F00403E0E753695DF8044B023B92
:1035E4005361704753695DF8044B0233536170476C
:1035F400137C03F003030029D1D043F00403CEE786
:1036040090250020214B9A6ED2E90010D3680968F6
:10361400006810B41842946801EA04012ED0137CA7
:1036240003F00303D9B943F008039908013B11746B
:103634000D2B0BD8DFE803F00D071C070A160D0D40
:10364400160A071C070D5369013B53615DF8044BCF
:10365400704753695DF8044B01335361704743F07D
:103664000403E0E753695DF8044B023B5361704780
:1036740053695DF8044B023353617047137C03F0C4
:1036840003030029D1D043F00403CEE790250020A2
:10369400214BDA6ED2E90010D3680968006810B4CF
:1036A4001842946801EA04012ED0137C03F003034A
:1036B400D9B943F008039908013B11740D2B0BD8B9
:1036C400DFE803F00D071C070A160D0D160A071C88
:1036D400070D5369013B53615DF8044B704753690F
:1036E4005DF8044B01335361704743F00403E0E792
:1036F40053695DF8044B023B5361704753695DF8AD
:10370400044B023353617047137C03F00303002915
:10371400D1D043F00403CEE790250020214B1A6F4B
:10372400D2E90010D3680968006810B4184294689C
:1037340001EA04012ED0137C03F00303D9B943F04A
:1037440008039908013B11740D2B0BD8DFE803F033
:103754000D071C070A160D0D160A071C070D5369E1
:10376400013B53615DF8044B704753695DF8044BAA
:1037740001335361704743F00403E0E753695DF894
:10378400044B023B5361704753695DF8044B0233A9
:1037940053617047137C03F003030029D1D043F035
:1037A4000403CEE790250020214B5A6FD2E9001084
:1037B400D3680968006810B41842946801EA0401E7
:1037C4002ED0137C03F00303D9B943F008039908FE
:1037D400013B11740D2B0BD8DFE803F00D071C0718
:1037E4000A160D0D160A071C070D5369013B536198
:1037F4005DF8044B704753695DF8044B0133536122
:10380400704743F00403E0E753695DF8044B023B5F
:103814005361704753695DF8044B02335361704739
:10382400137C03F003030029D1D043F00403CEE753
:1038340090250020214B9A6FD2E90010D3680968C3
:10384400006810B41842946801EA04012ED0137C75
:1038540003F00303D9B943F008039908013B117439
:103864000D2B0BD8DFE803F00D071C070A160D0D0E
:10387400160A071C070D5369013B53615DF8044B9D
:10388400704753695DF8044B01335361704743F04B
:103894000403E0E753695DF8044B023B536170474E
:1038A40053695DF8044B023353617047137C03F092
:1038B40003030029D1D043F00403CEE79025002070
:1038C400214BDA6FD2E90010D3680968006810B49C
:1038D4001842946801EA04012ED0137C03F0030318
:1038E400D9B943F008039908013B11740D2B0BD887
:1038F400DFE803F00D071C070A160D0D160A071C56
:10390400070D5369013B53615DF8044B70475369DC
:103914005DF8044B01335361704743F00403E0E75F
:1039240053695DF8044B023B5361704753695DF87A
:10393400044B023353617047137C03F003030029E3
:10394400D1D043F00403CEE790250020224BD3F8D6
:103954008020D2E90010D3680968006810B41842C6
:10396400946801EA04012ED0137C03F00303D9B94F
:1039740043F008039908013B11740D2B0BD8DFE8C1
:1039840003F00D071C070A160D0D160A071C070D78
:103994005369013B53615DF8044B704753695DF80B
:1039A400044B01335361704743F00403E0E7536968
:1039B4005DF8044B023B5361704753695DF8044B57
:1039C400023353617047137C03F003030029D1D001
:1039D40043F00403CEE700BF90250020224BD3F828
:1039E4008420D2E90010D3680968006810B4184232
:1039F400946801EA04012ED0137C03F00303D9B9BF
:103A040043F008039908013B11740D2B0BD8DFE830
:103A140003F00D071C070A160D0D160A071C070DE7
:103A24005369013B53615DF8044B704753695DF87A
:103A3400044B01335361704743F00403E0E75369D7
:103A44005DF8044B023B5361704753695DF8044BC6
:103A5400023353617047137C03F003030029D1D070
:103A640043F00403CEE700BF90250020224BD3F897
:103A74008820D2E90010D3680968006810B418429D
:103A8400946801EA04012ED0137C03F00303D9B92E
:103A940043F008039908013B11740D2B0BD8DFE8A0
:103AA40003F00D071C070A160D0D160A071C070D57
:103AB4005369013B53615DF8044B704753695DF8EA
:103AC400044B01335361704743F00403E0E7536947
:103AD4005DF8044B023B5361704753695DF8044B36
:103AE400023353617047137C03F003030029D1D0E0
:103AF40043F00403CEE700BF90250020224BD3F807
:103B04008C20D2E90010D3680968006810B4184208
:103B1400946801EA04012ED0137C03F00303D9B99D
:103B240043F008039908013B11740D2B0BD8DFE80F
:103B340003F00D071C070A160D0D160A071C070DC6
:103B44005369013B53615DF8044B704753695DF859
:103B5400044B01335361704743F00403E0E75369B6
:103B64005DF8044B023B5361704753695DF8044BA5
:103B7400023353617047137C03F003030029D1D04F
:103B840043F00403CEE700BF90250020224BD3F876
:103B94009020D2E90010D3680968006810B4184274
:103BA400946801EA04012ED0137C03F00303D9B90D
:103BB40043F008039908013B11740D2B0BD8DFE87F
:103BC40003F00D071C070A160D0D160A071C070D36
:103BD4005369013B53615DF8044B704753695DF8C9
:103BE400044B01335361704743F00403E0E7536926
:103BF4005DF8044B023B5361704753695DF8044B15
:103C0400023353617047137C03F003030029D1D0BE
:103C140043F00403CEE700BF90250020224BD3F8E5
:103C24009420D2E90010D3680968006810B41842DF
:103C3400946801EA04012ED0137C03F00303D9B97C
:103C440043F008039908013B11740D2B0BD8DFE8EE
:103C540003F00D071C070A160D0D160A071C070DA5
:103C64005369013B53615DF8044B704753695DF838
:103C7400044B01335361704743F00403E0E7536995
:103C84005DF8044B023B5361704753695DF8044B84
:103C9400023353617047137C03F003030029D1D02E
:103CA40043F00403CEE700BF90250020224BD3F855
:103CB4009820D2E90010D3680968006810B418424B
:103CC400946801EA04012ED0137C03F00303D9B9EC
:103CD40043F008039908013B11740D2B0BD8DFE85E
:103CE40003F00D071C070A160D0D160A071C070D15
:103CF4005369013B53615DF8044B704753695DF8A8
:103D0400044B01335361704743F00403E0E7536904
:103D14005DF8044B023B5361704753695DF8044BF3
:103D2400023353617047137C03F003030029D1D09D
:103D340043F00403CEE700BF90250020224BD3F8C4
:103D44009C20D2E90010D3680968006810B41842B6
:103D5400946801EA04012ED0137C03F00303D9B95B
:103D640043F008039908013B11740D2B0BD8DFE8CD
:103D740003F00D071C070A160D0D160A071C070D84
:103D84005369013B53615DF8044B704753695DF817
:103D9400044B01335361704743F00403E0E7536974
:103DA4005DF8044B023B5361704753695DF8044B63
:103DB400023353617047137C03F003030029D1D00D
:103DC40043F00403CEE700BF90250020224BD3F834
:103DD400A020D2E90010D3680968006810B4184222
:103DE400946801EA04012ED0137C03F00303D9B9CB
:103DF40043F008039908013B11740D2B0BD8DFE83D
:103E040003F00D071C070A160D0D160A071C070DF3
:103E14005369013B53615DF8044B704753695DF886
:103E2400044B01335361704743F00403E0E75369E3
:103E34005DF8044B023B5361704753695DF8044BD2
:103E4400023353617047137C03F003030029D1D07C
:103E540043F00403CEE700BF90250020224BD3F8A3
:103E6400A420D2E90010D3680968006810B418428D
:103E7400946801EA04012ED0137C03F00303D9B93A
:103E840043F008039908013B11740D2B0BD8DFE8AC
:103E940003F00D071C070A160D0D160A071C070D63
:103EA4005369013B53615DF8044B704753695DF8F6
:103EB400044B01335361704743F00403E0E7536953
:103EC4005DF8044B023B5361704753695DF8044B42
:103ED400023353617047137C03F003030029D1D0EC
:103EE40043F00403CEE700BF90250020224BD3F813
:103EF400A820D2E90010D3680968006810B41842F9
:103F0400946801EA04012ED0137C03F00303D9B9A9
:103F140043F008039908013B11740D2B0BD8DFE81B
:103F240003F00D071C070A160D0D160A071C070DD2
:103F34005369013B53615DF8044B704753695DF865
:103F4400044B01335361704743F00403E0E75369C2
:103F54005DF8044B023B5361704753695DF8044BB1
:103F6400023353617047137C03F003030029D1D05B
:103F740043F00403CEE700BF90250020224BD3F882
:103F8400AC20D2E90010D3680968006810B4184264
:103F9400946801EA04012ED0137C03F00303D9B919
:103FA40043F008039908013B11740D2B0BD8DFE88B
:103FB40003F00D071C070A160D0D160A071C070D42
:103FC4005369013B53615DF8044B704753695DF8D5
:103FD400044B01335361704743F00403E0E7536932
:103FE4005DF8044B023B5361704753695DF8044B21
:103FF400023353617047137C03F003030029D1D0CB
:1040040043F00403CEE700BF90250020214B1A693A
:10401400D2E90010D3680968006810B418429468A3
:1040240001EA04012ED0137C03F00303D9B943F051
:1040340008039908013B11740D2B0BD8DFE803F03A
:104044000D071C070A160D0D160A071C070D5369E8
:10405400013B53615DF8044B704753695DF8044BB1
:1040640001335361704743F00403E0E753695DF89B
:10407400044B023B5361704753695DF8044B0233B0
:1040840053617047137C03F003030029D1D043F03C
:104094000403CEE790250020214B5A69D2E9001091
:1040A400D3680968006810B41842946801EA0401EE
:1040B4002ED0137C03F00303D9B943F00803990805
:1040C400013B11740D2B0BD8DFE803F00D071C071F
:1040D4000A160D0D160A071C070D5369013B53619F
:1040E4005DF8044B704753695DF8044B0133536129
:1040F400704743F00403E0E753695DF8044B023B67
:104104005361704753695DF8044B02335361704740
:10411400137C03F003030029D1D043F00403CEE75A
:1041240090250020214B9A69D2E90010D3680968D0
:10413400006810B41842946801EA04012ED0137C7C
:1041440003F00303D9B943F008039908013B117440
:104154000D2B0BD8DFE803F00D071C070A160D0D15
:10416400160A071C070D5369013B53615DF8044BA4
:10417400704753695DF8044B01335361704743F052
:104184000403E0E753695DF8044B023B5361704755
:1041940053695DF8044B023353617047137C03F099
:1041A40003030029D1D043F00403CEE79025002077
:1041B400214BDA69D2E90010D3680968006810B4A9
:1041C4001842946801EA04012ED0137C03F003031F
:1041D400D9B943F008039908013B11740D2B0BD88E
:1041E400DFE803F00D071C070A160D0D160A071C5D
:1041F400070D5369013B53615DF8044B70475369E4
:104204005DF8044B01335361704743F00403E0E766
:1042140053695DF8044B023B5361704753695DF881
:10422400044B023353617047137C03F003030029EA
:10423400D1D043F00403CEE790250020214B1A6A25
:10424400D2E90010D3680968006810B41842946871
:1042540001EA04012ED0137C03F00303D9B943F01F
:1042640008039908013B11740D2B0BD8DFE803F008
:104274000D071C070A160D0D160A071C070D5369B6
:10428400013B53615DF8044B704753695DF8044B7F
:1042940001335361704743F00403E0E753695DF869
:1042A400044B023B5361704753695DF8044B02337E
:1042B40053617047137C03F003030029D1D043F00A
:1042C4000403CEE790250020214B5A6AD2E900105E
:1042D400D3680968006810B41842946801EA0401BC
:1042E4002ED0137C03F00303D9B943F008039908D3
:1042F400013B11740D2B0BD8DFE803F00D071C07ED
:104304000A160D0D160A071C070D5369013B53616C
:104314005DF8044B704753695DF8044B01335361F6
:10432400704743F00403E0E753695DF8044B023B34
:104334005361704753695DF8044B0233536170470E
:10434400137C03F003030029D1D043F00403CEE728
:1043540090250020214B9A6AD2E90010D36809689D
:10436400006810B41842946801EA04012ED0137C4A
:1043740003F00303D9B943F008039908013B11740E
:104384000D2B0BD8DFE803F00D071C070A160D0DE3
:10439400160A071C070D5369013B53615DF8044B72
:1043A400704753695DF8044B01335361704743F020
:1043B4000403E0E753695DF8044B023B5361704723
:1043C40053695DF8044B023353617047137C03F067
:1043D40003030029D1D043F00403CEE79025002045
:1043E400214BDA6AD2E90010D3680968006810B476
:1043F4001842946801EA04012ED0137C03F00303ED
:10440400D9B943F008039908013B11740D2B0BD85B
:10441400DFE803F00D071C070A160D0D160A071C2A
:10442400070D5369013B53615DF8044B70475369B1
:104434005DF8044B01335361704743F00403E0E734
:1044440053695DF8044B023B5361704753695DF84F
:10445400044B023353617047137C03F003030029B8
:10446400D1D043F00403CEE790250020214B1A68F5
:10447400D2E90010D3680968006810B4184294683F
:1044840001EA04012ED0137C03F00303D9B943F0ED
:1044940008039908013B11740D2B0BD8DFE803F0D6
:1044A4000D071C070A160D0D160A071C070D536984
:1044B400013B53615DF8044B704753695DF8044B4D
:1044C40001335361704743F00403E0E753695DF837
:1044D400044B023B5361704753695DF8044B02334C
:1044E40053617047137C03F003030029D1D043F0D8
:1044F4000403CEE790250020214B5A68D2E900102E
:10450400D3680968006810B41842946801EA040189
:104514002ED0137C03F00303D9B943F008039908A0
:10452400013B11740D2B0BD8DFE803F00D071C07BA
:104534000A160D0D160A071C070D5369013B53613A
:104544005DF8044B704753695DF8044B01335361C4
:10455400704743F00403E0E753695DF8044B023B02
:104564005361704753695DF8044B023353617047DC
:10457400137C03F003030029D1D043F00403CEE7F6
:1045840090250020214B9A68D2E90010D36809686D
:10459400006810B41842946801EA04012ED0137C18
:1045A40003F00303D9B943F008039908013B1174DC
:1045B4000D2B0BD8DFE803F00D071C070A160D0DB1
:1045C400160A071C070D5369013B53615DF8044B40
:1045D400704753695DF8044B01335361704743F0EE
:1045E4000403E0E753695DF8044B023B53617047F1
:1045F40053695DF8044B023353617047137C03F035
:1046040003030029D1D043F00403CEE79025002012
:10461400214BDA68D2E90010D3680968006810B445
:104624001842946801EA04012ED0137C03F00303BA
:10463400D9B943F008039908013B11740D2B0BD829
:10464400DFE803F00D071C070A160D0D160A071CF8
:10465400070D5369013B53615DF8044B704753697F
:104664005DF8044B01335361704743F00403E0E702
:1046740053695DF8044B023B5361704753695DF81D
:10468400044B023353617047137C03F00303002986
:10469400D1D043F00403CEE790250020224BD3F879
:1046A400D820D2E90010D3680968006810B4184211
:1046B400946801EA04012ED0137C03F00303D9B9F2
:1046C40043F008039908013B11740D2B0BD8DFE864
:1046D40003F00D071C070A160D0D160A071C070D1B
:1046E4005369013B53615DF8044B704753695DF8AE
:1046F400044B01335361704743F00403E0E753690B
:104704005DF8044B023B5361704753695DF8044BF9
:10471400023353617047137C03F003030029D1D0A3
:1047240043F00403CEE700BF90250020224BD3F8CA
:10473400B020D2E90010D3680968006810B41842A8
:10474400946801EA04012ED0137C03F00303D9B961
:1047540043F008039908013B11740D2B0BD8DFE8D3
:1047640003F00D071C070A160D0D160A071C070D8A
:104774005369013B53615DF8044B704753695DF81D
:10478400044B01335361704743F00403E0E753697A
:104794005DF8044B023B5361704753695DF8044B69
:1047A400023353617047137C03F003030029D1D013
:1047B40043F00403CEE700BF90250020224BD3F83A
:1047C400B420D2E90010D3680968006810B4184214
:1047D400946801EA04012ED0137C03F00303D9B9D1
:1047E40043F008039908013B11740D2B0BD8DFE843
:1047F40003F00D071C070A160D0D160A071C070DFA
:104804005369013B53615DF8044B704753695DF88C
:10481400044B01335361704743F00403E0E75369E9
:104824005DF8044B023B5361704753695DF8044BD8
:10483400023353617047137C03F003030029D1D082
:1048440043F00403CEE700BF90250020224BD3F8A9
:10485400B820D2E90010D3680968006810B418427F
:10486400946801EA04012ED0137C03F00303D9B940
:1048740043F008039908013B11740D2B0BD8DFE8B2
:1048840003F00D071C070A160D0D160A071C070D69
:104894005369013B53615DF8044B704753695DF8FC
:1048A400044B01335361704743F00403E0E7536959
:1048B4005DF8044B023B5361704753695DF8044B48
:1048C400023353617047137C03F003030029D1D0F2
:1048D40043F00403CEE700BF90250020224BD3F819
:1048E400BC20D2E90010D3680968006810B41842EB
:1048F400946801EA04012ED0137C03F00303D9B9B0
:1049040043F008039908013B11740D2B0BD8DFE821
:1049140003F00D071C070A160D0D160A071C070DD8
:104924005369013B53615DF8044B704753695DF86B
:10493400044B01335361704743F00403E0E75369C8
:104944005DF8044B023B5361704753695DF8044BB7
:10495400023353617047137C03F003030029D1D061
:1049640043F00403CEE700BF90250020224BD3F888
:10497400C020D2E90010D3680968006810B4184256
:10498400946801EA04012ED0137C03F00303D9B91F
:1049940043F008039908013B11740D2B0BD8DFE891
:1049A40003F00D071C070A160D0D160A071C070D48
:1049B4005369013B53615DF8044B704753695DF8DB
:1049C400044B01335361704743F00403E0E7536938
:1049D4005DF8044B023B5361704753695DF8044B27
:1049E400023353617047137C03F003030029D1D0D1
:1049F40043F00403CEE700BF90250020224BD3F8F8
:104A0400C420D2E90010D3680968006810B41842C1
:104A1400946801EA04012ED0137C03F00303D9B98E
:104A240043F008039908013B11740D2B0BD8DFE800
:104A340003F00D071C070A160D0D160A071C070DB7
:104A44005369013B53615DF8044B704753695DF84A
:104A5400044B01335361704743F00403E0E75369A7
:104A64005DF8044B023B5361704753695DF8044B96
:104A7400023353617047137C03F003030029D1D040
:104A840043F00403CEE700BF90250020224BD3F867
:104A9400C820D2E90010D3680968006810B418422D
:104AA400946801EA04012ED0137C03F00303D9B9FE
:104AB40043F008039908013B11740D2B0BD8DFE870
:104AC40003F00D071C070A160D0D160A071C070D27
:104AD4005369013B53615DF8044B704753695DF8BA
:104AE400044B01335361704743F00403E0E7536917
:104AF4005DF8044B023B5361704753695DF8044B06
:104B0400023353617047137C03F003030029D1D0AF
:104B140043F00403CEE700BF90250020224BD3F8D6
:104B2400CC20D2E90010D3680968006810B4184298
:104B3400946801EA04012ED0137C03F00303D9B96D
:104B440043F008039908013B11740D2B0BD8DFE8DF
:104B540003F00D071C070A160D0D160A071C070D96
:104B64005369013B53615DF8044B704753695DF829
:104B7400044B01335361704743F00403E0E7536986
:104B84005DF8044B023B5361704753695DF8044B75
:104B9400023353617047137C03F003030029D1D01F
:104BA40043F00403CEE700BF90250020224BD3F846
:104BB400D020D2E90010D3680968006810B4184204
:104BC400946801EA04012ED0137C03F00303D9B9DD
:104BD40043F008039908013B11740D2B0BD8DFE84F
:104BE40003F00D071C070A160D0D160A071C070D06
:104BF4005369013B53615DF8044B704753695DF899
:104C0400044B01335361704743F00403E0E75369F5
:104C14005DF8044B023B5361704753695DF8044BE4
:104C2400023353617047137C03F003030029D1D08E
:104C340043F00403CEE700BF90250020224BD3F8B5
:104C4400D420D2E90010D3680968006810B418426F
:104C5400946801EA04012ED0137C03F00303D9B94C
:104C640043F008039908013B11740D2B0BD8DFE8BE
:104C740003F00D071C070A160D0D160A071C070D75
:104C84005369013B53615DF8044B704753695DF808
:104C9400044B01335361704743F00403E0E7536965
:104CA4005DF8044B023B5361704753695DF8044B54
:104CB400023353617047137C03F003030029D1D0FE
:104CC40043F00403CEE700BF9025002030B4034630
:104CD4000C684D683020C3E904458C68CD68C3E98D
:104CE40006450C694D69C3E908458C69CD69C3E97A
:104CF4000C450C6A4D6AC3E90E458C6ACD6AC3E95A
:104D0400104530BC704700BF30B40C6803464D6892
:104D14001030826CC0E904458C68CD68C0E9064552
:104D24000C694D69C0E908458C69CD69C0E90C4539
:104D34000C6A4D6AC0E90E458C6ACD6AC3E9144514
:104D440030BC104730B403460C684D684820C3E9B2
:104D540004458C68CD68C3E906450C694D69C3E90F
:104D640008458C69CD69C3E90C450C6A4D6AC3E9F1
:104D74000E458C6ACD6AC3E910450C6B4D6BC3E9D3
:104D840014458C6BCD6BC3E916450C6C4D6CC3E9B3
:104D9400184530BC704700BF6329F0B5044685B0A0
:104DA4000E46104603DD94F8F854002D3FD00368F6
:104DB40004F223211B689847C0F307235FFA86FE99
:104DC4004FF6FF61034446F30726A4F81C12DB43A5
:104DD40084F82262A4F81E0284F82032431C84F86A
:104DE40021E22EDB04F2222204F221234FF0000CF4
:104DF400024401E013F801EF9342F444FAD16FEA5C
:104E04000C0C5FFA8CFC00F1080540F20123221817
:104E14009D4282F823C217D0666804F50770334AAE
:104E240033685B68934205D1294604F0D5FE2846D1
:104E340005B0F0BD01462A4630469847284605B0DD
:104E4400F0BD4FF0FF0CDEE7294A032123688DF8FB
:104E540008101B680192274A274D934203953AD1C3
:104E640004F50A7605F1300EAC4610361035BCE870
:104E74000F00F44546F8100C46F80C1C46F8082CB4
:104E840046F8043CF0D13823DFF874E01B4F04F2F9
:104E9400212203CD306004F25F2071600721C4F841
:104EA40024320023C4E987E701E012F8011F90428D
:104EB4000B44FAD1DB4365680C4A04F5077084F8A7
:104EC40060322B685B6893420AD1452104F084FE6A
:104ED4004FF0FF35ABE701AA072120469847F7E7D3
:104EE4000146452228469847F2E700BF49060000DC
:104EF4006C090020C92B0000BC070020C207000376
:104F0400FFFE3D00000000009FED1F7B10B5244A0A
:104F140082B004460DF1060302600DF1020101AAFC
:104F240080ED027B80ED047B80ED067B1D4802F062
:104F3400B7FABDF90230204605EE103ABDF9043047
:104F440006EE103ABDF90630B8EEC55B07EE103A2E
:104F5400B8EEC66B9FED0E3BB8EEC77B25EE035B48
:104F640026EE036B27EE037B9FED0B4B25EE045BD4
:104F740026EE046B27EE047B84ED025B84ED046B68
:104F840084ED067B02B010BD0000000000000000AC
:104F9400000000000000103F1F85EB51B89E234025
:104FA4003C0900207C2600209FED1F7B10B5244A7D
:104FB40082B004460DF1060302600DF1020101AA5C
:104FC40080ED027B80ED047B80ED067B1D4802F0C2
:104FD400B7FABDF90230204606EE103ABDF90430A6
:104FE40007EE103ABDF90630B8EEC66B02EE103A81
:104FF400B8EEC77B9FED0E3BB8EEC22B86EE035B8B
:1050040087EE036B82EE037B9FED0B4B25EE045B77
:1050140026EE046B27EE047B84ED025B84ED046BC7
:1050240084ED067B02B010BD00000000000000000B
:105034000000000000606040399D52A246DF913FAD
:105044003C090020BC2600209FED1F7B10B5244A9C
:1050540082B004460DF1060302600DF1020101AABB
:1050640080ED027B80ED047B80ED067B1D4802F021
:1050740037FABDF90230204605EE103ABDF9043086
:1050840006EE103ABDF90630B8EEC55B07EE103AED
:10509400B8EEC66B9FED0E3BB8EEC77B25EE035B07
:1050A40026EE036B27EE037B9FED0B4B25EE045B93
:1050B40026EE046B27EE047B84ED025B84ED046B27
:1050C40084ED067B02B010BD00000000000000006B
:1050D400333333333333E33F8DEDB5A0F7C6B03EFE
:1050E4003C090020E82600200B4610B5362800F2C3
:1050F4009782DFE810F08C02820279027002670264
:105104005E0255024C0243023A02310228021F0297
:10511400BF01B601AD01A4019B0192018901800187
:1051240077016E0165015C0153014A0141013801B7
:105134002F0126011D0113010901FF00F500EB00F9
:10514400E100D700CD00C300B900AF00A5009B006B
:10515400910087007D00730069005F0055004B00DB
:1051640041003700C84C0422C8493620C4F8D8305E
:1051740003F0BAF9012010BDC34C0422C449352000
:10518400C4F8D43003F0B0F9012010BDBE4C0422A1
:10519400C0493420C4F8D03003F0A6F9012010BD72
:1051A400B94C0422BC493320C4F8CC3003F09CF938
:1051B400012010BDB44C0422B8493220C4F8C830D0
:1051C40003F092F9012010BDAF4C0422B449312000
:1051D400C4F8C43003F088F9012010BDAA4C04229D
:1051E400B0493020C4F8C03003F07EF9012010BD6E
:1051F400A54C0422AC492F20C4F8BC3003F074F948
:10520400012010BDA04C0422A8492E20C4F8B830B7
:1052140003F06AF9012010BD9B4C0422A4492D20FF
:10522400C4F8B43003F060F9012010BD964C042298
:10523400A0492C20C4F8B03003F056F9012010BD69
:10524400914C04229C492B20C4F8AC3003F04CF957
:10525400012010BD8C4C042298492A20C4F8A8309F
:1052640003F042F9012010BD874C042294492920FF
:10527400C4F8A43003F038F9012010BD824C042294
:1052840090492820C4F8A03003F02EF9012010BD65
:105294007D4C04228C492720C4F89C3003F024F967
:1052A400012010BD784C042288492620C4F8983087
:1052B40003F01AF9012010BD734C042284492520FF
:1052C400C4F8943003F010F9012010BD6E4C042290
:1052D40080492420C4F8903003F006F9012010BD61
:1052E400694C04227C492320C4F88C3003F0FCF878
:1052F400012010BD644C042278492220C4F888306F
:1053040003F0F2F8012010BD5F4C042274492120FF
:10531400C4F8843003F0E8F8012010BD5A4C04228C
:1053240070492020C4F8803003F0DEF8012010BD5D
:10533400554C04226C491F20E36703F0D5F8012083
:1053440010BD514C042269491E20A36703F0CCF818
:10535400012010BD4C4C042265491D20636703F0F5
:10536400C3F8012010BD484C042262491C20236765
:1053740003F0BAF8012010BD434C04225E491B20FF
:10538400E36603F0B1F8012010BD3F4C04225B49F1
:105394001A20A36603F0A8F8012010BD3A4C042299
:1053A40057491920636603F09FF8012010BD364C5D
:1053B400042254491820236603F096F8012010BDF6
:1053C400314C042250491720E36503F08DF8012085
:1053D40010BD2D4C04224D491620A36503F084F81A
:1053E400012010BD284C042249491520636503F0AF
:1053F4007BF8012010BD244C042246491420236567
:1054040003F072F8012010BD1F4C042242491320FE
:10541400E36403F069F8012010BD1B4C04223F49EA
:105424001220A36403F060F8012010BD164C04227E
:105434003B491120636403F057F8012010BD124C5E
:10544400042238491020236403F04EF8012010BDD3
:105454000D4C042234490F20E36303F045F8012086
:1054640010BD094C042231490E20A36303F03CF81B
:10547400012010BD044C04222D490D20636303F068
:1054840033F8012010BD00BF90250020CD2400007A
:105494006D2A0000DD2900004D290000BD28000010
:1054A4002D2800009D2700000D2700007D26000008
:1054B400ED2500005D250000AD1D00001D1D000050
:1054C4008D1C0000FD1B00006D1B0000DD1A000098
:1054D4004D1A0000BD1900002D1900009D18000090
:1054E4000D1800007D170000F1160000651600007D
:1054F400D91500004D150000C1140000351400003A
:10550400A91300001D1300009112000005120000F1
:1055140079110000ED10000061100000D50F0000AB
:10552400490F0000BD0E0000310E0000A50D000063
:10553400190D00003B4C04223B490C20236302F06C
:10554400D3FF012010BD374C042238490B20E362FD
:1055540002F0CAFF012010BD324C042234490A2053
:10556400A36202F0C1FF012010BD2E4C0422314978
:105574000920636202F0B8FF012010BD294C042207
:105584002D490820236202F0AFFF012010BD254CF5
:1055940004222A490720E36102F0A6FF012010BD7E
:1055A400204C042226490620A36102F09DFF01201D
:1055B40010BD1C4C042223490520636102F094FFB2
:1055C400012010BD0422174C1F491046236102F02C
:1055D4008BFF012010BD134C04221C490320E360FF
:1055E40002F082FF012010BD0E4C04221849022053
:1055F400A36002F079FF012010BD0446094804228B
:1056040014494360012002F06FFF204610BD054C91
:10561400042211490020236002F066FF012010BD1E
:10562400002010BD902500208D0C000011220000E8
:1056340085210000F92000006D200000E11F00001A
:10564400551F0000C91E00003D1E0000412400003B
:10565400B5230000292300009D2200002DE9F0411C
:1056640082B004460F4616469DF820C01D46BCF184
:10567400000F01D017460E460221384602F0FAFE0A
:105684000221304602F0F6FE25493B012548DFF8A9
:105694009CC051F8038001EB07132560D3F80CE09C
:1056A40001EB0613C4F80C80C4F814E0DA68330183
:1056B400C9580023A26123621B4B45681B68216102
:1056C400ACFB033C4FF4FA634FEA9C4C03FB0CFC29
:1056D40043685B1B9C45FBD8D8F800303846096802
:1056E4001EEA030F14BF012300230A4204F10C0134
:1056F40018BF43F0020301912377FFF7F5FC03463B
:105704000199304684F82430FFF7EEFC94F8242005
:1057140003462046134484F8243002B0BDE8F081E7
:10572400380A0020001000E0B414002083DE1B437C
:105734002DE9F04FC44AC54BC54CD2ED000A93ED98
:10574400000AC44994ED001A2DED048B8DB008A80D
:1057540002F0E0F8C04B93F82420012A40F2C38100
:1057640072B61A6A62B69D689A60521BBB49D3ED41
:10577400006A07EE902A5D680868B8EEE66BB8EE3A
:10578400E77BB74A5860401B92F8243087EE065BEB
:1057940007EE900A012BB8EE677B9FEDA54B87EED1
:1057A400046B85EE068BBDEEC88B40F2898172B620
:1057B400136A62B65568086892ED005A5060401B3F
:1057C400B8EEC55B07EE900A906893601B1AB8EEBA
:1057D400676B07EE103AA34BB8EEC77B93F824200F
:1057E4009FED933B012A86EE034B87EE056B86EE15
:1057F400047BFDEEC78B40F24F8172B61D6A62B620
:10580400994A58680E68039092F82400D3F80880E7
:10581400012893ED009A5E609D6040F2F28072B6BA
:10582400D2F820B062B6DDED087AF8EEC80A0F6847
:10583400B8EEE70A8D48D2F80490D2F808A0D2ED69
:10584400009A5760C2F808B002F00AFBFDEEC07B74
:10585400874817EE901A02F0A9FADDED097A854817
:10586400F8EEE80AB8EEE70A02F0FAFAFDEEC07BB9
:10587400814817EE901A02F099FA76480278023AB3
:10588400012A40F2A680ABEB0A0BA7EB0903B8EEA2
:10589400E95BA5EB080507EE90BA06EE903A039B88
:1058A40004EE905AB8EEE77B18EE902AF61AB8EE9A
:1058B400666BB8EEE44B18EE101A87EE052B07EE74
:1058C400906AB8EEC99BB8EE677B9FED593B84EEB6
:1058D400091B86EE030B87EE035B82EE007B81EEF1
:1058E400056BBDEEC77B8DED007AFDEEC67B17EE32
:1058F400903A02F059F88DED050ACDED060A8DEDCA
:10590400071A5E495E4F5F4D059C0698079A6C60C6
:10591400A860EA60D1E902131E683668BE4240F00E
:105924000B8163294CDC250A83F8234283F8270280
:1059340083F82452250C240E83F82B2283F8255255
:1059440083F82642040A504D83F82842040C000EC2
:10595400C3F81C5283F82942140A83F82A02100C53
:1059640083F82C42120EF32483F82D02C8B241F3BB
:10597400072183F82E2203F2212283F82212002128
:1059840083F8204203F22E2483F8210201E012F866
:10599400010F94420144FAD1C9435C6803F50770CE
:1059A4003A4A83F82F1223685B68934240F0DD8102
:1059B40014210DB0BDEC048BBDE8F04F04F00CB91C
:1059C40093F8F854002DAED10DB0BDEC048BBDE8B6
:1059D400F08F94ED009A9FED186BB7EEC97AB4EE90
:1059E400C67BF1EE10FA00F191809FED156BB4EED9
:1059F400C67BF1EE10FA40F3578100219FED249A03
:105A040087E072B6D3685769186813693840976994
:105A14001B683B4200F01C81137F03F0030308B1B1
:105A240043F0040343F0080318E100BFAFF3008020
:105A340000000000004CED408FC2F5285C8FDABFF7
:105A44008FC2F5285C8FDA3FB8260020B4260020E8
:105A5400B0260020CC2600200C270020D02D0020CA
:105A64004827002084270020C0270020081D00208C
:105A7400F8260020381D002034270020642D002043
:105A8400C92B0000542D0020FFFE0C004906000025
:105A9400E17AD43EE17AD4BE72B6D8685A69006815
:105AA40010401A6915689A69154200F0A5801A7F9A
:105AB40002F0030208B142F0040242F00802A1E03D
:105AC40072B6D06853690068184013691D689369F9
:105AD4001D4265D0137F03F0030308B143F00403B0
:105AE40043F0080362E072B6D3E903105A69096807
:105AF400006811409A69104227D01A7F02F003020D
:105B040009B142F0040242F0080224E0B4211FED7E
:105B14001F9A9D4802F0A2F8B0EE490A18EE902AA6
:105B240018EE101A994801F013FF8DED050ACDED1A
:105B3400060A8DED071AE4E618462A4633460DB0E8
:105B4400BDEC048BBDE8F04F18471A7F02F0030246
:105B540009B142F004029108013A19770D2A3FF67F
:105B640000AE01A151F822F0273B00001F3B0000CA
:105B7400933B00001F3B0000933500008B3B00006B
:105B8400273B0000273B00008B3B000093350000BF
:105B94001F3B0000933B00001F3B0000273B00001D
:105BA400137F03F0030308B143F004039808013B97
:105BB40010770D2B3FF6FCAD01A050F823F000BF89
:105BC400373B00002F3B00005F3B00002F3B0000F1
:105BD400E1350000573B0000373B0000373B000035
:105BE400573B0000E13500002F3B00005F3B000005
:105BF4002F3B0000373B00001A7F02F0030208B17C
:105C040042F004029008013A1D6A18770D2A3FF603
:105C1400F6AD01A050F822F0193B0000133B000040
:105C2400853B0000133B00002F3600007F3B000043
:105C3400193B0000193B00007F3B00002F36000099
:105C4400133B0000853B0000133B0000193B0000A0
:105C5400137F03F0030308B143F004039808013BE6
:105C640010770D2B3FF6DCAD01A050F823F000BFF8
:105C74004B3B00003F3B0000733B00003F3B0000F8
:105C840051360000673B00004B3B00004B3B0000DB
:105C9400673B0000513600003F3B0000733B0000AF
:105CA4003F3B00004B3B0000DFED397A9FED397A32
:105CB40079EE277A9FED385ADFED385A67EE877A06
:105CC4009FED2F6B87EE857A37EE257AB7EEC77A8C
:105CD40027EE067BB7EEC77BFDEEC77A17EE901A68
:105CE40017E7013D1D628AE501351D6287E51A6AE1
:105CF400013A1A6236E51A6A01321A6232E5136A07
:105D0400013B136255E5136A0133136251E5136ACB
:105D140003F1FF3BC2F820B084E5136A03F1010BE1
:105D2400C2F820B07EE5136A023B136241E5136AB0
:105D3400023313623DE5136AA3F1020BC2F820B0EB
:105D440070E5136A03F1020BC2F820B06AE5023D64
:105D54001D6254E502351D6251E51A6A023A1A625F
:105D640000E51A6A02321A62FCE401461422204653
:105D74000DB0BDEC048BBDE8F04F1847AFF30080C5
:105D8400F8C1631ADCA54C40C42D0020CC260020A9
:105D9400E17AD43EDB0F49C0E17A543FDB0F49403E
:105DA400F0B589B06E4D6F4E6846FFF7ADF86846A2
:105DB400DDE90223C5E90423DDE90423C5E906235B
:105DC400DDE90623C5E90823FFF7EEF86846DDE9B7
:105DD4000223C5E90C23DDE90423C5E90E23DDE92B
:105DE4000623C5E91023FFF72FF95F4BD3E90274AB
:105DF400DDE902012368C5E914011B68DDE904013A
:105E0400B342C5E91601DDE90601C5E9180149D126
:105E1400632F41DC04F223215148FCF73FFFC0F318
:105E240007235FFA87FE47F307270344A4F81E02FB
:105E340084F82272DB4384F821E284F820324FF69E
:105E4400FF63A4F81C32431C3ADB04F2222204F25E
:105E540021234FF0000C024401E013F801EF9342B8
:105E6400F444FAD16FEA0C0C5FFA8CFC231800F1AD
:105E7400080183F823C240F20123994223D06568C4
:105E840004F50770394A2B685B68934211D109B055
:105E9400BDE8F04003F0A0BE94F8F834002BB9D16B
:105EA40009B0F0BD2A463946204609B0BDE8F040A5
:105EB40018470A460146284609B0BDE8F04018478D
:105EC4004FF0FF0CD2E70323294A2A4D8DF8043002
:105ED400009223681B680295B34237D104F50A7611
:105EE40005F1300C2F46103610350FCF674546F8B4
:105EF400100C46F80C1C46F8082C46F8043CF1D16A
:105F04003823DFF878C01C4F04F2212203CD30601F
:105F140004F25F2071600721C4F824320023C4E92D
:105F240087C701E012F8011F90420B44FAD1DB430A
:105F340065680E4A04F5077084F860322B685B6864
:105F4400934208D1452103F047FEA9E76A46072199
:105F540020469847A4E701464522284698479FE7EC
:105F6400C81D0020C92B0000402D00204906000058
:105F74006C090020BC070020C2070003FFFE3D009F
:105F840030B5002385B01E4904461E4A0393CDE96B
:105F9400011301680D68954228D11B4840F6F7218A
:105FA40004F22122C4F82432A4F8283284F82A32D4
:105FB400C4E9870104F22A200A2101E012F8011F32
:105FC40082420B44FAD1DB436568104A04F507703A
:105FD40084F82B322B685B6893420BD1102103F0B9
:105FE400FBFD0B4B1B68E36005B030BD01AA0A2121
:105FF400A847F6E70146102228469847F1E700BF74
:10600400E0090020C92B0000FFFE0800490600003B
:10601400D02D00202DE9F04FAA4B8BB0AA490022C5
:10602400044600F5836600F27C45A84FDFF8A89289
:10603400DFF8A882069304910793CDE9083256F855
:10604400043F002B64D01A68D3E901010368ADF85A
:10605400141006929B689847336807905868036841
:10606400DB68984723684FF4007132681B68D2F8E4
:1060740010A0BB420890099140F0C680BAF1630FAA
:1060840003DD94F8F834002B42D004F2232104A851
:10609400FCF776FB4FF6FF635FFA8AFC421CA4F818
:1060A4001C32C0F307234AF3072A84F821C20344AD
:1060B400A4F81E0284F822A26FEA030384F82032B3
:1060C400C0F2B38004F2222104F22123002201440D
:1060D40001E013F801CF8B426244FAD1D243D3B228
:1060E40000F1080140F2012204EB000C91428CF80B
:1060F400233200F09C80D4F804C004F50770744A7D
:10610400DCF800305B68934240F0838003F064FD68
:10611400B54294D104F59C666C4FDFF8BC91DFF86E
:10612400BC8155F8040F002861D00368D0E901123E
:106134009B68ADF81410069298472B6807901A686C
:106144001846D36898472B6808904FF400711A6872
:10615400184623680991D3F800B053689847BB45A3
:1061640082464CD1632803DD94F8F834002B3ED0EA
:1061740004F2232104A8FCF703FB4FF6FF635FFA44
:106184008AFC4AF3072AA4F81C32C0F30723014609
:1061940084F821C20344A4F81E0284F822A2DB433B
:1061A40084F82032431C3EDB04F2222004F2212333
:1061B4000022084401E013F801CF98426244FAD166
:1061C400D243D3B2601840F20122083180F823325E
:1061D400914200F08780D4F804C004F507703C4A6B
:1061E400DCF800305B68934218D103F0F5FCB5424B
:1061F40097D1012384F8F8340BB0BDE8F08F014641
:1062040004AA2046D847F2E704AA514620469847F4
:106214007EE70A4601466046984779E70A46014602
:1062240060469847E3E7FF23CCE7FF2358E70323BF
:10623400CDF804908DF808302368D3F800A0254BDE
:10624400BA45039340F097809C4604F50A7E03F117
:10625400300BE2460EF1100E0CF1100CBAE80F00F0
:10626400DA454EF8100C4EF80C1C4EF8082C4EF87B
:10627400043CEED13823DFF868A004F22122BCE804
:106284000300CEF8000004F25F20CEF804100721CA
:10629400C4F81C82C4E988A3002301E012F8011F9A
:1062A40082420B44FAD1DB436268094804F5077162
:1062B40084F8603213685B68834266D108464521DE
:1062C40024E700BFEC0D002084090020C92B000046
:1062D40049060000BC0700206C090020FFFE3D00B9
:1062E400C20700030323CDF804908DF80830236817
:1062F400D3F800A0294BBA45039341D19C4604F539
:106304000A7E03F1300BE2460EF1100E0CF1100C74
:10631400BAE80F00DA454EF8100C4EF80C1C4EF893
:10632400082C4EF8043CEED13823DFF878A004F2B0
:106334002122BCE80300CEF8000004F25F20CEF86E
:1063440004100721C4F81C82C4E988A3002301E0D7
:1063540012F8011F82420B44FAD1DB4362681048F1
:1063640004F5077184F8603213685B68834210D1C6
:106374000846452139E701AA07212046D047C7E648
:1063840001AA07212046D04731E710464522984705
:10639400BEE610464522984729E700BFBC07002007
:1063A40049060000C20700032DE9F047B94F42F641
:1063B400F822D0F8003584B03E680446F31A9342BC
:1063C40002D9002380F8F834D4F8E43423B1D4F8A3
:1063D4000435B342C0F00C81AF4DDFF8D882DFF84A
:1063E400D892A36923B13A68921B9342C0F0048106
:1063F400606803685B69AB4240F0DB8003F0C6FB76
:106404000028C0F2DA80D4F8F434D4F8E424034445
:10641400072AC4F8F43400F0BC80082AE1D801A1AA
:1064240051F822F0A143000027430000114300006B
:10643400FD420000EB420000DB420000B9420000D4
:106444001342000079420000944A00211A40C4F823
:10645400E414FF2AC5D1D4F8EC34002B00F0628197
:106464000A2B00F0CE80062B00F043810B2B00F0AA
:10647400F180BC3354F823000028B2D0036804F13F
:106484001C011B689847ACE7D4F8EC34072203EBF3
:106494000023C4F8E424D4F8E824C4F8EC34002A33
:1064A4009FD10823C4F8E4349BE70623C4F8EC0422
:1064B400C4F8F404C4F8E43493E7784A1A40FF2A91
:1064C4000CBF05230023C4F8E4348AE7D4F8E83485
:1064D400042203EB0023C4F8E424C4F8E83480E77E
:1064E40000220323C4F8E804C4F8F404C4F8F02434
:1064F400C4F8E43475E7FE2876D00023C4F8E43405
:1065040094F8F834002B7FF46CAF2268D2F800A022
:10651400634A0192634A9245CDE9023340F0F38025
:10652400614940F6F72204F22A20C4F82432A4F880
:10653400283284F82A32C4E9871204F221220A217B
:1065440001E012F8011F82420B44FAD1DB43626876
:10655400564904F5077084F82B3213685B688B4244
:1065640040F0D680102103F037FB3B68E36038E746
:10657400FF2831D03B6841F288329B1B93427FF65F
:1065840030AF00236FF0010084F8F83404B0BDE8A4
:10659400F087D4F8F0345A1C2344C4F8F024187754
:1065A400D4F8E834013BC4F8E834002B7FF419AF85
:1065B40077E798470028BFF626AF94F8F804002838
:1065C400E4D0D4F8FC3440F6C412F31A934244D80D
:1065D400002004B0BDE8F0870123C4F8E43406F1D8
:1065E4001403C4F80435FCE60223C4F8E434F8E6E2
:1065F4000023C4F8E434EFE66FF0010004B0BDE812
:10660400F087E2684FF47A7C39683B68891AA8FB02
:106614000320E269A2EB90128009013A0CFB1033CB
:10662400A8FB01E002EB901280092261204A0CFBD6
:106634001011206A02FB1393034404F1100002FBBF
:106644000133214641F8143F00F0CAFE3B68C4F808
:106654000035C6E684F8F814C3E62268002310491E
:106664001568104A01919542CDE9023355D10E4A7D
:1066740004F22A200A21C4F82432C4F81C2240F669
:10668400F722A4F82832C4F8202204F2212284F844
:106694002A3215E0D02D002031040000FF000080D4
:1066A400E0090020C92B0000FFFE08004906000095
:1066B40040420F00D34D621000CA9A3B12F8011FEA
:1066C40082420B44FAD1DB4362681F4904F5077028
:1066D40084F82B3213685B688B4230D1102103F0AD
:1066E4007BFA3B680020C4F8FC64E36004B0BDE8B6
:1066F400F08704F11C0104F20C50FCF7C1F80123EB
:1067040084F808356DE601AA0A212046D0472CE713
:10671400014610461022984727E701AA0A2120467D
:10672400A847DEE72046FFF72BFC2046FFF772FC64
:106734004FF0FF30C4F8FC64C4F8006526E7014656
:10674400104610229847CCE7490600002DE9F8438B
:106754005C4D40F2EE285C4C5C4FDFF8A0912E6853
:1067640003F0B8FA2378002B00F096803B78DB071F
:1067740040F192802B68D9F800209B1A0E2B40F22E
:106784008B80534C00234FF4614004F27C42C4F8E4
:10679400E434C4F8E8341146C4F8F034C4F8EC34F2
:1067A400A06002E00133192B0AD051F8040F00282D
:1067B400F8D1484903F59070643344F820104B60D5
:1067C400002302E00133192B0AD052F8041F0029D8
:1067D400F8D1414A03F59071643344F821205360A1
:1067E4003E4A0023114602E00133192B0BD051F825
:1067F400040F0028F8D13A4904EB83007D33C0F834
:106804001C14C1E90234002302E00133192B0BD01C
:1068140052F8041F0029F8D1324A04EB83017D3376
:10682400C1F81C24C2E9023494F8F8343BB9284D69
:106834002846FFF7B9FD94F8F834002BF8D02A4A1B
:1068440007272A4B0025DFF8B8C0294EC4E987235F
:106854001923C4F82432BCE80F000FC69CE80700D3
:1068640003C6334603F81F2901E013F8017FB3423E
:106874003D44FAD1ED4360681E4A84F841520368EE
:106884005B68934216D126211B4803F0A5F9012029
:10689400BDE8F84301F070BD2B6822789B1B32B130
:1068A400B3F5FA6F3FF66DAF03F014FA58E74345BA
:1068B400FAD966E72622104998470120BDE8F84333
:1068C40001F05ABDD02D0020FF2D0020FE2D002008
:1068D400E82700201C2D0020A01C0020002C0020F4
:1068E400642D0020402D0020FFFE1E00E107000162
:1068F400102A002049060000042A0020E02D002070
:10690400CC0E00202DE9F047554C564D23682A68DB
:106914009B1A312B62D8544A236812689B1AB3F528
:10692400C87F06D3002351485149524A03600B6083
:106934001360514D23682A689B1A312B06D94F4F97
:106944003E7886B1FFF72CFA23682B604C4A236803
:1069540011685B1AC72B01D9236813604948FFF7F4
:1069640023FDBDE8F087484805F022F9474800F0C8
:1069740051FD464800F072FD002834D00123444AFA
:10698400B646404E43493B7006F50A78424B06F240
:10699400212CC6F81C220F2206F236290727C6E945
:1069A40088120FCBA8E8070028F8023B1B0C88F8D4
:1069B400003001E01CF8017FE145BE44FAD16FEAE2
:1069C4000E037068354A86F8373203685B68934271
:1069D4003DD11C21324803F0FFF8B5E7FEF7A8FECD
:1069E40023682B6097E7274E84462E4A4FF007080A
:1069F4002D4B06F50A79387006F2212E2B4F06F23C
:106A04005B2AC6E987233423C6F824320FCFA9E8CA
:106A14000F000FCFA9E80F000FCFA9E80F003B68C4
:106A2400C9F8003001E01EF8018FF245C444FAD1E0
:106A34006FEA0C0C7068194A86F85CC203685B68DC
:106A4400934208D14121164803F0C6F87CE71C2282
:106A54001349984778E741221149984774E700BFE2
:106A6400D02D002074260020AC260020B42600205F
:106A7400B8260020B02600206C260020F42D00202B
:106A840070260020E8270020742100207C260020A6
:106A9400FFFE1400EB070001A80D002049060000CA
:106AA400042A0020FFFE3900C6070004B80D0020A8
:106AB4002DE9F04FAC4800240127AC4D6426DFF8E3
:106AC4004CB3DFF84CA3DFF84C93DFF84C832DED87
:106AD400068B83B09FEDA68A00F098FCA54800F0D1
:106AE40095FCA54800F092FC4FF448630F220E2158
:106AF4000094A248FEF7B2FD4FF448630B220C2128
:106B040000949F48FEF7AAFD4FF448631022112118
:106B140000949C48FEF7A2FD4FF448630A22092121
:106B240000949948FEF79AFD984801F03FF82146F1
:106B3400142316220097964801F0F6F8082106233C
:106B4400052200912146934801F0EEF821461723CF
:106B540016220094904801F0E7F803219FED8FAAD4
:106B64000223DFED8F9A04229FED8E9ADFED8E8A49
:106B7400009121468D4801F0D7F8B0EE4A2AF0EE94
:106B8400481A8B48B0EE691AF0EE490AB0EE680A6A
:106B940001F05AF9B0EE4A2AF0EE481A8548B0EEF0
:106BA400691AF0EE490AB0EE680A01F04DF9B0EE48
:106BB4004A2AF0EE481A8048B0EE691AF0EE490A03
:106BC400B0EE680A01F040F9B0EE4A2AF0EE481A35
:106BD4007A48B0EE691AF0EE490AB0EE680A01F09C
:106BE40033F9F0EE480A9FED761A21469FED750AB7
:106BF4006422754800F0FCFD744B21464FF400728A
:106C04002B6005F11C00724B6B604FF46143C5E9C6
:106C14000344AB60C5E9054404F012FD21464FF47A
:106C2400007205F5077004F00BFD3246214605F2AB
:106C34001C4004F005FD3246214605F5906004F041
